{
	"contracts/Patient.sol": {
		"Patient": {
			"abi": [
				{
					"inputs": [
						{
							"components": [
								{
									"internalType": "address",
									"name": "patientAddress",
									"type": "address"
								},
								{
									"internalType": "string",
									"name": "firstName",
									"type": "string"
								},
								{
									"internalType": "string",
									"name": "lastName",
									"type": "string"
								},
								{
									"internalType": "uint256",
									"name": "age",
									"type": "uint256"
								}
							],
							"internalType": "struct Patient.PatientDetails",
							"name": "patient",
							"type": "tuple"
						}
					],
					"name": "readPatient",
					"outputs": [
						{
							"internalType": "address",
							"name": "",
							"type": "address"
						},
						{
							"internalType": "string",
							"name": "",
							"type": "string"
						},
						{
							"internalType": "string",
							"name": "",
							"type": "string"
						},
						{
							"internalType": "uint256",
							"name": "",
							"type": "uint256"
						}
					],
					"stateMutability": "view",
					"type": "function"
				}
			],
			"devdoc": {
				"kind": "dev",
				"methods": {},
				"version": 1
			},
			"evm": {
				"assembly": "    /* \"contracts/Patient.sol\":25:632  library Patient {... */\n  dataSize(sub_0)\n  dataOffset(sub_0)\n  0x0b\n  dup3\n  dup3\n  dup3\n  codecopy\n  dup1\n  mload\n  0x00\n  byte\n  0x73\n  eq\n  tag_1\n  jumpi\n  mstore(0x00, 0x4e487b7100000000000000000000000000000000000000000000000000000000)\n  mstore(0x04, 0x00)\n  revert(0x00, 0x24)\ntag_1:\n  mstore(0x00, address)\n  0x73\n  dup2\n  mstore8\n  dup3\n  dup2\n  return\nstop\n\nsub_0: assembly {\n        /* \"contracts/Patient.sol\":25:632  library Patient {... */\n      eq(address, deployTimeAddress())\n      mstore(0x40, 0x80)\n      jumpi(tag_1, lt(calldatasize, 0x04))\n      shr(0xe0, calldataload(0x00))\n      dup1\n      0x26f5b3cd\n      eq\n      tag_2\n      jumpi\n      dup1\n      0xdc500921\n      eq\n      tag_3\n      jumpi\n    tag_1:\n      0x00\n      dup1\n      revert\n        /* \"contracts/Patient.sol\":414:630  function readPatient(PatientDetails memory patient) public view returns (address, string memory, string memory, uint) {... */\n    tag_2:\n      tag_4\n      0x04\n      dup1\n      calldatasize\n      sub\n      dup2\n      add\n      swap1\n      tag_5\n      swap2\n      swap1\n      tag_6\n      jump\t// in\n    tag_5:\n      tag_7\n      jump\t// in\n    tag_4:\n      mload(0x40)\n      tag_8\n      swap5\n      swap4\n      swap3\n      swap2\n      swap1\n      tag_9\n      jump\t// in\n    tag_8:\n      mload(0x40)\n      dup1\n      swap2\n      sub\n      swap1\n      return\n        /* \"contracts/Patient.sol\":183:408  function createPatient(address patientAddress, string memory firstName, string memory lastName, uint age) public returns (PatientDetails memory) {... */\n    tag_3:\n      dup2\n      dup1\n      iszero\n      tag_10\n      jumpi\n      0x00\n      dup1\n      revert\n    tag_10:\n      pop\n      tag_11\n      0x04\n      dup1\n      calldatasize\n      sub\n      dup2\n      add\n      swap1\n      tag_12\n      swap2\n      swap1\n      tag_13\n      jump\t// in\n    tag_12:\n      tag_14\n      jump\t// in\n    tag_11:\n      mload(0x40)\n      tag_15\n      swap2\n      swap1\n      tag_16\n      jump\t// in\n    tag_15:\n      mload(0x40)\n      dup1\n      swap2\n      sub\n      swap1\n      return\n        /* \"contracts/Patient.sol\":414:630  function readPatient(PatientDetails memory patient) public view returns (address, string memory, string memory, uint) {... */\n    tag_7:\n        /* \"contracts/Patient.sol\":487:494  address */\n      0x00\n        /* \"contracts/Patient.sol\":496:509  string memory */\n      0x60\n        /* \"contracts/Patient.sol\":511:524  string memory */\n      dup1\n        /* \"contracts/Patient.sol\":526:530  uint */\n      0x00\n        /* \"contracts/Patient.sol\":550:557  patient */\n      dup5\n        /* \"contracts/Patient.sol\":550:572  patient.patientAddress */\n      0x00\n      add\n      mload\n        /* \"contracts/Patient.sol\":574:581  patient */\n      dup6\n        /* \"contracts/Patient.sol\":574:591  patient.firstName */\n      0x20\n      add\n      mload\n        /* \"contracts/Patient.sol\":593:600  patient */\n      dup7\n        /* \"contracts/Patient.sol\":593:609  patient.lastName */\n      0x40\n      add\n      mload\n        /* \"contracts/Patient.sol\":611:618  patient */\n      dup8\n        /* \"contracts/Patient.sol\":611:622  patient.age */\n      0x60\n      add\n      mload\n        /* \"contracts/Patient.sol\":542:623  return (patient.patientAddress, patient.firstName, patient.lastName, patient.age) */\n      swap4\n      pop\n      swap4\n      pop\n      swap4\n      pop\n      swap4\n      pop\n        /* \"contracts/Patient.sol\":414:630  function readPatient(PatientDetails memory patient) public view returns (address, string memory, string memory, uint) {... */\n      swap2\n      swap4\n      pop\n      swap2\n      swap4\n      jump\t// out\n        /* \"contracts/Patient.sol\":183:408  function createPatient(address patientAddress, string memory firstName, string memory lastName, uint age) public returns (PatientDetails memory) {... */\n    tag_14:\n        /* \"contracts/Patient.sol\":305:326  PatientDetails memory */\n      tag_18\n      tag_19\n      jump\t// in\n    tag_18:\n        /* \"contracts/Patient.sol\":345:401  PatientDetails(patientAddress, firstName, lastName, age) */\n      mload(0x40)\n      dup1\n      0x80\n      add\n      0x40\n      mstore\n      dup1\n        /* \"contracts/Patient.sol\":360:374  patientAddress */\n      dup7\n        /* \"contracts/Patient.sol\":345:401  PatientDetails(patientAddress, firstName, lastName, age) */\n      0xffffffffffffffffffffffffffffffffffffffff\n      and\n      dup2\n      mstore\n      0x20\n      add\n        /* \"contracts/Patient.sol\":376:385  firstName */\n      dup6\n        /* \"contracts/Patient.sol\":345:401  PatientDetails(patientAddress, firstName, lastName, age) */\n      dup2\n      mstore\n      0x20\n      add\n        /* \"contracts/Patient.sol\":387:395  lastName */\n      dup5\n        /* \"contracts/Patient.sol\":345:401  PatientDetails(patientAddress, firstName, lastName, age) */\n      dup2\n      mstore\n      0x20\n      add\n        /* \"contracts/Patient.sol\":397:400  age */\n      dup4\n        /* \"contracts/Patient.sol\":345:401  PatientDetails(patientAddress, firstName, lastName, age) */\n      dup2\n      mstore\n      pop\n        /* \"contracts/Patient.sol\":338:401  return PatientDetails(patientAddress, firstName, lastName, age) */\n      swap1\n      pop\n        /* \"contracts/Patient.sol\":183:408  function createPatient(address patientAddress, string memory firstName, string memory lastName, uint age) public returns (PatientDetails memory) {... */\n      swap5\n      swap4\n      pop\n      pop\n      pop\n      pop\n      jump\t// out\n    tag_19:\n      mload(0x40)\n      dup1\n      0x80\n      add\n      0x40\n      mstore\n      dup1\n      and(0xffffffffffffffffffffffffffffffffffffffff, 0x00)\n      dup2\n      mstore\n      0x20\n      add\n      0x60\n      dup2\n      mstore\n      0x20\n      add\n      0x60\n      dup2\n      mstore\n      0x20\n      add\n      0x00\n      dup2\n      mstore\n      pop\n      swap1\n      jump\t// out\n        /* \"#utility.yul\":7:419   */\n    tag_22:\n        /* \"#utility.yul\":85:90   */\n      0x00\n        /* \"#utility.yul\":110:176   */\n      tag_24\n        /* \"#utility.yul\":126:175   */\n      tag_25\n        /* \"#utility.yul\":168:174   */\n      dup5\n        /* \"#utility.yul\":126:175   */\n      tag_26\n      jump\t// in\n    tag_25:\n        /* \"#utility.yul\":110:176   */\n      tag_27\n      jump\t// in\n    tag_24:\n        /* \"#utility.yul\":101:176   */\n      swap1\n      pop\n        /* \"#utility.yul\":199:205   */\n      dup3\n        /* \"#utility.yul\":192:197   */\n      dup2\n        /* \"#utility.yul\":185:206   */\n      mstore\n        /* \"#utility.yul\":237:241   */\n      0x20\n        /* \"#utility.yul\":230:235   */\n      dup2\n        /* \"#utility.yul\":226:242   */\n      add\n        /* \"#utility.yul\":275:278   */\n      dup5\n        /* \"#utility.yul\":266:272   */\n      dup5\n        /* \"#utility.yul\":261:264   */\n      dup5\n        /* \"#utility.yul\":257:273   */\n      add\n        /* \"#utility.yul\":254:279   */\n      gt\n        /* \"#utility.yul\":251:363   */\n      iszero\n      tag_28\n      jumpi\n        /* \"#utility.yul\":282:361   */\n      tag_29\n      tag_30\n      jump\t// in\n    tag_29:\n        /* \"#utility.yul\":251:363   */\n    tag_28:\n        /* \"#utility.yul\":372:413   */\n      tag_31\n        /* \"#utility.yul\":406:412   */\n      dup5\n        /* \"#utility.yul\":401:404   */\n      dup3\n        /* \"#utility.yul\":396:399   */\n      dup6\n        /* \"#utility.yul\":372:413   */\n      tag_32\n      jump\t// in\n    tag_31:\n        /* \"#utility.yul\":91:419   */\n      pop\n        /* \"#utility.yul\":7:419   */\n      swap4\n      swap3\n      pop\n      pop\n      pop\n      jump\t// out\n        /* \"#utility.yul\":425:564   */\n    tag_33:\n        /* \"#utility.yul\":471:476   */\n      0x00\n        /* \"#utility.yul\":509:515   */\n      dup2\n        /* \"#utility.yul\":496:516   */\n      calldataload\n        /* \"#utility.yul\":487:516   */\n      swap1\n      pop\n        /* \"#utility.yul\":525:558   */\n      tag_35\n        /* \"#utility.yul\":552:557   */\n      dup2\n        /* \"#utility.yul\":525:558   */\n      tag_36\n      jump\t// in\n    tag_35:\n        /* \"#utility.yul\":425:564   */\n      swap3\n      swap2\n      pop\n      pop\n      jump\t// out\n        /* \"#utility.yul\":584:924   */\n    tag_37:\n        /* \"#utility.yul\":640:645   */\n      0x00\n        /* \"#utility.yul\":689:692   */\n      dup3\n        /* \"#utility.yul\":682:686   */\n      0x1f\n        /* \"#utility.yul\":674:680   */\n      dup4\n        /* \"#utility.yul\":670:687   */\n      add\n        /* \"#utility.yul\":666:693   */\n      slt\n        /* \"#utility.yul\":656:778   */\n      tag_39\n      jumpi\n        /* \"#utility.yul\":697:776   */\n      tag_40\n      tag_41\n      jump\t// in\n    tag_40:\n        /* \"#utility.yul\":656:778   */\n    tag_39:\n        /* \"#utility.yul\":814:820   */\n      dup2\n        /* \"#utility.yul\":801:821   */\n      calldataload\n        /* \"#utility.yul\":839:918   */\n      tag_42\n        /* \"#utility.yul\":914:917   */\n      dup5\n        /* \"#utility.yul\":906:912   */\n      dup3\n        /* \"#utility.yul\":899:903   */\n      0x20\n        /* \"#utility.yul\":891:897   */\n      dup7\n        /* \"#utility.yul\":887:904   */\n      add\n        /* \"#utility.yul\":839:918   */\n      tag_22\n      jump\t// in\n    tag_42:\n        /* \"#utility.yul\":830:918   */\n      swap2\n      pop\n        /* \"#utility.yul\":646:924   */\n      pop\n        /* \"#utility.yul\":584:924   */\n      swap3\n      swap2\n      pop\n      pop\n      jump\t// out\n        /* \"#utility.yul\":967:2226   */\n    tag_43:\n        /* \"#utility.yul\":1046:1051   */\n      0x00\n        /* \"#utility.yul\":1090:1094   */\n      0x80\n        /* \"#utility.yul\":1078:1087   */\n      dup3\n        /* \"#utility.yul\":1073:1076   */\n      dup5\n        /* \"#utility.yul\":1069:1088   */\n      sub\n        /* \"#utility.yul\":1065:1095   */\n      slt\n        /* \"#utility.yul\":1062:1179   */\n      iszero\n      tag_45\n      jumpi\n        /* \"#utility.yul\":1098:1177   */\n      tag_46\n      tag_47\n      jump\t// in\n    tag_46:\n        /* \"#utility.yul\":1062:1179   */\n    tag_45:\n        /* \"#utility.yul\":1197:1218   */\n      tag_48\n        /* \"#utility.yul\":1213:1217   */\n      0x80\n        /* \"#utility.yul\":1197:1218   */\n      tag_27\n      jump\t// in\n    tag_48:\n        /* \"#utility.yul\":1188:1218   */\n      swap1\n      pop\n        /* \"#utility.yul\":1287:1288   */\n      0x00\n        /* \"#utility.yul\":1327:1376   */\n      tag_49\n        /* \"#utility.yul\":1372:1375   */\n      dup5\n        /* \"#utility.yul\":1363:1369   */\n      dup3\n        /* \"#utility.yul\":1352:1361   */\n      dup6\n        /* \"#utility.yul\":1348:1370   */\n      add\n        /* \"#utility.yul\":1327:1376   */\n      tag_33\n      jump\t// in\n    tag_49:\n        /* \"#utility.yul\":1320:1324   */\n      0x00\n        /* \"#utility.yul\":1313:1318   */\n      dup4\n        /* \"#utility.yul\":1309:1325   */\n      add\n        /* \"#utility.yul\":1302:1377   */\n      mstore\n        /* \"#utility.yul\":1228:1388   */\n      pop\n        /* \"#utility.yul\":1480:1482   */\n      0x20\n        /* \"#utility.yul\":1469:1478   */\n      dup3\n        /* \"#utility.yul\":1465:1483   */\n      add\n        /* \"#utility.yul\":1452:1484   */\n      calldataload\n        /* \"#utility.yul\":1511:1529   */\n      0xffffffffffffffff\n        /* \"#utility.yul\":1503:1509   */\n      dup2\n        /* \"#utility.yul\":1500:1530   */\n      gt\n        /* \"#utility.yul\":1497:1614   */\n      iszero\n      tag_50\n      jumpi\n        /* \"#utility.yul\":1533:1612   */\n      tag_51\n      tag_52\n      jump\t// in\n    tag_51:\n        /* \"#utility.yul\":1497:1614   */\n    tag_50:\n        /* \"#utility.yul\":1653:1712   */\n      tag_53\n        /* \"#utility.yul\":1708:1711   */\n      dup5\n        /* \"#utility.yul\":1699:1705   */\n      dup3\n        /* \"#utility.yul\":1688:1697   */\n      dup6\n        /* \"#utility.yul\":1684:1706   */\n      add\n        /* \"#utility.yul\":1653:1712   */\n      tag_37\n      jump\t// in\n    tag_53:\n        /* \"#utility.yul\":1646:1650   */\n      0x20\n        /* \"#utility.yul\":1639:1644   */\n      dup4\n        /* \"#utility.yul\":1635:1651   */\n      add\n        /* \"#utility.yul\":1628:1713   */\n      mstore\n        /* \"#utility.yul\":1398:1724   */\n      pop\n        /* \"#utility.yul\":1815:1817   */\n      0x40\n        /* \"#utility.yul\":1804:1813   */\n      dup3\n        /* \"#utility.yul\":1800:1818   */\n      add\n        /* \"#utility.yul\":1787:1819   */\n      calldataload\n        /* \"#utility.yul\":1846:1864   */\n      0xffffffffffffffff\n        /* \"#utility.yul\":1838:1844   */\n      dup2\n        /* \"#utility.yul\":1835:1865   */\n      gt\n        /* \"#utility.yul\":1832:1949   */\n      iszero\n      tag_54\n      jumpi\n        /* \"#utility.yul\":1868:1947   */\n      tag_55\n      tag_52\n      jump\t// in\n    tag_55:\n        /* \"#utility.yul\":1832:1949   */\n    tag_54:\n        /* \"#utility.yul\":1988:2047   */\n      tag_56\n        /* \"#utility.yul\":2043:2046   */\n      dup5\n        /* \"#utility.yul\":2034:2040   */\n      dup3\n        /* \"#utility.yul\":2023:2032   */\n      dup6\n        /* \"#utility.yul\":2019:2041   */\n      add\n        /* \"#utility.yul\":1988:2047   */\n      tag_37\n      jump\t// in\n    tag_56:\n        /* \"#utility.yul\":1981:1985   */\n      0x40\n        /* \"#utility.yul\":1974:1979   */\n      dup4\n        /* \"#utility.yul\":1970:1986   */\n      add\n        /* \"#utility.yul\":1963:2048   */\n      mstore\n        /* \"#utility.yul\":1734:2059   */\n      pop\n        /* \"#utility.yul\":2117:2119   */\n      0x60\n        /* \"#utility.yul\":2158:2207   */\n      tag_57\n        /* \"#utility.yul\":2203:2206   */\n      dup5\n        /* \"#utility.yul\":2194:2200   */\n      dup3\n        /* \"#utility.yul\":2183:2192   */\n      dup6\n        /* \"#utility.yul\":2179:2201   */\n      add\n        /* \"#utility.yul\":2158:2207   */\n      tag_58\n      jump\t// in\n    tag_57:\n        /* \"#utility.yul\":2151:2155   */\n      0x60\n        /* \"#utility.yul\":2144:2149   */\n      dup4\n        /* \"#utility.yul\":2140:2156   */\n      add\n        /* \"#utility.yul\":2133:2208   */\n      mstore\n        /* \"#utility.yul\":2069:2219   */\n      pop\n        /* \"#utility.yul\":967:2226   */\n      swap3\n      swap2\n      pop\n      pop\n      jump\t// out\n        /* \"#utility.yul\":2232:2371   */\n    tag_58:\n        /* \"#utility.yul\":2278:2283   */\n      0x00\n        /* \"#utility.yul\":2316:2322   */\n      dup2\n        /* \"#utility.yul\":2303:2323   */\n      calldataload\n        /* \"#utility.yul\":2294:2323   */\n      swap1\n      pop\n        /* \"#utility.yul\":2332:2365   */\n      tag_60\n        /* \"#utility.yul\":2359:2364   */\n      dup2\n        /* \"#utility.yul\":2332:2365   */\n      tag_61\n      jump\t// in\n    tag_60:\n        /* \"#utility.yul\":2232:2371   */\n      swap3\n      swap2\n      pop\n      pop\n      jump\t// out\n        /* \"#utility.yul\":2377:3502   */\n    tag_13:\n        /* \"#utility.yul\":2483:2489   */\n      0x00\n        /* \"#utility.yul\":2491:2497   */\n      dup1\n        /* \"#utility.yul\":2499:2505   */\n      0x00\n        /* \"#utility.yul\":2507:2513   */\n      dup1\n        /* \"#utility.yul\":2556:2559   */\n      0x80\n        /* \"#utility.yul\":2544:2553   */\n      dup6\n        /* \"#utility.yul\":2535:2542   */\n      dup8\n        /* \"#utility.yul\":2531:2554   */\n      sub\n        /* \"#utility.yul\":2527:2560   */\n      slt\n        /* \"#utility.yul\":2524:2644   */\n      iszero\n      tag_63\n      jumpi\n        /* \"#utility.yul\":2563:2642   */\n      tag_64\n      tag_65\n      jump\t// in\n    tag_64:\n        /* \"#utility.yul\":2524:2644   */\n    tag_63:\n        /* \"#utility.yul\":2683:2684   */\n      0x00\n        /* \"#utility.yul\":2708:2761   */\n      tag_66\n        /* \"#utility.yul\":2753:2760   */\n      dup8\n        /* \"#utility.yul\":2744:2750   */\n      dup3\n        /* \"#utility.yul\":2733:2742   */\n      dup9\n        /* \"#utility.yul\":2729:2751   */\n      add\n        /* \"#utility.yul\":2708:2761   */\n      tag_33\n      jump\t// in\n    tag_66:\n        /* \"#utility.yul\":2698:2761   */\n      swap5\n      pop\n        /* \"#utility.yul\":2654:2771   */\n      pop\n        /* \"#utility.yul\":2838:2840   */\n      0x20\n        /* \"#utility.yul\":2827:2836   */\n      dup6\n        /* \"#utility.yul\":2823:2841   */\n      add\n        /* \"#utility.yul\":2810:2842   */\n      calldataload\n        /* \"#utility.yul\":2869:2887   */\n      0xffffffffffffffff\n        /* \"#utility.yul\":2861:2867   */\n      dup2\n        /* \"#utility.yul\":2858:2888   */\n      gt\n        /* \"#utility.yul\":2855:2972   */\n      iszero\n      tag_67\n      jumpi\n        /* \"#utility.yul\":2891:2970   */\n      tag_68\n      tag_69\n      jump\t// in\n    tag_68:\n        /* \"#utility.yul\":2855:2972   */\n    tag_67:\n        /* \"#utility.yul\":2996:3059   */\n      tag_70\n        /* \"#utility.yul\":3051:3058   */\n      dup8\n        /* \"#utility.yul\":3042:3048   */\n      dup3\n        /* \"#utility.yul\":3031:3040   */\n      dup9\n        /* \"#utility.yul\":3027:3049   */\n      add\n        /* \"#utility.yul\":2996:3059   */\n      tag_37\n      jump\t// in\n    tag_70:\n        /* \"#utility.yul\":2986:3059   */\n      swap4\n      pop\n        /* \"#utility.yul\":2781:3069   */\n      pop\n        /* \"#utility.yul\":3136:3138   */\n      0x40\n        /* \"#utility.yul\":3125:3134   */\n      dup6\n        /* \"#utility.yul\":3121:3139   */\n      add\n        /* \"#utility.yul\":3108:3140   */\n      calldataload\n        /* \"#utility.yul\":3167:3185   */\n      0xffffffffffffffff\n        /* \"#utility.yul\":3159:3165   */\n      dup2\n        /* \"#utility.yul\":3156:3186   */\n      gt\n        /* \"#utility.yul\":3153:3270   */\n      iszero\n      tag_71\n      jumpi\n        /* \"#utility.yul\":3189:3268   */\n      tag_72\n      tag_69\n      jump\t// in\n    tag_72:\n        /* \"#utility.yul\":3153:3270   */\n    tag_71:\n        /* \"#utility.yul\":3294:3357   */\n      tag_73\n        /* \"#utility.yul\":3349:3356   */\n      dup8\n        /* \"#utility.yul\":3340:3346   */\n      dup3\n        /* \"#utility.yul\":3329:3338   */\n      dup9\n        /* \"#utility.yul\":3325:3347   */\n      add\n        /* \"#utility.yul\":3294:3357   */\n      tag_37\n      jump\t// in\n    tag_73:\n        /* \"#utility.yul\":3284:3357   */\n      swap3\n      pop\n        /* \"#utility.yul\":3079:3367   */\n      pop\n        /* \"#utility.yul\":3406:3408   */\n      0x60\n        /* \"#utility.yul\":3432:3485   */\n      tag_74\n        /* \"#utility.yul\":3477:3484   */\n      dup8\n        /* \"#utility.yul\":3468:3474   */\n      dup3\n        /* \"#utility.yul\":3457:3466   */\n      dup9\n        /* \"#utility.yul\":3453:3475   */\n      add\n        /* \"#utility.yul\":3432:3485   */\n      tag_58\n      jump\t// in\n    tag_74:\n        /* \"#utility.yul\":3422:3485   */\n      swap2\n      pop\n        /* \"#utility.yul\":3377:3495   */\n      pop\n        /* \"#utility.yul\":2377:3502   */\n      swap3\n      swap6\n      swap2\n      swap5\n      pop\n      swap3\n      pop\n      jump\t// out\n        /* \"#utility.yul\":3508:4057   */\n    tag_6:\n        /* \"#utility.yul\":3597:3603   */\n      0x00\n        /* \"#utility.yul\":3646:3648   */\n      0x20\n        /* \"#utility.yul\":3634:3643   */\n      dup3\n        /* \"#utility.yul\":3625:3632   */\n      dup5\n        /* \"#utility.yul\":3621:3644   */\n      sub\n        /* \"#utility.yul\":3617:3649   */\n      slt\n        /* \"#utility.yul\":3614:3733   */\n      iszero\n      tag_76\n      jumpi\n        /* \"#utility.yul\":3652:3731   */\n      tag_77\n      tag_65\n      jump\t// in\n    tag_77:\n        /* \"#utility.yul\":3614:3733   */\n    tag_76:\n        /* \"#utility.yul\":3800:3801   */\n      0x00\n        /* \"#utility.yul\":3789:3798   */\n      dup3\n        /* \"#utility.yul\":3785:3802   */\n      add\n        /* \"#utility.yul\":3772:3803   */\n      calldataload\n        /* \"#utility.yul\":3830:3848   */\n      0xffffffffffffffff\n        /* \"#utility.yul\":3822:3828   */\n      dup2\n        /* \"#utility.yul\":3819:3849   */\n      gt\n        /* \"#utility.yul\":3816:3933   */\n      iszero\n      tag_78\n      jumpi\n        /* \"#utility.yul\":3852:3931   */\n      tag_79\n      tag_69\n      jump\t// in\n    tag_79:\n        /* \"#utility.yul\":3816:3933   */\n    tag_78:\n        /* \"#utility.yul\":3957:4040   */\n      tag_80\n        /* \"#utility.yul\":4032:4039   */\n      dup5\n        /* \"#utility.yul\":4023:4029   */\n      dup3\n        /* \"#utility.yul\":4012:4021   */\n      dup6\n        /* \"#utility.yul\":4008:4030   */\n      add\n        /* \"#utility.yul\":3957:4040   */\n      tag_43\n      jump\t// in\n    tag_80:\n        /* \"#utility.yul\":3947:4040   */\n      swap2\n      pop\n        /* \"#utility.yul\":3743:4050   */\n      pop\n        /* \"#utility.yul\":3508:4057   */\n      swap3\n      swap2\n      pop\n      pop\n      jump\t// out\n        /* \"#utility.yul\":4063:4189   */\n    tag_81:\n        /* \"#utility.yul\":4158:4182   */\n      tag_83\n        /* \"#utility.yul\":4176:4181   */\n      dup2\n        /* \"#utility.yul\":4158:4182   */\n      tag_84\n      jump\t// in\n    tag_83:\n        /* \"#utility.yul\":4153:4156   */\n      dup3\n        /* \"#utility.yul\":4146:4183   */\n      mstore\n        /* \"#utility.yul\":4063:4189   */\n      pop\n      pop\n      jump\t// out\n        /* \"#utility.yul\":4195:4311   */\n    tag_85:\n        /* \"#utility.yul\":4280:4304   */\n      tag_87\n        /* \"#utility.yul\":4298:4303   */\n      dup2\n        /* \"#utility.yul\":4280:4304   */\n      tag_84\n      jump\t// in\n    tag_87:\n        /* \"#utility.yul\":4275:4278   */\n      dup3\n        /* \"#utility.yul\":4268:4305   */\n      mstore\n        /* \"#utility.yul\":4195:4311   */\n      pop\n      pop\n      jump\t// out\n        /* \"#utility.yul\":4317:4697   */\n    tag_88:\n        /* \"#utility.yul\":4413:4416   */\n      0x00\n        /* \"#utility.yul\":4441:4480   */\n      tag_90\n        /* \"#utility.yul\":4474:4479   */\n      dup3\n        /* \"#utility.yul\":4441:4480   */\n      tag_91\n      jump\t// in\n    tag_90:\n        /* \"#utility.yul\":4496:4575   */\n      tag_92\n        /* \"#utility.yul\":4568:4574   */\n      dup2\n        /* \"#utility.yul\":4563:4566   */\n      dup6\n        /* \"#utility.yul\":4496:4575   */\n      tag_93\n      jump\t// in\n    tag_92:\n        /* \"#utility.yul\":4489:4575   */\n      swap4\n      pop\n        /* \"#utility.yul\":4584:4636   */\n      tag_94\n        /* \"#utility.yul\":4629:4635   */\n      dup2\n        /* \"#utility.yul\":4624:4627   */\n      dup6\n        /* \"#utility.yul\":4617:4621   */\n      0x20\n        /* \"#utility.yul\":4610:4615   */\n      dup7\n        /* \"#utility.yul\":4606:4622   */\n      add\n        /* \"#utility.yul\":4584:4636   */\n      tag_95\n      jump\t// in\n    tag_94:\n        /* \"#utility.yul\":4661:4690   */\n      tag_96\n        /* \"#utility.yul\":4683:4689   */\n      dup2\n        /* \"#utility.yul\":4661:4690   */\n      tag_97\n      jump\t// in\n    tag_96:\n        /* \"#utility.yul\":4656:4659   */\n      dup5\n        /* \"#utility.yul\":4652:4691   */\n      add\n        /* \"#utility.yul\":4645:4691   */\n      swap2\n      pop\n        /* \"#utility.yul\":4417:4697   */\n      pop\n        /* \"#utility.yul\":4317:4697   */\n      swap3\n      swap2\n      pop\n      pop\n      jump\t// out\n        /* \"#utility.yul\":4703:5063   */\n    tag_98:\n        /* \"#utility.yul\":4789:4792   */\n      0x00\n        /* \"#utility.yul\":4817:4856   */\n      tag_100\n        /* \"#utility.yul\":4850:4855   */\n      dup3\n        /* \"#utility.yul\":4817:4856   */\n      tag_91\n      jump\t// in\n    tag_100:\n        /* \"#utility.yul\":4872:4941   */\n      tag_101\n        /* \"#utility.yul\":4934:4940   */\n      dup2\n        /* \"#utility.yul\":4929:4932   */\n      dup6\n        /* \"#utility.yul\":4872:4941   */\n      tag_102\n      jump\t// in\n    tag_101:\n        /* \"#utility.yul\":4865:4941   */\n      swap4\n      pop\n        /* \"#utility.yul\":4950:5002   */\n      tag_103\n        /* \"#utility.yul\":4995:5001   */\n      dup2\n        /* \"#utility.yul\":4990:4993   */\n      dup6\n        /* \"#utility.yul\":4983:4987   */\n      0x20\n        /* \"#utility.yul\":4976:4981   */\n      dup7\n        /* \"#utility.yul\":4972:4988   */\n      add\n        /* \"#utility.yul\":4950:5002   */\n      tag_95\n      jump\t// in\n    tag_103:\n        /* \"#utility.yul\":5027:5056   */\n      tag_104\n        /* \"#utility.yul\":5049:5055   */\n      dup2\n        /* \"#utility.yul\":5027:5056   */\n      tag_97\n      jump\t// in\n    tag_104:\n        /* \"#utility.yul\":5022:5025   */\n      dup5\n        /* \"#utility.yul\":5018:5057   */\n      add\n        /* \"#utility.yul\":5011:5057   */\n      swap2\n      pop\n        /* \"#utility.yul\":4793:5063   */\n      pop\n        /* \"#utility.yul\":4703:5063   */\n      swap3\n      swap2\n      pop\n      pop\n      jump\t// out\n        /* \"#utility.yul\":5139:6232   */\n    tag_105:\n        /* \"#utility.yul\":5276:5279   */\n      0x00\n        /* \"#utility.yul\":5312:5316   */\n      0x80\n        /* \"#utility.yul\":5307:5310   */\n      dup4\n        /* \"#utility.yul\":5303:5317   */\n      add\n        /* \"#utility.yul\":5409:5413   */\n      0x00\n        /* \"#utility.yul\":5402:5407   */\n      dup4\n        /* \"#utility.yul\":5398:5414   */\n      add\n        /* \"#utility.yul\":5392:5415   */\n      mload\n        /* \"#utility.yul\":5428:5499   */\n      tag_107\n        /* \"#utility.yul\":5493:5497   */\n      0x00\n        /* \"#utility.yul\":5488:5491   */\n      dup7\n        /* \"#utility.yul\":5484:5498   */\n      add\n        /* \"#utility.yul\":5470:5482   */\n      dup3\n        /* \"#utility.yul\":5428:5499   */\n      tag_85\n      jump\t// in\n    tag_107:\n        /* \"#utility.yul\":5327:5509   */\n      pop\n        /* \"#utility.yul\":5596:5600   */\n      0x20\n        /* \"#utility.yul\":5589:5594   */\n      dup4\n        /* \"#utility.yul\":5585:5601   */\n      add\n        /* \"#utility.yul\":5579:5602   */\n      mload\n        /* \"#utility.yul\":5649:5652   */\n      dup5\n        /* \"#utility.yul\":5643:5647   */\n      dup3\n        /* \"#utility.yul\":5639:5653   */\n      sub\n        /* \"#utility.yul\":5632:5636   */\n      0x20\n        /* \"#utility.yul\":5627:5630   */\n      dup7\n        /* \"#utility.yul\":5623:5637   */\n      add\n        /* \"#utility.yul\":5616:5654   */\n      mstore\n        /* \"#utility.yul\":5675:5756   */\n      tag_108\n        /* \"#utility.yul\":5751:5755   */\n      dup3\n        /* \"#utility.yul\":5737:5749   */\n      dup3\n        /* \"#utility.yul\":5675:5756   */\n      tag_98\n      jump\t// in\n    tag_108:\n        /* \"#utility.yul\":5667:5756   */\n      swap2\n      pop\n        /* \"#utility.yul\":5519:5767   */\n      pop\n        /* \"#utility.yul\":5853:5857   */\n      0x40\n        /* \"#utility.yul\":5846:5851   */\n      dup4\n        /* \"#utility.yul\":5842:5858   */\n      add\n        /* \"#utility.yul\":5836:5859   */\n      mload\n        /* \"#utility.yul\":5906:5909   */\n      dup5\n        /* \"#utility.yul\":5900:5904   */\n      dup3\n        /* \"#utility.yul\":5896:5910   */\n      sub\n        /* \"#utility.yul\":5889:5893   */\n      0x40\n        /* \"#utility.yul\":5884:5887   */\n      dup7\n        /* \"#utility.yul\":5880:5894   */\n      add\n        /* \"#utility.yul\":5873:5911   */\n      mstore\n        /* \"#utility.yul\":5932:6013   */\n      tag_109\n        /* \"#utility.yul\":6008:6012   */\n      dup3\n        /* \"#utility.yul\":5994:6006   */\n      dup3\n        /* \"#utility.yul\":5932:6013   */\n      tag_98\n      jump\t// in\n    tag_109:\n        /* \"#utility.yul\":5924:6013   */\n      swap2\n      pop\n        /* \"#utility.yul\":5777:6024   */\n      pop\n        /* \"#utility.yul\":6105:6109   */\n      0x60\n        /* \"#utility.yul\":6098:6103   */\n      dup4\n        /* \"#utility.yul\":6094:6110   */\n      add\n        /* \"#utility.yul\":6088:6111   */\n      mload\n        /* \"#utility.yul\":6124:6195   */\n      tag_110\n        /* \"#utility.yul\":6189:6193   */\n      0x60\n        /* \"#utility.yul\":6184:6187   */\n      dup7\n        /* \"#utility.yul\":6180:6194   */\n      add\n        /* \"#utility.yul\":6166:6178   */\n      dup3\n        /* \"#utility.yul\":6124:6195   */\n      tag_111\n      jump\t// in\n    tag_110:\n        /* \"#utility.yul\":6034:6205   */\n      pop\n        /* \"#utility.yul\":6222:6226   */\n      dup1\n        /* \"#utility.yul\":6215:6226   */\n      swap2\n      pop\n        /* \"#utility.yul\":5281:6232   */\n      pop\n        /* \"#utility.yul\":5139:6232   */\n      swap3\n      swap2\n      pop\n      pop\n      jump\t// out\n        /* \"#utility.yul\":6238:6364   */\n    tag_112:\n        /* \"#utility.yul\":6333:6357   */\n      tag_114\n        /* \"#utility.yul\":6351:6356   */\n      dup2\n        /* \"#utility.yul\":6333:6357   */\n      tag_115\n      jump\t// in\n    tag_114:\n        /* \"#utility.yul\":6328:6331   */\n      dup3\n        /* \"#utility.yul\":6321:6358   */\n      mstore\n        /* \"#utility.yul\":6238:6364   */\n      pop\n      pop\n      jump\t// out\n        /* \"#utility.yul\":6370:6486   */\n    tag_111:\n        /* \"#utility.yul\":6455:6479   */\n      tag_117\n        /* \"#utility.yul\":6473:6478   */\n      dup2\n        /* \"#utility.yul\":6455:6479   */\n      tag_115\n      jump\t// in\n    tag_117:\n        /* \"#utility.yul\":6450:6453   */\n      dup3\n        /* \"#utility.yul\":6443:6480   */\n      mstore\n        /* \"#utility.yul\":6370:6486   */\n      pop\n      pop\n      jump\t// out\n        /* \"#utility.yul\":6492:7267   */\n    tag_9:\n        /* \"#utility.yul\":6717:6721   */\n      0x00\n        /* \"#utility.yul\":6755:6758   */\n      0x80\n        /* \"#utility.yul\":6744:6753   */\n      dup3\n        /* \"#utility.yul\":6740:6759   */\n      add\n        /* \"#utility.yul\":6732:6759   */\n      swap1\n      pop\n        /* \"#utility.yul\":6769:6848   */\n      tag_119\n        /* \"#utility.yul\":6845:6846   */\n      0x00\n        /* \"#utility.yul\":6834:6843   */\n      dup4\n        /* \"#utility.yul\":6830:6847   */\n      add\n        /* \"#utility.yul\":6821:6827   */\n      dup8\n        /* \"#utility.yul\":6769:6848   */\n      tag_81\n      jump\t// in\n    tag_119:\n        /* \"#utility.yul\":6895:6904   */\n      dup2\n        /* \"#utility.yul\":6889:6893   */\n      dup2\n        /* \"#utility.yul\":6885:6905   */\n      sub\n        /* \"#utility.yul\":6880:6882   */\n      0x20\n        /* \"#utility.yul\":6869:6878   */\n      dup4\n        /* \"#utility.yul\":6865:6883   */\n      add\n        /* \"#utility.yul\":6858:6906   */\n      mstore\n        /* \"#utility.yul\":6923:7009   */\n      tag_120\n        /* \"#utility.yul\":7004:7008   */\n      dup2\n        /* \"#utility.yul\":6995:7001   */\n      dup7\n        /* \"#utility.yul\":6923:7009   */\n      tag_88\n      jump\t// in\n    tag_120:\n        /* \"#utility.yul\":6915:7009   */\n      swap1\n      pop\n        /* \"#utility.yul\":7056:7065   */\n      dup2\n        /* \"#utility.yul\":7050:7054   */\n      dup2\n        /* \"#utility.yul\":7046:7066   */\n      sub\n        /* \"#utility.yul\":7041:7043   */\n      0x40\n        /* \"#utility.yul\":7030:7039   */\n      dup4\n        /* \"#utility.yul\":7026:7044   */\n      add\n        /* \"#utility.yul\":7019:7067   */\n      mstore\n        /* \"#utility.yul\":7084:7170   */\n      tag_121\n        /* \"#utility.yul\":7165:7169   */\n      dup2\n        /* \"#utility.yul\":7156:7162   */\n      dup6\n        /* \"#utility.yul\":7084:7170   */\n      tag_88\n      jump\t// in\n    tag_121:\n        /* \"#utility.yul\":7076:7170   */\n      swap1\n      pop\n        /* \"#utility.yul\":7180:7260   */\n      tag_122\n        /* \"#utility.yul\":7256:7258   */\n      0x60\n        /* \"#utility.yul\":7245:7254   */\n      dup4\n        /* \"#utility.yul\":7241:7259   */\n      add\n        /* \"#utility.yul\":7232:7238   */\n      dup5\n        /* \"#utility.yul\":7180:7260   */\n      tag_112\n      jump\t// in\n    tag_122:\n        /* \"#utility.yul\":6492:7267   */\n      swap6\n      swap5\n      pop\n      pop\n      pop\n      pop\n      pop\n      jump\t// out\n        /* \"#utility.yul\":7273:7682   */\n    tag_16:\n        /* \"#utility.yul\":7434:7438   */\n      0x00\n        /* \"#utility.yul\":7472:7474   */\n      0x20\n        /* \"#utility.yul\":7461:7470   */\n      dup3\n        /* \"#utility.yul\":7457:7475   */\n      add\n        /* \"#utility.yul\":7449:7475   */\n      swap1\n      pop\n        /* \"#utility.yul\":7521:7530   */\n      dup2\n        /* \"#utility.yul\":7515:7519   */\n      dup2\n        /* \"#utility.yul\":7511:7531   */\n      sub\n        /* \"#utility.yul\":7507:7508   */\n      0x00\n        /* \"#utility.yul\":7496:7505   */\n      dup4\n        /* \"#utility.yul\":7492:7509   */\n      add\n        /* \"#utility.yul\":7485:7532   */\n      mstore\n        /* \"#utility.yul\":7549:7675   */\n      tag_124\n        /* \"#utility.yul\":7670:7674   */\n      dup2\n        /* \"#utility.yul\":7661:7667   */\n      dup5\n        /* \"#utility.yul\":7549:7675   */\n      tag_105\n      jump\t// in\n    tag_124:\n        /* \"#utility.yul\":7541:7675   */\n      swap1\n      pop\n        /* \"#utility.yul\":7273:7682   */\n      swap3\n      swap2\n      pop\n      pop\n      jump\t// out\n        /* \"#utility.yul\":7688:7817   */\n    tag_27:\n        /* \"#utility.yul\":7722:7728   */\n      0x00\n        /* \"#utility.yul\":7749:7769   */\n      tag_126\n      tag_127\n      jump\t// in\n    tag_126:\n        /* \"#utility.yul\":7739:7769   */\n      swap1\n      pop\n        /* \"#utility.yul\":7778:7811   */\n      tag_128\n        /* \"#utility.yul\":7806:7810   */\n      dup3\n        /* \"#utility.yul\":7798:7804   */\n      dup3\n        /* \"#utility.yul\":7778:7811   */\n      tag_129\n      jump\t// in\n    tag_128:\n        /* \"#utility.yul\":7688:7817   */\n      swap2\n      swap1\n      pop\n      jump\t// out\n        /* \"#utility.yul\":7823:7898   */\n    tag_127:\n        /* \"#utility.yul\":7856:7862   */\n      0x00\n        /* \"#utility.yul\":7889:7891   */\n      0x40\n        /* \"#utility.yul\":7883:7892   */\n      mload\n        /* \"#utility.yul\":7873:7892   */\n      swap1\n      pop\n        /* \"#utility.yul\":7823:7898   */\n      swap1\n      jump\t// out\n        /* \"#utility.yul\":7904:8212   */\n    tag_26:\n        /* \"#utility.yul\":7966:7970   */\n      0x00\n        /* \"#utility.yul\":8056:8074   */\n      0xffffffffffffffff\n        /* \"#utility.yul\":8048:8054   */\n      dup3\n        /* \"#utility.yul\":8045:8075   */\n      gt\n        /* \"#utility.yul\":8042:8098   */\n      iszero\n      tag_132\n      jumpi\n        /* \"#utility.yul\":8078:8096   */\n      tag_133\n      tag_134\n      jump\t// in\n    tag_133:\n        /* \"#utility.yul\":8042:8098   */\n    tag_132:\n        /* \"#utility.yul\":8116:8145   */\n      tag_135\n        /* \"#utility.yul\":8138:8144   */\n      dup3\n        /* \"#utility.yul\":8116:8145   */\n      tag_97\n      jump\t// in\n    tag_135:\n        /* \"#utility.yul\":8108:8145   */\n      swap1\n      pop\n        /* \"#utility.yul\":8200:8204   */\n      0x20\n        /* \"#utility.yul\":8194:8198   */\n      dup2\n        /* \"#utility.yul\":8190:8205   */\n      add\n        /* \"#utility.yul\":8182:8205   */\n      swap1\n      pop\n        /* \"#utility.yul\":7904:8212   */\n      swap2\n      swap1\n      pop\n      jump\t// out\n        /* \"#utility.yul\":8218:8317   */\n    tag_91:\n        /* \"#utility.yul\":8270:8276   */\n      0x00\n        /* \"#utility.yul\":8304:8309   */\n      dup2\n        /* \"#utility.yul\":8298:8310   */\n      mload\n        /* \"#utility.yul\":8288:8310   */\n      swap1\n      pop\n        /* \"#utility.yul\":8218:8317   */\n      swap2\n      swap1\n      pop\n      jump\t// out\n        /* \"#utility.yul\":8323:8500   */\n    tag_93:\n        /* \"#utility.yul\":8415:8426   */\n      0x00\n        /* \"#utility.yul\":8449:8455   */\n      dup3\n        /* \"#utility.yul\":8444:8447   */\n      dup3\n        /* \"#utility.yul\":8437:8456   */\n      mstore\n        /* \"#utility.yul\":8489:8493   */\n      0x20\n        /* \"#utility.yul\":8484:8487   */\n      dup3\n        /* \"#utility.yul\":8480:8494   */\n      add\n        /* \"#utility.yul\":8465:8494   */\n      swap1\n      pop\n        /* \"#utility.yul\":8323:8500   */\n      swap3\n      swap2\n      pop\n      pop\n      jump\t// out\n        /* \"#utility.yul\":8506:8673   */\n    tag_102:\n        /* \"#utility.yul\":8588:8599   */\n      0x00\n        /* \"#utility.yul\":8622:8628   */\n      dup3\n        /* \"#utility.yul\":8617:8620   */\n      dup3\n        /* \"#utility.yul\":8610:8629   */\n      mstore\n        /* \"#utility.yul\":8662:8666   */\n      0x20\n        /* \"#utility.yul\":8657:8660   */\n      dup3\n        /* \"#utility.yul\":8653:8667   */\n      add\n        /* \"#utility.yul\":8638:8667   */\n      swap1\n      pop\n        /* \"#utility.yul\":8506:8673   */\n      swap3\n      swap2\n      pop\n      pop\n      jump\t// out\n        /* \"#utility.yul\":8679:8775   */\n    tag_84:\n        /* \"#utility.yul\":8716:8723   */\n      0x00\n        /* \"#utility.yul\":8745:8769   */\n      tag_140\n        /* \"#utility.yul\":8763:8768   */\n      dup3\n        /* \"#utility.yul\":8745:8769   */\n      tag_141\n      jump\t// in\n    tag_140:\n        /* \"#utility.yul\":8734:8769   */\n      swap1\n      pop\n        /* \"#utility.yul\":8679:8775   */\n      swap2\n      swap1\n      pop\n      jump\t// out\n        /* \"#utility.yul\":8781:8907   */\n    tag_141:\n        /* \"#utility.yul\":8818:8825   */\n      0x00\n        /* \"#utility.yul\":8858:8900   */\n      0xffffffffffffffffffffffffffffffffffffffff\n        /* \"#utility.yul\":8851:8856   */\n      dup3\n        /* \"#utility.yul\":8847:8901   */\n      and\n        /* \"#utility.yul\":8836:8901   */\n      swap1\n      pop\n        /* \"#utility.yul\":8781:8907   */\n      swap2\n      swap1\n      pop\n      jump\t// out\n        /* \"#utility.yul\":8913:8990   */\n    tag_115:\n        /* \"#utility.yul\":8950:8957   */\n      0x00\n        /* \"#utility.yul\":8979:8984   */\n      dup2\n        /* \"#utility.yul\":8968:8984   */\n      swap1\n      pop\n        /* \"#utility.yul\":8913:8990   */\n      swap2\n      swap1\n      pop\n      jump\t// out\n        /* \"#utility.yul\":8996:9150   */\n    tag_32:\n        /* \"#utility.yul\":9080:9086   */\n      dup3\n        /* \"#utility.yul\":9075:9078   */\n      dup2\n        /* \"#utility.yul\":9070:9073   */\n      dup4\n        /* \"#utility.yul\":9057:9087   */\n      calldatacopy\n        /* \"#utility.yul\":9142:9143   */\n      0x00\n        /* \"#utility.yul\":9133:9139   */\n      dup4\n        /* \"#utility.yul\":9128:9131   */\n      dup4\n        /* \"#utility.yul\":9124:9140   */\n      add\n        /* \"#utility.yul\":9117:9144   */\n      mstore\n        /* \"#utility.yul\":8996:9150   */\n      pop\n      pop\n      pop\n      jump\t// out\n        /* \"#utility.yul\":9156:9463   */\n    tag_95:\n        /* \"#utility.yul\":9224:9225   */\n      0x00\n        /* \"#utility.yul\":9234:9347   */\n    tag_146:\n        /* \"#utility.yul\":9248:9254   */\n      dup4\n        /* \"#utility.yul\":9245:9246   */\n      dup2\n        /* \"#utility.yul\":9242:9255   */\n      lt\n        /* \"#utility.yul\":9234:9347   */\n      iszero\n      tag_148\n      jumpi\n        /* \"#utility.yul\":9333:9334   */\n      dup1\n        /* \"#utility.yul\":9328:9331   */\n      dup3\n        /* \"#utility.yul\":9324:9335   */\n      add\n        /* \"#utility.yul\":9318:9336   */\n      mload\n        /* \"#utility.yul\":9314:9315   */\n      dup2\n        /* \"#utility.yul\":9309:9312   */\n      dup5\n        /* \"#utility.yul\":9305:9316   */\n      add\n        /* \"#utility.yul\":9298:9337   */\n      mstore\n        /* \"#utility.yul\":9270:9272   */\n      0x20\n        /* \"#utility.yul\":9267:9268   */\n      dup2\n        /* \"#utility.yul\":9263:9273   */\n      add\n        /* \"#utility.yul\":9258:9273   */\n      swap1\n      pop\n        /* \"#utility.yul\":9234:9347   */\n      jump(tag_146)\n    tag_148:\n        /* \"#utility.yul\":9365:9371   */\n      dup4\n        /* \"#utility.yul\":9362:9363   */\n      dup2\n        /* \"#utility.yul\":9359:9372   */\n      gt\n        /* \"#utility.yul\":9356:9457   */\n      iszero\n      tag_149\n      jumpi\n        /* \"#utility.yul\":9445:9446   */\n      0x00\n        /* \"#utility.yul\":9436:9442   */\n      dup5\n        /* \"#utility.yul\":9431:9434   */\n      dup5\n        /* \"#utility.yul\":9427:9443   */\n      add\n        /* \"#utility.yul\":9420:9447   */\n      mstore\n        /* \"#utility.yul\":9356:9457   */\n    tag_149:\n        /* \"#utility.yul\":9205:9463   */\n      pop\n        /* \"#utility.yul\":9156:9463   */\n      pop\n      pop\n      pop\n      jump\t// out\n        /* \"#utility.yul\":9469:9750   */\n    tag_129:\n        /* \"#utility.yul\":9552:9579   */\n      tag_151\n        /* \"#utility.yul\":9574:9578   */\n      dup3\n        /* \"#utility.yul\":9552:9579   */\n      tag_97\n      jump\t// in\n    tag_151:\n        /* \"#utility.yul\":9544:9550   */\n      dup2\n        /* \"#utility.yul\":9540:9580   */\n      add\n        /* \"#utility.yul\":9682:9688   */\n      dup2\n        /* \"#utility.yul\":9670:9680   */\n      dup2\n        /* \"#utility.yul\":9667:9689   */\n      lt\n        /* \"#utility.yul\":9646:9664   */\n      0xffffffffffffffff\n        /* \"#utility.yul\":9634:9644   */\n      dup3\n        /* \"#utility.yul\":9631:9665   */\n      gt\n        /* \"#utility.yul\":9628:9690   */\n      or\n        /* \"#utility.yul\":9625:9713   */\n      iszero\n      tag_152\n      jumpi\n        /* \"#utility.yul\":9693:9711   */\n      tag_153\n      tag_134\n      jump\t// in\n    tag_153:\n        /* \"#utility.yul\":9625:9713   */\n    tag_152:\n        /* \"#utility.yul\":9733:9743   */\n      dup1\n        /* \"#utility.yul\":9729:9731   */\n      0x40\n        /* \"#utility.yul\":9722:9744   */\n      mstore\n        /* \"#utility.yul\":9512:9750   */\n      pop\n        /* \"#utility.yul\":9469:9750   */\n      pop\n      pop\n      jump\t// out\n        /* \"#utility.yul\":9756:9936   */\n    tag_134:\n        /* \"#utility.yul\":9804:9881   */\n      0x4e487b7100000000000000000000000000000000000000000000000000000000\n        /* \"#utility.yul\":9801:9802   */\n      0x00\n        /* \"#utility.yul\":9794:9882   */\n      mstore\n        /* \"#utility.yul\":9901:9905   */\n      0x41\n        /* \"#utility.yul\":9898:9899   */\n      0x04\n        /* \"#utility.yul\":9891:9906   */\n      mstore\n        /* \"#utility.yul\":9925:9929   */\n      0x24\n        /* \"#utility.yul\":9922:9923   */\n      0x00\n        /* \"#utility.yul\":9915:9930   */\n      revert\n        /* \"#utility.yul\":9942:10059   */\n    tag_41:\n        /* \"#utility.yul\":10051:10052   */\n      0x00\n        /* \"#utility.yul\":10048:10049   */\n      dup1\n        /* \"#utility.yul\":10041:10053   */\n      revert\n        /* \"#utility.yul\":10065:10182   */\n    tag_47:\n        /* \"#utility.yul\":10174:10175   */\n      0x00\n        /* \"#utility.yul\":10171:10172   */\n      dup1\n        /* \"#utility.yul\":10164:10176   */\n      revert\n        /* \"#utility.yul\":10188:10305   */\n    tag_52:\n        /* \"#utility.yul\":10297:10298   */\n      0x00\n        /* \"#utility.yul\":10294:10295   */\n      dup1\n        /* \"#utility.yul\":10287:10299   */\n      revert\n        /* \"#utility.yul\":10311:10428   */\n    tag_30:\n        /* \"#utility.yul\":10420:10421   */\n      0x00\n        /* \"#utility.yul\":10417:10418   */\n      dup1\n        /* \"#utility.yul\":10410:10422   */\n      revert\n        /* \"#utility.yul\":10434:10551   */\n    tag_69:\n        /* \"#utility.yul\":10543:10544   */\n      0x00\n        /* \"#utility.yul\":10540:10541   */\n      dup1\n        /* \"#utility.yul\":10533:10545   */\n      revert\n        /* \"#utility.yul\":10557:10674   */\n    tag_65:\n        /* \"#utility.yul\":10666:10667   */\n      0x00\n        /* \"#utility.yul\":10663:10664   */\n      dup1\n        /* \"#utility.yul\":10656:10668   */\n      revert\n        /* \"#utility.yul\":10680:10782   */\n    tag_97:\n        /* \"#utility.yul\":10721:10727   */\n      0x00\n        /* \"#utility.yul\":10772:10774   */\n      0x1f\n        /* \"#utility.yul\":10768:10775   */\n      not\n        /* \"#utility.yul\":10763:10765   */\n      0x1f\n        /* \"#utility.yul\":10756:10761   */\n      dup4\n        /* \"#utility.yul\":10752:10766   */\n      add\n        /* \"#utility.yul\":10748:10776   */\n      and\n        /* \"#utility.yul\":10738:10776   */\n      swap1\n      pop\n        /* \"#utility.yul\":10680:10782   */\n      swap2\n      swap1\n      pop\n      jump\t// out\n        /* \"#utility.yul\":10788:10910   */\n    tag_36:\n        /* \"#utility.yul\":10861:10885   */\n      tag_163\n        /* \"#utility.yul\":10879:10884   */\n      dup2\n        /* \"#utility.yul\":10861:10885   */\n      tag_84\n      jump\t// in\n    tag_163:\n        /* \"#utility.yul\":10854:10859   */\n      dup2\n        /* \"#utility.yul\":10851:10886   */\n      eq\n        /* \"#utility.yul\":10841:10904   */\n      tag_164\n      jumpi\n        /* \"#utility.yul\":10900:10901   */\n      0x00\n        /* \"#utility.yul\":10897:10898   */\n      dup1\n        /* \"#utility.yul\":10890:10902   */\n      revert\n        /* \"#utility.yul\":10841:10904   */\n    tag_164:\n        /* \"#utility.yul\":10788:10910   */\n      pop\n      jump\t// out\n        /* \"#utility.yul\":10916:11038   */\n    tag_61:\n        /* \"#utility.yul\":10989:11013   */\n      tag_166\n        /* \"#utility.yul\":11007:11012   */\n      dup2\n        /* \"#utility.yul\":10989:11013   */\n      tag_115\n      jump\t// in\n    tag_166:\n        /* \"#utility.yul\":10982:10987   */\n      dup2\n        /* \"#utility.yul\":10979:11014   */\n      eq\n        /* \"#utility.yul\":10969:11032   */\n      tag_167\n      jumpi\n        /* \"#utility.yul\":11028:11029   */\n      0x00\n        /* \"#utility.yul\":11025:11026   */\n      dup1\n        /* \"#utility.yul\":11018:11030   */\n      revert\n        /* \"#utility.yul\":10969:11032   */\n    tag_167:\n        /* \"#utility.yul\":10916:11038   */\n      pop\n      jump\t// out\n\n    auxdata: 0xa26469706673582212209fb1b1c2dc6eb18ff7e2233719785e07945bc48a6e6cc1c226fc3ac36d682f1a64736f6c63430008070033\n}\n",
				"bytecode": {
					"linkReferences": {},
					"object": "610719610053600b82828239805160001a607314610046577f4e487b7100000000000000000000000000000000000000000000000000000000600052600060045260246000fd5b30600052607381538281f3fe73000000000000000000000000000000000000000030146080604052600436106100405760003560e01c806326f5b3cd14610045578063dc50092114610078575b600080fd5b61005f600480360381019061005a919061034f565b6100b5565b60405161006f94939291906104b0565b60405180910390f35b81801561008457600080fd5b5061009f600480360381019061009a91906102b0565b6100df565b6040516100ac9190610503565b60405180910390f35b60006060806000846000015185602001518660400151876060015193509350935093509193509193565b6100e7610128565b60405180608001604052808673ffffffffffffffffffffffffffffffffffffffff168152602001858152602001848152602001838152509050949350505050565b6040518060800160405280600073ffffffffffffffffffffffffffffffffffffffff1681526020016060815260200160608152602001600081525090565b60006101796101748461054a565b610525565b90508281526020810184848401111561019557610194610695565b5b6101a08482856105e4565b509392505050565b6000813590506101b7816106b5565b92915050565b600082601f8301126101d2576101d1610686565b5b81356101e2848260208601610166565b91505092915050565b6000608082840312156102015761020061068b565b5b61020b6080610525565b9050600061021b848285016101a8565b600083015250602082013567ffffffffffffffff81111561023f5761023e610690565b5b61024b848285016101bd565b602083015250604082013567ffffffffffffffff81111561026f5761026e610690565b5b61027b848285016101bd565b604083015250606061028f8482850161029b565b60608301525092915050565b6000813590506102aa816106cc565b92915050565b600080600080608085870312156102ca576102c961069f565b5b60006102d8878288016101a8565b945050602085013567ffffffffffffffff8111156102f9576102f861069a565b5b610305878288016101bd565b935050604085013567ffffffffffffffff8111156103265761032561069a565b5b610332878288016101bd565b92505060606103438782880161029b565b91505092959194509250565b6000602082840312156103655761036461069f565b5b600082013567ffffffffffffffff8111156103835761038261069a565b5b61038f848285016101eb565b91505092915050565b6103a1816105a8565b82525050565b6103b0816105a8565b82525050565b60006103c18261057b565b6103cb8185610586565b93506103db8185602086016105f3565b6103e4816106a4565b840191505092915050565b60006103fa8261057b565b6104048185610597565b93506104148185602086016105f3565b61041d816106a4565b840191505092915050565b600060808301600083015161044060008601826103a7565b506020830151848203602086015261045882826103ef565b9150506040830151848203604086015261047282826103ef565b915050606083015161048760608601826104a1565b508091505092915050565b61049b816105da565b82525050565b6104aa816105da565b82525050565b60006080820190506104c56000830187610398565b81810360208301526104d781866103b6565b905081810360408301526104eb81856103b6565b90506104fa6060830184610492565b95945050505050565b6000602082019050818103600083015261051d8184610428565b905092915050565b600061052f610540565b905061053b8282610626565b919050565b6000604051905090565b600067ffffffffffffffff82111561056557610564610657565b5b61056e826106a4565b9050602081019050919050565b600081519050919050565b600082825260208201905092915050565b600082825260208201905092915050565b60006105b3826105ba565b9050919050565b600073ffffffffffffffffffffffffffffffffffffffff82169050919050565b6000819050919050565b82818337600083830152505050565b60005b838110156106115780820151818401526020810190506105f6565b83811115610620576000848401525b50505050565b61062f826106a4565b810181811067ffffffffffffffff8211171561064e5761064d610657565b5b80604052505050565b7f4e487b7100000000000000000000000000000000000000000000000000000000600052604160045260246000fd5b600080fd5b600080fd5b600080fd5b600080fd5b600080fd5b600080fd5b6000601f19601f8301169050919050565b6106be816105a8565b81146106c957600080fd5b50565b6106d5816105da565b81146106e057600080fd5b5056fea26469706673582212209fb1b1c2dc6eb18ff7e2233719785e07945bc48a6e6cc1c226fc3ac36d682f1a64736f6c63430008070033",
					"opcodes": "PUSH2 0x719 PUSH2 0x53 PUSH1 0xB DUP3 DUP3 DUP3 CODECOPY DUP1 MLOAD PUSH1 0x0 BYTE PUSH1 0x73 EQ PUSH2 0x46 JUMPI PUSH32 0x4E487B7100000000000000000000000000000000000000000000000000000000 PUSH1 0x0 MSTORE PUSH1 0x0 PUSH1 0x4 MSTORE PUSH1 0x24 PUSH1 0x0 REVERT JUMPDEST ADDRESS PUSH1 0x0 MSTORE PUSH1 0x73 DUP2 MSTORE8 DUP3 DUP2 RETURN INVALID PUSH20 0x0 ADDRESS EQ PUSH1 0x80 PUSH1 0x40 MSTORE PUSH1 0x4 CALLDATASIZE LT PUSH2 0x40 JUMPI PUSH1 0x0 CALLDATALOAD PUSH1 0xE0 SHR DUP1 PUSH4 0x26F5B3CD EQ PUSH2 0x45 JUMPI DUP1 PUSH4 0xDC500921 EQ PUSH2 0x78 JUMPI JUMPDEST PUSH1 0x0 DUP1 REVERT JUMPDEST PUSH2 0x5F PUSH1 0x4 DUP1 CALLDATASIZE SUB DUP2 ADD SWAP1 PUSH2 0x5A SWAP2 SWAP1 PUSH2 0x34F JUMP JUMPDEST PUSH2 0xB5 JUMP JUMPDEST PUSH1 0x40 MLOAD PUSH2 0x6F SWAP5 SWAP4 SWAP3 SWAP2 SWAP1 PUSH2 0x4B0 JUMP JUMPDEST PUSH1 0x40 MLOAD DUP1 SWAP2 SUB SWAP1 RETURN JUMPDEST DUP2 DUP1 ISZERO PUSH2 0x84 JUMPI PUSH1 0x0 DUP1 REVERT JUMPDEST POP PUSH2 0x9F PUSH1 0x4 DUP1 CALLDATASIZE SUB DUP2 ADD SWAP1 PUSH2 0x9A SWAP2 SWAP1 PUSH2 0x2B0 JUMP JUMPDEST PUSH2 0xDF JUMP JUMPDEST PUSH1 0x40 MLOAD PUSH2 0xAC SWAP2 SWAP1 PUSH2 0x503 JUMP JUMPDEST PUSH1 0x40 MLOAD DUP1 SWAP2 SUB SWAP1 RETURN JUMPDEST PUSH1 0x0 PUSH1 0x60 DUP1 PUSH1 0x0 DUP5 PUSH1 0x0 ADD MLOAD DUP6 PUSH1 0x20 ADD MLOAD DUP7 PUSH1 0x40 ADD MLOAD DUP8 PUSH1 0x60 ADD MLOAD SWAP4 POP SWAP4 POP SWAP4 POP SWAP4 POP SWAP2 SWAP4 POP SWAP2 SWAP4 JUMP JUMPDEST PUSH2 0xE7 PUSH2 0x128 JUMP JUMPDEST PUSH1 0x40 MLOAD DUP1 PUSH1 0x80 ADD PUSH1 0x40 MSTORE DUP1 DUP7 PUSH20 0xFFFFFFFFFFFFFFFFFFFFFFFFFFFFFFFFFFFFFFFF AND DUP2 MSTORE PUSH1 0x20 ADD DUP6 DUP2 MSTORE PUSH1 0x20 ADD DUP5 DUP2 MSTORE PUSH1 0x20 ADD DUP4 DUP2 MSTORE POP SWAP1 POP SWAP5 SWAP4 POP POP POP POP JUMP JUMPDEST PUSH1 0x40 MLOAD DUP1 PUSH1 0x80 ADD PUSH1 0x40 MSTORE DUP1 PUSH1 0x0 PUSH20 0xFFFFFFFFFFFFFFFFFFFFFFFFFFFFFFFFFFFFFFFF AND DUP2 MSTORE PUSH1 0x20 ADD PUSH1 0x60 DUP2 MSTORE PUSH1 0x20 ADD PUSH1 0x60 DUP2 MSTORE PUSH1 0x20 ADD PUSH1 0x0 DUP2 MSTORE POP SWAP1 JUMP JUMPDEST PUSH1 0x0 PUSH2 0x179 PUSH2 0x174 DUP5 PUSH2 0x54A JUMP JUMPDEST PUSH2 0x525 JUMP JUMPDEST SWAP1 POP DUP3 DUP2 MSTORE PUSH1 0x20 DUP2 ADD DUP5 DUP5 DUP5 ADD GT ISZERO PUSH2 0x195 JUMPI PUSH2 0x194 PUSH2 0x695 JUMP JUMPDEST JUMPDEST PUSH2 0x1A0 DUP5 DUP3 DUP6 PUSH2 0x5E4 JUMP JUMPDEST POP SWAP4 SWAP3 POP POP POP JUMP JUMPDEST PUSH1 0x0 DUP2 CALLDATALOAD SWAP1 POP PUSH2 0x1B7 DUP2 PUSH2 0x6B5 JUMP JUMPDEST SWAP3 SWAP2 POP POP JUMP JUMPDEST PUSH1 0x0 DUP3 PUSH1 0x1F DUP4 ADD SLT PUSH2 0x1D2 JUMPI PUSH2 0x1D1 PUSH2 0x686 JUMP JUMPDEST JUMPDEST DUP2 CALLDATALOAD PUSH2 0x1E2 DUP5 DUP3 PUSH1 0x20 DUP7 ADD PUSH2 0x166 JUMP JUMPDEST SWAP2 POP POP SWAP3 SWAP2 POP POP JUMP JUMPDEST PUSH1 0x0 PUSH1 0x80 DUP3 DUP5 SUB SLT ISZERO PUSH2 0x201 JUMPI PUSH2 0x200 PUSH2 0x68B JUMP JUMPDEST JUMPDEST PUSH2 0x20B PUSH1 0x80 PUSH2 0x525 JUMP JUMPDEST SWAP1 POP PUSH1 0x0 PUSH2 0x21B DUP5 DUP3 DUP6 ADD PUSH2 0x1A8 JUMP JUMPDEST PUSH1 0x0 DUP4 ADD MSTORE POP PUSH1 0x20 DUP3 ADD CALLDATALOAD PUSH8 0xFFFFFFFFFFFFFFFF DUP2 GT ISZERO PUSH2 0x23F JUMPI PUSH2 0x23E PUSH2 0x690 JUMP JUMPDEST JUMPDEST PUSH2 0x24B DUP5 DUP3 DUP6 ADD PUSH2 0x1BD JUMP JUMPDEST PUSH1 0x20 DUP4 ADD MSTORE POP PUSH1 0x40 DUP3 ADD CALLDATALOAD PUSH8 0xFFFFFFFFFFFFFFFF DUP2 GT ISZERO PUSH2 0x26F JUMPI PUSH2 0x26E PUSH2 0x690 JUMP JUMPDEST JUMPDEST PUSH2 0x27B DUP5 DUP3 DUP6 ADD PUSH2 0x1BD JUMP JUMPDEST PUSH1 0x40 DUP4 ADD MSTORE POP PUSH1 0x60 PUSH2 0x28F DUP5 DUP3 DUP6 ADD PUSH2 0x29B JUMP JUMPDEST PUSH1 0x60 DUP4 ADD MSTORE POP SWAP3 SWAP2 POP POP JUMP JUMPDEST PUSH1 0x0 DUP2 CALLDATALOAD SWAP1 POP PUSH2 0x2AA DUP2 PUSH2 0x6CC JUMP JUMPDEST SWAP3 SWAP2 POP POP JUMP JUMPDEST PUSH1 0x0 DUP1 PUSH1 0x0 DUP1 PUSH1 0x80 DUP6 DUP8 SUB SLT ISZERO PUSH2 0x2CA JUMPI PUSH2 0x2C9 PUSH2 0x69F JUMP JUMPDEST JUMPDEST PUSH1 0x0 PUSH2 0x2D8 DUP8 DUP3 DUP9 ADD PUSH2 0x1A8 JUMP JUMPDEST SWAP5 POP POP PUSH1 0x20 DUP6 ADD CALLDATALOAD PUSH8 0xFFFFFFFFFFFFFFFF DUP2 GT ISZERO PUSH2 0x2F9 JUMPI PUSH2 0x2F8 PUSH2 0x69A JUMP JUMPDEST JUMPDEST PUSH2 0x305 DUP8 DUP3 DUP9 ADD PUSH2 0x1BD JUMP JUMPDEST SWAP4 POP POP PUSH1 0x40 DUP6 ADD CALLDATALOAD PUSH8 0xFFFFFFFFFFFFFFFF DUP2 GT ISZERO PUSH2 0x326 JUMPI PUSH2 0x325 PUSH2 0x69A JUMP JUMPDEST JUMPDEST PUSH2 0x332 DUP8 DUP3 DUP9 ADD PUSH2 0x1BD JUMP JUMPDEST SWAP3 POP POP PUSH1 0x60 PUSH2 0x343 DUP8 DUP3 DUP9 ADD PUSH2 0x29B JUMP JUMPDEST SWAP2 POP POP SWAP3 SWAP6 SWAP2 SWAP5 POP SWAP3 POP JUMP JUMPDEST PUSH1 0x0 PUSH1 0x20 DUP3 DUP5 SUB SLT ISZERO PUSH2 0x365 JUMPI PUSH2 0x364 PUSH2 0x69F JUMP JUMPDEST JUMPDEST PUSH1 0x0 DUP3 ADD CALLDATALOAD PUSH8 0xFFFFFFFFFFFFFFFF DUP2 GT ISZERO PUSH2 0x383 JUMPI PUSH2 0x382 PUSH2 0x69A JUMP JUMPDEST JUMPDEST PUSH2 0x38F DUP5 DUP3 DUP6 ADD PUSH2 0x1EB JUMP JUMPDEST SWAP2 POP POP SWAP3 SWAP2 POP POP JUMP JUMPDEST PUSH2 0x3A1 DUP2 PUSH2 0x5A8 JUMP JUMPDEST DUP3 MSTORE POP POP JUMP JUMPDEST PUSH2 0x3B0 DUP2 PUSH2 0x5A8 JUMP JUMPDEST DUP3 MSTORE POP POP JUMP JUMPDEST PUSH1 0x0 PUSH2 0x3C1 DUP3 PUSH2 0x57B JUMP JUMPDEST PUSH2 0x3CB DUP2 DUP6 PUSH2 0x586 JUMP JUMPDEST SWAP4 POP PUSH2 0x3DB DUP2 DUP6 PUSH1 0x20 DUP7 ADD PUSH2 0x5F3 JUMP JUMPDEST PUSH2 0x3E4 DUP2 PUSH2 0x6A4 JUMP JUMPDEST DUP5 ADD SWAP2 POP POP SWAP3 SWAP2 POP POP JUMP JUMPDEST PUSH1 0x0 PUSH2 0x3FA DUP3 PUSH2 0x57B JUMP JUMPDEST PUSH2 0x404 DUP2 DUP6 PUSH2 0x597 JUMP JUMPDEST SWAP4 POP PUSH2 0x414 DUP2 DUP6 PUSH1 0x20 DUP7 ADD PUSH2 0x5F3 JUMP JUMPDEST PUSH2 0x41D DUP2 PUSH2 0x6A4 JUMP JUMPDEST DUP5 ADD SWAP2 POP POP SWAP3 SWAP2 POP POP JUMP JUMPDEST PUSH1 0x0 PUSH1 0x80 DUP4 ADD PUSH1 0x0 DUP4 ADD MLOAD PUSH2 0x440 PUSH1 0x0 DUP7 ADD DUP3 PUSH2 0x3A7 JUMP JUMPDEST POP PUSH1 0x20 DUP4 ADD MLOAD DUP5 DUP3 SUB PUSH1 0x20 DUP7 ADD MSTORE PUSH2 0x458 DUP3 DUP3 PUSH2 0x3EF JUMP JUMPDEST SWAP2 POP POP PUSH1 0x40 DUP4 ADD MLOAD DUP5 DUP3 SUB PUSH1 0x40 DUP7 ADD MSTORE PUSH2 0x472 DUP3 DUP3 PUSH2 0x3EF JUMP JUMPDEST SWAP2 POP POP PUSH1 0x60 DUP4 ADD MLOAD PUSH2 0x487 PUSH1 0x60 DUP7 ADD DUP3 PUSH2 0x4A1 JUMP JUMPDEST POP DUP1 SWAP2 POP POP SWAP3 SWAP2 POP POP JUMP JUMPDEST PUSH2 0x49B DUP2 PUSH2 0x5DA JUMP JUMPDEST DUP3 MSTORE POP POP JUMP JUMPDEST PUSH2 0x4AA DUP2 PUSH2 0x5DA JUMP JUMPDEST DUP3 MSTORE POP POP JUMP JUMPDEST PUSH1 0x0 PUSH1 0x80 DUP3 ADD SWAP1 POP PUSH2 0x4C5 PUSH1 0x0 DUP4 ADD DUP8 PUSH2 0x398 JUMP JUMPDEST DUP2 DUP2 SUB PUSH1 0x20 DUP4 ADD MSTORE PUSH2 0x4D7 DUP2 DUP7 PUSH2 0x3B6 JUMP JUMPDEST SWAP1 POP DUP2 DUP2 SUB PUSH1 0x40 DUP4 ADD MSTORE PUSH2 0x4EB DUP2 DUP6 PUSH2 0x3B6 JUMP JUMPDEST SWAP1 POP PUSH2 0x4FA PUSH1 0x60 DUP4 ADD DUP5 PUSH2 0x492 JUMP JUMPDEST SWAP6 SWAP5 POP POP POP POP POP JUMP JUMPDEST PUSH1 0x0 PUSH1 0x20 DUP3 ADD SWAP1 POP DUP2 DUP2 SUB PUSH1 0x0 DUP4 ADD MSTORE PUSH2 0x51D DUP2 DUP5 PUSH2 0x428 JUMP JUMPDEST SWAP1 POP SWAP3 SWAP2 POP POP JUMP JUMPDEST PUSH1 0x0 PUSH2 0x52F PUSH2 0x540 JUMP JUMPDEST SWAP1 POP PUSH2 0x53B DUP3 DUP3 PUSH2 0x626 JUMP JUMPDEST SWAP2 SWAP1 POP JUMP JUMPDEST PUSH1 0x0 PUSH1 0x40 MLOAD SWAP1 POP SWAP1 JUMP JUMPDEST PUSH1 0x0 PUSH8 0xFFFFFFFFFFFFFFFF DUP3 GT ISZERO PUSH2 0x565 JUMPI PUSH2 0x564 PUSH2 0x657 JUMP JUMPDEST JUMPDEST PUSH2 0x56E DUP3 PUSH2 0x6A4 JUMP JUMPDEST SWAP1 POP PUSH1 0x20 DUP2 ADD SWAP1 POP SWAP2 SWAP1 POP JUMP JUMPDEST PUSH1 0x0 DUP2 MLOAD SWAP1 POP SWAP2 SWAP1 POP JUMP JUMPDEST PUSH1 0x0 DUP3 DUP3 MSTORE PUSH1 0x20 DUP3 ADD SWAP1 POP SWAP3 SWAP2 POP POP JUMP JUMPDEST PUSH1 0x0 DUP3 DUP3 MSTORE PUSH1 0x20 DUP3 ADD SWAP1 POP SWAP3 SWAP2 POP POP JUMP JUMPDEST PUSH1 0x0 PUSH2 0x5B3 DUP3 PUSH2 0x5BA JUMP JUMPDEST SWAP1 POP SWAP2 SWAP1 POP JUMP JUMPDEST PUSH1 0x0 PUSH20 0xFFFFFFFFFFFFFFFFFFFFFFFFFFFFFFFFFFFFFFFF DUP3 AND SWAP1 POP SWAP2 SWAP1 POP JUMP JUMPDEST PUSH1 0x0 DUP2 SWAP1 POP SWAP2 SWAP1 POP JUMP JUMPDEST DUP3 DUP2 DUP4 CALLDATACOPY PUSH1 0x0 DUP4 DUP4 ADD MSTORE POP POP POP JUMP JUMPDEST PUSH1 0x0 JUMPDEST DUP4 DUP2 LT ISZERO PUSH2 0x611 JUMPI DUP1 DUP3 ADD MLOAD DUP2 DUP5 ADD MSTORE PUSH1 0x20 DUP2 ADD SWAP1 POP PUSH2 0x5F6 JUMP JUMPDEST DUP4 DUP2 GT ISZERO PUSH2 0x620 JUMPI PUSH1 0x0 DUP5 DUP5 ADD MSTORE JUMPDEST POP POP POP POP JUMP JUMPDEST PUSH2 0x62F DUP3 PUSH2 0x6A4 JUMP JUMPDEST DUP2 ADD DUP2 DUP2 LT PUSH8 0xFFFFFFFFFFFFFFFF DUP3 GT OR ISZERO PUSH2 0x64E JUMPI PUSH2 0x64D PUSH2 0x657 JUMP JUMPDEST JUMPDEST DUP1 PUSH1 0x40 MSTORE POP POP POP JUMP JUMPDEST PUSH32 0x4E487B7100000000000000000000000000000000000000000000000000000000 PUSH1 0x0 MSTORE PUSH1 0x41 PUSH1 0x4 MSTORE PUSH1 0x24 PUSH1 0x0 REVERT JUMPDEST PUSH1 0x0 DUP1 REVERT JUMPDEST PUSH1 0x0 DUP1 REVERT JUMPDEST PUSH1 0x0 DUP1 REVERT JUMPDEST PUSH1 0x0 DUP1 REVERT JUMPDEST PUSH1 0x0 DUP1 REVERT JUMPDEST PUSH1 0x0 DUP1 REVERT JUMPDEST PUSH1 0x0 PUSH1 0x1F NOT PUSH1 0x1F DUP4 ADD AND SWAP1 POP SWAP2 SWAP1 POP JUMP JUMPDEST PUSH2 0x6BE DUP2 PUSH2 0x5A8 JUMP JUMPDEST DUP2 EQ PUSH2 0x6C9 JUMPI PUSH1 0x0 DUP1 REVERT JUMPDEST POP JUMP JUMPDEST PUSH2 0x6D5 DUP2 PUSH2 0x5DA JUMP JUMPDEST DUP2 EQ PUSH2 0x6E0 JUMPI PUSH1 0x0 DUP1 REVERT JUMPDEST POP JUMP INVALID LOG2 PUSH5 0x6970667358 0x22 SLT KECCAK256 SWAP16 0xB1 0xB1 0xC2 0xDC PUSH15 0xB18FF7E2233719785E07945BC48A6E PUSH13 0xC1C226FC3AC36D682F1A64736F PUSH13 0x63430008070033000000000000 "
				},
				"gasEstimates": {
					"creation": {
						"codeDepositCost": "363400",
						"executionCost": "427",
						"totalCost": "363827"
					},
					"external": {
						"createPatient(address,string,string,uint256)": "infinite",
						"readPatient(Patient.PatientDetails)": "infinite"
					}
				},
				"methodIdentifiers": {
					"createPatient(address,string,string,uint256)": "dc500921",
					"readPatient(Patient.PatientDetails)": "26f5b3cd"
				}
			},
			"storageLayout": {
				"storage": [],
				"types": null
			},
			"userdoc": {
				"kind": "user",
				"methods": {},
				"version": 1
			}
		}
	}
}