{
	"contracts/AppointmentScheduler.sol": {
		"AppointmentScheduler": {
			"abi": [
				{
					"anonymous": false,
					"inputs": [
						{
							"indexed": false,
							"internalType": "address",
							"name": "patientAddress",
							"type": "address"
						},
						{
							"indexed": false,
							"internalType": "string",
							"name": "msg",
							"type": "string"
						}
					],
					"name": "AppointmentCancelled",
					"type": "event"
				},
				{
					"anonymous": false,
					"inputs": [
						{
							"indexed": false,
							"internalType": "address",
							"name": "patientAddress",
							"type": "address"
						},
						{
							"indexed": false,
							"internalType": "string",
							"name": "msg",
							"type": "string"
						}
					],
					"name": "AppointmentCreated",
					"type": "event"
				},
				{
					"inputs": [
						{
							"internalType": "bytes32",
							"name": "",
							"type": "bytes32"
						}
					],
					"name": "appointmentStatus",
					"outputs": [
						{
							"internalType": "bool",
							"name": "",
							"type": "bool"
						}
					],
					"stateMutability": "view",
					"type": "function"
				},
				{
					"inputs": [
						{
							"internalType": "bytes32",
							"name": "",
							"type": "bytes32"
						}
					],
					"name": "appointments",
					"outputs": [
						{
							"internalType": "bytes32",
							"name": "id",
							"type": "bytes32"
						},
						{
							"internalType": "uint256",
							"name": "appointmentDate",
							"type": "uint256"
						},
						{
							"internalType": "uint256",
							"name": "appointmentTime",
							"type": "uint256"
						},
						{
							"internalType": "bool",
							"name": "isAvailable",
							"type": "bool"
						},
						{
							"internalType": "address",
							"name": "patientAddress",
							"type": "address"
						},
						{
							"internalType": "address",
							"name": "doctorAddress",
							"type": "address"
						},
						{
							"components": [
								{
									"internalType": "string",
									"name": "reminderMethod",
									"type": "string"
								},
								{
									"internalType": "uint256",
									"name": "reminderFrequency",
									"type": "uint256"
								},
								{
									"internalType": "string",
									"name": "message",
									"type": "string"
								},
								{
									"internalType": "enum Appointment.ReminderStatus",
									"name": "status",
									"type": "uint8"
								}
							],
							"internalType": "struct Appointment.AppointmentReminder",
							"name": "reminder",
							"type": "tuple"
						}
					],
					"stateMutability": "view",
					"type": "function"
				},
				{
					"inputs": [
						{
							"components": [
								{
									"internalType": "bytes32",
									"name": "id",
									"type": "bytes32"
								},
								{
									"internalType": "uint256",
									"name": "appointmentDate",
									"type": "uint256"
								},
								{
									"internalType": "uint256",
									"name": "appointmentTime",
									"type": "uint256"
								},
								{
									"internalType": "bool",
									"name": "isAvailable",
									"type": "bool"
								},
								{
									"internalType": "address",
									"name": "patientAddress",
									"type": "address"
								},
								{
									"internalType": "address",
									"name": "doctorAddress",
									"type": "address"
								},
								{
									"components": [
										{
											"internalType": "string",
											"name": "reminderMethod",
											"type": "string"
										},
										{
											"internalType": "uint256",
											"name": "reminderFrequency",
											"type": "uint256"
										},
										{
											"internalType": "string",
											"name": "message",
											"type": "string"
										},
										{
											"internalType": "enum Appointment.ReminderStatus",
											"name": "status",
											"type": "uint8"
										}
									],
									"internalType": "struct Appointment.AppointmentReminder",
									"name": "reminder",
									"type": "tuple"
								}
							],
							"internalType": "struct Appointment.AppointmentRecord",
							"name": "appointment",
							"type": "tuple"
						}
					],
					"name": "bookAppointment",
					"outputs": [
						{
							"components": [
								{
									"internalType": "bytes32",
									"name": "id",
									"type": "bytes32"
								},
								{
									"internalType": "uint256",
									"name": "appointmentDate",
									"type": "uint256"
								},
								{
									"internalType": "uint256",
									"name": "appointmentTime",
									"type": "uint256"
								},
								{
									"internalType": "bool",
									"name": "isAvailable",
									"type": "bool"
								},
								{
									"internalType": "address",
									"name": "patientAddress",
									"type": "address"
								},
								{
									"internalType": "address",
									"name": "doctorAddress",
									"type": "address"
								},
								{
									"components": [
										{
											"internalType": "string",
											"name": "reminderMethod",
											"type": "string"
										},
										{
											"internalType": "uint256",
											"name": "reminderFrequency",
											"type": "uint256"
										},
										{
											"internalType": "string",
											"name": "message",
											"type": "string"
										},
										{
											"internalType": "enum Appointment.ReminderStatus",
											"name": "status",
											"type": "uint8"
										}
									],
									"internalType": "struct Appointment.AppointmentReminder",
									"name": "reminder",
									"type": "tuple"
								}
							],
							"internalType": "struct Appointment.AppointmentRecord",
							"name": "",
							"type": "tuple"
						}
					],
					"stateMutability": "nonpayable",
					"type": "function"
				},
				{
					"inputs": [
						{
							"internalType": "bytes32",
							"name": "apptId",
							"type": "bytes32"
						}
					],
					"name": "cancelAppointment",
					"outputs": [
						{
							"internalType": "bool",
							"name": "",
							"type": "bool"
						}
					],
					"stateMutability": "nonpayable",
					"type": "function"
				},
				{
					"inputs": [
						{
							"internalType": "bytes32",
							"name": "slot",
							"type": "bytes32"
						}
					],
					"name": "checkAvailability",
					"outputs": [
						{
							"internalType": "bool",
							"name": "",
							"type": "bool"
						}
					],
					"stateMutability": "view",
					"type": "function"
				},
				{
					"inputs": [
						{
							"internalType": "bytes32",
							"name": "apptId",
							"type": "bytes32"
						}
					],
					"name": "getAppointment",
					"outputs": [
						{
							"components": [
								{
									"internalType": "bytes32",
									"name": "id",
									"type": "bytes32"
								},
								{
									"internalType": "uint256",
									"name": "appointmentDate",
									"type": "uint256"
								},
								{
									"internalType": "uint256",
									"name": "appointmentTime",
									"type": "uint256"
								},
								{
									"internalType": "bool",
									"name": "isAvailable",
									"type": "bool"
								},
								{
									"internalType": "address",
									"name": "patientAddress",
									"type": "address"
								},
								{
									"internalType": "address",
									"name": "doctorAddress",
									"type": "address"
								},
								{
									"components": [
										{
											"internalType": "string",
											"name": "reminderMethod",
											"type": "string"
										},
										{
											"internalType": "uint256",
											"name": "reminderFrequency",
											"type": "uint256"
										},
										{
											"internalType": "string",
											"name": "message",
											"type": "string"
										},
										{
											"internalType": "enum Appointment.ReminderStatus",
											"name": "status",
											"type": "uint8"
										}
									],
									"internalType": "struct Appointment.AppointmentReminder",
									"name": "reminder",
									"type": "tuple"
								}
							],
							"internalType": "struct Appointment.AppointmentRecord",
							"name": "",
							"type": "tuple"
						}
					],
					"stateMutability": "view",
					"type": "function"
				},
				{
					"inputs": [
						{
							"internalType": "uint256",
							"name": "date",
							"type": "uint256"
						},
						{
							"internalType": "uint256",
							"name": "time",
							"type": "uint256"
						}
					],
					"name": "getHashId",
					"outputs": [
						{
							"internalType": "bytes32",
							"name": "",
							"type": "bytes32"
						}
					],
					"stateMutability": "pure",
					"type": "function"
				},
				{
					"inputs": [],
					"name": "sendAppointmentReminder",
					"outputs": [],
					"stateMutability": "view",
					"type": "function"
				}
			],
			"devdoc": {
				"kind": "dev",
				"methods": {},
				"version": 1
			},
			"evm": {
				"assembly": "    /* \"contracts/AppointmentScheduler.sol\":258:3975  contract AppointmentScheduler {... */\n  mstore(0x40, 0x80)\n  callvalue\n  dup1\n  iszero\n  tag_1\n  jumpi\n  0x00\n  dup1\n  revert\ntag_1:\n  pop\n  dataSize(sub_0)\n  dup1\n  dataOffset(sub_0)\n  0x00\n  codecopy\n  0x00\n  return\nstop\n\nsub_0: assembly {\n        /* \"contracts/AppointmentScheduler.sol\":258:3975  contract AppointmentScheduler {... */\n      mstore(0x40, 0x80)\n      callvalue\n      dup1\n      iszero\n      tag_1\n      jumpi\n      0x00\n      dup1\n      revert\n    tag_1:\n      pop\n      jumpi(tag_2, lt(calldatasize, 0x04))\n      shr(0xe0, calldataload(0x00))\n      dup1\n      0xc667e4ff\n      gt\n      tag_11\n      jumpi\n      dup1\n      0xc667e4ff\n      eq\n      tag_7\n      jumpi\n      dup1\n      0xce2a18ce\n      eq\n      tag_8\n      jumpi\n      dup1\n      0xe6ab0f59\n      eq\n      tag_9\n      jumpi\n      dup1\n      0xfe7ec2d6\n      eq\n      tag_10\n      jumpi\n      jump(tag_2)\n    tag_11:\n      dup1\n      0x1a0cc30b\n      eq\n      tag_3\n      jumpi\n      dup1\n      0x6c4eedb8\n      eq\n      tag_4\n      jumpi\n      dup1\n      0x8fd3a372\n      eq\n      tag_5\n      jumpi\n      dup1\n      0xad36769b\n      eq\n      tag_6\n      jumpi\n    tag_2:\n      0x00\n      dup1\n      revert\n        /* \"contracts/AppointmentScheduler.sol\":3462:3601  function getHashId(uint256 date, uint256 time) public pure returns (bytes32){... */\n    tag_3:\n      tag_12\n      0x04\n      dup1\n      calldatasize\n      sub\n      dup2\n      add\n      swap1\n      tag_13\n      swap2\n      swap1\n      tag_14\n      jump\t// in\n    tag_13:\n      tag_15\n      jump\t// in\n    tag_12:\n      mload(0x40)\n      tag_16\n      swap2\n      swap1\n      tag_17\n      jump\t// in\n    tag_16:\n      mload(0x40)\n      dup1\n      swap2\n      sub\n      swap1\n      return\n        /* \"contracts/AppointmentScheduler.sol\":712:1530  function bookAppointment(Appointment.AppointmentRecord memory appointment) external returns (Appointment.AppointmentRecord memory){        ... */\n    tag_4:\n      tag_18\n      0x04\n      dup1\n      calldatasize\n      sub\n      dup2\n      add\n      swap1\n      tag_19\n      swap2\n      swap1\n      tag_20\n      jump\t// in\n    tag_19:\n      tag_21\n      jump\t// in\n    tag_18:\n      mload(0x40)\n      tag_22\n      swap2\n      swap1\n      tag_23\n      jump\t// in\n    tag_22:\n      mload(0x40)\n      dup1\n      swap2\n      sub\n      swap1\n      return\n        /* \"contracts/AppointmentScheduler.sol\":3607:3972  function sendAppointmentReminder() external view {... */\n    tag_5:\n      tag_24\n      tag_25\n      jump\t// in\n    tag_24:\n      stop\n        /* \"contracts/AppointmentScheduler.sol\":352:422  mapping (bytes32 => Appointment.AppointmentRecord) public appointments */\n    tag_6:\n      tag_26\n      0x04\n      dup1\n      calldatasize\n      sub\n      dup2\n      add\n      swap1\n      tag_27\n      swap2\n      swap1\n      tag_28\n      jump\t// in\n    tag_27:\n      tag_29\n      jump\t// in\n    tag_26:\n      mload(0x40)\n      tag_30\n      swap8\n      swap7\n      swap6\n      swap5\n      swap4\n      swap3\n      swap2\n      swap1\n      tag_31\n      jump\t// in\n    tag_30:\n      mload(0x40)\n      dup1\n      swap2\n      sub\n      swap1\n      return\n        /* \"contracts/AppointmentScheduler.sol\":3206:3329  function checkAvailability(bytes32 slot) public view returns (bool) {        ... */\n    tag_7:\n      tag_32\n      0x04\n      dup1\n      calldatasize\n      sub\n      dup2\n      add\n      swap1\n      tag_33\n      swap2\n      swap1\n      tag_28\n      jump\t// in\n    tag_33:\n      tag_34\n      jump\t// in\n    tag_32:\n      mload(0x40)\n      tag_35\n      swap2\n      swap1\n      tag_36\n      jump\t// in\n    tag_35:\n      mload(0x40)\n      dup1\n      swap2\n      sub\n      swap1\n      return\n        /* \"contracts/AppointmentScheduler.sol\":3014:3153  function getAppointment(bytes32 apptId) public view returns (Appointment.AppointmentRecord memory) {... */\n    tag_8:\n      tag_37\n      0x04\n      dup1\n      calldatasize\n      sub\n      dup2\n      add\n      swap1\n      tag_38\n      swap2\n      swap1\n      tag_28\n      jump\t// in\n    tag_38:\n      tag_39\n      jump\t// in\n    tag_37:\n      mload(0x40)\n      tag_40\n      swap2\n      swap1\n      tag_23\n      jump\t// in\n    tag_40:\n      mload(0x40)\n      dup1\n      swap2\n      sub\n      swap1\n      return\n        /* \"contracts/AppointmentScheduler.sol\":2438:2974  function cancelAppointment(bytes32 apptId) external returns (bool){... */\n    tag_9:\n      tag_41\n      0x04\n      dup1\n      calldatasize\n      sub\n      dup2\n      add\n      swap1\n      tag_42\n      swap2\n      swap1\n      tag_28\n      jump\t// in\n    tag_42:\n      tag_43\n      jump\t// in\n    tag_41:\n      mload(0x40)\n      tag_44\n      swap2\n      swap1\n      tag_36\n      jump\t// in\n    tag_44:\n      mload(0x40)\n      dup1\n      swap2\n      sub\n      swap1\n      return\n        /* \"contracts/AppointmentScheduler.sol\":432:482  mapping (bytes32 => bool) public appointmentStatus */\n    tag_10:\n      tag_45\n      0x04\n      dup1\n      calldatasize\n      sub\n      dup2\n      add\n      swap1\n      tag_46\n      swap2\n      swap1\n      tag_28\n      jump\t// in\n    tag_46:\n      tag_47\n      jump\t// in\n    tag_45:\n      mload(0x40)\n      tag_48\n      swap2\n      swap1\n      tag_36\n      jump\t// in\n    tag_48:\n      mload(0x40)\n      dup1\n      swap2\n      sub\n      swap1\n      return\n        /* \"contracts/AppointmentScheduler.sol\":3462:3601  function getHashId(uint256 date, uint256 time) public pure returns (bytes32){... */\n    tag_15:\n        /* \"contracts/AppointmentScheduler.sol\":3530:3537  bytes32 */\n      0x00\n        /* \"contracts/AppointmentScheduler.sol\":3582:3586  date */\n      dup3\n        /* \"contracts/AppointmentScheduler.sol\":3588:3592  time */\n      dup3\n        /* \"contracts/AppointmentScheduler.sol\":3565:3593  abi.encodePacked(date, time) */\n      add(0x20, mload(0x40))\n      tag_50\n      swap3\n      swap2\n      swap1\n      tag_51\n      jump\t// in\n    tag_50:\n      mload(0x40)\n      0x20\n      dup2\n      dup4\n      sub\n      sub\n      dup2\n      mstore\n      swap1\n      0x40\n      mstore\n        /* \"contracts/AppointmentScheduler.sol\":3555:3594  keccak256(abi.encodePacked(date, time)) */\n      dup1\n      mload\n      swap1\n      0x20\n      add\n      keccak256\n        /* \"contracts/AppointmentScheduler.sol\":3548:3594  return keccak256(abi.encodePacked(date, time)) */\n      swap1\n      pop\n        /* \"contracts/AppointmentScheduler.sol\":3462:3601  function getHashId(uint256 date, uint256 time) public pure returns (bytes32){... */\n      swap3\n      swap2\n      pop\n      pop\n      jump\t// out\n        /* \"contracts/AppointmentScheduler.sol\":712:1530  function bookAppointment(Appointment.AppointmentRecord memory appointment) external returns (Appointment.AppointmentRecord memory){        ... */\n    tag_21:\n        /* \"contracts/AppointmentScheduler.sol\":805:841  Appointment.AppointmentRecord memory */\n      tag_52\n      tag_53\n      jump\t// in\n    tag_52:\n        /* \"contracts/AppointmentScheduler.sol\":860:874  bytes32 apptId */\n      0x00\n        /* \"contracts/AppointmentScheduler.sol\":877:943  getHashId(appointment.appointmentDate,appointment.appointmentTime) */\n      tag_55\n        /* \"contracts/AppointmentScheduler.sol\":887:898  appointment */\n      dup4\n        /* \"contracts/AppointmentScheduler.sol\":887:914  appointment.appointmentDate */\n      0x20\n      add\n      mload\n        /* \"contracts/AppointmentScheduler.sol\":915:926  appointment */\n      dup5\n        /* \"contracts/AppointmentScheduler.sol\":915:942  appointment.appointmentTime */\n      0x40\n      add\n      mload\n        /* \"contracts/AppointmentScheduler.sol\":877:886  getHashId */\n      tag_15\n        /* \"contracts/AppointmentScheduler.sol\":877:943  getHashId(appointment.appointmentDate,appointment.appointmentTime) */\n      jump\t// in\n    tag_55:\n        /* \"contracts/AppointmentScheduler.sol\":860:943  bytes32 apptId = getHashId(appointment.appointmentDate,appointment.appointmentTime) */\n      swap1\n      pop\n        /* \"contracts/AppointmentScheduler.sol\":961:978  appointmentStatus */\n      0x01\n        /* \"contracts/AppointmentScheduler.sol\":961:986  appointmentStatus[apptId] */\n      0x00\n        /* \"contracts/AppointmentScheduler.sol\":979:985  apptId */\n      dup3\n        /* \"contracts/AppointmentScheduler.sol\":961:986  appointmentStatus[apptId] */\n      dup2\n      mstore\n      0x20\n      add\n      swap1\n      dup2\n      mstore\n      0x20\n      add\n      0x00\n      keccak256\n      0x00\n      swap1\n      sload\n      swap1\n      0x0100\n      exp\n      swap1\n      div\n      0xff\n      and\n        /* \"contracts/AppointmentScheduler.sol\":953:1029  require(appointmentStatus[apptId], \"This appointment slot is not available\") */\n      tag_56\n      jumpi\n      mload(0x40)\n      0x08c379a000000000000000000000000000000000000000000000000000000000\n      dup2\n      mstore\n      0x04\n      add\n      tag_57\n      swap1\n      tag_58\n      jump\t// in\n    tag_57:\n      mload(0x40)\n      dup1\n      swap2\n      sub\n      swap1\n      revert\n    tag_56:\n        /* \"contracts/AppointmentScheduler.sol\":1049:1062  StructHelpers */\n      linkerSymbol(\"288d728ca5367516b201473e0fe842eff5787a424f4de81e8fb425ee3b78622c\")\n        /* \"contracts/AppointmentScheduler.sol\":1049:1072  StructHelpers.isDefault */\n      0x5b16923c\n        /* \"contracts/AppointmentScheduler.sol\":1084:1095  appointment */\n      dup5\n        /* \"contracts/AppointmentScheduler.sol\":1073:1096  abi.encode(appointment) */\n      add(0x20, mload(0x40))\n      tag_59\n      swap2\n      swap1\n      tag_23\n      jump\t// in\n    tag_59:\n      mload(0x40)\n      0x20\n      dup2\n      dup4\n      sub\n      sub\n      dup2\n      mstore\n      swap1\n      0x40\n      mstore\n        /* \"contracts/AppointmentScheduler.sol\":1049:1097  StructHelpers.isDefault(abi.encode(appointment)) */\n      mload(0x40)\n      dup3\n      0xffffffff\n      and\n      0xe0\n      shl\n      dup2\n      mstore\n      0x04\n      add\n      tag_60\n      swap2\n      swap1\n      tag_61\n      jump\t// in\n    tag_60:\n      0x20\n      mload(0x40)\n      dup1\n      dup4\n      sub\n      dup2\n      dup7\n      gas\n      delegatecall\n      iszero\n      dup1\n      iszero\n      tag_63\n      jumpi\n      returndatasize\n      0x00\n      dup1\n      returndatacopy\n      revert(0x00, returndatasize)\n    tag_63:\n      pop\n      pop\n      pop\n      pop\n      mload(0x40)\n      returndatasize\n      not(0x1f)\n      0x1f\n      dup3\n      add\n      and\n      dup3\n      add\n      dup1\n      0x40\n      mstore\n      pop\n      dup2\n      add\n      swap1\n      tag_64\n      swap2\n      swap1\n      tag_65\n      jump\t// in\n    tag_64:\n        /* \"contracts/AppointmentScheduler.sol\":1047:1098  !(StructHelpers.isDefault(abi.encode(appointment))) */\n      iszero\n        /* \"contracts/AppointmentScheduler.sol\":1039:1146  require(!(StructHelpers.isDefault(abi.encode(appointment))),\"Empty Appointment. Prepare appointment again\") */\n      tag_66\n      jumpi\n      mload(0x40)\n      0x08c379a000000000000000000000000000000000000000000000000000000000\n      dup2\n      mstore\n      0x04\n      add\n      tag_67\n      swap1\n      tag_68\n      jump\t// in\n    tag_67:\n      mload(0x40)\n      dup1\n      swap2\n      sub\n      swap1\n      revert\n    tag_66:\n        /* \"contracts/AppointmentScheduler.sol\":1225:1236  appointment */\n      dup3\n        /* \"contracts/AppointmentScheduler.sol\":1202:1214  appointments */\n      0x00\n        /* \"contracts/AppointmentScheduler.sol\":1202:1222  appointments[apptId] */\n      dup1\n        /* \"contracts/AppointmentScheduler.sol\":1215:1221  apptId */\n      dup4\n        /* \"contracts/AppointmentScheduler.sol\":1202:1222  appointments[apptId] */\n      dup2\n      mstore\n      0x20\n      add\n      swap1\n      dup2\n      mstore\n      0x20\n      add\n      0x00\n      keccak256\n        /* \"contracts/AppointmentScheduler.sol\":1202:1236  appointments[apptId] = appointment */\n      0x00\n      dup3\n      add\n      mload\n      dup2\n      0x00\n      add\n      sstore\n      0x20\n      dup3\n      add\n      mload\n      dup2\n      0x01\n      add\n      sstore\n      0x40\n      dup3\n      add\n      mload\n      dup2\n      0x02\n      add\n      sstore\n      0x60\n      dup3\n      add\n      mload\n      dup2\n      0x03\n      add\n      exp(0x0100, 0x00)\n      dup2\n      sload\n      dup2\n      0xff\n      mul\n      not\n      and\n      swap1\n      dup4\n      iszero\n      iszero\n      mul\n      or\n      swap1\n      sstore\n      pop\n      0x80\n      dup3\n      add\n      mload\n      dup2\n      0x03\n      add\n      exp(0x0100, 0x01)\n      dup2\n      sload\n      dup2\n      0xffffffffffffffffffffffffffffffffffffffff\n      mul\n      not\n      and\n      swap1\n      dup4\n      0xffffffffffffffffffffffffffffffffffffffff\n      and\n      mul\n      or\n      swap1\n      sstore\n      pop\n      0xa0\n      dup3\n      add\n      mload\n      dup2\n      0x04\n      add\n      exp(0x0100, 0x00)\n      dup2\n      sload\n      dup2\n      0xffffffffffffffffffffffffffffffffffffffff\n      mul\n      not\n      and\n      swap1\n      dup4\n      0xffffffffffffffffffffffffffffffffffffffff\n      and\n      mul\n      or\n      swap1\n      sstore\n      pop\n      0xc0\n      dup3\n      add\n      mload\n      dup2\n      0x05\n      add\n      0x00\n      dup3\n      add\n      mload\n      dup2\n      0x00\n      add\n      swap1\n      dup2\n      tag_69\n      swap2\n      swap1\n      tag_70\n      jump\t// in\n    tag_69:\n      pop\n      0x20\n      dup3\n      add\n      mload\n      dup2\n      0x01\n      add\n      sstore\n      0x40\n      dup3\n      add\n      mload\n      dup2\n      0x02\n      add\n      swap1\n      dup2\n      tag_71\n      swap2\n      swap1\n      tag_70\n      jump\t// in\n    tag_71:\n      pop\n      0x60\n      dup3\n      add\n      mload\n      dup2\n      0x03\n      add\n      exp(0x0100, 0x00)\n      dup2\n      sload\n      dup2\n      0xff\n      mul\n      not\n      and\n      swap1\n      dup4\n      0x02\n      dup2\n      gt\n      iszero\n      tag_72\n      jumpi\n      tag_73\n      tag_74\n      jump\t// in\n    tag_73:\n    tag_72:\n      mul\n      or\n      swap1\n      sstore\n      pop\n      pop\n      pop\n      swap1\n      pop\n      pop\n        /* \"contracts/AppointmentScheduler.sol\":1322:1327  false */\n      0x00\n        /* \"contracts/AppointmentScheduler.sol\":1294:1311  appointmentStatus */\n      0x01\n        /* \"contracts/AppointmentScheduler.sol\":1294:1319  appointmentStatus[apptId] */\n      0x00\n        /* \"contracts/AppointmentScheduler.sol\":1312:1318  apptId */\n      dup4\n        /* \"contracts/AppointmentScheduler.sol\":1294:1319  appointmentStatus[apptId] */\n      dup2\n      mstore\n      0x20\n      add\n      swap1\n      dup2\n      mstore\n      0x20\n      add\n      0x00\n      keccak256\n      0x00\n        /* \"contracts/AppointmentScheduler.sol\":1294:1327  appointmentStatus[apptId] = false */\n      0x0100\n      exp\n      dup2\n      sload\n      dup2\n      0xff\n      mul\n      not\n      and\n      swap1\n      dup4\n      iszero\n      iszero\n      mul\n      or\n      swap1\n      sstore\n      pop\n        /* \"contracts/AppointmentScheduler.sol\":1339:1357  appointmentCounter */\n      0x03\n      0x00\n        /* \"contracts/AppointmentScheduler.sol\":1339:1359  appointmentCounter++ */\n      dup2\n      sload\n      dup1\n      swap3\n      swap2\n      swap1\n      tag_75\n      swap1\n      tag_76\n      jump\t// in\n    tag_75:\n      swap2\n      swap1\n      pop\n      sstore\n      pop\n        /* \"contracts/AppointmentScheduler.sol\":1396:1402  apptId */\n      dup1\n        /* \"contracts/AppointmentScheduler.sol\":1369:1373  keys */\n      0x02\n        /* \"contracts/AppointmentScheduler.sol\":1374:1392  appointmentCounter */\n      sload(0x03)\n        /* \"contracts/AppointmentScheduler.sol\":1369:1393  keys[appointmentCounter] */\n      dup2\n      sload\n      dup2\n      lt\n      tag_77\n      jumpi\n      tag_78\n      tag_79\n      jump\t// in\n    tag_78:\n    tag_77:\n      swap1\n      0x00\n      mstore\n      keccak256(0x00, 0x20)\n      add\n        /* \"contracts/AppointmentScheduler.sol\":1369:1402  keys[appointmentCounter] = apptId */\n      dup2\n      swap1\n      sstore\n      pop\n        /* \"contracts/AppointmentScheduler.sol\":1418:1486  AppointmentCreated(appointment.patientAddress,\"Appointment Created\") */\n      0x197573e6ee0a27ad5493dc78bfc764115300b091175e7e7eb57c984ff1a3bc97\n        /* \"contracts/AppointmentScheduler.sol\":1437:1448  appointment */\n      dup4\n        /* \"contracts/AppointmentScheduler.sol\":1437:1463  appointment.patientAddress */\n      0x80\n      add\n      mload\n        /* \"contracts/AppointmentScheduler.sol\":1418:1486  AppointmentCreated(appointment.patientAddress,\"Appointment Created\") */\n      mload(0x40)\n      tag_81\n      swap2\n      swap1\n      tag_82\n      jump\t// in\n    tag_81:\n      mload(0x40)\n      dup1\n      swap2\n      sub\n      swap1\n      log1\n        /* \"contracts/AppointmentScheduler.sol\":1503:1515  appointments */\n      0x00\n        /* \"contracts/AppointmentScheduler.sol\":1503:1523  appointments[apptId] */\n      dup1\n        /* \"contracts/AppointmentScheduler.sol\":1516:1522  apptId */\n      dup3\n        /* \"contracts/AppointmentScheduler.sol\":1503:1523  appointments[apptId] */\n      dup2\n      mstore\n      0x20\n      add\n      swap1\n      dup2\n      mstore\n      0x20\n      add\n      0x00\n      keccak256\n        /* \"contracts/AppointmentScheduler.sol\":1496:1523  return appointments[apptId] */\n      mload(0x40)\n      dup1\n      0xe0\n      add\n      0x40\n      mstore\n      swap1\n      dup2\n      0x00\n      dup3\n      add\n      sload\n      dup2\n      mstore\n      0x20\n      add\n      0x01\n      dup3\n      add\n      sload\n      dup2\n      mstore\n      0x20\n      add\n      0x02\n      dup3\n      add\n      sload\n      dup2\n      mstore\n      0x20\n      add\n      0x03\n      dup3\n      add\n      0x00\n      swap1\n      sload\n      swap1\n      0x0100\n      exp\n      swap1\n      div\n      0xff\n      and\n      iszero\n      iszero\n      iszero\n      iszero\n      dup2\n      mstore\n      0x20\n      add\n      0x03\n      dup3\n      add\n      0x01\n      swap1\n      sload\n      swap1\n      0x0100\n      exp\n      swap1\n      div\n      0xffffffffffffffffffffffffffffffffffffffff\n      and\n      0xffffffffffffffffffffffffffffffffffffffff\n      and\n      0xffffffffffffffffffffffffffffffffffffffff\n      and\n      dup2\n      mstore\n      0x20\n      add\n      0x04\n      dup3\n      add\n      0x00\n      swap1\n      sload\n      swap1\n      0x0100\n      exp\n      swap1\n      div\n      0xffffffffffffffffffffffffffffffffffffffff\n      and\n      0xffffffffffffffffffffffffffffffffffffffff\n      and\n      0xffffffffffffffffffffffffffffffffffffffff\n      and\n      dup2\n      mstore\n      0x20\n      add\n      0x05\n      dup3\n      add\n      mload(0x40)\n      dup1\n      0x80\n      add\n      0x40\n      mstore\n      swap1\n      dup2\n      0x00\n      dup3\n      add\n      dup1\n      sload\n      tag_83\n      swap1\n      tag_84\n      jump\t// in\n    tag_83:\n      dup1\n      0x1f\n      add\n      0x20\n      dup1\n      swap2\n      div\n      mul\n      0x20\n      add\n      mload(0x40)\n      swap1\n      dup2\n      add\n      0x40\n      mstore\n      dup1\n      swap3\n      swap2\n      swap1\n      dup2\n      dup2\n      mstore\n      0x20\n      add\n      dup3\n      dup1\n      sload\n      tag_85\n      swap1\n      tag_84\n      jump\t// in\n    tag_85:\n      dup1\n      iszero\n      tag_86\n      jumpi\n      dup1\n      0x1f\n      lt\n      tag_87\n      jumpi\n      0x0100\n      dup1\n      dup4\n      sload\n      div\n      mul\n      dup4\n      mstore\n      swap2\n      0x20\n      add\n      swap2\n      jump(tag_86)\n    tag_87:\n      dup3\n      add\n      swap2\n      swap1\n      0x00\n      mstore\n      keccak256(0x00, 0x20)\n      swap1\n    tag_88:\n      dup2\n      sload\n      dup2\n      mstore\n      swap1\n      0x01\n      add\n      swap1\n      0x20\n      add\n      dup1\n      dup4\n      gt\n      tag_88\n      jumpi\n      dup3\n      swap1\n      sub\n      0x1f\n      and\n      dup3\n      add\n      swap2\n    tag_86:\n      pop\n      pop\n      pop\n      pop\n      pop\n      dup2\n      mstore\n      0x20\n      add\n      0x01\n      dup3\n      add\n      sload\n      dup2\n      mstore\n      0x20\n      add\n      0x02\n      dup3\n      add\n      dup1\n      sload\n      tag_89\n      swap1\n      tag_84\n      jump\t// in\n    tag_89:\n      dup1\n      0x1f\n      add\n      0x20\n      dup1\n      swap2\n      div\n      mul\n      0x20\n      add\n      mload(0x40)\n      swap1\n      dup2\n      add\n      0x40\n      mstore\n      dup1\n      swap3\n      swap2\n      swap1\n      dup2\n      dup2\n      mstore\n      0x20\n      add\n      dup3\n      dup1\n      sload\n      tag_90\n      swap1\n      tag_84\n      jump\t// in\n    tag_90:\n      dup1\n      iszero\n      tag_91\n      jumpi\n      dup1\n      0x1f\n      lt\n      tag_92\n      jumpi\n      0x0100\n      dup1\n      dup4\n      sload\n      div\n      mul\n      dup4\n      mstore\n      swap2\n      0x20\n      add\n      swap2\n      jump(tag_91)\n    tag_92:\n      dup3\n      add\n      swap2\n      swap1\n      0x00\n      mstore\n      keccak256(0x00, 0x20)\n      swap1\n    tag_93:\n      dup2\n      sload\n      dup2\n      mstore\n      swap1\n      0x01\n      add\n      swap1\n      0x20\n      add\n      dup1\n      dup4\n      gt\n      tag_93\n      jumpi\n      dup3\n      swap1\n      sub\n      0x1f\n      and\n      dup3\n      add\n      swap2\n    tag_91:\n      pop\n      pop\n      pop\n      pop\n      pop\n      dup2\n      mstore\n      0x20\n      add\n      0x03\n      dup3\n      add\n      0x00\n      swap1\n      sload\n      swap1\n      0x0100\n      exp\n      swap1\n      div\n      0xff\n      and\n      0x02\n      dup2\n      gt\n      iszero\n      tag_94\n      jumpi\n      tag_95\n      tag_74\n      jump\t// in\n    tag_95:\n    tag_94:\n      0x02\n      dup2\n      gt\n      iszero\n      tag_96\n      jumpi\n      tag_97\n      tag_74\n      jump\t// in\n    tag_97:\n    tag_96:\n      dup2\n      mstore\n      pop\n      pop\n      dup2\n      mstore\n      pop\n      pop\n      swap2\n      pop\n      pop\n        /* \"contracts/AppointmentScheduler.sol\":712:1530  function bookAppointment(Appointment.AppointmentRecord memory appointment) external returns (Appointment.AppointmentRecord memory){        ... */\n      swap2\n      swap1\n      pop\n      jump\t// out\n        /* \"contracts/AppointmentScheduler.sol\":3607:3972  function sendAppointmentReminder() external view {... */\n    tag_25:\n        /* \"contracts/AppointmentScheduler.sol\":3671:3677  uint i */\n      0x00\n        /* \"contracts/AppointmentScheduler.sol\":3667:3957  for(uint i=0; i<appointmentCounter;i++){... */\n    tag_99:\n        /* \"contracts/AppointmentScheduler.sol\":3683:3701  appointmentCounter */\n      sload(0x03)\n        /* \"contracts/AppointmentScheduler.sol\":3681:3682  i */\n      dup2\n        /* \"contracts/AppointmentScheduler.sol\":3681:3701  i<appointmentCounter */\n      lt\n        /* \"contracts/AppointmentScheduler.sol\":3667:3957  for(uint i=0; i<appointmentCounter;i++){... */\n      iszero\n      tag_100\n      jumpi\n        /* \"contracts/AppointmentScheduler.sol\":3723:3734  bytes32 key */\n      0x00\n        /* \"contracts/AppointmentScheduler.sol\":3737:3741  keys */\n      0x02\n        /* \"contracts/AppointmentScheduler.sol\":3742:3743  i */\n      dup3\n        /* \"contracts/AppointmentScheduler.sol\":3737:3744  keys[i] */\n      dup2\n      sload\n      dup2\n      lt\n      tag_102\n      jumpi\n      tag_103\n      tag_79\n      jump\t// in\n    tag_103:\n    tag_102:\n      swap1\n      0x00\n      mstore\n      keccak256(0x00, 0x20)\n      add\n      sload\n        /* \"contracts/AppointmentScheduler.sol\":3723:3744  bytes32 key = keys[i] */\n      swap1\n      pop\n        /* \"contracts/AppointmentScheduler.sol\":3761:3808  Appointment.AppointmentRecord memory apptRecord */\n      0x00\n        /* \"contracts/AppointmentScheduler.sol\":3811:3823  appointments */\n      dup1\n        /* \"contracts/AppointmentScheduler.sol\":3811:3828  appointments[key] */\n      0x00\n        /* \"contracts/AppointmentScheduler.sol\":3824:3827  key */\n      dup4\n        /* \"contracts/AppointmentScheduler.sol\":3811:3828  appointments[key] */\n      dup2\n      mstore\n      0x20\n      add\n      swap1\n      dup2\n      mstore\n      0x20\n      add\n      0x00\n      keccak256\n        /* \"contracts/AppointmentScheduler.sol\":3761:3828  Appointment.AppointmentRecord memory apptRecord = appointments[key] */\n      mload(0x40)\n      dup1\n      0xe0\n      add\n      0x40\n      mstore\n      swap1\n      dup2\n      0x00\n      dup3\n      add\n      sload\n      dup2\n      mstore\n      0x20\n      add\n      0x01\n      dup3\n      add\n      sload\n      dup2\n      mstore\n      0x20\n      add\n      0x02\n      dup3\n      add\n      sload\n      dup2\n      mstore\n      0x20\n      add\n      0x03\n      dup3\n      add\n      0x00\n      swap1\n      sload\n      swap1\n      0x0100\n      exp\n      swap1\n      div\n      0xff\n      and\n      iszero\n      iszero\n      iszero\n      iszero\n      dup2\n      mstore\n      0x20\n      add\n      0x03\n      dup3\n      add\n      0x01\n      swap1\n      sload\n      swap1\n      0x0100\n      exp\n      swap1\n      div\n      0xffffffffffffffffffffffffffffffffffffffff\n      and\n      0xffffffffffffffffffffffffffffffffffffffff\n      and\n      0xffffffffffffffffffffffffffffffffffffffff\n      and\n      dup2\n      mstore\n      0x20\n      add\n      0x04\n      dup3\n      add\n      0x00\n      swap1\n      sload\n      swap1\n      0x0100\n      exp\n      swap1\n      div\n      0xffffffffffffffffffffffffffffffffffffffff\n      and\n      0xffffffffffffffffffffffffffffffffffffffff\n      and\n      0xffffffffffffffffffffffffffffffffffffffff\n      and\n      dup2\n      mstore\n      0x20\n      add\n      0x05\n      dup3\n      add\n      mload(0x40)\n      dup1\n      0x80\n      add\n      0x40\n      mstore\n      swap1\n      dup2\n      0x00\n      dup3\n      add\n      dup1\n      sload\n      tag_105\n      swap1\n      tag_84\n      jump\t// in\n    tag_105:\n      dup1\n      0x1f\n      add\n      0x20\n      dup1\n      swap2\n      div\n      mul\n      0x20\n      add\n      mload(0x40)\n      swap1\n      dup2\n      add\n      0x40\n      mstore\n      dup1\n      swap3\n      swap2\n      swap1\n      dup2\n      dup2\n      mstore\n      0x20\n      add\n      dup3\n      dup1\n      sload\n      tag_106\n      swap1\n      tag_84\n      jump\t// in\n    tag_106:\n      dup1\n      iszero\n      tag_107\n      jumpi\n      dup1\n      0x1f\n      lt\n      tag_108\n      jumpi\n      0x0100\n      dup1\n      dup4\n      sload\n      div\n      mul\n      dup4\n      mstore\n      swap2\n      0x20\n      add\n      swap2\n      jump(tag_107)\n    tag_108:\n      dup3\n      add\n      swap2\n      swap1\n      0x00\n      mstore\n      keccak256(0x00, 0x20)\n      swap1\n    tag_109:\n      dup2\n      sload\n      dup2\n      mstore\n      swap1\n      0x01\n      add\n      swap1\n      0x20\n      add\n      dup1\n      dup4\n      gt\n      tag_109\n      jumpi\n      dup3\n      swap1\n      sub\n      0x1f\n      and\n      dup3\n      add\n      swap2\n    tag_107:\n      pop\n      pop\n      pop\n      pop\n      pop\n      dup2\n      mstore\n      0x20\n      add\n      0x01\n      dup3\n      add\n      sload\n      dup2\n      mstore\n      0x20\n      add\n      0x02\n      dup3\n      add\n      dup1\n      sload\n      tag_110\n      swap1\n      tag_84\n      jump\t// in\n    tag_110:\n      dup1\n      0x1f\n      add\n      0x20\n      dup1\n      swap2\n      div\n      mul\n      0x20\n      add\n      mload(0x40)\n      swap1\n      dup2\n      add\n      0x40\n      mstore\n      dup1\n      swap3\n      swap2\n      swap1\n      dup2\n      dup2\n      mstore\n      0x20\n      add\n      dup3\n      dup1\n      sload\n      tag_111\n      swap1\n      tag_84\n      jump\t// in\n    tag_111:\n      dup1\n      iszero\n      tag_112\n      jumpi\n      dup1\n      0x1f\n      lt\n      tag_113\n      jumpi\n      0x0100\n      dup1\n      dup4\n      sload\n      div\n      mul\n      dup4\n      mstore\n      swap2\n      0x20\n      add\n      swap2\n      jump(tag_112)\n    tag_113:\n      dup3\n      add\n      swap2\n      swap1\n      0x00\n      mstore\n      keccak256(0x00, 0x20)\n      swap1\n    tag_114:\n      dup2\n      sload\n      dup2\n      mstore\n      swap1\n      0x01\n      add\n      swap1\n      0x20\n      add\n      dup1\n      dup4\n      gt\n      tag_114\n      jumpi\n      dup3\n      swap1\n      sub\n      0x1f\n      and\n      dup3\n      add\n      swap2\n    tag_112:\n      pop\n      pop\n      pop\n      pop\n      pop\n      dup2\n      mstore\n      0x20\n      add\n      0x03\n      dup3\n      add\n      0x00\n      swap1\n      sload\n      swap1\n      0x0100\n      exp\n      swap1\n      div\n      0xff\n      and\n      0x02\n      dup2\n      gt\n      iszero\n      tag_115\n      jumpi\n      tag_116\n      tag_74\n      jump\t// in\n    tag_116:\n    tag_115:\n      0x02\n      dup2\n      gt\n      iszero\n      tag_117\n      jumpi\n      tag_118\n      tag_74\n      jump\t// in\n    tag_118:\n    tag_117:\n      dup2\n      mstore\n      pop\n      pop\n      dup2\n      mstore\n      pop\n      pop\n      swap1\n      pop\n        /* \"contracts/AppointmentScheduler.sol\":3845:3857  uint256 date */\n      0x00\n        /* \"contracts/AppointmentScheduler.sol\":3860:3870  apptRecord */\n      dup2\n        /* \"contracts/AppointmentScheduler.sol\":3860:3886  apptRecord.appointmentDate */\n      0x20\n      add\n      mload\n        /* \"contracts/AppointmentScheduler.sol\":3845:3886  uint256 date = apptRecord.appointmentDate */\n      swap1\n      pop\n        /* \"contracts/AppointmentScheduler.sol\":3903:3915  uint256 time */\n      0x00\n        /* \"contracts/AppointmentScheduler.sol\":3918:3928  apptRecord */\n      dup3\n        /* \"contracts/AppointmentScheduler.sol\":3918:3944  apptRecord.appointmentTime */\n      0x40\n      add\n      mload\n        /* \"contracts/AppointmentScheduler.sol\":3903:3944  uint256 time = apptRecord.appointmentTime */\n      swap1\n      pop\n        /* \"contracts/AppointmentScheduler.sol\":3706:3957  {... */\n      pop\n      pop\n      pop\n      pop\n        /* \"contracts/AppointmentScheduler.sol\":3702:3705  i++ */\n      dup1\n      dup1\n      tag_119\n      swap1\n      tag_76\n      jump\t// in\n    tag_119:\n      swap2\n      pop\n      pop\n        /* \"contracts/AppointmentScheduler.sol\":3667:3957  for(uint i=0; i<appointmentCounter;i++){... */\n      jump(tag_99)\n    tag_100:\n      pop\n        /* \"contracts/AppointmentScheduler.sol\":3607:3972  function sendAppointmentReminder() external view {... */\n      jump\t// out\n        /* \"contracts/AppointmentScheduler.sol\":352:422  mapping (bytes32 => Appointment.AppointmentRecord) public appointments */\n    tag_29:\n      mstore(0x20, 0x00)\n      dup1\n      0x00\n      mstore\n      keccak256(0x00, 0x40)\n      0x00\n      swap2\n      pop\n      swap1\n      pop\n      dup1\n      0x00\n      add\n      sload\n      swap1\n      dup1\n      0x01\n      add\n      sload\n      swap1\n      dup1\n      0x02\n      add\n      sload\n      swap1\n      dup1\n      0x03\n      add\n      0x00\n      swap1\n      sload\n      swap1\n      0x0100\n      exp\n      swap1\n      div\n      0xff\n      and\n      swap1\n      dup1\n      0x03\n      add\n      0x01\n      swap1\n      sload\n      swap1\n      0x0100\n      exp\n      swap1\n      div\n      0xffffffffffffffffffffffffffffffffffffffff\n      and\n      swap1\n      dup1\n      0x04\n      add\n      0x00\n      swap1\n      sload\n      swap1\n      0x0100\n      exp\n      swap1\n      div\n      0xffffffffffffffffffffffffffffffffffffffff\n      and\n      swap1\n      dup1\n      0x05\n      add\n      mload(0x40)\n      dup1\n      0x80\n      add\n      0x40\n      mstore\n      swap1\n      dup2\n      0x00\n      dup3\n      add\n      dup1\n      sload\n      tag_120\n      swap1\n      tag_84\n      jump\t// in\n    tag_120:\n      dup1\n      0x1f\n      add\n      0x20\n      dup1\n      swap2\n      div\n      mul\n      0x20\n      add\n      mload(0x40)\n      swap1\n      dup2\n      add\n      0x40\n      mstore\n      dup1\n      swap3\n      swap2\n      swap1\n      dup2\n      dup2\n      mstore\n      0x20\n      add\n      dup3\n      dup1\n      sload\n      tag_121\n      swap1\n      tag_84\n      jump\t// in\n    tag_121:\n      dup1\n      iszero\n      tag_122\n      jumpi\n      dup1\n      0x1f\n      lt\n      tag_123\n      jumpi\n      0x0100\n      dup1\n      dup4\n      sload\n      div\n      mul\n      dup4\n      mstore\n      swap2\n      0x20\n      add\n      swap2\n      jump(tag_122)\n    tag_123:\n      dup3\n      add\n      swap2\n      swap1\n      0x00\n      mstore\n      keccak256(0x00, 0x20)\n      swap1\n    tag_124:\n      dup2\n      sload\n      dup2\n      mstore\n      swap1\n      0x01\n      add\n      swap1\n      0x20\n      add\n      dup1\n      dup4\n      gt\n      tag_124\n      jumpi\n      dup3\n      swap1\n      sub\n      0x1f\n      and\n      dup3\n      add\n      swap2\n    tag_122:\n      pop\n      pop\n      pop\n      pop\n      pop\n      dup2\n      mstore\n      0x20\n      add\n      0x01\n      dup3\n      add\n      sload\n      dup2\n      mstore\n      0x20\n      add\n      0x02\n      dup3\n      add\n      dup1\n      sload\n      tag_125\n      swap1\n      tag_84\n      jump\t// in\n    tag_125:\n      dup1\n      0x1f\n      add\n      0x20\n      dup1\n      swap2\n      div\n      mul\n      0x20\n      add\n      mload(0x40)\n      swap1\n      dup2\n      add\n      0x40\n      mstore\n      dup1\n      swap3\n      swap2\n      swap1\n      dup2\n      dup2\n      mstore\n      0x20\n      add\n      dup3\n      dup1\n      sload\n      tag_126\n      swap1\n      tag_84\n      jump\t// in\n    tag_126:\n      dup1\n      iszero\n      tag_127\n      jumpi\n      dup1\n      0x1f\n      lt\n      tag_128\n      jumpi\n      0x0100\n      dup1\n      dup4\n      sload\n      div\n      mul\n      dup4\n      mstore\n      swap2\n      0x20\n      add\n      swap2\n      jump(tag_127)\n    tag_128:\n      dup3\n      add\n      swap2\n      swap1\n      0x00\n      mstore\n      keccak256(0x00, 0x20)\n      swap1\n    tag_129:\n      dup2\n      sload\n      dup2\n      mstore\n      swap1\n      0x01\n      add\n      swap1\n      0x20\n      add\n      dup1\n      dup4\n      gt\n      tag_129\n      jumpi\n      dup3\n      swap1\n      sub\n      0x1f\n      and\n      dup3\n      add\n      swap2\n    tag_127:\n      pop\n      pop\n      pop\n      pop\n      pop\n      dup2\n      mstore\n      0x20\n      add\n      0x03\n      dup3\n      add\n      0x00\n      swap1\n      sload\n      swap1\n      0x0100\n      exp\n      swap1\n      div\n      0xff\n      and\n      0x02\n      dup2\n      gt\n      iszero\n      tag_130\n      jumpi\n      tag_131\n      tag_74\n      jump\t// in\n    tag_131:\n    tag_130:\n      0x02\n      dup2\n      gt\n      iszero\n      tag_132\n      jumpi\n      tag_133\n      tag_74\n      jump\t// in\n    tag_133:\n    tag_132:\n      dup2\n      mstore\n      pop\n      pop\n      swap1\n      pop\n      dup8\n      jump\t// out\n        /* \"contracts/AppointmentScheduler.sol\":3206:3329  function checkAvailability(bytes32 slot) public view returns (bool) {        ... */\n    tag_34:\n        /* \"contracts/AppointmentScheduler.sol\":3268:3272  bool */\n      0x00\n        /* \"contracts/AppointmentScheduler.sol\":3299:3316  appointmentStatus */\n      0x01\n        /* \"contracts/AppointmentScheduler.sol\":3299:3322  appointmentStatus[slot] */\n      0x00\n        /* \"contracts/AppointmentScheduler.sol\":3317:3321  slot */\n      dup4\n        /* \"contracts/AppointmentScheduler.sol\":3299:3322  appointmentStatus[slot] */\n      dup2\n      mstore\n      0x20\n      add\n      swap1\n      dup2\n      mstore\n      0x20\n      add\n      0x00\n      keccak256\n      0x00\n      swap1\n      sload\n      swap1\n      0x0100\n      exp\n      swap1\n      div\n      0xff\n      and\n        /* \"contracts/AppointmentScheduler.sol\":3292:3322  return appointmentStatus[slot] */\n      swap1\n      pop\n        /* \"contracts/AppointmentScheduler.sol\":3206:3329  function checkAvailability(bytes32 slot) public view returns (bool) {        ... */\n      swap2\n      swap1\n      pop\n      jump\t// out\n        /* \"contracts/AppointmentScheduler.sol\":3014:3153  function getAppointment(bytes32 apptId) public view returns (Appointment.AppointmentRecord memory) {... */\n    tag_39:\n        /* \"contracts/AppointmentScheduler.sol\":3075:3111  Appointment.AppointmentRecord memory */\n      tag_135\n      tag_53\n      jump\t// in\n    tag_135:\n        /* \"contracts/AppointmentScheduler.sol\":3126:3138  appointments */\n      0x00\n        /* \"contracts/AppointmentScheduler.sol\":3126:3146  appointments[apptId] */\n      dup1\n        /* \"contracts/AppointmentScheduler.sol\":3139:3145  apptId */\n      dup4\n        /* \"contracts/AppointmentScheduler.sol\":3126:3146  appointments[apptId] */\n      dup2\n      mstore\n      0x20\n      add\n      swap1\n      dup2\n      mstore\n      0x20\n      add\n      0x00\n      keccak256\n        /* \"contracts/AppointmentScheduler.sol\":3119:3146  return appointments[apptId] */\n      mload(0x40)\n      dup1\n      0xe0\n      add\n      0x40\n      mstore\n      swap1\n      dup2\n      0x00\n      dup3\n      add\n      sload\n      dup2\n      mstore\n      0x20\n      add\n      0x01\n      dup3\n      add\n      sload\n      dup2\n      mstore\n      0x20\n      add\n      0x02\n      dup3\n      add\n      sload\n      dup2\n      mstore\n      0x20\n      add\n      0x03\n      dup3\n      add\n      0x00\n      swap1\n      sload\n      swap1\n      0x0100\n      exp\n      swap1\n      div\n      0xff\n      and\n      iszero\n      iszero\n      iszero\n      iszero\n      dup2\n      mstore\n      0x20\n      add\n      0x03\n      dup3\n      add\n      0x01\n      swap1\n      sload\n      swap1\n      0x0100\n      exp\n      swap1\n      div\n      0xffffffffffffffffffffffffffffffffffffffff\n      and\n      0xffffffffffffffffffffffffffffffffffffffff\n      and\n      0xffffffffffffffffffffffffffffffffffffffff\n      and\n      dup2\n      mstore\n      0x20\n      add\n      0x04\n      dup3\n      add\n      0x00\n      swap1\n      sload\n      swap1\n      0x0100\n      exp\n      swap1\n      div\n      0xffffffffffffffffffffffffffffffffffffffff\n      and\n      0xffffffffffffffffffffffffffffffffffffffff\n      and\n      0xffffffffffffffffffffffffffffffffffffffff\n      and\n      dup2\n      mstore\n      0x20\n      add\n      0x05\n      dup3\n      add\n      mload(0x40)\n      dup1\n      0x80\n      add\n      0x40\n      mstore\n      swap1\n      dup2\n      0x00\n      dup3\n      add\n      dup1\n      sload\n      tag_137\n      swap1\n      tag_84\n      jump\t// in\n    tag_137:\n      dup1\n      0x1f\n      add\n      0x20\n      dup1\n      swap2\n      div\n      mul\n      0x20\n      add\n      mload(0x40)\n      swap1\n      dup2\n      add\n      0x40\n      mstore\n      dup1\n      swap3\n      swap2\n      swap1\n      dup2\n      dup2\n      mstore\n      0x20\n      add\n      dup3\n      dup1\n      sload\n      tag_138\n      swap1\n      tag_84\n      jump\t// in\n    tag_138:\n      dup1\n      iszero\n      tag_139\n      jumpi\n      dup1\n      0x1f\n      lt\n      tag_140\n      jumpi\n      0x0100\n      dup1\n      dup4\n      sload\n      div\n      mul\n      dup4\n      mstore\n      swap2\n      0x20\n      add\n      swap2\n      jump(tag_139)\n    tag_140:\n      dup3\n      add\n      swap2\n      swap1\n      0x00\n      mstore\n      keccak256(0x00, 0x20)\n      swap1\n    tag_141:\n      dup2\n      sload\n      dup2\n      mstore\n      swap1\n      0x01\n      add\n      swap1\n      0x20\n      add\n      dup1\n      dup4\n      gt\n      tag_141\n      jumpi\n      dup3\n      swap1\n      sub\n      0x1f\n      and\n      dup3\n      add\n      swap2\n    tag_139:\n      pop\n      pop\n      pop\n      pop\n      pop\n      dup2\n      mstore\n      0x20\n      add\n      0x01\n      dup3\n      add\n      sload\n      dup2\n      mstore\n      0x20\n      add\n      0x02\n      dup3\n      add\n      dup1\n      sload\n      tag_142\n      swap1\n      tag_84\n      jump\t// in\n    tag_142:\n      dup1\n      0x1f\n      add\n      0x20\n      dup1\n      swap2\n      div\n      mul\n      0x20\n      add\n      mload(0x40)\n      swap1\n      dup2\n      add\n      0x40\n      mstore\n      dup1\n      swap3\n      swap2\n      swap1\n      dup2\n      dup2\n      mstore\n      0x20\n      add\n      dup3\n      dup1\n      sload\n      tag_143\n      swap1\n      tag_84\n      jump\t// in\n    tag_143:\n      dup1\n      iszero\n      tag_144\n      jumpi\n      dup1\n      0x1f\n      lt\n      tag_145\n      jumpi\n      0x0100\n      dup1\n      dup4\n      sload\n      div\n      mul\n      dup4\n      mstore\n      swap2\n      0x20\n      add\n      swap2\n      jump(tag_144)\n    tag_145:\n      dup3\n      add\n      swap2\n      swap1\n      0x00\n      mstore\n      keccak256(0x00, 0x20)\n      swap1\n    tag_146:\n      dup2\n      sload\n      dup2\n      mstore\n      swap1\n      0x01\n      add\n      swap1\n      0x20\n      add\n      dup1\n      dup4\n      gt\n      tag_146\n      jumpi\n      dup3\n      swap1\n      sub\n      0x1f\n      and\n      dup3\n      add\n      swap2\n    tag_144:\n      pop\n      pop\n      pop\n      pop\n      pop\n      dup2\n      mstore\n      0x20\n      add\n      0x03\n      dup3\n      add\n      0x00\n      swap1\n      sload\n      swap1\n      0x0100\n      exp\n      swap1\n      div\n      0xff\n      and\n      0x02\n      dup2\n      gt\n      iszero\n      tag_147\n      jumpi\n      tag_148\n      tag_74\n      jump\t// in\n    tag_148:\n    tag_147:\n      0x02\n      dup2\n      gt\n      iszero\n      tag_149\n      jumpi\n      tag_150\n      tag_74\n      jump\t// in\n    tag_150:\n    tag_149:\n      dup2\n      mstore\n      pop\n      pop\n      dup2\n      mstore\n      pop\n      pop\n      swap1\n      pop\n        /* \"contracts/AppointmentScheduler.sol\":3014:3153  function getAppointment(bytes32 apptId) public view returns (Appointment.AppointmentRecord memory) {... */\n      swap2\n      swap1\n      pop\n      jump\t// out\n        /* \"contracts/AppointmentScheduler.sol\":2438:2974  function cancelAppointment(bytes32 apptId) external returns (bool){... */\n    tag_43:\n        /* \"contracts/AppointmentScheduler.sol\":2499:2503  bool */\n      0x00\n        /* \"contracts/AppointmentScheduler.sol\":2542:2546  true */\n      0x01\n        /* \"contracts/AppointmentScheduler.sol\":2514:2531  appointmentStatus */\n      dup1\n        /* \"contracts/AppointmentScheduler.sol\":2514:2539  appointmentStatus[apptId] */\n      0x00\n        /* \"contracts/AppointmentScheduler.sol\":2532:2538  apptId */\n      dup5\n        /* \"contracts/AppointmentScheduler.sol\":2514:2539  appointmentStatus[apptId] */\n      dup2\n      mstore\n      0x20\n      add\n      swap1\n      dup2\n      mstore\n      0x20\n      add\n      0x00\n      keccak256\n      0x00\n        /* \"contracts/AppointmentScheduler.sol\":2514:2546  appointmentStatus[apptId] = true */\n      0x0100\n      exp\n      dup2\n      sload\n      dup2\n      0xff\n      mul\n      not\n      and\n      swap1\n      dup4\n      iszero\n      iszero\n      mul\n      or\n      swap1\n      sstore\n      pop\n        /* \"contracts/AppointmentScheduler.sol\":2556:2574  bytes32 lastApptId */\n      0x00\n        /* \"contracts/AppointmentScheduler.sol\":2577:2581  keys */\n      0x02\n        /* \"contracts/AppointmentScheduler.sol\":2582:2600  appointmentCounter */\n      sload(0x03)\n        /* \"contracts/AppointmentScheduler.sol\":2577:2601  keys[appointmentCounter] */\n      dup2\n      sload\n      dup2\n      lt\n      tag_152\n      jumpi\n      tag_153\n      tag_79\n      jump\t// in\n    tag_153:\n    tag_152:\n      swap1\n      0x00\n      mstore\n      keccak256(0x00, 0x20)\n      add\n      sload\n        /* \"contracts/AppointmentScheduler.sol\":2556:2601  bytes32 lastApptId = keys[appointmentCounter] */\n      swap1\n      pop\n        /* \"contracts/AppointmentScheduler.sol\":2615:2621  uint i */\n      0x00\n        /* \"contracts/AppointmentScheduler.sol\":2611:2919  for(uint i=0;i<appointmentCounter;i++){... */\n    tag_155:\n        /* \"contracts/AppointmentScheduler.sol\":2626:2644  appointmentCounter */\n      sload(0x03)\n        /* \"contracts/AppointmentScheduler.sol\":2624:2625  i */\n      dup2\n        /* \"contracts/AppointmentScheduler.sol\":2624:2644  i<appointmentCounter */\n      lt\n        /* \"contracts/AppointmentScheduler.sol\":2611:2919  for(uint i=0;i<appointmentCounter;i++){... */\n      iszero\n      tag_156\n      jumpi\n        /* \"contracts/AppointmentScheduler.sol\":2677:2683  apptId */\n      dup4\n        /* \"contracts/AppointmentScheduler.sol\":2666:2670  keys */\n      0x02\n        /* \"contracts/AppointmentScheduler.sol\":2671:2672  i */\n      dup3\n        /* \"contracts/AppointmentScheduler.sol\":2666:2673  keys[i] */\n      dup2\n      sload\n      dup2\n      lt\n      tag_158\n      jumpi\n      tag_159\n      tag_79\n      jump\t// in\n    tag_159:\n    tag_158:\n      swap1\n      0x00\n      mstore\n      keccak256(0x00, 0x20)\n      add\n      sload\n        /* \"contracts/AppointmentScheduler.sol\":2666:2683  keys[i] == apptId */\n      sub\n        /* \"contracts/AppointmentScheduler.sol\":2663:2909  if(keys[i] == apptId){... */\n      tag_161\n      jumpi\n        /* \"contracts/AppointmentScheduler.sol\":2712:2722  lastApptId */\n      dup2\n        /* \"contracts/AppointmentScheduler.sol\":2702:2706  keys */\n      0x02\n        /* \"contracts/AppointmentScheduler.sol\":2707:2708  i */\n      dup3\n        /* \"contracts/AppointmentScheduler.sol\":2702:2709  keys[i] */\n      dup2\n      sload\n      dup2\n      lt\n      tag_162\n      jumpi\n      tag_163\n      tag_79\n      jump\t// in\n    tag_163:\n    tag_162:\n      swap1\n      0x00\n      mstore\n      keccak256(0x00, 0x20)\n      add\n        /* \"contracts/AppointmentScheduler.sol\":2702:2722  keys[i] = lastApptId */\n      dup2\n      swap1\n      sstore\n      pop\n        /* \"contracts/AppointmentScheduler.sol\":2740:2758  appointmentCounter */\n      0x03\n      0x00\n        /* \"contracts/AppointmentScheduler.sol\":2740:2760  appointmentCounter-- */\n      dup2\n      sload\n      dup1\n      swap3\n      swap2\n      swap1\n      tag_165\n      swap1\n      tag_166\n      jump\t// in\n    tag_165:\n      swap2\n      swap1\n      pop\n      sstore\n      pop\n        /* \"contracts/AppointmentScheduler.sol\":2783:2865  AppointmentCancelled(appointments[keys[i]].patientAddress,\"Appointment Cancelled\") */\n      0xfcbf52237a5ed0ad3fb8dbebdf16dd6500675445f0d1ccda7780827a3f6446fd\n        /* \"contracts/AppointmentScheduler.sol\":2804:2816  appointments */\n      0x00\n        /* \"contracts/AppointmentScheduler.sol\":2804:2825  appointments[keys[i]] */\n      dup1\n        /* \"contracts/AppointmentScheduler.sol\":2817:2821  keys */\n      0x02\n        /* \"contracts/AppointmentScheduler.sol\":2822:2823  i */\n      dup5\n        /* \"contracts/AppointmentScheduler.sol\":2817:2824  keys[i] */\n      dup2\n      sload\n      dup2\n      lt\n      tag_167\n      jumpi\n      tag_168\n      tag_79\n      jump\t// in\n    tag_168:\n    tag_167:\n      swap1\n      0x00\n      mstore\n      keccak256(0x00, 0x20)\n      add\n      sload\n        /* \"contracts/AppointmentScheduler.sol\":2804:2825  appointments[keys[i]] */\n      dup2\n      mstore\n      0x20\n      add\n      swap1\n      dup2\n      mstore\n      0x20\n      add\n      0x00\n      keccak256\n        /* \"contracts/AppointmentScheduler.sol\":2804:2840  appointments[keys[i]].patientAddress */\n      0x03\n      add\n      0x01\n      swap1\n      sload\n      swap1\n      0x0100\n      exp\n      swap1\n      div\n      0xffffffffffffffffffffffffffffffffffffffff\n      and\n        /* \"contracts/AppointmentScheduler.sol\":2783:2865  AppointmentCancelled(appointments[keys[i]].patientAddress,\"Appointment Cancelled\") */\n      mload(0x40)\n      tag_170\n      swap2\n      swap1\n      tag_171\n      jump\t// in\n    tag_170:\n      mload(0x40)\n      dup1\n      swap2\n      sub\n      swap1\n      log1\n        /* \"contracts/AppointmentScheduler.sol\":2890:2894  true */\n      0x01\n        /* \"contracts/AppointmentScheduler.sol\":2883:2894  return true */\n      swap3\n      pop\n      pop\n      pop\n      jump(tag_151)\n        /* \"contracts/AppointmentScheduler.sol\":2663:2909  if(keys[i] == apptId){... */\n    tag_161:\n        /* \"contracts/AppointmentScheduler.sol\":2645:2648  i++ */\n      dup1\n      dup1\n      tag_172\n      swap1\n      tag_76\n      jump\t// in\n    tag_172:\n      swap2\n      pop\n      pop\n        /* \"contracts/AppointmentScheduler.sol\":2611:2919  for(uint i=0;i<appointmentCounter;i++){... */\n      jump(tag_155)\n    tag_156:\n      pop\n        /* \"contracts/AppointmentScheduler.sol\":2928:2959  revert(\"Appointment Not Found\") */\n      mload(0x40)\n      0x08c379a000000000000000000000000000000000000000000000000000000000\n      dup2\n      mstore\n      0x04\n      add\n      tag_173\n      swap1\n      tag_174\n      jump\t// in\n    tag_173:\n      mload(0x40)\n      dup1\n      swap2\n      sub\n      swap1\n      revert\n        /* \"contracts/AppointmentScheduler.sol\":2438:2974  function cancelAppointment(bytes32 apptId) external returns (bool){... */\n    tag_151:\n      swap2\n      swap1\n      pop\n      jump\t// out\n        /* \"contracts/AppointmentScheduler.sol\":432:482  mapping (bytes32 => bool) public appointmentStatus */\n    tag_47:\n      mstore(0x20, 0x01)\n      dup1\n      0x00\n      mstore\n      keccak256(0x00, 0x40)\n      0x00\n      swap2\n      pop\n      sload\n      swap1\n      0x0100\n      exp\n      swap1\n      div\n      0xff\n      and\n      dup2\n      jump\t// out\n    tag_53:\n      mload(0x40)\n      dup1\n      0xe0\n      add\n      0x40\n      mstore\n      dup1\n      0x00\n      dup1\n      not\n      and\n      dup2\n      mstore\n      0x20\n      add\n      0x00\n      dup2\n      mstore\n      0x20\n      add\n      0x00\n      dup2\n      mstore\n      0x20\n      add\n      iszero(iszero(0x00))\n      dup2\n      mstore\n      0x20\n      add\n      and(0xffffffffffffffffffffffffffffffffffffffff, 0x00)\n      dup2\n      mstore\n      0x20\n      add\n      and(0xffffffffffffffffffffffffffffffffffffffff, 0x00)\n      dup2\n      mstore\n      0x20\n      add\n      tag_175\n      tag_176\n      jump\t// in\n    tag_175:\n      dup2\n      mstore\n      pop\n      swap1\n      jump\t// out\n    tag_176:\n      mload(0x40)\n      dup1\n      0x80\n      add\n      0x40\n      mstore\n      dup1\n      0x60\n      dup2\n      mstore\n      0x20\n      add\n      0x00\n      dup2\n      mstore\n      0x20\n      add\n      0x60\n      dup2\n      mstore\n      0x20\n      add\n      0x00\n      0x02\n      dup2\n      gt\n      iszero\n      tag_177\n      jumpi\n      tag_178\n      tag_74\n      jump\t// in\n    tag_178:\n    tag_177:\n      dup2\n      mstore\n      pop\n      swap1\n      jump\t// out\n        /* \"#utility.yul\":7:82   */\n    tag_179:\n        /* \"#utility.yul\":40:46   */\n      0x00\n        /* \"#utility.yul\":73:75   */\n      0x40\n        /* \"#utility.yul\":67:76   */\n      mload\n        /* \"#utility.yul\":57:76   */\n      swap1\n      pop\n        /* \"#utility.yul\":7:82   */\n      swap1\n      jump\t// out\n        /* \"#utility.yul\":88:205   */\n    tag_180:\n        /* \"#utility.yul\":197:198   */\n      0x00\n        /* \"#utility.yul\":194:195   */\n      dup1\n        /* \"#utility.yul\":187:199   */\n      revert\n        /* \"#utility.yul\":211:328   */\n    tag_181:\n        /* \"#utility.yul\":320:321   */\n      0x00\n        /* \"#utility.yul\":317:318   */\n      dup1\n        /* \"#utility.yul\":310:322   */\n      revert\n        /* \"#utility.yul\":334:411   */\n    tag_182:\n        /* \"#utility.yul\":371:378   */\n      0x00\n        /* \"#utility.yul\":400:405   */\n      dup2\n        /* \"#utility.yul\":389:405   */\n      swap1\n      pop\n        /* \"#utility.yul\":334:411   */\n      swap2\n      swap1\n      pop\n      jump\t// out\n        /* \"#utility.yul\":417:539   */\n    tag_183:\n        /* \"#utility.yul\":490:514   */\n      tag_270\n        /* \"#utility.yul\":508:513   */\n      dup2\n        /* \"#utility.yul\":490:514   */\n      tag_182\n      jump\t// in\n    tag_270:\n        /* \"#utility.yul\":483:488   */\n      dup2\n        /* \"#utility.yul\":480:515   */\n      eq\n        /* \"#utility.yul\":470:533   */\n      tag_271\n      jumpi\n        /* \"#utility.yul\":529:530   */\n      0x00\n        /* \"#utility.yul\":526:527   */\n      dup1\n        /* \"#utility.yul\":519:531   */\n      revert\n        /* \"#utility.yul\":470:533   */\n    tag_271:\n        /* \"#utility.yul\":417:539   */\n      pop\n      jump\t// out\n        /* \"#utility.yul\":545:684   */\n    tag_184:\n        /* \"#utility.yul\":591:596   */\n      0x00\n        /* \"#utility.yul\":629:635   */\n      dup2\n        /* \"#utility.yul\":616:636   */\n      calldataload\n        /* \"#utility.yul\":607:636   */\n      swap1\n      pop\n        /* \"#utility.yul\":645:678   */\n      tag_273\n        /* \"#utility.yul\":672:677   */\n      dup2\n        /* \"#utility.yul\":645:678   */\n      tag_183\n      jump\t// in\n    tag_273:\n        /* \"#utility.yul\":545:684   */\n      swap3\n      swap2\n      pop\n      pop\n      jump\t// out\n        /* \"#utility.yul\":690:1164   */\n    tag_14:\n        /* \"#utility.yul\":758:764   */\n      0x00\n        /* \"#utility.yul\":766:772   */\n      dup1\n        /* \"#utility.yul\":815:817   */\n      0x40\n        /* \"#utility.yul\":803:812   */\n      dup4\n        /* \"#utility.yul\":794:801   */\n      dup6\n        /* \"#utility.yul\":790:813   */\n      sub\n        /* \"#utility.yul\":786:818   */\n      slt\n        /* \"#utility.yul\":783:902   */\n      iszero\n      tag_275\n      jumpi\n        /* \"#utility.yul\":821:900   */\n      tag_276\n      tag_180\n      jump\t// in\n    tag_276:\n        /* \"#utility.yul\":783:902   */\n    tag_275:\n        /* \"#utility.yul\":941:942   */\n      0x00\n        /* \"#utility.yul\":966:1019   */\n      tag_277\n        /* \"#utility.yul\":1011:1018   */\n      dup6\n        /* \"#utility.yul\":1002:1008   */\n      dup3\n        /* \"#utility.yul\":991:1000   */\n      dup7\n        /* \"#utility.yul\":987:1009   */\n      add\n        /* \"#utility.yul\":966:1019   */\n      tag_184\n      jump\t// in\n    tag_277:\n        /* \"#utility.yul\":956:1019   */\n      swap3\n      pop\n        /* \"#utility.yul\":912:1029   */\n      pop\n        /* \"#utility.yul\":1068:1070   */\n      0x20\n        /* \"#utility.yul\":1094:1147   */\n      tag_278\n        /* \"#utility.yul\":1139:1146   */\n      dup6\n        /* \"#utility.yul\":1130:1136   */\n      dup3\n        /* \"#utility.yul\":1119:1128   */\n      dup7\n        /* \"#utility.yul\":1115:1137   */\n      add\n        /* \"#utility.yul\":1094:1147   */\n      tag_184\n      jump\t// in\n    tag_278:\n        /* \"#utility.yul\":1084:1147   */\n      swap2\n      pop\n        /* \"#utility.yul\":1039:1157   */\n      pop\n        /* \"#utility.yul\":690:1164   */\n      swap3\n      pop\n      swap3\n      swap1\n      pop\n      jump\t// out\n        /* \"#utility.yul\":1170:1247   */\n    tag_185:\n        /* \"#utility.yul\":1207:1214   */\n      0x00\n        /* \"#utility.yul\":1236:1241   */\n      dup2\n        /* \"#utility.yul\":1225:1241   */\n      swap1\n      pop\n        /* \"#utility.yul\":1170:1247   */\n      swap2\n      swap1\n      pop\n      jump\t// out\n        /* \"#utility.yul\":1253:1371   */\n    tag_186:\n        /* \"#utility.yul\":1340:1364   */\n      tag_281\n        /* \"#utility.yul\":1358:1363   */\n      dup2\n        /* \"#utility.yul\":1340:1364   */\n      tag_185\n      jump\t// in\n    tag_281:\n        /* \"#utility.yul\":1335:1338   */\n      dup3\n        /* \"#utility.yul\":1328:1365   */\n      mstore\n        /* \"#utility.yul\":1253:1371   */\n      pop\n      pop\n      jump\t// out\n        /* \"#utility.yul\":1377:1599   */\n    tag_17:\n        /* \"#utility.yul\":1470:1474   */\n      0x00\n        /* \"#utility.yul\":1508:1510   */\n      0x20\n        /* \"#utility.yul\":1497:1506   */\n      dup3\n        /* \"#utility.yul\":1493:1511   */\n      add\n        /* \"#utility.yul\":1485:1511   */\n      swap1\n      pop\n        /* \"#utility.yul\":1521:1592   */\n      tag_283\n        /* \"#utility.yul\":1589:1590   */\n      0x00\n        /* \"#utility.yul\":1578:1587   */\n      dup4\n        /* \"#utility.yul\":1574:1591   */\n      add\n        /* \"#utility.yul\":1565:1571   */\n      dup5\n        /* \"#utility.yul\":1521:1592   */\n      tag_186\n      jump\t// in\n    tag_283:\n        /* \"#utility.yul\":1377:1599   */\n      swap3\n      swap2\n      pop\n      pop\n      jump\t// out\n        /* \"#utility.yul\":1605:1722   */\n    tag_187:\n        /* \"#utility.yul\":1714:1715   */\n      0x00\n        /* \"#utility.yul\":1711:1712   */\n      dup1\n        /* \"#utility.yul\":1704:1716   */\n      revert\n        /* \"#utility.yul\":1728:1830   */\n    tag_188:\n        /* \"#utility.yul\":1769:1775   */\n      0x00\n        /* \"#utility.yul\":1820:1822   */\n      0x1f\n        /* \"#utility.yul\":1816:1823   */\n      not\n        /* \"#utility.yul\":1811:1813   */\n      0x1f\n        /* \"#utility.yul\":1804:1809   */\n      dup4\n        /* \"#utility.yul\":1800:1814   */\n      add\n        /* \"#utility.yul\":1796:1824   */\n      and\n        /* \"#utility.yul\":1786:1824   */\n      swap1\n      pop\n        /* \"#utility.yul\":1728:1830   */\n      swap2\n      swap1\n      pop\n      jump\t// out\n        /* \"#utility.yul\":1836:2016   */\n    tag_189:\n        /* \"#utility.yul\":1884:1961   */\n      0x4e487b7100000000000000000000000000000000000000000000000000000000\n        /* \"#utility.yul\":1881:1882   */\n      0x00\n        /* \"#utility.yul\":1874:1962   */\n      mstore\n        /* \"#utility.yul\":1981:1985   */\n      0x41\n        /* \"#utility.yul\":1978:1979   */\n      0x04\n        /* \"#utility.yul\":1971:1986   */\n      mstore\n        /* \"#utility.yul\":2005:2009   */\n      0x24\n        /* \"#utility.yul\":2002:2003   */\n      0x00\n        /* \"#utility.yul\":1995:2010   */\n      revert\n        /* \"#utility.yul\":2022:2303   */\n    tag_190:\n        /* \"#utility.yul\":2105:2132   */\n      tag_288\n        /* \"#utility.yul\":2127:2131   */\n      dup3\n        /* \"#utility.yul\":2105:2132   */\n      tag_188\n      jump\t// in\n    tag_288:\n        /* \"#utility.yul\":2097:2103   */\n      dup2\n        /* \"#utility.yul\":2093:2133   */\n      add\n        /* \"#utility.yul\":2235:2241   */\n      dup2\n        /* \"#utility.yul\":2223:2233   */\n      dup2\n        /* \"#utility.yul\":2220:2242   */\n      lt\n        /* \"#utility.yul\":2199:2217   */\n      0xffffffffffffffff\n        /* \"#utility.yul\":2187:2197   */\n      dup3\n        /* \"#utility.yul\":2184:2218   */\n      gt\n        /* \"#utility.yul\":2181:2243   */\n      or\n        /* \"#utility.yul\":2178:2266   */\n      iszero\n      tag_289\n      jumpi\n        /* \"#utility.yul\":2246:2264   */\n      tag_290\n      tag_189\n      jump\t// in\n    tag_290:\n        /* \"#utility.yul\":2178:2266   */\n    tag_289:\n        /* \"#utility.yul\":2286:2296   */\n      dup1\n        /* \"#utility.yul\":2282:2284   */\n      0x40\n        /* \"#utility.yul\":2275:2297   */\n      mstore\n        /* \"#utility.yul\":2065:2303   */\n      pop\n        /* \"#utility.yul\":2022:2303   */\n      pop\n      pop\n      jump\t// out\n        /* \"#utility.yul\":2309:2438   */\n    tag_191:\n        /* \"#utility.yul\":2343:2349   */\n      0x00\n        /* \"#utility.yul\":2370:2390   */\n      tag_292\n      tag_179\n      jump\t// in\n    tag_292:\n        /* \"#utility.yul\":2360:2390   */\n      swap1\n      pop\n        /* \"#utility.yul\":2399:2432   */\n      tag_293\n        /* \"#utility.yul\":2427:2431   */\n      dup3\n        /* \"#utility.yul\":2419:2425   */\n      dup3\n        /* \"#utility.yul\":2399:2432   */\n      tag_190\n      jump\t// in\n    tag_293:\n        /* \"#utility.yul\":2309:2438   */\n      swap2\n      swap1\n      pop\n      jump\t// out\n        /* \"#utility.yul\":2444:2561   */\n    tag_192:\n        /* \"#utility.yul\":2553:2554   */\n      0x00\n        /* \"#utility.yul\":2550:2551   */\n      dup1\n        /* \"#utility.yul\":2543:2555   */\n      revert\n        /* \"#utility.yul\":2567:2689   */\n    tag_193:\n        /* \"#utility.yul\":2640:2664   */\n      tag_296\n        /* \"#utility.yul\":2658:2663   */\n      dup2\n        /* \"#utility.yul\":2640:2664   */\n      tag_185\n      jump\t// in\n    tag_296:\n        /* \"#utility.yul\":2633:2638   */\n      dup2\n        /* \"#utility.yul\":2630:2665   */\n      eq\n        /* \"#utility.yul\":2620:2683   */\n      tag_297\n      jumpi\n        /* \"#utility.yul\":2679:2680   */\n      0x00\n        /* \"#utility.yul\":2676:2677   */\n      dup1\n        /* \"#utility.yul\":2669:2681   */\n      revert\n        /* \"#utility.yul\":2620:2683   */\n    tag_297:\n        /* \"#utility.yul\":2567:2689   */\n      pop\n      jump\t// out\n        /* \"#utility.yul\":2695:2834   */\n    tag_194:\n        /* \"#utility.yul\":2741:2746   */\n      0x00\n        /* \"#utility.yul\":2779:2785   */\n      dup2\n        /* \"#utility.yul\":2766:2786   */\n      calldataload\n        /* \"#utility.yul\":2757:2786   */\n      swap1\n      pop\n        /* \"#utility.yul\":2795:2828   */\n      tag_299\n        /* \"#utility.yul\":2822:2827   */\n      dup2\n        /* \"#utility.yul\":2795:2828   */\n      tag_193\n      jump\t// in\n    tag_299:\n        /* \"#utility.yul\":2695:2834   */\n      swap3\n      swap2\n      pop\n      pop\n      jump\t// out\n        /* \"#utility.yul\":2840:2930   */\n    tag_195:\n        /* \"#utility.yul\":2874:2881   */\n      0x00\n        /* \"#utility.yul\":2917:2922   */\n      dup2\n        /* \"#utility.yul\":2910:2923   */\n      iszero\n        /* \"#utility.yul\":2903:2924   */\n      iszero\n        /* \"#utility.yul\":2892:2924   */\n      swap1\n      pop\n        /* \"#utility.yul\":2840:2930   */\n      swap2\n      swap1\n      pop\n      jump\t// out\n        /* \"#utility.yul\":2936:3052   */\n    tag_196:\n        /* \"#utility.yul\":3006:3027   */\n      tag_302\n        /* \"#utility.yul\":3021:3026   */\n      dup2\n        /* \"#utility.yul\":3006:3027   */\n      tag_195\n      jump\t// in\n    tag_302:\n        /* \"#utility.yul\":2999:3004   */\n      dup2\n        /* \"#utility.yul\":2996:3028   */\n      eq\n        /* \"#utility.yul\":2986:3046   */\n      tag_303\n      jumpi\n        /* \"#utility.yul\":3042:3043   */\n      0x00\n        /* \"#utility.yul\":3039:3040   */\n      dup1\n        /* \"#utility.yul\":3032:3044   */\n      revert\n        /* \"#utility.yul\":2986:3046   */\n    tag_303:\n        /* \"#utility.yul\":2936:3052   */\n      pop\n      jump\t// out\n        /* \"#utility.yul\":3058:3191   */\n    tag_197:\n        /* \"#utility.yul\":3101:3106   */\n      0x00\n        /* \"#utility.yul\":3139:3145   */\n      dup2\n        /* \"#utility.yul\":3126:3146   */\n      calldataload\n        /* \"#utility.yul\":3117:3146   */\n      swap1\n      pop\n        /* \"#utility.yul\":3155:3185   */\n      tag_305\n        /* \"#utility.yul\":3179:3184   */\n      dup2\n        /* \"#utility.yul\":3155:3185   */\n      tag_196\n      jump\t// in\n    tag_305:\n        /* \"#utility.yul\":3058:3191   */\n      swap3\n      swap2\n      pop\n      pop\n      jump\t// out\n        /* \"#utility.yul\":3197:3323   */\n    tag_198:\n        /* \"#utility.yul\":3234:3241   */\n      0x00\n        /* \"#utility.yul\":3274:3316   */\n      0xffffffffffffffffffffffffffffffffffffffff\n        /* \"#utility.yul\":3267:3272   */\n      dup3\n        /* \"#utility.yul\":3263:3317   */\n      and\n        /* \"#utility.yul\":3252:3317   */\n      swap1\n      pop\n        /* \"#utility.yul\":3197:3323   */\n      swap2\n      swap1\n      pop\n      jump\t// out\n        /* \"#utility.yul\":3329:3425   */\n    tag_199:\n        /* \"#utility.yul\":3366:3373   */\n      0x00\n        /* \"#utility.yul\":3395:3419   */\n      tag_308\n        /* \"#utility.yul\":3413:3418   */\n      dup3\n        /* \"#utility.yul\":3395:3419   */\n      tag_198\n      jump\t// in\n    tag_308:\n        /* \"#utility.yul\":3384:3419   */\n      swap1\n      pop\n        /* \"#utility.yul\":3329:3425   */\n      swap2\n      swap1\n      pop\n      jump\t// out\n        /* \"#utility.yul\":3431:3553   */\n    tag_200:\n        /* \"#utility.yul\":3504:3528   */\n      tag_310\n        /* \"#utility.yul\":3522:3527   */\n      dup2\n        /* \"#utility.yul\":3504:3528   */\n      tag_199\n      jump\t// in\n    tag_310:\n        /* \"#utility.yul\":3497:3502   */\n      dup2\n        /* \"#utility.yul\":3494:3529   */\n      eq\n        /* \"#utility.yul\":3484:3547   */\n      tag_311\n      jumpi\n        /* \"#utility.yul\":3543:3544   */\n      0x00\n        /* \"#utility.yul\":3540:3541   */\n      dup1\n        /* \"#utility.yul\":3533:3545   */\n      revert\n        /* \"#utility.yul\":3484:3547   */\n    tag_311:\n        /* \"#utility.yul\":3431:3553   */\n      pop\n      jump\t// out\n        /* \"#utility.yul\":3559:3698   */\n    tag_201:\n        /* \"#utility.yul\":3605:3610   */\n      0x00\n        /* \"#utility.yul\":3643:3649   */\n      dup2\n        /* \"#utility.yul\":3630:3650   */\n      calldataload\n        /* \"#utility.yul\":3621:3650   */\n      swap1\n      pop\n        /* \"#utility.yul\":3659:3692   */\n      tag_313\n        /* \"#utility.yul\":3686:3691   */\n      dup2\n        /* \"#utility.yul\":3659:3692   */\n      tag_200\n      jump\t// in\n    tag_313:\n        /* \"#utility.yul\":3559:3698   */\n      swap3\n      swap2\n      pop\n      pop\n      jump\t// out\n        /* \"#utility.yul\":3704:3821   */\n    tag_202:\n        /* \"#utility.yul\":3813:3814   */\n      0x00\n        /* \"#utility.yul\":3810:3811   */\n      dup1\n        /* \"#utility.yul\":3803:3815   */\n      revert\n        /* \"#utility.yul\":3827:3944   */\n    tag_203:\n        /* \"#utility.yul\":3936:3937   */\n      0x00\n        /* \"#utility.yul\":3933:3934   */\n      dup1\n        /* \"#utility.yul\":3926:3938   */\n      revert\n        /* \"#utility.yul\":3950:4258   */\n    tag_204:\n        /* \"#utility.yul\":4012:4016   */\n      0x00\n        /* \"#utility.yul\":4102:4120   */\n      0xffffffffffffffff\n        /* \"#utility.yul\":4094:4100   */\n      dup3\n        /* \"#utility.yul\":4091:4121   */\n      gt\n        /* \"#utility.yul\":4088:4144   */\n      iszero\n      tag_317\n      jumpi\n        /* \"#utility.yul\":4124:4142   */\n      tag_318\n      tag_189\n      jump\t// in\n    tag_318:\n        /* \"#utility.yul\":4088:4144   */\n    tag_317:\n        /* \"#utility.yul\":4162:4191   */\n      tag_319\n        /* \"#utility.yul\":4184:4190   */\n      dup3\n        /* \"#utility.yul\":4162:4191   */\n      tag_188\n      jump\t// in\n    tag_319:\n        /* \"#utility.yul\":4154:4191   */\n      swap1\n      pop\n        /* \"#utility.yul\":4246:4250   */\n      0x20\n        /* \"#utility.yul\":4240:4244   */\n      dup2\n        /* \"#utility.yul\":4236:4251   */\n      add\n        /* \"#utility.yul\":4228:4251   */\n      swap1\n      pop\n        /* \"#utility.yul\":3950:4258   */\n      swap2\n      swap1\n      pop\n      jump\t// out\n        /* \"#utility.yul\":4264:4410   */\n    tag_205:\n        /* \"#utility.yul\":4361:4367   */\n      dup3\n        /* \"#utility.yul\":4356:4359   */\n      dup2\n        /* \"#utility.yul\":4351:4354   */\n      dup4\n        /* \"#utility.yul\":4338:4368   */\n      calldatacopy\n        /* \"#utility.yul\":4402:4403   */\n      0x00\n        /* \"#utility.yul\":4393:4399   */\n      dup4\n        /* \"#utility.yul\":4388:4391   */\n      dup4\n        /* \"#utility.yul\":4384:4400   */\n      add\n        /* \"#utility.yul\":4377:4404   */\n      mstore\n        /* \"#utility.yul\":4264:4410   */\n      pop\n      pop\n      pop\n      jump\t// out\n        /* \"#utility.yul\":4416:4841   */\n    tag_206:\n        /* \"#utility.yul\":4494:4499   */\n      0x00\n        /* \"#utility.yul\":4519:4585   */\n      tag_322\n        /* \"#utility.yul\":4535:4584   */\n      tag_323\n        /* \"#utility.yul\":4577:4583   */\n      dup5\n        /* \"#utility.yul\":4535:4584   */\n      tag_204\n      jump\t// in\n    tag_323:\n        /* \"#utility.yul\":4519:4585   */\n      tag_191\n      jump\t// in\n    tag_322:\n        /* \"#utility.yul\":4510:4585   */\n      swap1\n      pop\n        /* \"#utility.yul\":4608:4614   */\n      dup3\n        /* \"#utility.yul\":4601:4606   */\n      dup2\n        /* \"#utility.yul\":4594:4615   */\n      mstore\n        /* \"#utility.yul\":4646:4650   */\n      0x20\n        /* \"#utility.yul\":4639:4644   */\n      dup2\n        /* \"#utility.yul\":4635:4651   */\n      add\n        /* \"#utility.yul\":4684:4687   */\n      dup5\n        /* \"#utility.yul\":4675:4681   */\n      dup5\n        /* \"#utility.yul\":4670:4673   */\n      dup5\n        /* \"#utility.yul\":4666:4682   */\n      add\n        /* \"#utility.yul\":4663:4688   */\n      gt\n        /* \"#utility.yul\":4660:4772   */\n      iszero\n      tag_324\n      jumpi\n        /* \"#utility.yul\":4691:4770   */\n      tag_325\n      tag_203\n      jump\t// in\n    tag_325:\n        /* \"#utility.yul\":4660:4772   */\n    tag_324:\n        /* \"#utility.yul\":4781:4835   */\n      tag_326\n        /* \"#utility.yul\":4828:4834   */\n      dup5\n        /* \"#utility.yul\":4823:4826   */\n      dup3\n        /* \"#utility.yul\":4818:4821   */\n      dup6\n        /* \"#utility.yul\":4781:4835   */\n      tag_205\n      jump\t// in\n    tag_326:\n        /* \"#utility.yul\":4500:4841   */\n      pop\n        /* \"#utility.yul\":4416:4841   */\n      swap4\n      swap3\n      pop\n      pop\n      pop\n      jump\t// out\n        /* \"#utility.yul\":4861:5201   */\n    tag_207:\n        /* \"#utility.yul\":4917:4922   */\n      0x00\n        /* \"#utility.yul\":4966:4969   */\n      dup3\n        /* \"#utility.yul\":4959:4963   */\n      0x1f\n        /* \"#utility.yul\":4951:4957   */\n      dup4\n        /* \"#utility.yul\":4947:4964   */\n      add\n        /* \"#utility.yul\":4943:4970   */\n      slt\n        /* \"#utility.yul\":4933:5055   */\n      tag_328\n      jumpi\n        /* \"#utility.yul\":4974:5053   */\n      tag_329\n      tag_202\n      jump\t// in\n    tag_329:\n        /* \"#utility.yul\":4933:5055   */\n    tag_328:\n        /* \"#utility.yul\":5091:5097   */\n      dup2\n        /* \"#utility.yul\":5078:5098   */\n      calldataload\n        /* \"#utility.yul\":5116:5195   */\n      tag_330\n        /* \"#utility.yul\":5191:5194   */\n      dup5\n        /* \"#utility.yul\":5183:5189   */\n      dup3\n        /* \"#utility.yul\":5176:5180   */\n      0x20\n        /* \"#utility.yul\":5168:5174   */\n      dup7\n        /* \"#utility.yul\":5164:5181   */\n      add\n        /* \"#utility.yul\":5116:5195   */\n      tag_206\n      jump\t// in\n    tag_330:\n        /* \"#utility.yul\":5107:5195   */\n      swap2\n      pop\n        /* \"#utility.yul\":4923:5201   */\n      pop\n        /* \"#utility.yul\":4861:5201   */\n      swap3\n      swap2\n      pop\n      pop\n      jump\t// out\n        /* \"#utility.yul\":5207:5324   */\n    tag_208:\n        /* \"#utility.yul\":5298:5299   */\n      0x03\n        /* \"#utility.yul\":5291:5296   */\n      dup2\n        /* \"#utility.yul\":5288:5300   */\n      lt\n        /* \"#utility.yul\":5278:5318   */\n      tag_332\n      jumpi\n        /* \"#utility.yul\":5314:5315   */\n      0x00\n        /* \"#utility.yul\":5311:5312   */\n      dup1\n        /* \"#utility.yul\":5304:5316   */\n      revert\n        /* \"#utility.yul\":5278:5318   */\n    tag_332:\n        /* \"#utility.yul\":5207:5324   */\n      pop\n      jump\t// out\n        /* \"#utility.yul\":5330:5505   */\n    tag_209:\n        /* \"#utility.yul\":5394:5399   */\n      0x00\n        /* \"#utility.yul\":5432:5438   */\n      dup2\n        /* \"#utility.yul\":5419:5439   */\n      calldataload\n        /* \"#utility.yul\":5410:5439   */\n      swap1\n      pop\n        /* \"#utility.yul\":5448:5499   */\n      tag_334\n        /* \"#utility.yul\":5493:5498   */\n      dup2\n        /* \"#utility.yul\":5448:5499   */\n      tag_208\n      jump\t// in\n    tag_334:\n        /* \"#utility.yul\":5330:5505   */\n      swap3\n      swap2\n      pop\n      pop\n      jump\t// out\n        /* \"#utility.yul\":5557:6850   */\n    tag_210:\n        /* \"#utility.yul\":5642:5647   */\n      0x00\n        /* \"#utility.yul\":5686:5690   */\n      0x80\n        /* \"#utility.yul\":5674:5683   */\n      dup3\n        /* \"#utility.yul\":5669:5672   */\n      dup5\n        /* \"#utility.yul\":5665:5684   */\n      sub\n        /* \"#utility.yul\":5661:5691   */\n      slt\n        /* \"#utility.yul\":5658:5775   */\n      iszero\n      tag_336\n      jumpi\n        /* \"#utility.yul\":5694:5773   */\n      tag_337\n      tag_187\n      jump\t// in\n    tag_337:\n        /* \"#utility.yul\":5658:5775   */\n    tag_336:\n        /* \"#utility.yul\":5793:5814   */\n      tag_338\n        /* \"#utility.yul\":5809:5813   */\n      0x80\n        /* \"#utility.yul\":5793:5814   */\n      tag_191\n      jump\t// in\n    tag_338:\n        /* \"#utility.yul\":5784:5814   */\n      swap1\n      pop\n        /* \"#utility.yul\":5911:5912   */\n      0x00\n        /* \"#utility.yul\":5900:5909   */\n      dup3\n        /* \"#utility.yul\":5896:5913   */\n      add\n        /* \"#utility.yul\":5883:5914   */\n      calldataload\n        /* \"#utility.yul\":5941:5959   */\n      0xffffffffffffffff\n        /* \"#utility.yul\":5933:5939   */\n      dup2\n        /* \"#utility.yul\":5930:5960   */\n      gt\n        /* \"#utility.yul\":5927:6044   */\n      iszero\n      tag_339\n      jumpi\n        /* \"#utility.yul\":5963:6042   */\n      tag_340\n      tag_192\n      jump\t// in\n    tag_340:\n        /* \"#utility.yul\":5927:6044   */\n    tag_339:\n        /* \"#utility.yul\":6083:6142   */\n      tag_341\n        /* \"#utility.yul\":6138:6141   */\n      dup5\n        /* \"#utility.yul\":6129:6135   */\n      dup3\n        /* \"#utility.yul\":6118:6127   */\n      dup6\n        /* \"#utility.yul\":6114:6136   */\n      add\n        /* \"#utility.yul\":6083:6142   */\n      tag_207\n      jump\t// in\n    tag_341:\n        /* \"#utility.yul\":6076:6080   */\n      0x00\n        /* \"#utility.yul\":6069:6074   */\n      dup4\n        /* \"#utility.yul\":6065:6081   */\n      add\n        /* \"#utility.yul\":6058:6143   */\n      mstore\n        /* \"#utility.yul\":5824:6154   */\n      pop\n        /* \"#utility.yul\":6226:6228   */\n      0x20\n        /* \"#utility.yul\":6267:6316   */\n      tag_342\n        /* \"#utility.yul\":6312:6315   */\n      dup5\n        /* \"#utility.yul\":6303:6309   */\n      dup3\n        /* \"#utility.yul\":6292:6301   */\n      dup6\n        /* \"#utility.yul\":6288:6310   */\n      add\n        /* \"#utility.yul\":6267:6316   */\n      tag_184\n      jump\t// in\n    tag_342:\n        /* \"#utility.yul\":6260:6264   */\n      0x20\n        /* \"#utility.yul\":6253:6258   */\n      dup4\n        /* \"#utility.yul\":6249:6265   */\n      add\n        /* \"#utility.yul\":6242:6317   */\n      mstore\n        /* \"#utility.yul\":6164:6328   */\n      pop\n        /* \"#utility.yul\":6418:6420   */\n      0x40\n        /* \"#utility.yul\":6407:6416   */\n      dup3\n        /* \"#utility.yul\":6403:6421   */\n      add\n        /* \"#utility.yul\":6390:6422   */\n      calldataload\n        /* \"#utility.yul\":6449:6467   */\n      0xffffffffffffffff\n        /* \"#utility.yul\":6441:6447   */\n      dup2\n        /* \"#utility.yul\":6438:6468   */\n      gt\n        /* \"#utility.yul\":6435:6552   */\n      iszero\n      tag_343\n      jumpi\n        /* \"#utility.yul\":6471:6550   */\n      tag_344\n      tag_192\n      jump\t// in\n    tag_344:\n        /* \"#utility.yul\":6435:6552   */\n    tag_343:\n        /* \"#utility.yul\":6591:6650   */\n      tag_345\n        /* \"#utility.yul\":6646:6649   */\n      dup5\n        /* \"#utility.yul\":6637:6643   */\n      dup3\n        /* \"#utility.yul\":6626:6635   */\n      dup6\n        /* \"#utility.yul\":6622:6644   */\n      add\n        /* \"#utility.yul\":6591:6650   */\n      tag_207\n      jump\t// in\n    tag_345:\n        /* \"#utility.yul\":6584:6588   */\n      0x40\n        /* \"#utility.yul\":6577:6582   */\n      dup4\n        /* \"#utility.yul\":6573:6589   */\n      add\n        /* \"#utility.yul\":6566:6651   */\n      mstore\n        /* \"#utility.yul\":6338:6662   */\n      pop\n        /* \"#utility.yul\":6723:6725   */\n      0x60\n        /* \"#utility.yul\":6764:6831   */\n      tag_346\n        /* \"#utility.yul\":6827:6830   */\n      dup5\n        /* \"#utility.yul\":6818:6824   */\n      dup3\n        /* \"#utility.yul\":6807:6816   */\n      dup6\n        /* \"#utility.yul\":6803:6825   */\n      add\n        /* \"#utility.yul\":6764:6831   */\n      tag_209\n      jump\t// in\n    tag_346:\n        /* \"#utility.yul\":6757:6761   */\n      0x60\n        /* \"#utility.yul\":6750:6755   */\n      dup4\n        /* \"#utility.yul\":6746:6762   */\n      add\n        /* \"#utility.yul\":6739:6832   */\n      mstore\n        /* \"#utility.yul\":6672:6843   */\n      pop\n        /* \"#utility.yul\":5557:6850   */\n      swap3\n      swap2\n      pop\n      pop\n      jump\t// out\n        /* \"#utility.yul\":6900:8534   */\n    tag_211:\n        /* \"#utility.yul\":6983:6988   */\n      0x00\n        /* \"#utility.yul\":7027:7031   */\n      0xe0\n        /* \"#utility.yul\":7015:7024   */\n      dup3\n        /* \"#utility.yul\":7010:7013   */\n      dup5\n        /* \"#utility.yul\":7006:7025   */\n      sub\n        /* \"#utility.yul\":7002:7032   */\n      slt\n        /* \"#utility.yul\":6999:7116   */\n      iszero\n      tag_348\n      jumpi\n        /* \"#utility.yul\":7035:7114   */\n      tag_349\n      tag_187\n      jump\t// in\n    tag_349:\n        /* \"#utility.yul\":6999:7116   */\n    tag_348:\n        /* \"#utility.yul\":7134:7155   */\n      tag_350\n        /* \"#utility.yul\":7150:7154   */\n      0xe0\n        /* \"#utility.yul\":7134:7155   */\n      tag_191\n      jump\t// in\n    tag_350:\n        /* \"#utility.yul\":7125:7155   */\n      swap1\n      pop\n        /* \"#utility.yul\":7212:7213   */\n      0x00\n        /* \"#utility.yul\":7252:7301   */\n      tag_351\n        /* \"#utility.yul\":7297:7300   */\n      dup5\n        /* \"#utility.yul\":7288:7294   */\n      dup3\n        /* \"#utility.yul\":7277:7286   */\n      dup6\n        /* \"#utility.yul\":7273:7295   */\n      add\n        /* \"#utility.yul\":7252:7301   */\n      tag_194\n      jump\t// in\n    tag_351:\n        /* \"#utility.yul\":7245:7249   */\n      0x00\n        /* \"#utility.yul\":7238:7243   */\n      dup4\n        /* \"#utility.yul\":7234:7250   */\n      add\n        /* \"#utility.yul\":7227:7302   */\n      mstore\n        /* \"#utility.yul\":7165:7313   */\n      pop\n        /* \"#utility.yul\":7383:7385   */\n      0x20\n        /* \"#utility.yul\":7424:7473   */\n      tag_352\n        /* \"#utility.yul\":7469:7472   */\n      dup5\n        /* \"#utility.yul\":7460:7466   */\n      dup3\n        /* \"#utility.yul\":7449:7458   */\n      dup6\n        /* \"#utility.yul\":7445:7467   */\n      add\n        /* \"#utility.yul\":7424:7473   */\n      tag_184\n      jump\t// in\n    tag_352:\n        /* \"#utility.yul\":7417:7421   */\n      0x20\n        /* \"#utility.yul\":7410:7415   */\n      dup4\n        /* \"#utility.yul\":7406:7422   */\n      add\n        /* \"#utility.yul\":7399:7474   */\n      mstore\n        /* \"#utility.yul\":7323:7485   */\n      pop\n        /* \"#utility.yul\":7555:7557   */\n      0x40\n        /* \"#utility.yul\":7596:7645   */\n      tag_353\n        /* \"#utility.yul\":7641:7644   */\n      dup5\n        /* \"#utility.yul\":7632:7638   */\n      dup3\n        /* \"#utility.yul\":7621:7630   */\n      dup6\n        /* \"#utility.yul\":7617:7639   */\n      add\n        /* \"#utility.yul\":7596:7645   */\n      tag_184\n      jump\t// in\n    tag_353:\n        /* \"#utility.yul\":7589:7593   */\n      0x40\n        /* \"#utility.yul\":7582:7587   */\n      dup4\n        /* \"#utility.yul\":7578:7594   */\n      add\n        /* \"#utility.yul\":7571:7646   */\n      mstore\n        /* \"#utility.yul\":7495:7657   */\n      pop\n        /* \"#utility.yul\":7723:7725   */\n      0x60\n        /* \"#utility.yul\":7764:7810   */\n      tag_354\n        /* \"#utility.yul\":7806:7809   */\n      dup5\n        /* \"#utility.yul\":7797:7803   */\n      dup3\n        /* \"#utility.yul\":7786:7795   */\n      dup6\n        /* \"#utility.yul\":7782:7804   */\n      add\n        /* \"#utility.yul\":7764:7810   */\n      tag_197\n      jump\t// in\n    tag_354:\n        /* \"#utility.yul\":7757:7761   */\n      0x60\n        /* \"#utility.yul\":7750:7755   */\n      dup4\n        /* \"#utility.yul\":7746:7762   */\n      add\n        /* \"#utility.yul\":7739:7811   */\n      mstore\n        /* \"#utility.yul\":7667:7822   */\n      pop\n        /* \"#utility.yul\":7891:7894   */\n      0x80\n        /* \"#utility.yul\":7933:7982   */\n      tag_355\n        /* \"#utility.yul\":7978:7981   */\n      dup5\n        /* \"#utility.yul\":7969:7975   */\n      dup3\n        /* \"#utility.yul\":7958:7967   */\n      dup6\n        /* \"#utility.yul\":7954:7976   */\n      add\n        /* \"#utility.yul\":7933:7982   */\n      tag_201\n      jump\t// in\n    tag_355:\n        /* \"#utility.yul\":7926:7930   */\n      0x80\n        /* \"#utility.yul\":7919:7924   */\n      dup4\n        /* \"#utility.yul\":7915:7931   */\n      add\n        /* \"#utility.yul\":7908:7983   */\n      mstore\n        /* \"#utility.yul\":7832:7994   */\n      pop\n        /* \"#utility.yul\":8062:8065   */\n      0xa0\n        /* \"#utility.yul\":8104:8153   */\n      tag_356\n        /* \"#utility.yul\":8149:8152   */\n      dup5\n        /* \"#utility.yul\":8140:8146   */\n      dup3\n        /* \"#utility.yul\":8129:8138   */\n      dup6\n        /* \"#utility.yul\":8125:8147   */\n      add\n        /* \"#utility.yul\":8104:8153   */\n      tag_201\n      jump\t// in\n    tag_356:\n        /* \"#utility.yul\":8097:8101   */\n      0xa0\n        /* \"#utility.yul\":8090:8095   */\n      dup4\n        /* \"#utility.yul\":8086:8102   */\n      add\n        /* \"#utility.yul\":8079:8154   */\n      mstore\n        /* \"#utility.yul\":8004:8165   */\n      pop\n        /* \"#utility.yul\":8256:8259   */\n      0xc0\n        /* \"#utility.yul\":8245:8254   */\n      dup3\n        /* \"#utility.yul\":8241:8260   */\n      add\n        /* \"#utility.yul\":8228:8261   */\n      calldataload\n        /* \"#utility.yul\":8288:8306   */\n      0xffffffffffffffff\n        /* \"#utility.yul\":8280:8286   */\n      dup2\n        /* \"#utility.yul\":8277:8307   */\n      gt\n        /* \"#utility.yul\":8274:8391   */\n      iszero\n      tag_357\n      jumpi\n        /* \"#utility.yul\":8310:8389   */\n      tag_358\n      tag_192\n      jump\t// in\n    tag_358:\n        /* \"#utility.yul\":8274:8391   */\n    tag_357:\n        /* \"#utility.yul\":8430:8515   */\n      tag_359\n        /* \"#utility.yul\":8511:8514   */\n      dup5\n        /* \"#utility.yul\":8502:8508   */\n      dup3\n        /* \"#utility.yul\":8491:8500   */\n      dup6\n        /* \"#utility.yul\":8487:8509   */\n      add\n        /* \"#utility.yul\":8430:8515   */\n      tag_210\n      jump\t// in\n    tag_359:\n        /* \"#utility.yul\":8423:8427   */\n      0xc0\n        /* \"#utility.yul\":8416:8421   */\n      dup4\n        /* \"#utility.yul\":8412:8428   */\n      add\n        /* \"#utility.yul\":8405:8516   */\n      mstore\n        /* \"#utility.yul\":8175:8527   */\n      pop\n        /* \"#utility.yul\":6900:8534   */\n      swap3\n      swap2\n      pop\n      pop\n      jump\t// out\n        /* \"#utility.yul\":8540:9097   */\n    tag_20:\n        /* \"#utility.yul\":8633:8639   */\n      0x00\n        /* \"#utility.yul\":8682:8684   */\n      0x20\n        /* \"#utility.yul\":8670:8679   */\n      dup3\n        /* \"#utility.yul\":8661:8668   */\n      dup5\n        /* \"#utility.yul\":8657:8680   */\n      sub\n        /* \"#utility.yul\":8653:8685   */\n      slt\n        /* \"#utility.yul\":8650:8769   */\n      iszero\n      tag_361\n      jumpi\n        /* \"#utility.yul\":8688:8767   */\n      tag_362\n      tag_180\n      jump\t// in\n    tag_362:\n        /* \"#utility.yul\":8650:8769   */\n    tag_361:\n        /* \"#utility.yul\":8836:8837   */\n      0x00\n        /* \"#utility.yul\":8825:8834   */\n      dup3\n        /* \"#utility.yul\":8821:8838   */\n      add\n        /* \"#utility.yul\":8808:8839   */\n      calldataload\n        /* \"#utility.yul\":8866:8884   */\n      0xffffffffffffffff\n        /* \"#utility.yul\":8858:8864   */\n      dup2\n        /* \"#utility.yul\":8855:8885   */\n      gt\n        /* \"#utility.yul\":8852:8969   */\n      iszero\n      tag_363\n      jumpi\n        /* \"#utility.yul\":8888:8967   */\n      tag_364\n      tag_181\n      jump\t// in\n    tag_364:\n        /* \"#utility.yul\":8852:8969   */\n    tag_363:\n        /* \"#utility.yul\":8993:9080   */\n      tag_365\n        /* \"#utility.yul\":9072:9079   */\n      dup5\n        /* \"#utility.yul\":9063:9069   */\n      dup3\n        /* \"#utility.yul\":9052:9061   */\n      dup6\n        /* \"#utility.yul\":9048:9070   */\n      add\n        /* \"#utility.yul\":8993:9080   */\n      tag_211\n      jump\t// in\n    tag_365:\n        /* \"#utility.yul\":8983:9080   */\n      swap2\n      pop\n        /* \"#utility.yul\":8779:9090   */\n      pop\n        /* \"#utility.yul\":8540:9097   */\n      swap3\n      swap2\n      pop\n      pop\n      jump\t// out\n        /* \"#utility.yul\":9103:9211   */\n    tag_212:\n        /* \"#utility.yul\":9180:9204   */\n      tag_367\n        /* \"#utility.yul\":9198:9203   */\n      dup2\n        /* \"#utility.yul\":9180:9204   */\n      tag_185\n      jump\t// in\n    tag_367:\n        /* \"#utility.yul\":9175:9178   */\n      dup3\n        /* \"#utility.yul\":9168:9205   */\n      mstore\n        /* \"#utility.yul\":9103:9211   */\n      pop\n      pop\n      jump\t// out\n        /* \"#utility.yul\":9217:9325   */\n    tag_213:\n        /* \"#utility.yul\":9294:9318   */\n      tag_369\n        /* \"#utility.yul\":9312:9317   */\n      dup2\n        /* \"#utility.yul\":9294:9318   */\n      tag_182\n      jump\t// in\n    tag_369:\n        /* \"#utility.yul\":9289:9292   */\n      dup3\n        /* \"#utility.yul\":9282:9319   */\n      mstore\n        /* \"#utility.yul\":9217:9325   */\n      pop\n      pop\n      jump\t// out\n        /* \"#utility.yul\":9331:9430   */\n    tag_214:\n        /* \"#utility.yul\":9402:9423   */\n      tag_371\n        /* \"#utility.yul\":9417:9422   */\n      dup2\n        /* \"#utility.yul\":9402:9423   */\n      tag_195\n      jump\t// in\n    tag_371:\n        /* \"#utility.yul\":9397:9400   */\n      dup3\n        /* \"#utility.yul\":9390:9424   */\n      mstore\n        /* \"#utility.yul\":9331:9430   */\n      pop\n      pop\n      jump\t// out\n        /* \"#utility.yul\":9436:9544   */\n    tag_215:\n        /* \"#utility.yul\":9513:9537   */\n      tag_373\n        /* \"#utility.yul\":9531:9536   */\n      dup2\n        /* \"#utility.yul\":9513:9537   */\n      tag_199\n      jump\t// in\n    tag_373:\n        /* \"#utility.yul\":9508:9511   */\n      dup3\n        /* \"#utility.yul\":9501:9538   */\n      mstore\n        /* \"#utility.yul\":9436:9544   */\n      pop\n      pop\n      jump\t// out\n        /* \"#utility.yul\":9550:9649   */\n    tag_216:\n        /* \"#utility.yul\":9602:9608   */\n      0x00\n        /* \"#utility.yul\":9636:9641   */\n      dup2\n        /* \"#utility.yul\":9630:9642   */\n      mload\n        /* \"#utility.yul\":9620:9642   */\n      swap1\n      pop\n        /* \"#utility.yul\":9550:9649   */\n      swap2\n      swap1\n      pop\n      jump\t// out\n        /* \"#utility.yul\":9655:9814   */\n    tag_217:\n        /* \"#utility.yul\":9729:9740   */\n      0x00\n        /* \"#utility.yul\":9763:9769   */\n      dup3\n        /* \"#utility.yul\":9758:9761   */\n      dup3\n        /* \"#utility.yul\":9751:9770   */\n      mstore\n        /* \"#utility.yul\":9803:9807   */\n      0x20\n        /* \"#utility.yul\":9798:9801   */\n      dup3\n        /* \"#utility.yul\":9794:9808   */\n      add\n        /* \"#utility.yul\":9779:9808   */\n      swap1\n      pop\n        /* \"#utility.yul\":9655:9814   */\n      swap3\n      swap2\n      pop\n      pop\n      jump\t// out\n        /* \"#utility.yul\":9820:10066   */\n    tag_218:\n        /* \"#utility.yul\":9901:9902   */\n      0x00\n        /* \"#utility.yul\":9911:10024   */\n    tag_377:\n        /* \"#utility.yul\":9925:9931   */\n      dup4\n        /* \"#utility.yul\":9922:9923   */\n      dup2\n        /* \"#utility.yul\":9919:9932   */\n      lt\n        /* \"#utility.yul\":9911:10024   */\n      iszero\n      tag_379\n      jumpi\n        /* \"#utility.yul\":10010:10011   */\n      dup1\n        /* \"#utility.yul\":10005:10008   */\n      dup3\n        /* \"#utility.yul\":10001:10012   */\n      add\n        /* \"#utility.yul\":9995:10013   */\n      mload\n        /* \"#utility.yul\":9991:9992   */\n      dup2\n        /* \"#utility.yul\":9986:9989   */\n      dup5\n        /* \"#utility.yul\":9982:9993   */\n      add\n        /* \"#utility.yul\":9975:10014   */\n      mstore\n        /* \"#utility.yul\":9947:9949   */\n      0x20\n        /* \"#utility.yul\":9944:9945   */\n      dup2\n        /* \"#utility.yul\":9940:9950   */\n      add\n        /* \"#utility.yul\":9935:9950   */\n      swap1\n      pop\n        /* \"#utility.yul\":9911:10024   */\n      jump(tag_377)\n    tag_379:\n        /* \"#utility.yul\":10058:10059   */\n      0x00\n        /* \"#utility.yul\":10049:10055   */\n      dup5\n        /* \"#utility.yul\":10044:10047   */\n      dup5\n        /* \"#utility.yul\":10040:10056   */\n      add\n        /* \"#utility.yul\":10033:10060   */\n      mstore\n        /* \"#utility.yul\":9882:10066   */\n      pop\n        /* \"#utility.yul\":9820:10066   */\n      pop\n      pop\n      pop\n      jump\t// out\n        /* \"#utility.yul\":10072:10429   */\n    tag_219:\n        /* \"#utility.yul\":10150:10153   */\n      0x00\n        /* \"#utility.yul\":10178:10217   */\n      tag_381\n        /* \"#utility.yul\":10211:10216   */\n      dup3\n        /* \"#utility.yul\":10178:10217   */\n      tag_216\n      jump\t// in\n    tag_381:\n        /* \"#utility.yul\":10233:10294   */\n      tag_382\n        /* \"#utility.yul\":10287:10293   */\n      dup2\n        /* \"#utility.yul\":10282:10285   */\n      dup6\n        /* \"#utility.yul\":10233:10294   */\n      tag_217\n      jump\t// in\n    tag_382:\n        /* \"#utility.yul\":10226:10294   */\n      swap4\n      pop\n        /* \"#utility.yul\":10303:10368   */\n      tag_383\n        /* \"#utility.yul\":10361:10367   */\n      dup2\n        /* \"#utility.yul\":10356:10359   */\n      dup6\n        /* \"#utility.yul\":10349:10353   */\n      0x20\n        /* \"#utility.yul\":10342:10347   */\n      dup7\n        /* \"#utility.yul\":10338:10354   */\n      add\n        /* \"#utility.yul\":10303:10368   */\n      tag_218\n      jump\t// in\n    tag_383:\n        /* \"#utility.yul\":10393:10422   */\n      tag_384\n        /* \"#utility.yul\":10415:10421   */\n      dup2\n        /* \"#utility.yul\":10393:10422   */\n      tag_188\n      jump\t// in\n    tag_384:\n        /* \"#utility.yul\":10388:10391   */\n      dup5\n        /* \"#utility.yul\":10384:10423   */\n      add\n        /* \"#utility.yul\":10377:10423   */\n      swap2\n      pop\n        /* \"#utility.yul\":10154:10429   */\n      pop\n        /* \"#utility.yul\":10072:10429   */\n      swap3\n      swap2\n      pop\n      pop\n      jump\t// out\n        /* \"#utility.yul\":10435:10615   */\n    tag_74:\n        /* \"#utility.yul\":10483:10560   */\n      0x4e487b7100000000000000000000000000000000000000000000000000000000\n        /* \"#utility.yul\":10480:10481   */\n      0x00\n        /* \"#utility.yul\":10473:10561   */\n      mstore\n        /* \"#utility.yul\":10580:10584   */\n      0x21\n        /* \"#utility.yul\":10577:10578   */\n      0x04\n        /* \"#utility.yul\":10570:10585   */\n      mstore\n        /* \"#utility.yul\":10604:10608   */\n      0x24\n        /* \"#utility.yul\":10601:10602   */\n      0x00\n        /* \"#utility.yul\":10594:10609   */\n      revert\n        /* \"#utility.yul\":10621:10744   */\n    tag_220:\n        /* \"#utility.yul\":10712:10713   */\n      0x03\n        /* \"#utility.yul\":10705:10710   */\n      dup2\n        /* \"#utility.yul\":10702:10714   */\n      lt\n        /* \"#utility.yul\":10692:10738   */\n      tag_387\n      jumpi\n        /* \"#utility.yul\":10718:10736   */\n      tag_388\n      tag_74\n      jump\t// in\n    tag_388:\n        /* \"#utility.yul\":10692:10738   */\n    tag_387:\n        /* \"#utility.yul\":10621:10744   */\n      pop\n      jump\t// out\n        /* \"#utility.yul\":10750:10897   */\n    tag_221:\n        /* \"#utility.yul\":10805:10812   */\n      0x00\n        /* \"#utility.yul\":10834:10839   */\n      dup2\n        /* \"#utility.yul\":10823:10839   */\n      swap1\n      pop\n        /* \"#utility.yul\":10840:10891   */\n      tag_390\n        /* \"#utility.yul\":10885:10890   */\n      dup3\n        /* \"#utility.yul\":10840:10891   */\n      tag_220\n      jump\t// in\n    tag_390:\n        /* \"#utility.yul\":10750:10897   */\n      swap2\n      swap1\n      pop\n      jump\t// out\n        /* \"#utility.yul\":10903:11050   */\n    tag_222:\n        /* \"#utility.yul\":10969:10978   */\n      0x00\n        /* \"#utility.yul\":11002:11044   */\n      tag_392\n        /* \"#utility.yul\":11038:11043   */\n      dup3\n        /* \"#utility.yul\":11002:11044   */\n      tag_221\n      jump\t// in\n    tag_392:\n        /* \"#utility.yul\":10989:11044   */\n      swap1\n      pop\n        /* \"#utility.yul\":10903:11050   */\n      swap2\n      swap1\n      pop\n      jump\t// out\n        /* \"#utility.yul\":11056:11209   */\n    tag_223:\n        /* \"#utility.yul\":11149:11202   */\n      tag_394\n        /* \"#utility.yul\":11196:11201   */\n      dup2\n        /* \"#utility.yul\":11149:11202   */\n      tag_222\n      jump\t// in\n    tag_394:\n        /* \"#utility.yul\":11144:11147   */\n      dup3\n        /* \"#utility.yul\":11137:11203   */\n      mstore\n        /* \"#utility.yul\":11056:11209   */\n      pop\n      pop\n      jump\t// out\n        /* \"#utility.yul\":11303:12384   */\n    tag_224:\n        /* \"#utility.yul\":11434:11437   */\n      0x00\n        /* \"#utility.yul\":11470:11474   */\n      0x80\n        /* \"#utility.yul\":11465:11468   */\n      dup4\n        /* \"#utility.yul\":11461:11475   */\n      add\n        /* \"#utility.yul\":11567:11571   */\n      0x00\n        /* \"#utility.yul\":11560:11565   */\n      dup4\n        /* \"#utility.yul\":11556:11572   */\n      add\n        /* \"#utility.yul\":11550:11573   */\n      mload\n        /* \"#utility.yul\":11620:11623   */\n      dup5\n        /* \"#utility.yul\":11614:11618   */\n      dup3\n        /* \"#utility.yul\":11610:11624   */\n      sub\n        /* \"#utility.yul\":11603:11607   */\n      0x00\n        /* \"#utility.yul\":11598:11601   */\n      dup7\n        /* \"#utility.yul\":11594:11608   */\n      add\n        /* \"#utility.yul\":11587:11625   */\n      mstore\n        /* \"#utility.yul\":11646:11719   */\n      tag_396\n        /* \"#utility.yul\":11714:11718   */\n      dup3\n        /* \"#utility.yul\":11700:11712   */\n      dup3\n        /* \"#utility.yul\":11646:11719   */\n      tag_219\n      jump\t// in\n    tag_396:\n        /* \"#utility.yul\":11638:11719   */\n      swap2\n      pop\n        /* \"#utility.yul\":11485:11730   */\n      pop\n        /* \"#utility.yul\":11825:11829   */\n      0x20\n        /* \"#utility.yul\":11818:11823   */\n      dup4\n        /* \"#utility.yul\":11814:11830   */\n      add\n        /* \"#utility.yul\":11808:11831   */\n      mload\n        /* \"#utility.yul\":11844:11907   */\n      tag_397\n        /* \"#utility.yul\":11901:11905   */\n      0x20\n        /* \"#utility.yul\":11896:11899   */\n      dup7\n        /* \"#utility.yul\":11892:11906   */\n      add\n        /* \"#utility.yul\":11878:11890   */\n      dup3\n        /* \"#utility.yul\":11844:11907   */\n      tag_213\n      jump\t// in\n    tag_397:\n        /* \"#utility.yul\":11740:11917   */\n      pop\n        /* \"#utility.yul\":12002:12006   */\n      0x40\n        /* \"#utility.yul\":11995:12000   */\n      dup4\n        /* \"#utility.yul\":11991:12007   */\n      add\n        /* \"#utility.yul\":11985:12008   */\n      mload\n        /* \"#utility.yul\":12055:12058   */\n      dup5\n        /* \"#utility.yul\":12049:12053   */\n      dup3\n        /* \"#utility.yul\":12045:12059   */\n      sub\n        /* \"#utility.yul\":12038:12042   */\n      0x40\n        /* \"#utility.yul\":12033:12036   */\n      dup7\n        /* \"#utility.yul\":12029:12043   */\n      add\n        /* \"#utility.yul\":12022:12060   */\n      mstore\n        /* \"#utility.yul\":12081:12154   */\n      tag_398\n        /* \"#utility.yul\":12149:12153   */\n      dup3\n        /* \"#utility.yul\":12135:12147   */\n      dup3\n        /* \"#utility.yul\":12081:12154   */\n      tag_219\n      jump\t// in\n    tag_398:\n        /* \"#utility.yul\":12073:12154   */\n      swap2\n      pop\n        /* \"#utility.yul\":11927:12165   */\n      pop\n        /* \"#utility.yul\":12249:12253   */\n      0x60\n        /* \"#utility.yul\":12242:12247   */\n      dup4\n        /* \"#utility.yul\":12238:12254   */\n      add\n        /* \"#utility.yul\":12232:12255   */\n      mload\n        /* \"#utility.yul\":12268:12347   */\n      tag_399\n        /* \"#utility.yul\":12341:12345   */\n      0x60\n        /* \"#utility.yul\":12336:12339   */\n      dup7\n        /* \"#utility.yul\":12332:12346   */\n      add\n        /* \"#utility.yul\":12318:12330   */\n      dup3\n        /* \"#utility.yul\":12268:12347   */\n      tag_223\n      jump\t// in\n    tag_399:\n        /* \"#utility.yul\":12175:12357   */\n      pop\n        /* \"#utility.yul\":12374:12378   */\n      dup1\n        /* \"#utility.yul\":12367:12378   */\n      swap2\n      pop\n        /* \"#utility.yul\":11439:12384   */\n      pop\n        /* \"#utility.yul\":11303:12384   */\n      swap3\n      swap2\n      pop\n      pop\n      jump\t// out\n        /* \"#utility.yul\":12474:14064   */\n    tag_225:\n        /* \"#utility.yul\":12611:12614   */\n      0x00\n        /* \"#utility.yul\":12647:12651   */\n      0xe0\n        /* \"#utility.yul\":12642:12645   */\n      dup4\n        /* \"#utility.yul\":12638:12652   */\n      add\n        /* \"#utility.yul\":12732:12736   */\n      0x00\n        /* \"#utility.yul\":12725:12730   */\n      dup4\n        /* \"#utility.yul\":12721:12737   */\n      add\n        /* \"#utility.yul\":12715:12738   */\n      mload\n        /* \"#utility.yul\":12751:12814   */\n      tag_401\n        /* \"#utility.yul\":12808:12812   */\n      0x00\n        /* \"#utility.yul\":12803:12806   */\n      dup7\n        /* \"#utility.yul\":12799:12813   */\n      add\n        /* \"#utility.yul\":12785:12797   */\n      dup3\n        /* \"#utility.yul\":12751:12814   */\n      tag_212\n      jump\t// in\n    tag_401:\n        /* \"#utility.yul\":12662:12824   */\n      pop\n        /* \"#utility.yul\":12917:12921   */\n      0x20\n        /* \"#utility.yul\":12910:12915   */\n      dup4\n        /* \"#utility.yul\":12906:12922   */\n      add\n        /* \"#utility.yul\":12900:12923   */\n      mload\n        /* \"#utility.yul\":12936:12999   */\n      tag_402\n        /* \"#utility.yul\":12993:12997   */\n      0x20\n        /* \"#utility.yul\":12988:12991   */\n      dup7\n        /* \"#utility.yul\":12984:12998   */\n      add\n        /* \"#utility.yul\":12970:12982   */\n      dup3\n        /* \"#utility.yul\":12936:12999   */\n      tag_213\n      jump\t// in\n    tag_402:\n        /* \"#utility.yul\":12834:13009   */\n      pop\n        /* \"#utility.yul\":13102:13106   */\n      0x40\n        /* \"#utility.yul\":13095:13100   */\n      dup4\n        /* \"#utility.yul\":13091:13107   */\n      add\n        /* \"#utility.yul\":13085:13108   */\n      mload\n        /* \"#utility.yul\":13121:13184   */\n      tag_403\n        /* \"#utility.yul\":13178:13182   */\n      0x40\n        /* \"#utility.yul\":13173:13176   */\n      dup7\n        /* \"#utility.yul\":13169:13183   */\n      add\n        /* \"#utility.yul\":13155:13167   */\n      dup3\n        /* \"#utility.yul\":13121:13184   */\n      tag_213\n      jump\t// in\n    tag_403:\n        /* \"#utility.yul\":13019:13194   */\n      pop\n        /* \"#utility.yul\":13283:13287   */\n      0x60\n        /* \"#utility.yul\":13276:13281   */\n      dup4\n        /* \"#utility.yul\":13272:13288   */\n      add\n        /* \"#utility.yul\":13266:13289   */\n      mload\n        /* \"#utility.yul\":13302:13359   */\n      tag_404\n        /* \"#utility.yul\":13353:13357   */\n      0x60\n        /* \"#utility.yul\":13348:13351   */\n      dup7\n        /* \"#utility.yul\":13344:13358   */\n      add\n        /* \"#utility.yul\":13330:13342   */\n      dup3\n        /* \"#utility.yul\":13302:13359   */\n      tag_214\n      jump\t// in\n    tag_404:\n        /* \"#utility.yul\":13204:13369   */\n      pop\n        /* \"#utility.yul\":13461:13465   */\n      0x80\n        /* \"#utility.yul\":13454:13459   */\n      dup4\n        /* \"#utility.yul\":13450:13466   */\n      add\n        /* \"#utility.yul\":13444:13467   */\n      mload\n        /* \"#utility.yul\":13480:13543   */\n      tag_405\n        /* \"#utility.yul\":13537:13541   */\n      0x80\n        /* \"#utility.yul\":13532:13535   */\n      dup7\n        /* \"#utility.yul\":13528:13542   */\n      add\n        /* \"#utility.yul\":13514:13526   */\n      dup3\n        /* \"#utility.yul\":13480:13543   */\n      tag_215\n      jump\t// in\n    tag_405:\n        /* \"#utility.yul\":13379:13553   */\n      pop\n        /* \"#utility.yul\":13644:13648   */\n      0xa0\n        /* \"#utility.yul\":13637:13642   */\n      dup4\n        /* \"#utility.yul\":13633:13649   */\n      add\n        /* \"#utility.yul\":13627:13650   */\n      mload\n        /* \"#utility.yul\":13663:13726   */\n      tag_406\n        /* \"#utility.yul\":13720:13724   */\n      0xa0\n        /* \"#utility.yul\":13715:13718   */\n      dup7\n        /* \"#utility.yul\":13711:13725   */\n      add\n        /* \"#utility.yul\":13697:13709   */\n      dup3\n        /* \"#utility.yul\":13663:13726   */\n      tag_215\n      jump\t// in\n    tag_406:\n        /* \"#utility.yul\":13563:13736   */\n      pop\n        /* \"#utility.yul\":13822:13826   */\n      0xc0\n        /* \"#utility.yul\":13815:13820   */\n      dup4\n        /* \"#utility.yul\":13811:13827   */\n      add\n        /* \"#utility.yul\":13805:13828   */\n      mload\n        /* \"#utility.yul\":13875:13878   */\n      dup5\n        /* \"#utility.yul\":13869:13873   */\n      dup3\n        /* \"#utility.yul\":13865:13879   */\n      sub\n        /* \"#utility.yul\":13858:13862   */\n      0xc0\n        /* \"#utility.yul\":13853:13856   */\n      dup7\n        /* \"#utility.yul\":13849:13863   */\n      add\n        /* \"#utility.yul\":13842:13880   */\n      mstore\n        /* \"#utility.yul\":13901:14026   */\n      tag_407\n        /* \"#utility.yul\":14021:14025   */\n      dup3\n        /* \"#utility.yul\":14007:14019   */\n      dup3\n        /* \"#utility.yul\":13901:14026   */\n      tag_224\n      jump\t// in\n    tag_407:\n        /* \"#utility.yul\":13893:14026   */\n      swap2\n      pop\n        /* \"#utility.yul\":13746:14037   */\n      pop\n        /* \"#utility.yul\":14054:14058   */\n      dup1\n        /* \"#utility.yul\":14047:14058   */\n      swap2\n      pop\n        /* \"#utility.yul\":12616:14064   */\n      pop\n        /* \"#utility.yul\":12474:14064   */\n      swap3\n      swap2\n      pop\n      pop\n      jump\t// out\n        /* \"#utility.yul\":14070:14479   */\n    tag_23:\n        /* \"#utility.yul\":14231:14235   */\n      0x00\n        /* \"#utility.yul\":14269:14271   */\n      0x20\n        /* \"#utility.yul\":14258:14267   */\n      dup3\n        /* \"#utility.yul\":14254:14272   */\n      add\n        /* \"#utility.yul\":14246:14272   */\n      swap1\n      pop\n        /* \"#utility.yul\":14318:14327   */\n      dup2\n        /* \"#utility.yul\":14312:14316   */\n      dup2\n        /* \"#utility.yul\":14308:14328   */\n      sub\n        /* \"#utility.yul\":14304:14305   */\n      0x00\n        /* \"#utility.yul\":14293:14302   */\n      dup4\n        /* \"#utility.yul\":14289:14306   */\n      add\n        /* \"#utility.yul\":14282:14329   */\n      mstore\n        /* \"#utility.yul\":14346:14472   */\n      tag_409\n        /* \"#utility.yul\":14467:14471   */\n      dup2\n        /* \"#utility.yul\":14458:14464   */\n      dup5\n        /* \"#utility.yul\":14346:14472   */\n      tag_225\n      jump\t// in\n    tag_409:\n        /* \"#utility.yul\":14338:14472   */\n      swap1\n      pop\n        /* \"#utility.yul\":14070:14479   */\n      swap3\n      swap2\n      pop\n      pop\n      jump\t// out\n        /* \"#utility.yul\":14485:14814   */\n    tag_28:\n        /* \"#utility.yul\":14544:14550   */\n      0x00\n        /* \"#utility.yul\":14593:14595   */\n      0x20\n        /* \"#utility.yul\":14581:14590   */\n      dup3\n        /* \"#utility.yul\":14572:14579   */\n      dup5\n        /* \"#utility.yul\":14568:14591   */\n      sub\n        /* \"#utility.yul\":14564:14596   */\n      slt\n        /* \"#utility.yul\":14561:14680   */\n      iszero\n      tag_411\n      jumpi\n        /* \"#utility.yul\":14599:14678   */\n      tag_412\n      tag_180\n      jump\t// in\n    tag_412:\n        /* \"#utility.yul\":14561:14680   */\n    tag_411:\n        /* \"#utility.yul\":14719:14720   */\n      0x00\n        /* \"#utility.yul\":14744:14797   */\n      tag_413\n        /* \"#utility.yul\":14789:14796   */\n      dup5\n        /* \"#utility.yul\":14780:14786   */\n      dup3\n        /* \"#utility.yul\":14769:14778   */\n      dup6\n        /* \"#utility.yul\":14765:14787   */\n      add\n        /* \"#utility.yul\":14744:14797   */\n      tag_194\n      jump\t// in\n    tag_413:\n        /* \"#utility.yul\":14734:14797   */\n      swap2\n      pop\n        /* \"#utility.yul\":14690:14807   */\n      pop\n        /* \"#utility.yul\":14485:14814   */\n      swap3\n      swap2\n      pop\n      pop\n      jump\t// out\n        /* \"#utility.yul\":14820:14938   */\n    tag_226:\n        /* \"#utility.yul\":14907:14931   */\n      tag_415\n        /* \"#utility.yul\":14925:14930   */\n      dup2\n        /* \"#utility.yul\":14907:14931   */\n      tag_182\n      jump\t// in\n    tag_415:\n        /* \"#utility.yul\":14902:14905   */\n      dup3\n        /* \"#utility.yul\":14895:14932   */\n      mstore\n        /* \"#utility.yul\":14820:14938   */\n      pop\n      pop\n      jump\t// out\n        /* \"#utility.yul\":14944:15053   */\n    tag_227:\n        /* \"#utility.yul\":15025:15046   */\n      tag_417\n        /* \"#utility.yul\":15040:15045   */\n      dup2\n        /* \"#utility.yul\":15025:15046   */\n      tag_195\n      jump\t// in\n    tag_417:\n        /* \"#utility.yul\":15020:15023   */\n      dup3\n        /* \"#utility.yul\":15013:15047   */\n      mstore\n        /* \"#utility.yul\":14944:15053   */\n      pop\n      pop\n      jump\t// out\n        /* \"#utility.yul\":15059:15177   */\n    tag_228:\n        /* \"#utility.yul\":15146:15170   */\n      tag_419\n        /* \"#utility.yul\":15164:15169   */\n      dup2\n        /* \"#utility.yul\":15146:15170   */\n      tag_199\n      jump\t// in\n    tag_419:\n        /* \"#utility.yul\":15141:15144   */\n      dup3\n        /* \"#utility.yul\":15134:15171   */\n      mstore\n        /* \"#utility.yul\":15059:15177   */\n      pop\n      pop\n      jump\t// out\n        /* \"#utility.yul\":15271:16362   */\n    tag_229:\n        /* \"#utility.yul\":15412:15415   */\n      0x00\n        /* \"#utility.yul\":15448:15452   */\n      0x80\n        /* \"#utility.yul\":15443:15446   */\n      dup4\n        /* \"#utility.yul\":15439:15453   */\n      add\n        /* \"#utility.yul\":15545:15549   */\n      0x00\n        /* \"#utility.yul\":15538:15543   */\n      dup4\n        /* \"#utility.yul\":15534:15550   */\n      add\n        /* \"#utility.yul\":15528:15551   */\n      mload\n        /* \"#utility.yul\":15598:15601   */\n      dup5\n        /* \"#utility.yul\":15592:15596   */\n      dup3\n        /* \"#utility.yul\":15588:15602   */\n      sub\n        /* \"#utility.yul\":15581:15585   */\n      0x00\n        /* \"#utility.yul\":15576:15579   */\n      dup7\n        /* \"#utility.yul\":15572:15586   */\n      add\n        /* \"#utility.yul\":15565:15603   */\n      mstore\n        /* \"#utility.yul\":15624:15697   */\n      tag_421\n        /* \"#utility.yul\":15692:15696   */\n      dup3\n        /* \"#utility.yul\":15678:15690   */\n      dup3\n        /* \"#utility.yul\":15624:15697   */\n      tag_219\n      jump\t// in\n    tag_421:\n        /* \"#utility.yul\":15616:15697   */\n      swap2\n      pop\n        /* \"#utility.yul\":15463:15708   */\n      pop\n        /* \"#utility.yul\":15803:15807   */\n      0x20\n        /* \"#utility.yul\":15796:15801   */\n      dup4\n        /* \"#utility.yul\":15792:15808   */\n      add\n        /* \"#utility.yul\":15786:15809   */\n      mload\n        /* \"#utility.yul\":15822:15885   */\n      tag_422\n        /* \"#utility.yul\":15879:15883   */\n      0x20\n        /* \"#utility.yul\":15874:15877   */\n      dup7\n        /* \"#utility.yul\":15870:15884   */\n      add\n        /* \"#utility.yul\":15856:15868   */\n      dup3\n        /* \"#utility.yul\":15822:15885   */\n      tag_213\n      jump\t// in\n    tag_422:\n        /* \"#utility.yul\":15718:15895   */\n      pop\n        /* \"#utility.yul\":15980:15984   */\n      0x40\n        /* \"#utility.yul\":15973:15978   */\n      dup4\n        /* \"#utility.yul\":15969:15985   */\n      add\n        /* \"#utility.yul\":15963:15986   */\n      mload\n        /* \"#utility.yul\":16033:16036   */\n      dup5\n        /* \"#utility.yul\":16027:16031   */\n      dup3\n        /* \"#utility.yul\":16023:16037   */\n      sub\n        /* \"#utility.yul\":16016:16020   */\n      0x40\n        /* \"#utility.yul\":16011:16014   */\n      dup7\n        /* \"#utility.yul\":16007:16021   */\n      add\n        /* \"#utility.yul\":16000:16038   */\n      mstore\n        /* \"#utility.yul\":16059:16132   */\n      tag_423\n        /* \"#utility.yul\":16127:16131   */\n      dup3\n        /* \"#utility.yul\":16113:16125   */\n      dup3\n        /* \"#utility.yul\":16059:16132   */\n      tag_219\n      jump\t// in\n    tag_423:\n        /* \"#utility.yul\":16051:16132   */\n      swap2\n      pop\n        /* \"#utility.yul\":15905:16143   */\n      pop\n        /* \"#utility.yul\":16227:16231   */\n      0x60\n        /* \"#utility.yul\":16220:16225   */\n      dup4\n        /* \"#utility.yul\":16216:16232   */\n      add\n        /* \"#utility.yul\":16210:16233   */\n      mload\n        /* \"#utility.yul\":16246:16325   */\n      tag_424\n        /* \"#utility.yul\":16319:16323   */\n      0x60\n        /* \"#utility.yul\":16314:16317   */\n      dup7\n        /* \"#utility.yul\":16310:16324   */\n      add\n        /* \"#utility.yul\":16296:16308   */\n      dup3\n        /* \"#utility.yul\":16246:16325   */\n      tag_223\n      jump\t// in\n    tag_424:\n        /* \"#utility.yul\":16153:16335   */\n      pop\n        /* \"#utility.yul\":16352:16356   */\n      dup1\n        /* \"#utility.yul\":16345:16356   */\n      swap2\n      pop\n        /* \"#utility.yul\":15417:16362   */\n      pop\n        /* \"#utility.yul\":15271:16362   */\n      swap3\n      swap2\n      pop\n      pop\n      jump\t// out\n        /* \"#utility.yul\":16368:17437   */\n    tag_31:\n        /* \"#utility.yul\":16695:16699   */\n      0x00\n        /* \"#utility.yul\":16733:16736   */\n      0xe0\n        /* \"#utility.yul\":16722:16731   */\n      dup3\n        /* \"#utility.yul\":16718:16737   */\n      add\n        /* \"#utility.yul\":16710:16737   */\n      swap1\n      pop\n        /* \"#utility.yul\":16747:16818   */\n      tag_426\n        /* \"#utility.yul\":16815:16816   */\n      0x00\n        /* \"#utility.yul\":16804:16813   */\n      dup4\n        /* \"#utility.yul\":16800:16817   */\n      add\n        /* \"#utility.yul\":16791:16797   */\n      dup11\n        /* \"#utility.yul\":16747:16818   */\n      tag_186\n      jump\t// in\n    tag_426:\n        /* \"#utility.yul\":16828:16900   */\n      tag_427\n        /* \"#utility.yul\":16896:16898   */\n      0x20\n        /* \"#utility.yul\":16885:16894   */\n      dup4\n        /* \"#utility.yul\":16881:16899   */\n      add\n        /* \"#utility.yul\":16872:16878   */\n      dup10\n        /* \"#utility.yul\":16828:16900   */\n      tag_226\n      jump\t// in\n    tag_427:\n        /* \"#utility.yul\":16910:16982   */\n      tag_428\n        /* \"#utility.yul\":16978:16980   */\n      0x40\n        /* \"#utility.yul\":16967:16976   */\n      dup4\n        /* \"#utility.yul\":16963:16981   */\n      add\n        /* \"#utility.yul\":16954:16960   */\n      dup9\n        /* \"#utility.yul\":16910:16982   */\n      tag_226\n      jump\t// in\n    tag_428:\n        /* \"#utility.yul\":16992:17058   */\n      tag_429\n        /* \"#utility.yul\":17054:17056   */\n      0x60\n        /* \"#utility.yul\":17043:17052   */\n      dup4\n        /* \"#utility.yul\":17039:17057   */\n      add\n        /* \"#utility.yul\":17030:17036   */\n      dup8\n        /* \"#utility.yul\":16992:17058   */\n      tag_227\n      jump\t// in\n    tag_429:\n        /* \"#utility.yul\":17068:17141   */\n      tag_430\n        /* \"#utility.yul\":17136:17139   */\n      0x80\n        /* \"#utility.yul\":17125:17134   */\n      dup4\n        /* \"#utility.yul\":17121:17140   */\n      add\n        /* \"#utility.yul\":17112:17118   */\n      dup7\n        /* \"#utility.yul\":17068:17141   */\n      tag_228\n      jump\t// in\n    tag_430:\n        /* \"#utility.yul\":17151:17224   */\n      tag_431\n        /* \"#utility.yul\":17219:17222   */\n      0xa0\n        /* \"#utility.yul\":17208:17217   */\n      dup4\n        /* \"#utility.yul\":17204:17223   */\n      add\n        /* \"#utility.yul\":17195:17201   */\n      dup6\n        /* \"#utility.yul\":17151:17224   */\n      tag_228\n      jump\t// in\n    tag_431:\n        /* \"#utility.yul\":17272:17281   */\n      dup2\n        /* \"#utility.yul\":17266:17270   */\n      dup2\n        /* \"#utility.yul\":17262:17282   */\n      sub\n        /* \"#utility.yul\":17256:17259   */\n      0xc0\n        /* \"#utility.yul\":17245:17254   */\n      dup4\n        /* \"#utility.yul\":17241:17260   */\n      add\n        /* \"#utility.yul\":17234:17283   */\n      mstore\n        /* \"#utility.yul\":17300:17430   */\n      tag_432\n        /* \"#utility.yul\":17425:17429   */\n      dup2\n        /* \"#utility.yul\":17416:17422   */\n      dup5\n        /* \"#utility.yul\":17300:17430   */\n      tag_229\n      jump\t// in\n    tag_432:\n        /* \"#utility.yul\":17292:17430   */\n      swap1\n      pop\n        /* \"#utility.yul\":16368:17437   */\n      swap9\n      swap8\n      pop\n      pop\n      pop\n      pop\n      pop\n      pop\n      pop\n      pop\n      jump\t// out\n        /* \"#utility.yul\":17443:17653   */\n    tag_36:\n        /* \"#utility.yul\":17530:17534   */\n      0x00\n        /* \"#utility.yul\":17568:17570   */\n      0x20\n        /* \"#utility.yul\":17557:17566   */\n      dup3\n        /* \"#utility.yul\":17553:17571   */\n      add\n        /* \"#utility.yul\":17545:17571   */\n      swap1\n      pop\n        /* \"#utility.yul\":17581:17646   */\n      tag_434\n        /* \"#utility.yul\":17643:17644   */\n      0x00\n        /* \"#utility.yul\":17632:17641   */\n      dup4\n        /* \"#utility.yul\":17628:17645   */\n      add\n        /* \"#utility.yul\":17619:17625   */\n      dup5\n        /* \"#utility.yul\":17581:17646   */\n      tag_227\n      jump\t// in\n    tag_434:\n        /* \"#utility.yul\":17443:17653   */\n      swap3\n      swap2\n      pop\n      pop\n      jump\t// out\n        /* \"#utility.yul\":17659:17738   */\n    tag_230:\n        /* \"#utility.yul\":17698:17705   */\n      0x00\n        /* \"#utility.yul\":17727:17732   */\n      dup2\n        /* \"#utility.yul\":17716:17732   */\n      swap1\n      pop\n        /* \"#utility.yul\":17659:17738   */\n      swap2\n      swap1\n      pop\n      jump\t// out\n        /* \"#utility.yul\":17744:17901   */\n    tag_231:\n        /* \"#utility.yul\":17849:17894   */\n      tag_437\n        /* \"#utility.yul\":17869:17893   */\n      tag_438\n        /* \"#utility.yul\":17887:17892   */\n      dup3\n        /* \"#utility.yul\":17869:17893   */\n      tag_182\n      jump\t// in\n    tag_438:\n        /* \"#utility.yul\":17849:17894   */\n      tag_230\n      jump\t// in\n    tag_437:\n        /* \"#utility.yul\":17844:17847   */\n      dup3\n        /* \"#utility.yul\":17837:17895   */\n      mstore\n        /* \"#utility.yul\":17744:17901   */\n      pop\n      pop\n      jump\t// out\n        /* \"#utility.yul\":17907:18304   */\n    tag_51:\n        /* \"#utility.yul\":18047:18050   */\n      0x00\n        /* \"#utility.yul\":18062:18137   */\n      tag_440\n        /* \"#utility.yul\":18133:18136   */\n      dup3\n        /* \"#utility.yul\":18124:18130   */\n      dup6\n        /* \"#utility.yul\":18062:18137   */\n      tag_231\n      jump\t// in\n    tag_440:\n        /* \"#utility.yul\":18162:18164   */\n      0x20\n        /* \"#utility.yul\":18157:18160   */\n      dup3\n        /* \"#utility.yul\":18153:18165   */\n      add\n        /* \"#utility.yul\":18146:18165   */\n      swap2\n      pop\n        /* \"#utility.yul\":18175:18250   */\n      tag_441\n        /* \"#utility.yul\":18246:18249   */\n      dup3\n        /* \"#utility.yul\":18237:18243   */\n      dup5\n        /* \"#utility.yul\":18175:18250   */\n      tag_231\n      jump\t// in\n    tag_441:\n        /* \"#utility.yul\":18275:18277   */\n      0x20\n        /* \"#utility.yul\":18270:18273   */\n      dup3\n        /* \"#utility.yul\":18266:18278   */\n      add\n        /* \"#utility.yul\":18259:18278   */\n      swap2\n      pop\n        /* \"#utility.yul\":18295:18298   */\n      dup2\n        /* \"#utility.yul\":18288:18298   */\n      swap1\n      pop\n        /* \"#utility.yul\":17907:18304   */\n      swap4\n      swap3\n      pop\n      pop\n      pop\n      jump\t// out\n        /* \"#utility.yul\":18310:18479   */\n    tag_232:\n        /* \"#utility.yul\":18394:18405   */\n      0x00\n        /* \"#utility.yul\":18428:18434   */\n      dup3\n        /* \"#utility.yul\":18423:18426   */\n      dup3\n        /* \"#utility.yul\":18416:18435   */\n      mstore\n        /* \"#utility.yul\":18468:18472   */\n      0x20\n        /* \"#utility.yul\":18463:18466   */\n      dup3\n        /* \"#utility.yul\":18459:18473   */\n      add\n        /* \"#utility.yul\":18444:18473   */\n      swap1\n      pop\n        /* \"#utility.yul\":18310:18479   */\n      swap3\n      swap2\n      pop\n      pop\n      jump\t// out\n        /* \"#utility.yul\":18485:18710   */\n    tag_233:\n        /* \"#utility.yul\":18625:18659   */\n      0x54686973206170706f696e746d656e7420736c6f74206973206e6f7420617661\n        /* \"#utility.yul\":18621:18622   */\n      0x00\n        /* \"#utility.yul\":18613:18619   */\n      dup3\n        /* \"#utility.yul\":18609:18623   */\n      add\n        /* \"#utility.yul\":18602:18660   */\n      mstore\n        /* \"#utility.yul\":18694:18702   */\n      0x696c61626c650000000000000000000000000000000000000000000000000000\n        /* \"#utility.yul\":18689:18691   */\n      0x20\n        /* \"#utility.yul\":18681:18687   */\n      dup3\n        /* \"#utility.yul\":18677:18692   */\n      add\n        /* \"#utility.yul\":18670:18703   */\n      mstore\n        /* \"#utility.yul\":18485:18710   */\n      pop\n      jump\t// out\n        /* \"#utility.yul\":18716:19082   */\n    tag_234:\n        /* \"#utility.yul\":18858:18861   */\n      0x00\n        /* \"#utility.yul\":18879:18946   */\n      tag_445\n        /* \"#utility.yul\":18943:18945   */\n      0x26\n        /* \"#utility.yul\":18938:18941   */\n      dup4\n        /* \"#utility.yul\":18879:18946   */\n      tag_232\n      jump\t// in\n    tag_445:\n        /* \"#utility.yul\":18872:18946   */\n      swap2\n      pop\n        /* \"#utility.yul\":18955:19048   */\n      tag_446\n        /* \"#utility.yul\":19044:19047   */\n      dup3\n        /* \"#utility.yul\":18955:19048   */\n      tag_233\n      jump\t// in\n    tag_446:\n        /* \"#utility.yul\":19073:19075   */\n      0x40\n        /* \"#utility.yul\":19068:19071   */\n      dup3\n        /* \"#utility.yul\":19064:19076   */\n      add\n        /* \"#utility.yul\":19057:19076   */\n      swap1\n      pop\n        /* \"#utility.yul\":18716:19082   */\n      swap2\n      swap1\n      pop\n      jump\t// out\n        /* \"#utility.yul\":19088:19507   */\n    tag_58:\n        /* \"#utility.yul\":19254:19258   */\n      0x00\n        /* \"#utility.yul\":19292:19294   */\n      0x20\n        /* \"#utility.yul\":19281:19290   */\n      dup3\n        /* \"#utility.yul\":19277:19295   */\n      add\n        /* \"#utility.yul\":19269:19295   */\n      swap1\n      pop\n        /* \"#utility.yul\":19341:19350   */\n      dup2\n        /* \"#utility.yul\":19335:19339   */\n      dup2\n        /* \"#utility.yul\":19331:19351   */\n      sub\n        /* \"#utility.yul\":19327:19328   */\n      0x00\n        /* \"#utility.yul\":19316:19325   */\n      dup4\n        /* \"#utility.yul\":19312:19329   */\n      add\n        /* \"#utility.yul\":19305:19352   */\n      mstore\n        /* \"#utility.yul\":19369:19500   */\n      tag_448\n        /* \"#utility.yul\":19495:19499   */\n      dup2\n        /* \"#utility.yul\":19369:19500   */\n      tag_234\n      jump\t// in\n    tag_448:\n        /* \"#utility.yul\":19361:19500   */\n      swap1\n      pop\n        /* \"#utility.yul\":19088:19507   */\n      swap2\n      swap1\n      pop\n      jump\t// out\n        /* \"#utility.yul\":19513:19611   */\n    tag_235:\n        /* \"#utility.yul\":19564:19570   */\n      0x00\n        /* \"#utility.yul\":19598:19603   */\n      dup2\n        /* \"#utility.yul\":19592:19604   */\n      mload\n        /* \"#utility.yul\":19582:19604   */\n      swap1\n      pop\n        /* \"#utility.yul\":19513:19611   */\n      swap2\n      swap1\n      pop\n      jump\t// out\n        /* \"#utility.yul\":19617:19793   */\n    tag_236:\n        /* \"#utility.yul\":19708:19719   */\n      0x00\n        /* \"#utility.yul\":19742:19748   */\n      dup3\n        /* \"#utility.yul\":19737:19740   */\n      dup3\n        /* \"#utility.yul\":19730:19749   */\n      mstore\n        /* \"#utility.yul\":19782:19786   */\n      0x20\n        /* \"#utility.yul\":19777:19780   */\n      dup3\n        /* \"#utility.yul\":19773:19787   */\n      add\n        /* \"#utility.yul\":19758:19787   */\n      swap1\n      pop\n        /* \"#utility.yul\":19617:19793   */\n      swap3\n      swap2\n      pop\n      pop\n      jump\t// out\n        /* \"#utility.yul\":19799:20188   */\n    tag_237:\n        /* \"#utility.yul\":19893:19896   */\n      0x00\n        /* \"#utility.yul\":19921:19959   */\n      tag_452\n        /* \"#utility.yul\":19953:19958   */\n      dup3\n        /* \"#utility.yul\":19921:19959   */\n      tag_235\n      jump\t// in\n    tag_452:\n        /* \"#utility.yul\":19975:20053   */\n      tag_453\n        /* \"#utility.yul\":20046:20052   */\n      dup2\n        /* \"#utility.yul\":20041:20044   */\n      dup6\n        /* \"#utility.yul\":19975:20053   */\n      tag_236\n      jump\t// in\n    tag_453:\n        /* \"#utility.yul\":19968:20053   */\n      swap4\n      pop\n        /* \"#utility.yul\":20062:20127   */\n      tag_454\n        /* \"#utility.yul\":20120:20126   */\n      dup2\n        /* \"#utility.yul\":20115:20118   */\n      dup6\n        /* \"#utility.yul\":20108:20112   */\n      0x20\n        /* \"#utility.yul\":20101:20106   */\n      dup7\n        /* \"#utility.yul\":20097:20113   */\n      add\n        /* \"#utility.yul\":20062:20127   */\n      tag_218\n      jump\t// in\n    tag_454:\n        /* \"#utility.yul\":20152:20181   */\n      tag_455\n        /* \"#utility.yul\":20174:20180   */\n      dup2\n        /* \"#utility.yul\":20152:20181   */\n      tag_188\n      jump\t// in\n    tag_455:\n        /* \"#utility.yul\":20147:20150   */\n      dup5\n        /* \"#utility.yul\":20143:20182   */\n      add\n        /* \"#utility.yul\":20136:20182   */\n      swap2\n      pop\n        /* \"#utility.yul\":19897:20188   */\n      pop\n        /* \"#utility.yul\":19799:20188   */\n      swap3\n      swap2\n      pop\n      pop\n      jump\t// out\n        /* \"#utility.yul\":20194:20519   */\n    tag_61:\n        /* \"#utility.yul\":20313:20317   */\n      0x00\n        /* \"#utility.yul\":20351:20353   */\n      0x20\n        /* \"#utility.yul\":20340:20349   */\n      dup3\n        /* \"#utility.yul\":20336:20354   */\n      add\n        /* \"#utility.yul\":20328:20354   */\n      swap1\n      pop\n        /* \"#utility.yul\":20400:20409   */\n      dup2\n        /* \"#utility.yul\":20394:20398   */\n      dup2\n        /* \"#utility.yul\":20390:20410   */\n      sub\n        /* \"#utility.yul\":20386:20387   */\n      0x00\n        /* \"#utility.yul\":20375:20384   */\n      dup4\n        /* \"#utility.yul\":20371:20388   */\n      add\n        /* \"#utility.yul\":20364:20411   */\n      mstore\n        /* \"#utility.yul\":20428:20512   */\n      tag_457\n        /* \"#utility.yul\":20507:20511   */\n      dup2\n        /* \"#utility.yul\":20498:20504   */\n      dup5\n        /* \"#utility.yul\":20428:20512   */\n      tag_237\n      jump\t// in\n    tag_457:\n        /* \"#utility.yul\":20420:20512   */\n      swap1\n      pop\n        /* \"#utility.yul\":20194:20519   */\n      swap3\n      swap2\n      pop\n      pop\n      jump\t// out\n        /* \"#utility.yul\":20525:20662   */\n    tag_238:\n        /* \"#utility.yul\":20579:20584   */\n      0x00\n        /* \"#utility.yul\":20610:20616   */\n      dup2\n        /* \"#utility.yul\":20604:20617   */\n      mload\n        /* \"#utility.yul\":20595:20617   */\n      swap1\n      pop\n        /* \"#utility.yul\":20626:20656   */\n      tag_459\n        /* \"#utility.yul\":20650:20655   */\n      dup2\n        /* \"#utility.yul\":20626:20656   */\n      tag_196\n      jump\t// in\n    tag_459:\n        /* \"#utility.yul\":20525:20662   */\n      swap3\n      swap2\n      pop\n      pop\n      jump\t// out\n        /* \"#utility.yul\":20668:21013   */\n    tag_65:\n        /* \"#utility.yul\":20735:20741   */\n      0x00\n        /* \"#utility.yul\":20784:20786   */\n      0x20\n        /* \"#utility.yul\":20772:20781   */\n      dup3\n        /* \"#utility.yul\":20763:20770   */\n      dup5\n        /* \"#utility.yul\":20759:20782   */\n      sub\n        /* \"#utility.yul\":20755:20787   */\n      slt\n        /* \"#utility.yul\":20752:20871   */\n      iszero\n      tag_461\n      jumpi\n        /* \"#utility.yul\":20790:20869   */\n      tag_462\n      tag_180\n      jump\t// in\n    tag_462:\n        /* \"#utility.yul\":20752:20871   */\n    tag_461:\n        /* \"#utility.yul\":20910:20911   */\n      0x00\n        /* \"#utility.yul\":20935:20996   */\n      tag_463\n        /* \"#utility.yul\":20988:20995   */\n      dup5\n        /* \"#utility.yul\":20979:20985   */\n      dup3\n        /* \"#utility.yul\":20968:20977   */\n      dup6\n        /* \"#utility.yul\":20964:20986   */\n      add\n        /* \"#utility.yul\":20935:20996   */\n      tag_238\n      jump\t// in\n    tag_463:\n        /* \"#utility.yul\":20925:20996   */\n      swap2\n      pop\n        /* \"#utility.yul\":20881:21006   */\n      pop\n        /* \"#utility.yul\":20668:21013   */\n      swap3\n      swap2\n      pop\n      pop\n      jump\t// out\n        /* \"#utility.yul\":21019:21250   */\n    tag_239:\n        /* \"#utility.yul\":21159:21193   */\n      0x456d707479204170706f696e746d656e742e2050726570617265206170706f69\n        /* \"#utility.yul\":21155:21156   */\n      0x00\n        /* \"#utility.yul\":21147:21153   */\n      dup3\n        /* \"#utility.yul\":21143:21157   */\n      add\n        /* \"#utility.yul\":21136:21194   */\n      mstore\n        /* \"#utility.yul\":21228:21242   */\n      0x6e746d656e7420616761696e0000000000000000000000000000000000000000\n        /* \"#utility.yul\":21223:21225   */\n      0x20\n        /* \"#utility.yul\":21215:21221   */\n      dup3\n        /* \"#utility.yul\":21211:21226   */\n      add\n        /* \"#utility.yul\":21204:21243   */\n      mstore\n        /* \"#utility.yul\":21019:21250   */\n      pop\n      jump\t// out\n        /* \"#utility.yul\":21256:21622   */\n    tag_240:\n        /* \"#utility.yul\":21398:21401   */\n      0x00\n        /* \"#utility.yul\":21419:21486   */\n      tag_466\n        /* \"#utility.yul\":21483:21485   */\n      0x2c\n        /* \"#utility.yul\":21478:21481   */\n      dup4\n        /* \"#utility.yul\":21419:21486   */\n      tag_232\n      jump\t// in\n    tag_466:\n        /* \"#utility.yul\":21412:21486   */\n      swap2\n      pop\n        /* \"#utility.yul\":21495:21588   */\n      tag_467\n        /* \"#utility.yul\":21584:21587   */\n      dup3\n        /* \"#utility.yul\":21495:21588   */\n      tag_239\n      jump\t// in\n    tag_467:\n        /* \"#utility.yul\":21613:21615   */\n      0x40\n        /* \"#utility.yul\":21608:21611   */\n      dup3\n        /* \"#utility.yul\":21604:21616   */\n      add\n        /* \"#utility.yul\":21597:21616   */\n      swap1\n      pop\n        /* \"#utility.yul\":21256:21622   */\n      swap2\n      swap1\n      pop\n      jump\t// out\n        /* \"#utility.yul\":21628:22047   */\n    tag_68:\n        /* \"#utility.yul\":21794:21798   */\n      0x00\n        /* \"#utility.yul\":21832:21834   */\n      0x20\n        /* \"#utility.yul\":21821:21830   */\n      dup3\n        /* \"#utility.yul\":21817:21835   */\n      add\n        /* \"#utility.yul\":21809:21835   */\n      swap1\n      pop\n        /* \"#utility.yul\":21881:21890   */\n      dup2\n        /* \"#utility.yul\":21875:21879   */\n      dup2\n        /* \"#utility.yul\":21871:21891   */\n      sub\n        /* \"#utility.yul\":21867:21868   */\n      0x00\n        /* \"#utility.yul\":21856:21865   */\n      dup4\n        /* \"#utility.yul\":21852:21869   */\n      add\n        /* \"#utility.yul\":21845:21892   */\n      mstore\n        /* \"#utility.yul\":21909:22040   */\n      tag_469\n        /* \"#utility.yul\":22035:22039   */\n      dup2\n        /* \"#utility.yul\":21909:22040   */\n      tag_240\n      jump\t// in\n    tag_469:\n        /* \"#utility.yul\":21901:22040   */\n      swap1\n      pop\n        /* \"#utility.yul\":21628:22047   */\n      swap2\n      swap1\n      pop\n      jump\t// out\n        /* \"#utility.yul\":22053:22233   */\n    tag_241:\n        /* \"#utility.yul\":22101:22178   */\n      0x4e487b7100000000000000000000000000000000000000000000000000000000\n        /* \"#utility.yul\":22098:22099   */\n      0x00\n        /* \"#utility.yul\":22091:22179   */\n      mstore\n        /* \"#utility.yul\":22198:22202   */\n      0x22\n        /* \"#utility.yul\":22195:22196   */\n      0x04\n        /* \"#utility.yul\":22188:22203   */\n      mstore\n        /* \"#utility.yul\":22222:22226   */\n      0x24\n        /* \"#utility.yul\":22219:22220   */\n      0x00\n        /* \"#utility.yul\":22212:22227   */\n      revert\n        /* \"#utility.yul\":22239:22559   */\n    tag_84:\n        /* \"#utility.yul\":22283:22289   */\n      0x00\n        /* \"#utility.yul\":22320:22321   */\n      0x02\n        /* \"#utility.yul\":22314:22318   */\n      dup3\n        /* \"#utility.yul\":22310:22322   */\n      div\n        /* \"#utility.yul\":22300:22322   */\n      swap1\n      pop\n        /* \"#utility.yul\":22367:22368   */\n      0x01\n        /* \"#utility.yul\":22361:22365   */\n      dup3\n        /* \"#utility.yul\":22357:22369   */\n      and\n        /* \"#utility.yul\":22388:22406   */\n      dup1\n        /* \"#utility.yul\":22378:22459   */\n      tag_472\n      jumpi\n        /* \"#utility.yul\":22444:22448   */\n      0x7f\n        /* \"#utility.yul\":22436:22442   */\n      dup3\n        /* \"#utility.yul\":22432:22449   */\n      and\n        /* \"#utility.yul\":22422:22449   */\n      swap2\n      pop\n        /* \"#utility.yul\":22378:22459   */\n    tag_472:\n        /* \"#utility.yul\":22506:22508   */\n      0x20\n        /* \"#utility.yul\":22498:22504   */\n      dup3\n        /* \"#utility.yul\":22495:22509   */\n      lt\n        /* \"#utility.yul\":22475:22493   */\n      dup2\n        /* \"#utility.yul\":22472:22510   */\n      sub\n        /* \"#utility.yul\":22469:22553   */\n      tag_473\n      jumpi\n        /* \"#utility.yul\":22525:22543   */\n      tag_474\n      tag_241\n      jump\t// in\n    tag_474:\n        /* \"#utility.yul\":22469:22553   */\n    tag_473:\n        /* \"#utility.yul\":22290:22559   */\n      pop\n        /* \"#utility.yul\":22239:22559   */\n      swap2\n      swap1\n      pop\n      jump\t// out\n        /* \"#utility.yul\":22565:22706   */\n    tag_242:\n        /* \"#utility.yul\":22614:22618   */\n      0x00\n        /* \"#utility.yul\":22637:22640   */\n      dup2\n        /* \"#utility.yul\":22629:22640   */\n      swap1\n      pop\n        /* \"#utility.yul\":22660:22663   */\n      dup2\n        /* \"#utility.yul\":22657:22658   */\n      0x00\n        /* \"#utility.yul\":22650:22664   */\n      mstore\n        /* \"#utility.yul\":22694:22698   */\n      0x20\n        /* \"#utility.yul\":22691:22692   */\n      0x00\n        /* \"#utility.yul\":22681:22699   */\n      keccak256\n        /* \"#utility.yul\":22673:22699   */\n      swap1\n      pop\n        /* \"#utility.yul\":22565:22706   */\n      swap2\n      swap1\n      pop\n      jump\t// out\n        /* \"#utility.yul\":22712:22805   */\n    tag_243:\n        /* \"#utility.yul\":22749:22755   */\n      0x00\n        /* \"#utility.yul\":22796:22798   */\n      0x20\n        /* \"#utility.yul\":22791:22793   */\n      0x1f\n        /* \"#utility.yul\":22784:22789   */\n      dup4\n        /* \"#utility.yul\":22780:22794   */\n      add\n        /* \"#utility.yul\":22776:22799   */\n      div\n        /* \"#utility.yul\":22766:22799   */\n      swap1\n      pop\n        /* \"#utility.yul\":22712:22805   */\n      swap2\n      swap1\n      pop\n      jump\t// out\n        /* \"#utility.yul\":22811:22918   */\n    tag_244:\n        /* \"#utility.yul\":22855:22863   */\n      0x00\n        /* \"#utility.yul\":22905:22910   */\n      dup3\n        /* \"#utility.yul\":22899:22903   */\n      dup3\n        /* \"#utility.yul\":22895:22911   */\n      shl\n        /* \"#utility.yul\":22874:22911   */\n      swap1\n      pop\n        /* \"#utility.yul\":22811:22918   */\n      swap3\n      swap2\n      pop\n      pop\n      jump\t// out\n        /* \"#utility.yul\":22924:23317   */\n    tag_245:\n        /* \"#utility.yul\":22993:22999   */\n      0x00\n        /* \"#utility.yul\":23043:23044   */\n      0x08\n        /* \"#utility.yul\":23031:23041   */\n      dup4\n        /* \"#utility.yul\":23027:23045   */\n      mul\n        /* \"#utility.yul\":23066:23163   */\n      tag_479\n        /* \"#utility.yul\":23096:23162   */\n      0xffffffffffffffffffffffffffffffffffffffffffffffffffffffffffffffff\n        /* \"#utility.yul\":23085:23094   */\n      dup3\n        /* \"#utility.yul\":23066:23163   */\n      tag_244\n      jump\t// in\n    tag_479:\n        /* \"#utility.yul\":23184:23223   */\n      tag_480\n        /* \"#utility.yul\":23214:23222   */\n      dup7\n        /* \"#utility.yul\":23203:23212   */\n      dup4\n        /* \"#utility.yul\":23184:23223   */\n      tag_244\n      jump\t// in\n    tag_480:\n        /* \"#utility.yul\":23172:23223   */\n      swap6\n      pop\n        /* \"#utility.yul\":23256:23260   */\n      dup1\n        /* \"#utility.yul\":23252:23261   */\n      not\n        /* \"#utility.yul\":23245:23250   */\n      dup5\n        /* \"#utility.yul\":23241:23262   */\n      and\n        /* \"#utility.yul\":23232:23262   */\n      swap4\n      pop\n        /* \"#utility.yul\":23305:23309   */\n      dup1\n        /* \"#utility.yul\":23295:23303   */\n      dup7\n        /* \"#utility.yul\":23291:23310   */\n      and\n        /* \"#utility.yul\":23284:23289   */\n      dup5\n        /* \"#utility.yul\":23281:23311   */\n      or\n        /* \"#utility.yul\":23271:23311   */\n      swap3\n      pop\n        /* \"#utility.yul\":23000:23317   */\n      pop\n      pop\n        /* \"#utility.yul\":22924:23317   */\n      swap4\n      swap3\n      pop\n      pop\n      pop\n      jump\t// out\n        /* \"#utility.yul\":23323:23383   */\n    tag_246:\n        /* \"#utility.yul\":23351:23354   */\n      0x00\n        /* \"#utility.yul\":23372:23377   */\n      dup2\n        /* \"#utility.yul\":23365:23377   */\n      swap1\n      pop\n        /* \"#utility.yul\":23323:23383   */\n      swap2\n      swap1\n      pop\n      jump\t// out\n        /* \"#utility.yul\":23389:23531   */\n    tag_247:\n        /* \"#utility.yul\":23439:23448   */\n      0x00\n        /* \"#utility.yul\":23472:23525   */\n      tag_483\n        /* \"#utility.yul\":23490:23524   */\n      tag_484\n        /* \"#utility.yul\":23499:23523   */\n      tag_485\n        /* \"#utility.yul\":23517:23522   */\n      dup5\n        /* \"#utility.yul\":23499:23523   */\n      tag_182\n      jump\t// in\n    tag_485:\n        /* \"#utility.yul\":23490:23524   */\n      tag_246\n      jump\t// in\n    tag_484:\n        /* \"#utility.yul\":23472:23525   */\n      tag_182\n      jump\t// in\n    tag_483:\n        /* \"#utility.yul\":23459:23525   */\n      swap1\n      pop\n        /* \"#utility.yul\":23389:23531   */\n      swap2\n      swap1\n      pop\n      jump\t// out\n        /* \"#utility.yul\":23537:23612   */\n    tag_248:\n        /* \"#utility.yul\":23580:23583   */\n      0x00\n        /* \"#utility.yul\":23601:23606   */\n      dup2\n        /* \"#utility.yul\":23594:23606   */\n      swap1\n      pop\n        /* \"#utility.yul\":23537:23612   */\n      swap2\n      swap1\n      pop\n      jump\t// out\n        /* \"#utility.yul\":23618:23887   */\n    tag_249:\n        /* \"#utility.yul\":23728:23767   */\n      tag_488\n        /* \"#utility.yul\":23759:23766   */\n      dup4\n        /* \"#utility.yul\":23728:23767   */\n      tag_247\n      jump\t// in\n    tag_488:\n        /* \"#utility.yul\":23789:23880   */\n      tag_489\n        /* \"#utility.yul\":23838:23879   */\n      tag_490\n        /* \"#utility.yul\":23862:23878   */\n      dup3\n        /* \"#utility.yul\":23838:23879   */\n      tag_248\n      jump\t// in\n    tag_490:\n        /* \"#utility.yul\":23830:23836   */\n      dup5\n        /* \"#utility.yul\":23823:23827   */\n      dup5\n        /* \"#utility.yul\":23817:23828   */\n      sload\n        /* \"#utility.yul\":23789:23880   */\n      tag_245\n      jump\t// in\n    tag_489:\n        /* \"#utility.yul\":23783:23787   */\n      dup3\n        /* \"#utility.yul\":23776:23881   */\n      sstore\n        /* \"#utility.yul\":23694:23887   */\n      pop\n        /* \"#utility.yul\":23618:23887   */\n      pop\n      pop\n      pop\n      jump\t// out\n        /* \"#utility.yul\":23893:23966   */\n    tag_250:\n        /* \"#utility.yul\":23938:23941   */\n      0x00\n        /* \"#utility.yul\":23893:23966   */\n      swap1\n      jump\t// out\n        /* \"#utility.yul\":23972:24161   */\n    tag_251:\n        /* \"#utility.yul\":24049:24081   */\n      tag_493\n      tag_250\n      jump\t// in\n    tag_493:\n        /* \"#utility.yul\":24090:24155   */\n      tag_494\n        /* \"#utility.yul\":24148:24154   */\n      dup2\n        /* \"#utility.yul\":24140:24146   */\n      dup5\n        /* \"#utility.yul\":24134:24138   */\n      dup5\n        /* \"#utility.yul\":24090:24155   */\n      tag_249\n      jump\t// in\n    tag_494:\n        /* \"#utility.yul\":24025:24161   */\n      pop\n        /* \"#utility.yul\":23972:24161   */\n      pop\n      pop\n      jump\t// out\n        /* \"#utility.yul\":24167:24353   */\n    tag_252:\n        /* \"#utility.yul\":24227:24347   */\n    tag_496:\n        /* \"#utility.yul\":24244:24247   */\n      dup2\n        /* \"#utility.yul\":24237:24242   */\n      dup2\n        /* \"#utility.yul\":24234:24248   */\n      lt\n        /* \"#utility.yul\":24227:24347   */\n      iszero\n      tag_498\n      jumpi\n        /* \"#utility.yul\":24298:24337   */\n      tag_499\n        /* \"#utility.yul\":24335:24336   */\n      0x00\n        /* \"#utility.yul\":24328:24333   */\n      dup3\n        /* \"#utility.yul\":24298:24337   */\n      tag_251\n      jump\t// in\n    tag_499:\n        /* \"#utility.yul\":24271:24272   */\n      0x01\n        /* \"#utility.yul\":24264:24269   */\n      dup2\n        /* \"#utility.yul\":24260:24273   */\n      add\n        /* \"#utility.yul\":24251:24273   */\n      swap1\n      pop\n        /* \"#utility.yul\":24227:24347   */\n      jump(tag_496)\n    tag_498:\n        /* \"#utility.yul\":24167:24353   */\n      pop\n      pop\n      jump\t// out\n        /* \"#utility.yul\":24359:24902   */\n    tag_253:\n        /* \"#utility.yul\":24460:24462   */\n      0x1f\n        /* \"#utility.yul\":24455:24458   */\n      dup3\n        /* \"#utility.yul\":24452:24463   */\n      gt\n        /* \"#utility.yul\":24449:24895   */\n      iszero\n      tag_501\n      jumpi\n        /* \"#utility.yul\":24494:24532   */\n      tag_502\n        /* \"#utility.yul\":24526:24531   */\n      dup2\n        /* \"#utility.yul\":24494:24532   */\n      tag_242\n      jump\t// in\n    tag_502:\n        /* \"#utility.yul\":24578:24607   */\n      tag_503\n        /* \"#utility.yul\":24596:24606   */\n      dup5\n        /* \"#utility.yul\":24578:24607   */\n      tag_243\n      jump\t// in\n    tag_503:\n        /* \"#utility.yul\":24568:24576   */\n      dup2\n        /* \"#utility.yul\":24564:24608   */\n      add\n        /* \"#utility.yul\":24761:24763   */\n      0x20\n        /* \"#utility.yul\":24749:24759   */\n      dup6\n        /* \"#utility.yul\":24746:24764   */\n      lt\n        /* \"#utility.yul\":24743:24792   */\n      iszero\n      tag_504\n      jumpi\n        /* \"#utility.yul\":24782:24790   */\n      dup2\n        /* \"#utility.yul\":24767:24790   */\n      swap1\n      pop\n        /* \"#utility.yul\":24743:24792   */\n    tag_504:\n        /* \"#utility.yul\":24805:24885   */\n      tag_505\n        /* \"#utility.yul\":24861:24883   */\n      tag_506\n        /* \"#utility.yul\":24879:24882   */\n      dup6\n        /* \"#utility.yul\":24861:24883   */\n      tag_243\n      jump\t// in\n    tag_506:\n        /* \"#utility.yul\":24851:24859   */\n      dup4\n        /* \"#utility.yul\":24847:24884   */\n      add\n        /* \"#utility.yul\":24834:24845   */\n      dup3\n        /* \"#utility.yul\":24805:24885   */\n      tag_252\n      jump\t// in\n    tag_505:\n        /* \"#utility.yul\":24464:24895   */\n      pop\n      pop\n        /* \"#utility.yul\":24449:24895   */\n    tag_501:\n        /* \"#utility.yul\":24359:24902   */\n      pop\n      pop\n      pop\n      jump\t// out\n        /* \"#utility.yul\":24908:25025   */\n    tag_254:\n        /* \"#utility.yul\":24962:24970   */\n      0x00\n        /* \"#utility.yul\":25012:25017   */\n      dup3\n        /* \"#utility.yul\":25006:25010   */\n      dup3\n        /* \"#utility.yul\":25002:25018   */\n      shr\n        /* \"#utility.yul\":24981:25018   */\n      swap1\n      pop\n        /* \"#utility.yul\":24908:25025   */\n      swap3\n      swap2\n      pop\n      pop\n      jump\t// out\n        /* \"#utility.yul\":25031:25200   */\n    tag_255:\n        /* \"#utility.yul\":25075:25081   */\n      0x00\n        /* \"#utility.yul\":25108:25159   */\n      tag_509\n        /* \"#utility.yul\":25156:25157   */\n      0x00\n        /* \"#utility.yul\":25152:25158   */\n      not\n        /* \"#utility.yul\":25144:25149   */\n      dup5\n        /* \"#utility.yul\":25141:25142   */\n      0x08\n        /* \"#utility.yul\":25137:25150   */\n      mul\n        /* \"#utility.yul\":25108:25159   */\n      tag_254\n      jump\t// in\n    tag_509:\n        /* \"#utility.yul\":25104:25160   */\n      not\n        /* \"#utility.yul\":25189:25193   */\n      dup1\n        /* \"#utility.yul\":25183:25187   */\n      dup4\n        /* \"#utility.yul\":25179:25194   */\n      and\n        /* \"#utility.yul\":25169:25194   */\n      swap2\n      pop\n        /* \"#utility.yul\":25082:25200   */\n      pop\n        /* \"#utility.yul\":25031:25200   */\n      swap3\n      swap2\n      pop\n      pop\n      jump\t// out\n        /* \"#utility.yul\":25205:25500   */\n    tag_256:\n        /* \"#utility.yul\":25281:25285   */\n      0x00\n        /* \"#utility.yul\":25427:25456   */\n      tag_511\n        /* \"#utility.yul\":25452:25455   */\n      dup4\n        /* \"#utility.yul\":25446:25450   */\n      dup4\n        /* \"#utility.yul\":25427:25456   */\n      tag_255\n      jump\t// in\n    tag_511:\n        /* \"#utility.yul\":25419:25456   */\n      swap2\n      pop\n        /* \"#utility.yul\":25489:25492   */\n      dup3\n        /* \"#utility.yul\":25486:25487   */\n      0x02\n        /* \"#utility.yul\":25482:25493   */\n      mul\n        /* \"#utility.yul\":25476:25480   */\n      dup3\n        /* \"#utility.yul\":25473:25494   */\n      or\n        /* \"#utility.yul\":25465:25494   */\n      swap1\n      pop\n        /* \"#utility.yul\":25205:25500   */\n      swap3\n      swap2\n      pop\n      pop\n      jump\t// out\n        /* \"#utility.yul\":25505:26900   */\n    tag_70:\n        /* \"#utility.yul\":25622:25659   */\n      tag_513\n        /* \"#utility.yul\":25655:25658   */\n      dup3\n        /* \"#utility.yul\":25622:25659   */\n      tag_216\n      jump\t// in\n    tag_513:\n        /* \"#utility.yul\":25724:25742   */\n      0xffffffffffffffff\n        /* \"#utility.yul\":25716:25722   */\n      dup2\n        /* \"#utility.yul\":25713:25743   */\n      gt\n        /* \"#utility.yul\":25710:25766   */\n      iszero\n      tag_514\n      jumpi\n        /* \"#utility.yul\":25746:25764   */\n      tag_515\n      tag_189\n      jump\t// in\n    tag_515:\n        /* \"#utility.yul\":25710:25766   */\n    tag_514:\n        /* \"#utility.yul\":25790:25828   */\n      tag_516\n        /* \"#utility.yul\":25822:25826   */\n      dup3\n        /* \"#utility.yul\":25816:25827   */\n      sload\n        /* \"#utility.yul\":25790:25828   */\n      tag_84\n      jump\t// in\n    tag_516:\n        /* \"#utility.yul\":25875:25942   */\n      tag_517\n        /* \"#utility.yul\":25935:25941   */\n      dup3\n        /* \"#utility.yul\":25927:25933   */\n      dup3\n        /* \"#utility.yul\":25921:25925   */\n      dup6\n        /* \"#utility.yul\":25875:25942   */\n      tag_253\n      jump\t// in\n    tag_517:\n        /* \"#utility.yul\":25969:25970   */\n      0x00\n        /* \"#utility.yul\":25993:25997   */\n      0x20\n        /* \"#utility.yul\":25980:25997   */\n      swap1\n      pop\n        /* \"#utility.yul\":26025:26027   */\n      0x1f\n        /* \"#utility.yul\":26017:26023   */\n      dup4\n        /* \"#utility.yul\":26014:26028   */\n      gt\n        /* \"#utility.yul\":26042:26043   */\n      0x01\n        /* \"#utility.yul\":26037:26655   */\n      dup2\n      eq\n      tag_519\n      jumpi\n        /* \"#utility.yul\":26699:26700   */\n      0x00\n        /* \"#utility.yul\":26716:26722   */\n      dup5\n        /* \"#utility.yul\":26713:26790   */\n      iszero\n      tag_520\n      jumpi\n        /* \"#utility.yul\":26765:26774   */\n      dup3\n        /* \"#utility.yul\":26760:26763   */\n      dup8\n        /* \"#utility.yul\":26756:26775   */\n      add\n        /* \"#utility.yul\":26750:26776   */\n      mload\n        /* \"#utility.yul\":26741:26776   */\n      swap1\n      pop\n        /* \"#utility.yul\":26713:26790   */\n    tag_520:\n        /* \"#utility.yul\":26816:26883   */\n      tag_521\n        /* \"#utility.yul\":26876:26882   */\n      dup6\n        /* \"#utility.yul\":26869:26874   */\n      dup3\n        /* \"#utility.yul\":26816:26883   */\n      tag_256\n      jump\t// in\n    tag_521:\n        /* \"#utility.yul\":26810:26814   */\n      dup7\n        /* \"#utility.yul\":26803:26884   */\n      sstore\n        /* \"#utility.yul\":26672:26894   */\n      pop\n        /* \"#utility.yul\":26007:26894   */\n      jump(tag_518)\n        /* \"#utility.yul\":26037:26655   */\n    tag_519:\n        /* \"#utility.yul\":26089:26093   */\n      0x1f\n        /* \"#utility.yul\":26085:26094   */\n      not\n        /* \"#utility.yul\":26077:26083   */\n      dup5\n        /* \"#utility.yul\":26073:26095   */\n      and\n        /* \"#utility.yul\":26123:26160   */\n      tag_522\n        /* \"#utility.yul\":26155:26159   */\n      dup7\n        /* \"#utility.yul\":26123:26160   */\n      tag_242\n      jump\t// in\n    tag_522:\n        /* \"#utility.yul\":26182:26183   */\n      0x00\n        /* \"#utility.yul\":26196:26404   */\n    tag_523:\n        /* \"#utility.yul\":26210:26217   */\n      dup3\n        /* \"#utility.yul\":26207:26208   */\n      dup2\n        /* \"#utility.yul\":26204:26218   */\n      lt\n        /* \"#utility.yul\":26196:26404   */\n      iszero\n      tag_525\n      jumpi\n        /* \"#utility.yul\":26289:26298   */\n      dup5\n        /* \"#utility.yul\":26284:26287   */\n      dup10\n        /* \"#utility.yul\":26280:26299   */\n      add\n        /* \"#utility.yul\":26274:26300   */\n      mload\n        /* \"#utility.yul\":26266:26272   */\n      dup3\n        /* \"#utility.yul\":26259:26301   */\n      sstore\n        /* \"#utility.yul\":26340:26341   */\n      0x01\n        /* \"#utility.yul\":26332:26338   */\n      dup3\n        /* \"#utility.yul\":26328:26342   */\n      add\n        /* \"#utility.yul\":26318:26342   */\n      swap2\n      pop\n        /* \"#utility.yul\":26387:26389   */\n      0x20\n        /* \"#utility.yul\":26376:26385   */\n      dup6\n        /* \"#utility.yul\":26372:26390   */\n      add\n        /* \"#utility.yul\":26359:26390   */\n      swap5\n      pop\n        /* \"#utility.yul\":26233:26237   */\n      0x20\n        /* \"#utility.yul\":26230:26231   */\n      dup2\n        /* \"#utility.yul\":26226:26238   */\n      add\n        /* \"#utility.yul\":26221:26238   */\n      swap1\n      pop\n        /* \"#utility.yul\":26196:26404   */\n      jump(tag_523)\n    tag_525:\n        /* \"#utility.yul\":26432:26438   */\n      dup7\n        /* \"#utility.yul\":26423:26430   */\n      dup4\n        /* \"#utility.yul\":26420:26439   */\n      lt\n        /* \"#utility.yul\":26417:26596   */\n      iszero\n      tag_526\n      jumpi\n        /* \"#utility.yul\":26490:26499   */\n      dup5\n        /* \"#utility.yul\":26485:26488   */\n      dup10\n        /* \"#utility.yul\":26481:26500   */\n      add\n        /* \"#utility.yul\":26475:26501   */\n      mload\n        /* \"#utility.yul\":26533:26581   */\n      tag_527\n        /* \"#utility.yul\":26575:26579   */\n      0x1f\n        /* \"#utility.yul\":26567:26573   */\n      dup10\n        /* \"#utility.yul\":26563:26580   */\n      and\n        /* \"#utility.yul\":26552:26561   */\n      dup3\n        /* \"#utility.yul\":26533:26581   */\n      tag_255\n      jump\t// in\n    tag_527:\n        /* \"#utility.yul\":26525:26531   */\n      dup4\n        /* \"#utility.yul\":26518:26582   */\n      sstore\n        /* \"#utility.yul\":26440:26596   */\n      pop\n        /* \"#utility.yul\":26417:26596   */\n    tag_526:\n        /* \"#utility.yul\":26642:26643   */\n      0x01\n        /* \"#utility.yul\":26638:26639   */\n      0x02\n        /* \"#utility.yul\":26630:26636   */\n      dup9\n        /* \"#utility.yul\":26626:26640   */\n      mul\n        /* \"#utility.yul\":26622:26644   */\n      add\n        /* \"#utility.yul\":26616:26620   */\n      dup9\n        /* \"#utility.yul\":26609:26645   */\n      sstore\n        /* \"#utility.yul\":26044:26655   */\n      pop\n      pop\n      pop\n        /* \"#utility.yul\":26007:26894   */\n    tag_518:\n      pop\n        /* \"#utility.yul\":25597:26900   */\n      pop\n      pop\n      pop\n        /* \"#utility.yul\":25505:26900   */\n      pop\n      pop\n      jump\t// out\n        /* \"#utility.yul\":26906:27086   */\n    tag_257:\n        /* \"#utility.yul\":26954:27031   */\n      0x4e487b7100000000000000000000000000000000000000000000000000000000\n        /* \"#utility.yul\":26951:26952   */\n      0x00\n        /* \"#utility.yul\":26944:27032   */\n      mstore\n        /* \"#utility.yul\":27051:27055   */\n      0x11\n        /* \"#utility.yul\":27048:27049   */\n      0x04\n        /* \"#utility.yul\":27041:27056   */\n      mstore\n        /* \"#utility.yul\":27075:27079   */\n      0x24\n        /* \"#utility.yul\":27072:27073   */\n      0x00\n        /* \"#utility.yul\":27065:27080   */\n      revert\n        /* \"#utility.yul\":27092:27325   */\n    tag_76:\n        /* \"#utility.yul\":27131:27134   */\n      0x00\n        /* \"#utility.yul\":27154:27178   */\n      tag_530\n        /* \"#utility.yul\":27172:27177   */\n      dup3\n        /* \"#utility.yul\":27154:27178   */\n      tag_182\n      jump\t// in\n    tag_530:\n        /* \"#utility.yul\":27145:27178   */\n      swap2\n      pop\n        /* \"#utility.yul\":27200:27266   */\n      0xffffffffffffffffffffffffffffffffffffffffffffffffffffffffffffffff\n        /* \"#utility.yul\":27193:27198   */\n      dup3\n        /* \"#utility.yul\":27190:27267   */\n      sub\n        /* \"#utility.yul\":27187:27290   */\n      tag_531\n      jumpi\n        /* \"#utility.yul\":27270:27288   */\n      tag_532\n      tag_257\n      jump\t// in\n    tag_532:\n        /* \"#utility.yul\":27187:27290   */\n    tag_531:\n        /* \"#utility.yul\":27317:27318   */\n      0x01\n        /* \"#utility.yul\":27310:27315   */\n      dup3\n        /* \"#utility.yul\":27306:27319   */\n      add\n        /* \"#utility.yul\":27299:27319   */\n      swap1\n      pop\n        /* \"#utility.yul\":27092:27325   */\n      swap2\n      swap1\n      pop\n      jump\t// out\n        /* \"#utility.yul\":27331:27511   */\n    tag_79:\n        /* \"#utility.yul\":27379:27456   */\n      0x4e487b7100000000000000000000000000000000000000000000000000000000\n        /* \"#utility.yul\":27376:27377   */\n      0x00\n        /* \"#utility.yul\":27369:27457   */\n      mstore\n        /* \"#utility.yul\":27476:27480   */\n      0x32\n        /* \"#utility.yul\":27473:27474   */\n      0x04\n        /* \"#utility.yul\":27466:27481   */\n      mstore\n        /* \"#utility.yul\":27500:27504   */\n      0x24\n        /* \"#utility.yul\":27497:27498   */\n      0x00\n        /* \"#utility.yul\":27490:27505   */\n      revert\n        /* \"#utility.yul\":27517:27686   */\n    tag_258:\n        /* \"#utility.yul\":27657:27678   */\n      0x4170706f696e746d656e74204372656174656400000000000000000000000000\n        /* \"#utility.yul\":27653:27654   */\n      0x00\n        /* \"#utility.yul\":27645:27651   */\n      dup3\n        /* \"#utility.yul\":27641:27655   */\n      add\n        /* \"#utility.yul\":27634:27679   */\n      mstore\n        /* \"#utility.yul\":27517:27686   */\n      pop\n      jump\t// out\n        /* \"#utility.yul\":27692:28058   */\n    tag_259:\n        /* \"#utility.yul\":27834:27837   */\n      0x00\n        /* \"#utility.yul\":27855:27922   */\n      tag_536\n        /* \"#utility.yul\":27919:27921   */\n      0x13\n        /* \"#utility.yul\":27914:27917   */\n      dup4\n        /* \"#utility.yul\":27855:27922   */\n      tag_232\n      jump\t// in\n    tag_536:\n        /* \"#utility.yul\":27848:27922   */\n      swap2\n      pop\n        /* \"#utility.yul\":27931:28024   */\n      tag_537\n        /* \"#utility.yul\":28020:28023   */\n      dup3\n        /* \"#utility.yul\":27931:28024   */\n      tag_258\n      jump\t// in\n    tag_537:\n        /* \"#utility.yul\":28049:28051   */\n      0x20\n        /* \"#utility.yul\":28044:28047   */\n      dup3\n        /* \"#utility.yul\":28040:28052   */\n      add\n        /* \"#utility.yul\":28033:28052   */\n      swap1\n      pop\n        /* \"#utility.yul\":27692:28058   */\n      swap2\n      swap1\n      pop\n      jump\t// out\n        /* \"#utility.yul\":28064:28593   */\n    tag_82:\n        /* \"#utility.yul\":28258:28262   */\n      0x00\n        /* \"#utility.yul\":28296:28298   */\n      0x40\n        /* \"#utility.yul\":28285:28294   */\n      dup3\n        /* \"#utility.yul\":28281:28299   */\n      add\n        /* \"#utility.yul\":28273:28299   */\n      swap1\n      pop\n        /* \"#utility.yul\":28309:28380   */\n      tag_539\n        /* \"#utility.yul\":28377:28378   */\n      0x00\n        /* \"#utility.yul\":28366:28375   */\n      dup4\n        /* \"#utility.yul\":28362:28379   */\n      add\n        /* \"#utility.yul\":28353:28359   */\n      dup5\n        /* \"#utility.yul\":28309:28380   */\n      tag_228\n      jump\t// in\n    tag_539:\n        /* \"#utility.yul\":28427:28436   */\n      dup2\n        /* \"#utility.yul\":28421:28425   */\n      dup2\n        /* \"#utility.yul\":28417:28437   */\n      sub\n        /* \"#utility.yul\":28412:28414   */\n      0x20\n        /* \"#utility.yul\":28401:28410   */\n      dup4\n        /* \"#utility.yul\":28397:28415   */\n      add\n        /* \"#utility.yul\":28390:28438   */\n      mstore\n        /* \"#utility.yul\":28455:28586   */\n      tag_540\n        /* \"#utility.yul\":28581:28585   */\n      dup2\n        /* \"#utility.yul\":28455:28586   */\n      tag_259\n      jump\t// in\n    tag_540:\n        /* \"#utility.yul\":28447:28586   */\n      swap1\n      pop\n        /* \"#utility.yul\":28064:28593   */\n      swap3\n      swap2\n      pop\n      pop\n      jump\t// out\n        /* \"#utility.yul\":28599:28770   */\n    tag_166:\n        /* \"#utility.yul\":28638:28641   */\n      0x00\n        /* \"#utility.yul\":28661:28685   */\n      tag_542\n        /* \"#utility.yul\":28679:28684   */\n      dup3\n        /* \"#utility.yul\":28661:28685   */\n      tag_182\n      jump\t// in\n    tag_542:\n        /* \"#utility.yul\":28652:28685   */\n      swap2\n      pop\n        /* \"#utility.yul\":28707:28711   */\n      0x00\n        /* \"#utility.yul\":28700:28705   */\n      dup3\n        /* \"#utility.yul\":28697:28712   */\n      sub\n        /* \"#utility.yul\":28694:28735   */\n      tag_543\n      jumpi\n        /* \"#utility.yul\":28715:28733   */\n      tag_544\n      tag_257\n      jump\t// in\n    tag_544:\n        /* \"#utility.yul\":28694:28735   */\n    tag_543:\n        /* \"#utility.yul\":28762:28763   */\n      0x01\n        /* \"#utility.yul\":28755:28760   */\n      dup3\n        /* \"#utility.yul\":28751:28764   */\n      sub\n        /* \"#utility.yul\":28744:28764   */\n      swap1\n      pop\n        /* \"#utility.yul\":28599:28770   */\n      swap2\n      swap1\n      pop\n      jump\t// out\n        /* \"#utility.yul\":28776:28947   */\n    tag_260:\n        /* \"#utility.yul\":28916:28939   */\n      0x4170706f696e746d656e742043616e63656c6c65640000000000000000000000\n        /* \"#utility.yul\":28912:28913   */\n      0x00\n        /* \"#utility.yul\":28904:28910   */\n      dup3\n        /* \"#utility.yul\":28900:28914   */\n      add\n        /* \"#utility.yul\":28893:28940   */\n      mstore\n        /* \"#utility.yul\":28776:28947   */\n      pop\n      jump\t// out\n        /* \"#utility.yul\":28953:29319   */\n    tag_261:\n        /* \"#utility.yul\":29095:29098   */\n      0x00\n        /* \"#utility.yul\":29116:29183   */\n      tag_547\n        /* \"#utility.yul\":29180:29182   */\n      0x15\n        /* \"#utility.yul\":29175:29178   */\n      dup4\n        /* \"#utility.yul\":29116:29183   */\n      tag_232\n      jump\t// in\n    tag_547:\n        /* \"#utility.yul\":29109:29183   */\n      swap2\n      pop\n        /* \"#utility.yul\":29192:29285   */\n      tag_548\n        /* \"#utility.yul\":29281:29284   */\n      dup3\n        /* \"#utility.yul\":29192:29285   */\n      tag_260\n      jump\t// in\n    tag_548:\n        /* \"#utility.yul\":29310:29312   */\n      0x20\n        /* \"#utility.yul\":29305:29308   */\n      dup3\n        /* \"#utility.yul\":29301:29313   */\n      add\n        /* \"#utility.yul\":29294:29313   */\n      swap1\n      pop\n        /* \"#utility.yul\":28953:29319   */\n      swap2\n      swap1\n      pop\n      jump\t// out\n        /* \"#utility.yul\":29325:29854   */\n    tag_171:\n        /* \"#utility.yul\":29519:29523   */\n      0x00\n        /* \"#utility.yul\":29557:29559   */\n      0x40\n        /* \"#utility.yul\":29546:29555   */\n      dup3\n        /* \"#utility.yul\":29542:29560   */\n      add\n        /* \"#utility.yul\":29534:29560   */\n      swap1\n      pop\n        /* \"#utility.yul\":29570:29641   */\n      tag_550\n        /* \"#utility.yul\":29638:29639   */\n      0x00\n        /* \"#utility.yul\":29627:29636   */\n      dup4\n        /* \"#utility.yul\":29623:29640   */\n      add\n        /* \"#utility.yul\":29614:29620   */\n      dup5\n        /* \"#utility.yul\":29570:29641   */\n      tag_228\n      jump\t// in\n    tag_550:\n        /* \"#utility.yul\":29688:29697   */\n      dup2\n        /* \"#utility.yul\":29682:29686   */\n      dup2\n        /* \"#utility.yul\":29678:29698   */\n      sub\n        /* \"#utility.yul\":29673:29675   */\n      0x20\n        /* \"#utility.yul\":29662:29671   */\n      dup4\n        /* \"#utility.yul\":29658:29676   */\n      add\n        /* \"#utility.yul\":29651:29699   */\n      mstore\n        /* \"#utility.yul\":29716:29847   */\n      tag_551\n        /* \"#utility.yul\":29842:29846   */\n      dup2\n        /* \"#utility.yul\":29716:29847   */\n      tag_261\n      jump\t// in\n    tag_551:\n        /* \"#utility.yul\":29708:29847   */\n      swap1\n      pop\n        /* \"#utility.yul\":29325:29854   */\n      swap3\n      swap2\n      pop\n      pop\n      jump\t// out\n        /* \"#utility.yul\":29860:30031   */\n    tag_262:\n        /* \"#utility.yul\":30000:30023   */\n      0x4170706f696e746d656e74204e6f7420466f756e640000000000000000000000\n        /* \"#utility.yul\":29996:29997   */\n      0x00\n        /* \"#utility.yul\":29988:29994   */\n      dup3\n        /* \"#utility.yul\":29984:29998   */\n      add\n        /* \"#utility.yul\":29977:30024   */\n      mstore\n        /* \"#utility.yul\":29860:30031   */\n      pop\n      jump\t// out\n        /* \"#utility.yul\":30037:30403   */\n    tag_263:\n        /* \"#utility.yul\":30179:30182   */\n      0x00\n        /* \"#utility.yul\":30200:30267   */\n      tag_554\n        /* \"#utility.yul\":30264:30266   */\n      0x15\n        /* \"#utility.yul\":30259:30262   */\n      dup4\n        /* \"#utility.yul\":30200:30267   */\n      tag_232\n      jump\t// in\n    tag_554:\n        /* \"#utility.yul\":30193:30267   */\n      swap2\n      pop\n        /* \"#utility.yul\":30276:30369   */\n      tag_555\n        /* \"#utility.yul\":30365:30368   */\n      dup3\n        /* \"#utility.yul\":30276:30369   */\n      tag_262\n      jump\t// in\n    tag_555:\n        /* \"#utility.yul\":30394:30396   */\n      0x20\n        /* \"#utility.yul\":30389:30392   */\n      dup3\n        /* \"#utility.yul\":30385:30397   */\n      add\n        /* \"#utility.yul\":30378:30397   */\n      swap1\n      pop\n        /* \"#utility.yul\":30037:30403   */\n      swap2\n      swap1\n      pop\n      jump\t// out\n        /* \"#utility.yul\":30409:30828   */\n    tag_174:\n        /* \"#utility.yul\":30575:30579   */\n      0x00\n        /* \"#utility.yul\":30613:30615   */\n      0x20\n        /* \"#utility.yul\":30602:30611   */\n      dup3\n        /* \"#utility.yul\":30598:30616   */\n      add\n        /* \"#utility.yul\":30590:30616   */\n      swap1\n      pop\n        /* \"#utility.yul\":30662:30671   */\n      dup2\n        /* \"#utility.yul\":30656:30660   */\n      dup2\n        /* \"#utility.yul\":30652:30672   */\n      sub\n        /* \"#utility.yul\":30648:30649   */\n      0x00\n        /* \"#utility.yul\":30637:30646   */\n      dup4\n        /* \"#utility.yul\":30633:30650   */\n      add\n        /* \"#utility.yul\":30626:30673   */\n      mstore\n        /* \"#utility.yul\":30690:30821   */\n      tag_557\n        /* \"#utility.yul\":30816:30820   */\n      dup2\n        /* \"#utility.yul\":30690:30821   */\n      tag_263\n      jump\t// in\n    tag_557:\n        /* \"#utility.yul\":30682:30821   */\n      swap1\n      pop\n        /* \"#utility.yul\":30409:30828   */\n      swap2\n      swap1\n      pop\n      jump\t// out\n\n    auxdata: 0xa2646970667358221220b7b4648d447f9e5cbb882447aa70fa89aa971f838aca3402c15b7d83ad5e74dc64736f6c63430008110033\n}\n",
				"bytecode": {
					"linkReferences": {
						"contracts/libraries/StructHelpers.sol": {
							"StructHelpers": [
								{
									"length": 20,
									"start": 704
								}
							]
						}
					},
					"object": "608060405234801561001057600080fd5b506121ed806100206000396000f3fe608060405234801561001057600080fd5b50600436106100885760003560e01c8063c667e4ff1161005b578063c667e4ff1461012d578063ce2a18ce1461015d578063e6ab0f591461018d578063fe7ec2d6146101bd57610088565b80631a0cc30b1461008d5780636c4eedb8146100bd5780638fd3a372146100ed578063ad36769b146100f7575b600080fd5b6100a760048036038101906100a2919061124c565b6101ed565b6040516100b491906112a5565b60405180910390f35b6100d760048036038101906100d29190611677565b610220565b6040516100e491906118f8565b60405180910390f35b6100f56107f3565b005b610111600480360381019061010c919061191a565b610ad2565b60405161012497969594939291906119de565b60405180910390f35b6101476004803603810190610142919061191a565b610cd4565b6040516101549190611a54565b60405180910390f35b6101776004803603810190610172919061191a565b610cfe565b60405161018491906118f8565b60405180910390f35b6101a760048036038101906101a2919061191a565b610f8c565b6040516101b49190611a54565b60405180910390f35b6101d760048036038101906101d2919061191a565b611134565b6040516101e49190611a54565b60405180910390f35b60008282604051602001610202929190611a90565b60405160208183030381529060405280519060200120905092915050565b610228611154565b600061023c836020015184604001516101ed565b90506001600082815260200190815260200160002060009054906101000a900460ff1661029e576040517f08c379a000000000000000000000000000000000000000000000000000000000815260040161029590611b3f565b60405180910390fd5b73__$288d728ca5367516b201473e0fe842eff5$__635b16923c846040516020016102c991906118f8565b6040516020818303038152906040526040518263ffffffff1660e01b81526004016102f49190611bb4565b602060405180830381865af4158015610311573d6000803e3d6000fd5b505050506040513d601f19601f820116820180604052508101906103359190611beb565b15610375576040517f08c379a000000000000000000000000000000000000000000000000000000000815260040161036c90611c8a565b60405180910390fd5b8260008083815260200190815260200160002060008201518160000155602082015181600101556040820151816002015560608201518160030160006101000a81548160ff02191690831515021790555060808201518160030160016101000a81548173ffffffffffffffffffffffffffffffffffffffff021916908373ffffffffffffffffffffffffffffffffffffffff16021790555060a08201518160040160006101000a81548173ffffffffffffffffffffffffffffffffffffffff021916908373ffffffffffffffffffffffffffffffffffffffff16021790555060c08201518160050160008201518160000190816104729190611eb6565b506020820151816001015560408201518160020190816104929190611eb6565b5060608201518160030160006101000a81548160ff021916908360028111156104be576104bd61177b565b5b0217905550505090505060006001600083815260200190815260200160002060006101000a81548160ff0219169083151502179055506003600081548092919061050790611fb7565b91905055508060026003548154811061052357610522611fff565b5b90600052602060002001819055507f197573e6ee0a27ad5493dc78bfc764115300b091175e7e7eb57c984ff1a3bc978360800151604051610564919061207a565b60405180910390a16000808281526020019081526020016000206040518060e00160405290816000820154815260200160018201548152602001600282015481526020016003820160009054906101000a900460ff161515151581526020016003820160019054906101000a900473ffffffffffffffffffffffffffffffffffffffff1673ffffffffffffffffffffffffffffffffffffffff1673ffffffffffffffffffffffffffffffffffffffff1681526020016004820160009054906101000a900473ffffffffffffffffffffffffffffffffffffffff1673ffffffffffffffffffffffffffffffffffffffff1673ffffffffffffffffffffffffffffffffffffffff1681526020016005820160405180608001604052908160008201805461068e90611cd9565b80601f01602080910402602001604051908101604052809291908181526020018280546106ba90611cd9565b80156107075780601f106106dc57610100808354040283529160200191610707565b820191906000526020600020905b8154815290600101906020018083116106ea57829003601f168201915b505050505081526020016001820154815260200160028201805461072a90611cd9565b80601f016020809104026020016040519081016040528092919081815260200182805461075690611cd9565b80156107a35780601f10610778576101008083540402835291602001916107a3565b820191906000526020600020905b81548152906001019060200180831161078657829003601f168201915b505050505081526020016003820160009054906101000a900460ff1660028111156107d1576107d061177b565b5b60028111156107e3576107e261177b565b5b8152505081525050915050919050565b60005b600354811015610acf5760006002828154811061081657610815611fff565b5b9060005260206000200154905060008060008381526020019081526020016000206040518060e00160405290816000820154815260200160018201548152602001600282015481526020016003820160009054906101000a900460ff161515151581526020016003820160019054906101000a900473ffffffffffffffffffffffffffffffffffffffff1673ffffffffffffffffffffffffffffffffffffffff1673ffffffffffffffffffffffffffffffffffffffff1681526020016004820160009054906101000a900473ffffffffffffffffffffffffffffffffffffffff1673ffffffffffffffffffffffffffffffffffffffff1673ffffffffffffffffffffffffffffffffffffffff1681526020016005820160405180608001604052908160008201805461094790611cd9565b80601f016020809104026020016040519081016040528092919081815260200182805461097390611cd9565b80156109c05780601f10610995576101008083540402835291602001916109c0565b820191906000526020600020905b8154815290600101906020018083116109a357829003601f168201915b50505050508152602001600182015481526020016002820180546109e390611cd9565b80601f0160208091040260200160405190810160405280929190818152602001828054610a0f90611cd9565b8015610a5c5780601f10610a3157610100808354040283529160200191610a5c565b820191906000526020600020905b815481529060010190602001808311610a3f57829003601f168201915b505050505081526020016003820160009054906101000a900460ff166002811115610a8a57610a8961177b565b5b6002811115610a9c57610a9b61177b565b5b81525050815250509050600081602001519050600082604001519050505050508080610ac790611fb7565b9150506107f6565b50565b60006020528060005260406000206000915090508060000154908060010154908060020154908060030160009054906101000a900460ff16908060030160019054906101000a900473ffffffffffffffffffffffffffffffffffffffff16908060040160009054906101000a900473ffffffffffffffffffffffffffffffffffffffff169080600501604051806080016040529081600082018054610b7690611cd9565b80601f0160208091040260200160405190810160405280929190818152602001828054610ba290611cd9565b8015610bef5780601f10610bc457610100808354040283529160200191610bef565b820191906000526020600020905b815481529060010190602001808311610bd257829003601f168201915b5050505050815260200160018201548152602001600282018054610c1290611cd9565b80601f0160208091040260200160405190810160405280929190818152602001828054610c3e90611cd9565b8015610c8b5780601f10610c6057610100808354040283529160200191610c8b565b820191906000526020600020905b815481529060010190602001808311610c6e57829003601f168201915b505050505081526020016003820160009054906101000a900460ff166002811115610cb957610cb861177b565b5b6002811115610ccb57610cca61177b565b5b81525050905087565b60006001600083815260200190815260200160002060009054906101000a900460ff169050919050565b610d06611154565b6000808381526020019081526020016000206040518060e00160405290816000820154815260200160018201548152602001600282015481526020016003820160009054906101000a900460ff161515151581526020016003820160019054906101000a900473ffffffffffffffffffffffffffffffffffffffff1673ffffffffffffffffffffffffffffffffffffffff1673ffffffffffffffffffffffffffffffffffffffff1681526020016004820160009054906101000a900473ffffffffffffffffffffffffffffffffffffffff1673ffffffffffffffffffffffffffffffffffffffff1673ffffffffffffffffffffffffffffffffffffffff16815260200160058201604051806080016040529081600082018054610e2890611cd9565b80601f0160208091040260200160405190810160405280929190818152602001828054610e5490611cd9565b8015610ea15780601f10610e7657610100808354040283529160200191610ea1565b820191906000526020600020905b815481529060010190602001808311610e8457829003601f168201915b5050505050815260200160018201548152602001600282018054610ec490611cd9565b80601f0160208091040260200160405190810160405280929190818152602001828054610ef090611cd9565b8015610f3d5780601f10610f1257610100808354040283529160200191610f3d565b820191906000526020600020905b815481529060010190602001808311610f2057829003601f168201915b505050505081526020016003820160009054906101000a900460ff166002811115610f6b57610f6a61177b565b5b6002811115610f7d57610f7c61177b565b5b81525050815250509050919050565b6000600180600084815260200190815260200160002060006101000a81548160ff0219169083151502179055506000600260035481548110610fd157610fd0611fff565b5b9060005260206000200154905060005b6003548110156110f357836002828154811061100057610fff611fff565b5b9060005260206000200154036110e057816002828154811061102557611024611fff565b5b906000526020600020018190555060036000815480929190611046906120a8565b91905055507ffcbf52237a5ed0ad3fb8dbebdf16dd6500675445f0d1ccda7780827a3f6446fd6000806002848154811061108357611082611fff565b5b9060005260206000200154815260200190815260200160002060030160019054906101000a900473ffffffffffffffffffffffffffffffffffffffff166040516110cd919061211d565b60405180910390a160019250505061112f565b80806110eb90611fb7565b915050610fe1565b506040517f08c379a000000000000000000000000000000000000000000000000000000000815260040161112690612197565b60405180910390fd5b919050565b60016020528060005260406000206000915054906101000a900460ff1681565b6040518060e00160405280600080191681526020016000815260200160008152602001600015158152602001600073ffffffffffffffffffffffffffffffffffffffff168152602001600073ffffffffffffffffffffffffffffffffffffffff1681526020016111c26111c8565b81525090565b6040518060800160405280606081526020016000815260200160608152602001600060028111156111fc576111fb61177b565b5b81525090565b6000604051905090565b600080fd5b600080fd5b6000819050919050565b61122981611216565b811461123457600080fd5b50565b60008135905061124681611220565b92915050565b600080604083850312156112635761126261120c565b5b600061127185828601611237565b925050602061128285828601611237565b9150509250929050565b6000819050919050565b61129f8161128c565b82525050565b60006020820190506112ba6000830184611296565b92915050565b600080fd5b6000601f19601f8301169050919050565b7f4e487b7100000000000000000000000000000000000000000000000000000000600052604160045260246000fd5b61130e826112c5565b810181811067ffffffffffffffff8211171561132d5761132c6112d6565b5b80604052505050565b6000611340611202565b905061134c8282611305565b919050565b600080fd5b61135f8161128c565b811461136a57600080fd5b50565b60008135905061137c81611356565b92915050565b60008115159050919050565b61139781611382565b81146113a257600080fd5b50565b6000813590506113b48161138e565b92915050565b600073ffffffffffffffffffffffffffffffffffffffff82169050919050565b60006113e5826113ba565b9050919050565b6113f5816113da565b811461140057600080fd5b50565b600081359050611412816113ec565b92915050565b600080fd5b600080fd5b600067ffffffffffffffff82111561143d5761143c6112d6565b5b611446826112c5565b9050602081019050919050565b82818337600083830152505050565b600061147561147084611422565b611336565b9050828152602081018484840111156114915761149061141d565b5b61149c848285611453565b509392505050565b600082601f8301126114b9576114b8611418565b5b81356114c9848260208601611462565b91505092915050565b600381106114df57600080fd5b50565b6000813590506114f1816114d2565b92915050565b60006080828403121561150d5761150c6112c0565b5b6115176080611336565b9050600082013567ffffffffffffffff81111561153757611536611351565b5b611543848285016114a4565b600083015250602061155784828501611237565b602083015250604082013567ffffffffffffffff81111561157b5761157a611351565b5b611587848285016114a4565b604083015250606061159b848285016114e2565b60608301525092915050565b600060e082840312156115bd576115bc6112c0565b5b6115c760e0611336565b905060006115d78482850161136d565b60008301525060206115eb84828501611237565b60208301525060406115ff84828501611237565b6040830152506060611613848285016113a5565b606083015250608061162784828501611403565b60808301525060a061163b84828501611403565b60a08301525060c082013567ffffffffffffffff81111561165f5761165e611351565b5b61166b848285016114f7565b60c08301525092915050565b60006020828403121561168d5761168c61120c565b5b600082013567ffffffffffffffff8111156116ab576116aa611211565b5b6116b7848285016115a7565b91505092915050565b6116c98161128c565b82525050565b6116d881611216565b82525050565b6116e781611382565b82525050565b6116f6816113da565b82525050565b600081519050919050565b600082825260208201905092915050565b60005b8381101561173657808201518184015260208101905061171b565b60008484015250505050565b600061174d826116fc565b6117578185611707565b9350611767818560208601611718565b611770816112c5565b840191505092915050565b7f4e487b7100000000000000000000000000000000000000000000000000000000600052602160045260246000fd5b600381106117bb576117ba61177b565b5b50565b60008190506117cc826117aa565b919050565b60006117dc826117be565b9050919050565b6117ec816117d1565b82525050565b6000608083016000830151848203600086015261180f8282611742565b915050602083015161182460208601826116cf565b506040830151848203604086015261183c8282611742565b915050606083015161185160608601826117e3565b508091505092915050565b600060e08301600083015161187460008601826116c0565b50602083015161188760208601826116cf565b50604083015161189a60408601826116cf565b5060608301516118ad60608601826116de565b5060808301516118c060808601826116ed565b5060a08301516118d360a08601826116ed565b5060c083015184820360c08601526118eb82826117f2565b9150508091505092915050565b60006020820190508181036000830152611912818461185c565b905092915050565b6000602082840312156119305761192f61120c565b5b600061193e8482850161136d565b91505092915050565b61195081611216565b82525050565b61195f81611382565b82525050565b61196e816113da565b82525050565b600060808301600083015184820360008601526119918282611742565b91505060208301516119a660208601826116cf565b50604083015184820360408601526119be8282611742565b91505060608301516119d360608601826117e3565b508091505092915050565b600060e0820190506119f3600083018a611296565b611a006020830189611947565b611a0d6040830188611947565b611a1a6060830187611956565b611a276080830186611965565b611a3460a0830185611965565b81810360c0830152611a468184611974565b905098975050505050505050565b6000602082019050611a696000830184611956565b92915050565b6000819050919050565b611a8a611a8582611216565b611a6f565b82525050565b6000611a9c8285611a79565b602082019150611aac8284611a79565b6020820191508190509392505050565b600082825260208201905092915050565b7f54686973206170706f696e746d656e7420736c6f74206973206e6f742061766160008201527f696c61626c650000000000000000000000000000000000000000000000000000602082015250565b6000611b29602683611abc565b9150611b3482611acd565b604082019050919050565b60006020820190508181036000830152611b5881611b1c565b9050919050565b600081519050919050565b600082825260208201905092915050565b6000611b8682611b5f565b611b908185611b6a565b9350611ba0818560208601611718565b611ba9816112c5565b840191505092915050565b60006020820190508181036000830152611bce8184611b7b565b905092915050565b600081519050611be58161138e565b92915050565b600060208284031215611c0157611c0061120c565b5b6000611c0f84828501611bd6565b91505092915050565b7f456d707479204170706f696e746d656e742e2050726570617265206170706f6960008201527f6e746d656e7420616761696e0000000000000000000000000000000000000000602082015250565b6000611c74602c83611abc565b9150611c7f82611c18565b604082019050919050565b60006020820190508181036000830152611ca381611c67565b9050919050565b7f4e487b7100000000000000000000000000000000000000000000000000000000600052602260045260246000fd5b60006002820490506001821680611cf157607f821691505b602082108103611d0457611d03611caa565b5b50919050565b60008190508160005260206000209050919050565b60006020601f8301049050919050565b600082821b905092915050565b600060088302611d6c7fffffffffffffffffffffffffffffffffffffffffffffffffffffffffffffffff82611d2f565b611d768683611d2f565b95508019841693508086168417925050509392505050565b6000819050919050565b6000611db3611dae611da984611216565b611d8e565b611216565b9050919050565b6000819050919050565b611dcd83611d98565b611de1611dd982611dba565b848454611d3c565b825550505050565b600090565b611df6611de9565b611e01818484611dc4565b505050565b5b81811015611e2557611e1a600082611dee565b600181019050611e07565b5050565b601f821115611e6a57611e3b81611d0a565b611e4484611d1f565b81016020851015611e53578190505b611e67611e5f85611d1f565b830182611e06565b50505b505050565b600082821c905092915050565b6000611e8d60001984600802611e6f565b1980831691505092915050565b6000611ea68383611e7c565b9150826002028217905092915050565b611ebf826116fc565b67ffffffffffffffff811115611ed857611ed76112d6565b5b611ee28254611cd9565b611eed828285611e29565b600060209050601f831160018114611f205760008415611f0e578287015190505b611f188582611e9a565b865550611f80565b601f198416611f2e86611d0a565b60005b82811015611f5657848901518255600182019150602085019450602081019050611f31565b86831015611f735784890151611f6f601f891682611e7c565b8355505b6001600288020188555050505b505050505050565b7f4e487b7100000000000000000000000000000000000000000000000000000000600052601160045260246000fd5b6000611fc282611216565b91507fffffffffffffffffffffffffffffffffffffffffffffffffffffffffffffffff8203611ff457611ff3611f88565b5b600182019050919050565b7f4e487b7100000000000000000000000000000000000000000000000000000000600052603260045260246000fd5b7f4170706f696e746d656e74204372656174656400000000000000000000000000600082015250565b6000612064601383611abc565b915061206f8261202e565b602082019050919050565b600060408201905061208f6000830184611965565b81810360208301526120a081612057565b905092915050565b60006120b382611216565b9150600082036120c6576120c5611f88565b5b600182039050919050565b7f4170706f696e746d656e742043616e63656c6c65640000000000000000000000600082015250565b6000612107601583611abc565b9150612112826120d1565b602082019050919050565b60006040820190506121326000830184611965565b8181036020830152612143816120fa565b905092915050565b7f4170706f696e746d656e74204e6f7420466f756e640000000000000000000000600082015250565b6000612181601583611abc565b915061218c8261214b565b602082019050919050565b600060208201905081810360008301526121b081612174565b905091905056fea2646970667358221220b7b4648d447f9e5cbb882447aa70fa89aa971f838aca3402c15b7d83ad5e74dc64736f6c63430008110033",
					"opcodes": "PUSH1 0x80 PUSH1 0x40 MSTORE CALLVALUE DUP1 ISZERO PUSH2 0x10 JUMPI PUSH1 0x0 DUP1 REVERT JUMPDEST POP PUSH2 0x21ED DUP1 PUSH2 0x20 PUSH1 0x0 CODECOPY PUSH1 0x0 RETURN INVALID PUSH1 0x80 PUSH1 0x40 MSTORE CALLVALUE DUP1 ISZERO PUSH2 0x10 JUMPI PUSH1 0x0 DUP1 REVERT JUMPDEST POP PUSH1 0x4 CALLDATASIZE LT PUSH2 0x88 JUMPI PUSH1 0x0 CALLDATALOAD PUSH1 0xE0 SHR DUP1 PUSH4 0xC667E4FF GT PUSH2 0x5B JUMPI DUP1 PUSH4 0xC667E4FF EQ PUSH2 0x12D JUMPI DUP1 PUSH4 0xCE2A18CE EQ PUSH2 0x15D JUMPI DUP1 PUSH4 0xE6AB0F59 EQ PUSH2 0x18D JUMPI DUP1 PUSH4 0xFE7EC2D6 EQ PUSH2 0x1BD JUMPI PUSH2 0x88 JUMP JUMPDEST DUP1 PUSH4 0x1A0CC30B EQ PUSH2 0x8D JUMPI DUP1 PUSH4 0x6C4EEDB8 EQ PUSH2 0xBD JUMPI DUP1 PUSH4 0x8FD3A372 EQ PUSH2 0xED JUMPI DUP1 PUSH4 0xAD36769B EQ PUSH2 0xF7 JUMPI JUMPDEST PUSH1 0x0 DUP1 REVERT JUMPDEST PUSH2 0xA7 PUSH1 0x4 DUP1 CALLDATASIZE SUB DUP2 ADD SWAP1 PUSH2 0xA2 SWAP2 SWAP1 PUSH2 0x124C JUMP JUMPDEST PUSH2 0x1ED JUMP JUMPDEST PUSH1 0x40 MLOAD PUSH2 0xB4 SWAP2 SWAP1 PUSH2 0x12A5 JUMP JUMPDEST PUSH1 0x40 MLOAD DUP1 SWAP2 SUB SWAP1 RETURN JUMPDEST PUSH2 0xD7 PUSH1 0x4 DUP1 CALLDATASIZE SUB DUP2 ADD SWAP1 PUSH2 0xD2 SWAP2 SWAP1 PUSH2 0x1677 JUMP JUMPDEST PUSH2 0x220 JUMP JUMPDEST PUSH1 0x40 MLOAD PUSH2 0xE4 SWAP2 SWAP1 PUSH2 0x18F8 JUMP JUMPDEST PUSH1 0x40 MLOAD DUP1 SWAP2 SUB SWAP1 RETURN JUMPDEST PUSH2 0xF5 PUSH2 0x7F3 JUMP JUMPDEST STOP JUMPDEST PUSH2 0x111 PUSH1 0x4 DUP1 CALLDATASIZE SUB DUP2 ADD SWAP1 PUSH2 0x10C SWAP2 SWAP1 PUSH2 0x191A JUMP JUMPDEST PUSH2 0xAD2 JUMP JUMPDEST PUSH1 0x40 MLOAD PUSH2 0x124 SWAP8 SWAP7 SWAP6 SWAP5 SWAP4 SWAP3 SWAP2 SWAP1 PUSH2 0x19DE JUMP JUMPDEST PUSH1 0x40 MLOAD DUP1 SWAP2 SUB SWAP1 RETURN JUMPDEST PUSH2 0x147 PUSH1 0x4 DUP1 CALLDATASIZE SUB DUP2 ADD SWAP1 PUSH2 0x142 SWAP2 SWAP1 PUSH2 0x191A JUMP JUMPDEST PUSH2 0xCD4 JUMP JUMPDEST PUSH1 0x40 MLOAD PUSH2 0x154 SWAP2 SWAP1 PUSH2 0x1A54 JUMP JUMPDEST PUSH1 0x40 MLOAD DUP1 SWAP2 SUB SWAP1 RETURN JUMPDEST PUSH2 0x177 PUSH1 0x4 DUP1 CALLDATASIZE SUB DUP2 ADD SWAP1 PUSH2 0x172 SWAP2 SWAP1 PUSH2 0x191A JUMP JUMPDEST PUSH2 0xCFE JUMP JUMPDEST PUSH1 0x40 MLOAD PUSH2 0x184 SWAP2 SWAP1 PUSH2 0x18F8 JUMP JUMPDEST PUSH1 0x40 MLOAD DUP1 SWAP2 SUB SWAP1 RETURN JUMPDEST PUSH2 0x1A7 PUSH1 0x4 DUP1 CALLDATASIZE SUB DUP2 ADD SWAP1 PUSH2 0x1A2 SWAP2 SWAP1 PUSH2 0x191A JUMP JUMPDEST PUSH2 0xF8C JUMP JUMPDEST PUSH1 0x40 MLOAD PUSH2 0x1B4 SWAP2 SWAP1 PUSH2 0x1A54 JUMP JUMPDEST PUSH1 0x40 MLOAD DUP1 SWAP2 SUB SWAP1 RETURN JUMPDEST PUSH2 0x1D7 PUSH1 0x4 DUP1 CALLDATASIZE SUB DUP2 ADD SWAP1 PUSH2 0x1D2 SWAP2 SWAP1 PUSH2 0x191A JUMP JUMPDEST PUSH2 0x1134 JUMP JUMPDEST PUSH1 0x40 MLOAD PUSH2 0x1E4 SWAP2 SWAP1 PUSH2 0x1A54 JUMP JUMPDEST PUSH1 0x40 MLOAD DUP1 SWAP2 SUB SWAP1 RETURN JUMPDEST PUSH1 0x0 DUP3 DUP3 PUSH1 0x40 MLOAD PUSH1 0x20 ADD PUSH2 0x202 SWAP3 SWAP2 SWAP1 PUSH2 0x1A90 JUMP JUMPDEST PUSH1 0x40 MLOAD PUSH1 0x20 DUP2 DUP4 SUB SUB DUP2 MSTORE SWAP1 PUSH1 0x40 MSTORE DUP1 MLOAD SWAP1 PUSH1 0x20 ADD KECCAK256 SWAP1 POP SWAP3 SWAP2 POP POP JUMP JUMPDEST PUSH2 0x228 PUSH2 0x1154 JUMP JUMPDEST PUSH1 0x0 PUSH2 0x23C DUP4 PUSH1 0x20 ADD MLOAD DUP5 PUSH1 0x40 ADD MLOAD PUSH2 0x1ED JUMP JUMPDEST SWAP1 POP PUSH1 0x1 PUSH1 0x0 DUP3 DUP2 MSTORE PUSH1 0x20 ADD SWAP1 DUP2 MSTORE PUSH1 0x20 ADD PUSH1 0x0 KECCAK256 PUSH1 0x0 SWAP1 SLOAD SWAP1 PUSH2 0x100 EXP SWAP1 DIV PUSH1 0xFF AND PUSH2 0x29E JUMPI PUSH1 0x40 MLOAD PUSH32 0x8C379A000000000000000000000000000000000000000000000000000000000 DUP2 MSTORE PUSH1 0x4 ADD PUSH2 0x295 SWAP1 PUSH2 0x1B3F JUMP JUMPDEST PUSH1 0x40 MLOAD DUP1 SWAP2 SUB SWAP1 REVERT JUMPDEST PUSH20 0x0 PUSH4 0x5B16923C DUP5 PUSH1 0x40 MLOAD PUSH1 0x20 ADD PUSH2 0x2C9 SWAP2 SWAP1 PUSH2 0x18F8 JUMP JUMPDEST PUSH1 0x40 MLOAD PUSH1 0x20 DUP2 DUP4 SUB SUB DUP2 MSTORE SWAP1 PUSH1 0x40 MSTORE PUSH1 0x40 MLOAD DUP3 PUSH4 0xFFFFFFFF AND PUSH1 0xE0 SHL DUP2 MSTORE PUSH1 0x4 ADD PUSH2 0x2F4 SWAP2 SWAP1 PUSH2 0x1BB4 JUMP JUMPDEST PUSH1 0x20 PUSH1 0x40 MLOAD DUP1 DUP4 SUB DUP2 DUP7 GAS DELEGATECALL ISZERO DUP1 ISZERO PUSH2 0x311 JUMPI RETURNDATASIZE PUSH1 0x0 DUP1 RETURNDATACOPY RETURNDATASIZE PUSH1 0x0 REVERT JUMPDEST POP POP POP POP PUSH1 0x40 MLOAD RETURNDATASIZE PUSH1 0x1F NOT PUSH1 0x1F DUP3 ADD AND DUP3 ADD DUP1 PUSH1 0x40 MSTORE POP DUP2 ADD SWAP1 PUSH2 0x335 SWAP2 SWAP1 PUSH2 0x1BEB JUMP JUMPDEST ISZERO PUSH2 0x375 JUMPI PUSH1 0x40 MLOAD PUSH32 0x8C379A000000000000000000000000000000000000000000000000000000000 DUP2 MSTORE PUSH1 0x4 ADD PUSH2 0x36C SWAP1 PUSH2 0x1C8A JUMP JUMPDEST PUSH1 0x40 MLOAD DUP1 SWAP2 SUB SWAP1 REVERT JUMPDEST DUP3 PUSH1 0x0 DUP1 DUP4 DUP2 MSTORE PUSH1 0x20 ADD SWAP1 DUP2 MSTORE PUSH1 0x20 ADD PUSH1 0x0 KECCAK256 PUSH1 0x0 DUP3 ADD MLOAD DUP2 PUSH1 0x0 ADD SSTORE PUSH1 0x20 DUP3 ADD MLOAD DUP2 PUSH1 0x1 ADD SSTORE PUSH1 0x40 DUP3 ADD MLOAD DUP2 PUSH1 0x2 ADD SSTORE PUSH1 0x60 DUP3 ADD MLOAD DUP2 PUSH1 0x3 ADD PUSH1 0x0 PUSH2 0x100 EXP DUP2 SLOAD DUP2 PUSH1 0xFF MUL NOT AND SWAP1 DUP4 ISZERO ISZERO MUL OR SWAP1 SSTORE POP PUSH1 0x80 DUP3 ADD MLOAD DUP2 PUSH1 0x3 ADD PUSH1 0x1 PUSH2 0x100 EXP DUP2 SLOAD DUP2 PUSH20 0xFFFFFFFFFFFFFFFFFFFFFFFFFFFFFFFFFFFFFFFF MUL NOT AND SWAP1 DUP4 PUSH20 0xFFFFFFFFFFFFFFFFFFFFFFFFFFFFFFFFFFFFFFFF AND MUL OR SWAP1 SSTORE POP PUSH1 0xA0 DUP3 ADD MLOAD DUP2 PUSH1 0x4 ADD PUSH1 0x0 PUSH2 0x100 EXP DUP2 SLOAD DUP2 PUSH20 0xFFFFFFFFFFFFFFFFFFFFFFFFFFFFFFFFFFFFFFFF MUL NOT AND SWAP1 DUP4 PUSH20 0xFFFFFFFFFFFFFFFFFFFFFFFFFFFFFFFFFFFFFFFF AND MUL OR SWAP1 SSTORE POP PUSH1 0xC0 DUP3 ADD MLOAD DUP2 PUSH1 0x5 ADD PUSH1 0x0 DUP3 ADD MLOAD DUP2 PUSH1 0x0 ADD SWAP1 DUP2 PUSH2 0x472 SWAP2 SWAP1 PUSH2 0x1EB6 JUMP JUMPDEST POP PUSH1 0x20 DUP3 ADD MLOAD DUP2 PUSH1 0x1 ADD SSTORE PUSH1 0x40 DUP3 ADD MLOAD DUP2 PUSH1 0x2 ADD SWAP1 DUP2 PUSH2 0x492 SWAP2 SWAP1 PUSH2 0x1EB6 JUMP JUMPDEST POP PUSH1 0x60 DUP3 ADD MLOAD DUP2 PUSH1 0x3 ADD PUSH1 0x0 PUSH2 0x100 EXP DUP2 SLOAD DUP2 PUSH1 0xFF MUL NOT AND SWAP1 DUP4 PUSH1 0x2 DUP2 GT ISZERO PUSH2 0x4BE JUMPI PUSH2 0x4BD PUSH2 0x177B JUMP JUMPDEST JUMPDEST MUL OR SWAP1 SSTORE POP POP POP SWAP1 POP POP PUSH1 0x0 PUSH1 0x1 PUSH1 0x0 DUP4 DUP2 MSTORE PUSH1 0x20 ADD SWAP1 DUP2 MSTORE PUSH1 0x20 ADD PUSH1 0x0 KECCAK256 PUSH1 0x0 PUSH2 0x100 EXP DUP2 SLOAD DUP2 PUSH1 0xFF MUL NOT AND SWAP1 DUP4 ISZERO ISZERO MUL OR SWAP1 SSTORE POP PUSH1 0x3 PUSH1 0x0 DUP2 SLOAD DUP1 SWAP3 SWAP2 SWAP1 PUSH2 0x507 SWAP1 PUSH2 0x1FB7 JUMP JUMPDEST SWAP2 SWAP1 POP SSTORE POP DUP1 PUSH1 0x2 PUSH1 0x3 SLOAD DUP2 SLOAD DUP2 LT PUSH2 0x523 JUMPI PUSH2 0x522 PUSH2 0x1FFF JUMP JUMPDEST JUMPDEST SWAP1 PUSH1 0x0 MSTORE PUSH1 0x20 PUSH1 0x0 KECCAK256 ADD DUP2 SWAP1 SSTORE POP PUSH32 0x197573E6EE0A27AD5493DC78BFC764115300B091175E7E7EB57C984FF1A3BC97 DUP4 PUSH1 0x80 ADD MLOAD PUSH1 0x40 MLOAD PUSH2 0x564 SWAP2 SWAP1 PUSH2 0x207A JUMP JUMPDEST PUSH1 0x40 MLOAD DUP1 SWAP2 SUB SWAP1 LOG1 PUSH1 0x0 DUP1 DUP3 DUP2 MSTORE PUSH1 0x20 ADD SWAP1 DUP2 MSTORE PUSH1 0x20 ADD PUSH1 0x0 KECCAK256 PUSH1 0x40 MLOAD DUP1 PUSH1 0xE0 ADD PUSH1 0x40 MSTORE SWAP1 DUP2 PUSH1 0x0 DUP3 ADD SLOAD DUP2 MSTORE PUSH1 0x20 ADD PUSH1 0x1 DUP3 ADD SLOAD DUP2 MSTORE PUSH1 0x20 ADD PUSH1 0x2 DUP3 ADD SLOAD DUP2 MSTORE PUSH1 0x20 ADD PUSH1 0x3 DUP3 ADD PUSH1 0x0 SWAP1 SLOAD SWAP1 PUSH2 0x100 EXP SWAP1 DIV PUSH1 0xFF AND ISZERO ISZERO ISZERO ISZERO DUP2 MSTORE PUSH1 0x20 ADD PUSH1 0x3 DUP3 ADD PUSH1 0x1 SWAP1 SLOAD SWAP1 PUSH2 0x100 EXP SWAP1 DIV PUSH20 0xFFFFFFFFFFFFFFFFFFFFFFFFFFFFFFFFFFFFFFFF AND PUSH20 0xFFFFFFFFFFFFFFFFFFFFFFFFFFFFFFFFFFFFFFFF AND PUSH20 0xFFFFFFFFFFFFFFFFFFFFFFFFFFFFFFFFFFFFFFFF AND DUP2 MSTORE PUSH1 0x20 ADD PUSH1 0x4 DUP3 ADD PUSH1 0x0 SWAP1 SLOAD SWAP1 PUSH2 0x100 EXP SWAP1 DIV PUSH20 0xFFFFFFFFFFFFFFFFFFFFFFFFFFFFFFFFFFFFFFFF AND PUSH20 0xFFFFFFFFFFFFFFFFFFFFFFFFFFFFFFFFFFFFFFFF AND PUSH20 0xFFFFFFFFFFFFFFFFFFFFFFFFFFFFFFFFFFFFFFFF AND DUP2 MSTORE PUSH1 0x20 ADD PUSH1 0x5 DUP3 ADD PUSH1 0x40 MLOAD DUP1 PUSH1 0x80 ADD PUSH1 0x40 MSTORE SWAP1 DUP2 PUSH1 0x0 DUP3 ADD DUP1 SLOAD PUSH2 0x68E SWAP1 PUSH2 0x1CD9 JUMP JUMPDEST DUP1 PUSH1 0x1F ADD PUSH1 0x20 DUP1 SWAP2 DIV MUL PUSH1 0x20 ADD PUSH1 0x40 MLOAD SWAP1 DUP2 ADD PUSH1 0x40 MSTORE DUP1 SWAP3 SWAP2 SWAP1 DUP2 DUP2 MSTORE PUSH1 0x20 ADD DUP3 DUP1 SLOAD PUSH2 0x6BA SWAP1 PUSH2 0x1CD9 JUMP JUMPDEST DUP1 ISZERO PUSH2 0x707 JUMPI DUP1 PUSH1 0x1F LT PUSH2 0x6DC JUMPI PUSH2 0x100 DUP1 DUP4 SLOAD DIV MUL DUP4 MSTORE SWAP2 PUSH1 0x20 ADD SWAP2 PUSH2 0x707 JUMP JUMPDEST DUP3 ADD SWAP2 SWAP1 PUSH1 0x0 MSTORE PUSH1 0x20 PUSH1 0x0 KECCAK256 SWAP1 JUMPDEST DUP2 SLOAD DUP2 MSTORE SWAP1 PUSH1 0x1 ADD SWAP1 PUSH1 0x20 ADD DUP1 DUP4 GT PUSH2 0x6EA JUMPI DUP3 SWAP1 SUB PUSH1 0x1F AND DUP3 ADD SWAP2 JUMPDEST POP POP POP POP POP DUP2 MSTORE PUSH1 0x20 ADD PUSH1 0x1 DUP3 ADD SLOAD DUP2 MSTORE PUSH1 0x20 ADD PUSH1 0x2 DUP3 ADD DUP1 SLOAD PUSH2 0x72A SWAP1 PUSH2 0x1CD9 JUMP JUMPDEST DUP1 PUSH1 0x1F ADD PUSH1 0x20 DUP1 SWAP2 DIV MUL PUSH1 0x20 ADD PUSH1 0x40 MLOAD SWAP1 DUP2 ADD PUSH1 0x40 MSTORE DUP1 SWAP3 SWAP2 SWAP1 DUP2 DUP2 MSTORE PUSH1 0x20 ADD DUP3 DUP1 SLOAD PUSH2 0x756 SWAP1 PUSH2 0x1CD9 JUMP JUMPDEST DUP1 ISZERO PUSH2 0x7A3 JUMPI DUP1 PUSH1 0x1F LT PUSH2 0x778 JUMPI PUSH2 0x100 DUP1 DUP4 SLOAD DIV MUL DUP4 MSTORE SWAP2 PUSH1 0x20 ADD SWAP2 PUSH2 0x7A3 JUMP JUMPDEST DUP3 ADD SWAP2 SWAP1 PUSH1 0x0 MSTORE PUSH1 0x20 PUSH1 0x0 KECCAK256 SWAP1 JUMPDEST DUP2 SLOAD DUP2 MSTORE SWAP1 PUSH1 0x1 ADD SWAP1 PUSH1 0x20 ADD DUP1 DUP4 GT PUSH2 0x786 JUMPI DUP3 SWAP1 SUB PUSH1 0x1F AND DUP3 ADD SWAP2 JUMPDEST POP POP POP POP POP DUP2 MSTORE PUSH1 0x20 ADD PUSH1 0x3 DUP3 ADD PUSH1 0x0 SWAP1 SLOAD SWAP1 PUSH2 0x100 EXP SWAP1 DIV PUSH1 0xFF AND PUSH1 0x2 DUP2 GT ISZERO PUSH2 0x7D1 JUMPI PUSH2 0x7D0 PUSH2 0x177B JUMP JUMPDEST JUMPDEST PUSH1 0x2 DUP2 GT ISZERO PUSH2 0x7E3 JUMPI PUSH2 0x7E2 PUSH2 0x177B JUMP JUMPDEST JUMPDEST DUP2 MSTORE POP POP DUP2 MSTORE POP POP SWAP2 POP POP SWAP2 SWAP1 POP JUMP JUMPDEST PUSH1 0x0 JUMPDEST PUSH1 0x3 SLOAD DUP2 LT ISZERO PUSH2 0xACF JUMPI PUSH1 0x0 PUSH1 0x2 DUP3 DUP2 SLOAD DUP2 LT PUSH2 0x816 JUMPI PUSH2 0x815 PUSH2 0x1FFF JUMP JUMPDEST JUMPDEST SWAP1 PUSH1 0x0 MSTORE PUSH1 0x20 PUSH1 0x0 KECCAK256 ADD SLOAD SWAP1 POP PUSH1 0x0 DUP1 PUSH1 0x0 DUP4 DUP2 MSTORE PUSH1 0x20 ADD SWAP1 DUP2 MSTORE PUSH1 0x20 ADD PUSH1 0x0 KECCAK256 PUSH1 0x40 MLOAD DUP1 PUSH1 0xE0 ADD PUSH1 0x40 MSTORE SWAP1 DUP2 PUSH1 0x0 DUP3 ADD SLOAD DUP2 MSTORE PUSH1 0x20 ADD PUSH1 0x1 DUP3 ADD SLOAD DUP2 MSTORE PUSH1 0x20 ADD PUSH1 0x2 DUP3 ADD SLOAD DUP2 MSTORE PUSH1 0x20 ADD PUSH1 0x3 DUP3 ADD PUSH1 0x0 SWAP1 SLOAD SWAP1 PUSH2 0x100 EXP SWAP1 DIV PUSH1 0xFF AND ISZERO ISZERO ISZERO ISZERO DUP2 MSTORE PUSH1 0x20 ADD PUSH1 0x3 DUP3 ADD PUSH1 0x1 SWAP1 SLOAD SWAP1 PUSH2 0x100 EXP SWAP1 DIV PUSH20 0xFFFFFFFFFFFFFFFFFFFFFFFFFFFFFFFFFFFFFFFF AND PUSH20 0xFFFFFFFFFFFFFFFFFFFFFFFFFFFFFFFFFFFFFFFF AND PUSH20 0xFFFFFFFFFFFFFFFFFFFFFFFFFFFFFFFFFFFFFFFF AND DUP2 MSTORE PUSH1 0x20 ADD PUSH1 0x4 DUP3 ADD PUSH1 0x0 SWAP1 SLOAD SWAP1 PUSH2 0x100 EXP SWAP1 DIV PUSH20 0xFFFFFFFFFFFFFFFFFFFFFFFFFFFFFFFFFFFFFFFF AND PUSH20 0xFFFFFFFFFFFFFFFFFFFFFFFFFFFFFFFFFFFFFFFF AND PUSH20 0xFFFFFFFFFFFFFFFFFFFFFFFFFFFFFFFFFFFFFFFF AND DUP2 MSTORE PUSH1 0x20 ADD PUSH1 0x5 DUP3 ADD PUSH1 0x40 MLOAD DUP1 PUSH1 0x80 ADD PUSH1 0x40 MSTORE SWAP1 DUP2 PUSH1 0x0 DUP3 ADD DUP1 SLOAD PUSH2 0x947 SWAP1 PUSH2 0x1CD9 JUMP JUMPDEST DUP1 PUSH1 0x1F ADD PUSH1 0x20 DUP1 SWAP2 DIV MUL PUSH1 0x20 ADD PUSH1 0x40 MLOAD SWAP1 DUP2 ADD PUSH1 0x40 MSTORE DUP1 SWAP3 SWAP2 SWAP1 DUP2 DUP2 MSTORE PUSH1 0x20 ADD DUP3 DUP1 SLOAD PUSH2 0x973 SWAP1 PUSH2 0x1CD9 JUMP JUMPDEST DUP1 ISZERO PUSH2 0x9C0 JUMPI DUP1 PUSH1 0x1F LT PUSH2 0x995 JUMPI PUSH2 0x100 DUP1 DUP4 SLOAD DIV MUL DUP4 MSTORE SWAP2 PUSH1 0x20 ADD SWAP2 PUSH2 0x9C0 JUMP JUMPDEST DUP3 ADD SWAP2 SWAP1 PUSH1 0x0 MSTORE PUSH1 0x20 PUSH1 0x0 KECCAK256 SWAP1 JUMPDEST DUP2 SLOAD DUP2 MSTORE SWAP1 PUSH1 0x1 ADD SWAP1 PUSH1 0x20 ADD DUP1 DUP4 GT PUSH2 0x9A3 JUMPI DUP3 SWAP1 SUB PUSH1 0x1F AND DUP3 ADD SWAP2 JUMPDEST POP POP POP POP POP DUP2 MSTORE PUSH1 0x20 ADD PUSH1 0x1 DUP3 ADD SLOAD DUP2 MSTORE PUSH1 0x20 ADD PUSH1 0x2 DUP3 ADD DUP1 SLOAD PUSH2 0x9E3 SWAP1 PUSH2 0x1CD9 JUMP JUMPDEST DUP1 PUSH1 0x1F ADD PUSH1 0x20 DUP1 SWAP2 DIV MUL PUSH1 0x20 ADD PUSH1 0x40 MLOAD SWAP1 DUP2 ADD PUSH1 0x40 MSTORE DUP1 SWAP3 SWAP2 SWAP1 DUP2 DUP2 MSTORE PUSH1 0x20 ADD DUP3 DUP1 SLOAD PUSH2 0xA0F SWAP1 PUSH2 0x1CD9 JUMP JUMPDEST DUP1 ISZERO PUSH2 0xA5C JUMPI DUP1 PUSH1 0x1F LT PUSH2 0xA31 JUMPI PUSH2 0x100 DUP1 DUP4 SLOAD DIV MUL DUP4 MSTORE SWAP2 PUSH1 0x20 ADD SWAP2 PUSH2 0xA5C JUMP JUMPDEST DUP3 ADD SWAP2 SWAP1 PUSH1 0x0 MSTORE PUSH1 0x20 PUSH1 0x0 KECCAK256 SWAP1 JUMPDEST DUP2 SLOAD DUP2 MSTORE SWAP1 PUSH1 0x1 ADD SWAP1 PUSH1 0x20 ADD DUP1 DUP4 GT PUSH2 0xA3F JUMPI DUP3 SWAP1 SUB PUSH1 0x1F AND DUP3 ADD SWAP2 JUMPDEST POP POP POP POP POP DUP2 MSTORE PUSH1 0x20 ADD PUSH1 0x3 DUP3 ADD PUSH1 0x0 SWAP1 SLOAD SWAP1 PUSH2 0x100 EXP SWAP1 DIV PUSH1 0xFF AND PUSH1 0x2 DUP2 GT ISZERO PUSH2 0xA8A JUMPI PUSH2 0xA89 PUSH2 0x177B JUMP JUMPDEST JUMPDEST PUSH1 0x2 DUP2 GT ISZERO PUSH2 0xA9C JUMPI PUSH2 0xA9B PUSH2 0x177B JUMP JUMPDEST JUMPDEST DUP2 MSTORE POP POP DUP2 MSTORE POP POP SWAP1 POP PUSH1 0x0 DUP2 PUSH1 0x20 ADD MLOAD SWAP1 POP PUSH1 0x0 DUP3 PUSH1 0x40 ADD MLOAD SWAP1 POP POP POP POP POP DUP1 DUP1 PUSH2 0xAC7 SWAP1 PUSH2 0x1FB7 JUMP JUMPDEST SWAP2 POP POP PUSH2 0x7F6 JUMP JUMPDEST POP JUMP JUMPDEST PUSH1 0x0 PUSH1 0x20 MSTORE DUP1 PUSH1 0x0 MSTORE PUSH1 0x40 PUSH1 0x0 KECCAK256 PUSH1 0x0 SWAP2 POP SWAP1 POP DUP1 PUSH1 0x0 ADD SLOAD SWAP1 DUP1 PUSH1 0x1 ADD SLOAD SWAP1 DUP1 PUSH1 0x2 ADD SLOAD SWAP1 DUP1 PUSH1 0x3 ADD PUSH1 0x0 SWAP1 SLOAD SWAP1 PUSH2 0x100 EXP SWAP1 DIV PUSH1 0xFF AND SWAP1 DUP1 PUSH1 0x3 ADD PUSH1 0x1 SWAP1 SLOAD SWAP1 PUSH2 0x100 EXP SWAP1 DIV PUSH20 0xFFFFFFFFFFFFFFFFFFFFFFFFFFFFFFFFFFFFFFFF AND SWAP1 DUP1 PUSH1 0x4 ADD PUSH1 0x0 SWAP1 SLOAD SWAP1 PUSH2 0x100 EXP SWAP1 DIV PUSH20 0xFFFFFFFFFFFFFFFFFFFFFFFFFFFFFFFFFFFFFFFF AND SWAP1 DUP1 PUSH1 0x5 ADD PUSH1 0x40 MLOAD DUP1 PUSH1 0x80 ADD PUSH1 0x40 MSTORE SWAP1 DUP2 PUSH1 0x0 DUP3 ADD DUP1 SLOAD PUSH2 0xB76 SWAP1 PUSH2 0x1CD9 JUMP JUMPDEST DUP1 PUSH1 0x1F ADD PUSH1 0x20 DUP1 SWAP2 DIV MUL PUSH1 0x20 ADD PUSH1 0x40 MLOAD SWAP1 DUP2 ADD PUSH1 0x40 MSTORE DUP1 SWAP3 SWAP2 SWAP1 DUP2 DUP2 MSTORE PUSH1 0x20 ADD DUP3 DUP1 SLOAD PUSH2 0xBA2 SWAP1 PUSH2 0x1CD9 JUMP JUMPDEST DUP1 ISZERO PUSH2 0xBEF JUMPI DUP1 PUSH1 0x1F LT PUSH2 0xBC4 JUMPI PUSH2 0x100 DUP1 DUP4 SLOAD DIV MUL DUP4 MSTORE SWAP2 PUSH1 0x20 ADD SWAP2 PUSH2 0xBEF JUMP JUMPDEST DUP3 ADD SWAP2 SWAP1 PUSH1 0x0 MSTORE PUSH1 0x20 PUSH1 0x0 KECCAK256 SWAP1 JUMPDEST DUP2 SLOAD DUP2 MSTORE SWAP1 PUSH1 0x1 ADD SWAP1 PUSH1 0x20 ADD DUP1 DUP4 GT PUSH2 0xBD2 JUMPI DUP3 SWAP1 SUB PUSH1 0x1F AND DUP3 ADD SWAP2 JUMPDEST POP POP POP POP POP DUP2 MSTORE PUSH1 0x20 ADD PUSH1 0x1 DUP3 ADD SLOAD DUP2 MSTORE PUSH1 0x20 ADD PUSH1 0x2 DUP3 ADD DUP1 SLOAD PUSH2 0xC12 SWAP1 PUSH2 0x1CD9 JUMP JUMPDEST DUP1 PUSH1 0x1F ADD PUSH1 0x20 DUP1 SWAP2 DIV MUL PUSH1 0x20 ADD PUSH1 0x40 MLOAD SWAP1 DUP2 ADD PUSH1 0x40 MSTORE DUP1 SWAP3 SWAP2 SWAP1 DUP2 DUP2 MSTORE PUSH1 0x20 ADD DUP3 DUP1 SLOAD PUSH2 0xC3E SWAP1 PUSH2 0x1CD9 JUMP JUMPDEST DUP1 ISZERO PUSH2 0xC8B JUMPI DUP1 PUSH1 0x1F LT PUSH2 0xC60 JUMPI PUSH2 0x100 DUP1 DUP4 SLOAD DIV MUL DUP4 MSTORE SWAP2 PUSH1 0x20 ADD SWAP2 PUSH2 0xC8B JUMP JUMPDEST DUP3 ADD SWAP2 SWAP1 PUSH1 0x0 MSTORE PUSH1 0x20 PUSH1 0x0 KECCAK256 SWAP1 JUMPDEST DUP2 SLOAD DUP2 MSTORE SWAP1 PUSH1 0x1 ADD SWAP1 PUSH1 0x20 ADD DUP1 DUP4 GT PUSH2 0xC6E JUMPI DUP3 SWAP1 SUB PUSH1 0x1F AND DUP3 ADD SWAP2 JUMPDEST POP POP POP POP POP DUP2 MSTORE PUSH1 0x20 ADD PUSH1 0x3 DUP3 ADD PUSH1 0x0 SWAP1 SLOAD SWAP1 PUSH2 0x100 EXP SWAP1 DIV PUSH1 0xFF AND PUSH1 0x2 DUP2 GT ISZERO PUSH2 0xCB9 JUMPI PUSH2 0xCB8 PUSH2 0x177B JUMP JUMPDEST JUMPDEST PUSH1 0x2 DUP2 GT ISZERO PUSH2 0xCCB JUMPI PUSH2 0xCCA PUSH2 0x177B JUMP JUMPDEST JUMPDEST DUP2 MSTORE POP POP SWAP1 POP DUP8 JUMP JUMPDEST PUSH1 0x0 PUSH1 0x1 PUSH1 0x0 DUP4 DUP2 MSTORE PUSH1 0x20 ADD SWAP1 DUP2 MSTORE PUSH1 0x20 ADD PUSH1 0x0 KECCAK256 PUSH1 0x0 SWAP1 SLOAD SWAP1 PUSH2 0x100 EXP SWAP1 DIV PUSH1 0xFF AND SWAP1 POP SWAP2 SWAP1 POP JUMP JUMPDEST PUSH2 0xD06 PUSH2 0x1154 JUMP JUMPDEST PUSH1 0x0 DUP1 DUP4 DUP2 MSTORE PUSH1 0x20 ADD SWAP1 DUP2 MSTORE PUSH1 0x20 ADD PUSH1 0x0 KECCAK256 PUSH1 0x40 MLOAD DUP1 PUSH1 0xE0 ADD PUSH1 0x40 MSTORE SWAP1 DUP2 PUSH1 0x0 DUP3 ADD SLOAD DUP2 MSTORE PUSH1 0x20 ADD PUSH1 0x1 DUP3 ADD SLOAD DUP2 MSTORE PUSH1 0x20 ADD PUSH1 0x2 DUP3 ADD SLOAD DUP2 MSTORE PUSH1 0x20 ADD PUSH1 0x3 DUP3 ADD PUSH1 0x0 SWAP1 SLOAD SWAP1 PUSH2 0x100 EXP SWAP1 DIV PUSH1 0xFF AND ISZERO ISZERO ISZERO ISZERO DUP2 MSTORE PUSH1 0x20 ADD PUSH1 0x3 DUP3 ADD PUSH1 0x1 SWAP1 SLOAD SWAP1 PUSH2 0x100 EXP SWAP1 DIV PUSH20 0xFFFFFFFFFFFFFFFFFFFFFFFFFFFFFFFFFFFFFFFF AND PUSH20 0xFFFFFFFFFFFFFFFFFFFFFFFFFFFFFFFFFFFFFFFF AND PUSH20 0xFFFFFFFFFFFFFFFFFFFFFFFFFFFFFFFFFFFFFFFF AND DUP2 MSTORE PUSH1 0x20 ADD PUSH1 0x4 DUP3 ADD PUSH1 0x0 SWAP1 SLOAD SWAP1 PUSH2 0x100 EXP SWAP1 DIV PUSH20 0xFFFFFFFFFFFFFFFFFFFFFFFFFFFFFFFFFFFFFFFF AND PUSH20 0xFFFFFFFFFFFFFFFFFFFFFFFFFFFFFFFFFFFFFFFF AND PUSH20 0xFFFFFFFFFFFFFFFFFFFFFFFFFFFFFFFFFFFFFFFF AND DUP2 MSTORE PUSH1 0x20 ADD PUSH1 0x5 DUP3 ADD PUSH1 0x40 MLOAD DUP1 PUSH1 0x80 ADD PUSH1 0x40 MSTORE SWAP1 DUP2 PUSH1 0x0 DUP3 ADD DUP1 SLOAD PUSH2 0xE28 SWAP1 PUSH2 0x1CD9 JUMP JUMPDEST DUP1 PUSH1 0x1F ADD PUSH1 0x20 DUP1 SWAP2 DIV MUL PUSH1 0x20 ADD PUSH1 0x40 MLOAD SWAP1 DUP2 ADD PUSH1 0x40 MSTORE DUP1 SWAP3 SWAP2 SWAP1 DUP2 DUP2 MSTORE PUSH1 0x20 ADD DUP3 DUP1 SLOAD PUSH2 0xE54 SWAP1 PUSH2 0x1CD9 JUMP JUMPDEST DUP1 ISZERO PUSH2 0xEA1 JUMPI DUP1 PUSH1 0x1F LT PUSH2 0xE76 JUMPI PUSH2 0x100 DUP1 DUP4 SLOAD DIV MUL DUP4 MSTORE SWAP2 PUSH1 0x20 ADD SWAP2 PUSH2 0xEA1 JUMP JUMPDEST DUP3 ADD SWAP2 SWAP1 PUSH1 0x0 MSTORE PUSH1 0x20 PUSH1 0x0 KECCAK256 SWAP1 JUMPDEST DUP2 SLOAD DUP2 MSTORE SWAP1 PUSH1 0x1 ADD SWAP1 PUSH1 0x20 ADD DUP1 DUP4 GT PUSH2 0xE84 JUMPI DUP3 SWAP1 SUB PUSH1 0x1F AND DUP3 ADD SWAP2 JUMPDEST POP POP POP POP POP DUP2 MSTORE PUSH1 0x20 ADD PUSH1 0x1 DUP3 ADD SLOAD DUP2 MSTORE PUSH1 0x20 ADD PUSH1 0x2 DUP3 ADD DUP1 SLOAD PUSH2 0xEC4 SWAP1 PUSH2 0x1CD9 JUMP JUMPDEST DUP1 PUSH1 0x1F ADD PUSH1 0x20 DUP1 SWAP2 DIV MUL PUSH1 0x20 ADD PUSH1 0x40 MLOAD SWAP1 DUP2 ADD PUSH1 0x40 MSTORE DUP1 SWAP3 SWAP2 SWAP1 DUP2 DUP2 MSTORE PUSH1 0x20 ADD DUP3 DUP1 SLOAD PUSH2 0xEF0 SWAP1 PUSH2 0x1CD9 JUMP JUMPDEST DUP1 ISZERO PUSH2 0xF3D JUMPI DUP1 PUSH1 0x1F LT PUSH2 0xF12 JUMPI PUSH2 0x100 DUP1 DUP4 SLOAD DIV MUL DUP4 MSTORE SWAP2 PUSH1 0x20 ADD SWAP2 PUSH2 0xF3D JUMP JUMPDEST DUP3 ADD SWAP2 SWAP1 PUSH1 0x0 MSTORE PUSH1 0x20 PUSH1 0x0 KECCAK256 SWAP1 JUMPDEST DUP2 SLOAD DUP2 MSTORE SWAP1 PUSH1 0x1 ADD SWAP1 PUSH1 0x20 ADD DUP1 DUP4 GT PUSH2 0xF20 JUMPI DUP3 SWAP1 SUB PUSH1 0x1F AND DUP3 ADD SWAP2 JUMPDEST POP POP POP POP POP DUP2 MSTORE PUSH1 0x20 ADD PUSH1 0x3 DUP3 ADD PUSH1 0x0 SWAP1 SLOAD SWAP1 PUSH2 0x100 EXP SWAP1 DIV PUSH1 0xFF AND PUSH1 0x2 DUP2 GT ISZERO PUSH2 0xF6B JUMPI PUSH2 0xF6A PUSH2 0x177B JUMP JUMPDEST JUMPDEST PUSH1 0x2 DUP2 GT ISZERO PUSH2 0xF7D JUMPI PUSH2 0xF7C PUSH2 0x177B JUMP JUMPDEST JUMPDEST DUP2 MSTORE POP POP DUP2 MSTORE POP POP SWAP1 POP SWAP2 SWAP1 POP JUMP JUMPDEST PUSH1 0x0 PUSH1 0x1 DUP1 PUSH1 0x0 DUP5 DUP2 MSTORE PUSH1 0x20 ADD SWAP1 DUP2 MSTORE PUSH1 0x20 ADD PUSH1 0x0 KECCAK256 PUSH1 0x0 PUSH2 0x100 EXP DUP2 SLOAD DUP2 PUSH1 0xFF MUL NOT AND SWAP1 DUP4 ISZERO ISZERO MUL OR SWAP1 SSTORE POP PUSH1 0x0 PUSH1 0x2 PUSH1 0x3 SLOAD DUP2 SLOAD DUP2 LT PUSH2 0xFD1 JUMPI PUSH2 0xFD0 PUSH2 0x1FFF JUMP JUMPDEST JUMPDEST SWAP1 PUSH1 0x0 MSTORE PUSH1 0x20 PUSH1 0x0 KECCAK256 ADD SLOAD SWAP1 POP PUSH1 0x0 JUMPDEST PUSH1 0x3 SLOAD DUP2 LT ISZERO PUSH2 0x10F3 JUMPI DUP4 PUSH1 0x2 DUP3 DUP2 SLOAD DUP2 LT PUSH2 0x1000 JUMPI PUSH2 0xFFF PUSH2 0x1FFF JUMP JUMPDEST JUMPDEST SWAP1 PUSH1 0x0 MSTORE PUSH1 0x20 PUSH1 0x0 KECCAK256 ADD SLOAD SUB PUSH2 0x10E0 JUMPI DUP2 PUSH1 0x2 DUP3 DUP2 SLOAD DUP2 LT PUSH2 0x1025 JUMPI PUSH2 0x1024 PUSH2 0x1FFF JUMP JUMPDEST JUMPDEST SWAP1 PUSH1 0x0 MSTORE PUSH1 0x20 PUSH1 0x0 KECCAK256 ADD DUP2 SWAP1 SSTORE POP PUSH1 0x3 PUSH1 0x0 DUP2 SLOAD DUP1 SWAP3 SWAP2 SWAP1 PUSH2 0x1046 SWAP1 PUSH2 0x20A8 JUMP JUMPDEST SWAP2 SWAP1 POP SSTORE POP PUSH32 0xFCBF52237A5ED0AD3FB8DBEBDF16DD6500675445F0D1CCDA7780827A3F6446FD PUSH1 0x0 DUP1 PUSH1 0x2 DUP5 DUP2 SLOAD DUP2 LT PUSH2 0x1083 JUMPI PUSH2 0x1082 PUSH2 0x1FFF JUMP JUMPDEST JUMPDEST SWAP1 PUSH1 0x0 MSTORE PUSH1 0x20 PUSH1 0x0 KECCAK256 ADD SLOAD DUP2 MSTORE PUSH1 0x20 ADD SWAP1 DUP2 MSTORE PUSH1 0x20 ADD PUSH1 0x0 KECCAK256 PUSH1 0x3 ADD PUSH1 0x1 SWAP1 SLOAD SWAP1 PUSH2 0x100 EXP SWAP1 DIV PUSH20 0xFFFFFFFFFFFFFFFFFFFFFFFFFFFFFFFFFFFFFFFF AND PUSH1 0x40 MLOAD PUSH2 0x10CD SWAP2 SWAP1 PUSH2 0x211D JUMP JUMPDEST PUSH1 0x40 MLOAD DUP1 SWAP2 SUB SWAP1 LOG1 PUSH1 0x1 SWAP3 POP POP POP PUSH2 0x112F JUMP JUMPDEST DUP1 DUP1 PUSH2 0x10EB SWAP1 PUSH2 0x1FB7 JUMP JUMPDEST SWAP2 POP POP PUSH2 0xFE1 JUMP JUMPDEST POP PUSH1 0x40 MLOAD PUSH32 0x8C379A000000000000000000000000000000000000000000000000000000000 DUP2 MSTORE PUSH1 0x4 ADD PUSH2 0x1126 SWAP1 PUSH2 0x2197 JUMP JUMPDEST PUSH1 0x40 MLOAD DUP1 SWAP2 SUB SWAP1 REVERT JUMPDEST SWAP2 SWAP1 POP JUMP JUMPDEST PUSH1 0x1 PUSH1 0x20 MSTORE DUP1 PUSH1 0x0 MSTORE PUSH1 0x40 PUSH1 0x0 KECCAK256 PUSH1 0x0 SWAP2 POP SLOAD SWAP1 PUSH2 0x100 EXP SWAP1 DIV PUSH1 0xFF AND DUP2 JUMP JUMPDEST PUSH1 0x40 MLOAD DUP1 PUSH1 0xE0 ADD PUSH1 0x40 MSTORE DUP1 PUSH1 0x0 DUP1 NOT AND DUP2 MSTORE PUSH1 0x20 ADD PUSH1 0x0 DUP2 MSTORE PUSH1 0x20 ADD PUSH1 0x0 DUP2 MSTORE PUSH1 0x20 ADD PUSH1 0x0 ISZERO ISZERO DUP2 MSTORE PUSH1 0x20 ADD PUSH1 0x0 PUSH20 0xFFFFFFFFFFFFFFFFFFFFFFFFFFFFFFFFFFFFFFFF AND DUP2 MSTORE PUSH1 0x20 ADD PUSH1 0x0 PUSH20 0xFFFFFFFFFFFFFFFFFFFFFFFFFFFFFFFFFFFFFFFF AND DUP2 MSTORE PUSH1 0x20 ADD PUSH2 0x11C2 PUSH2 0x11C8 JUMP JUMPDEST DUP2 MSTORE POP SWAP1 JUMP JUMPDEST PUSH1 0x40 MLOAD DUP1 PUSH1 0x80 ADD PUSH1 0x40 MSTORE DUP1 PUSH1 0x60 DUP2 MSTORE PUSH1 0x20 ADD PUSH1 0x0 DUP2 MSTORE PUSH1 0x20 ADD PUSH1 0x60 DUP2 MSTORE PUSH1 0x20 ADD PUSH1 0x0 PUSH1 0x2 DUP2 GT ISZERO PUSH2 0x11FC JUMPI PUSH2 0x11FB PUSH2 0x177B JUMP JUMPDEST JUMPDEST DUP2 MSTORE POP SWAP1 JUMP JUMPDEST PUSH1 0x0 PUSH1 0x40 MLOAD SWAP1 POP SWAP1 JUMP JUMPDEST PUSH1 0x0 DUP1 REVERT JUMPDEST PUSH1 0x0 DUP1 REVERT JUMPDEST PUSH1 0x0 DUP2 SWAP1 POP SWAP2 SWAP1 POP JUMP JUMPDEST PUSH2 0x1229 DUP2 PUSH2 0x1216 JUMP JUMPDEST DUP2 EQ PUSH2 0x1234 JUMPI PUSH1 0x0 DUP1 REVERT JUMPDEST POP JUMP JUMPDEST PUSH1 0x0 DUP2 CALLDATALOAD SWAP1 POP PUSH2 0x1246 DUP2 PUSH2 0x1220 JUMP JUMPDEST SWAP3 SWAP2 POP POP JUMP JUMPDEST PUSH1 0x0 DUP1 PUSH1 0x40 DUP4 DUP6 SUB SLT ISZERO PUSH2 0x1263 JUMPI PUSH2 0x1262 PUSH2 0x120C JUMP JUMPDEST JUMPDEST PUSH1 0x0 PUSH2 0x1271 DUP6 DUP3 DUP7 ADD PUSH2 0x1237 JUMP JUMPDEST SWAP3 POP POP PUSH1 0x20 PUSH2 0x1282 DUP6 DUP3 DUP7 ADD PUSH2 0x1237 JUMP JUMPDEST SWAP2 POP POP SWAP3 POP SWAP3 SWAP1 POP JUMP JUMPDEST PUSH1 0x0 DUP2 SWAP1 POP SWAP2 SWAP1 POP JUMP JUMPDEST PUSH2 0x129F DUP2 PUSH2 0x128C JUMP JUMPDEST DUP3 MSTORE POP POP JUMP JUMPDEST PUSH1 0x0 PUSH1 0x20 DUP3 ADD SWAP1 POP PUSH2 0x12BA PUSH1 0x0 DUP4 ADD DUP5 PUSH2 0x1296 JUMP JUMPDEST SWAP3 SWAP2 POP POP JUMP JUMPDEST PUSH1 0x0 DUP1 REVERT JUMPDEST PUSH1 0x0 PUSH1 0x1F NOT PUSH1 0x1F DUP4 ADD AND SWAP1 POP SWAP2 SWAP1 POP JUMP JUMPDEST PUSH32 0x4E487B7100000000000000000000000000000000000000000000000000000000 PUSH1 0x0 MSTORE PUSH1 0x41 PUSH1 0x4 MSTORE PUSH1 0x24 PUSH1 0x0 REVERT JUMPDEST PUSH2 0x130E DUP3 PUSH2 0x12C5 JUMP JUMPDEST DUP2 ADD DUP2 DUP2 LT PUSH8 0xFFFFFFFFFFFFFFFF DUP3 GT OR ISZERO PUSH2 0x132D JUMPI PUSH2 0x132C PUSH2 0x12D6 JUMP JUMPDEST JUMPDEST DUP1 PUSH1 0x40 MSTORE POP POP POP JUMP JUMPDEST PUSH1 0x0 PUSH2 0x1340 PUSH2 0x1202 JUMP JUMPDEST SWAP1 POP PUSH2 0x134C DUP3 DUP3 PUSH2 0x1305 JUMP JUMPDEST SWAP2 SWAP1 POP JUMP JUMPDEST PUSH1 0x0 DUP1 REVERT JUMPDEST PUSH2 0x135F DUP2 PUSH2 0x128C JUMP JUMPDEST DUP2 EQ PUSH2 0x136A JUMPI PUSH1 0x0 DUP1 REVERT JUMPDEST POP JUMP JUMPDEST PUSH1 0x0 DUP2 CALLDATALOAD SWAP1 POP PUSH2 0x137C DUP2 PUSH2 0x1356 JUMP JUMPDEST SWAP3 SWAP2 POP POP JUMP JUMPDEST PUSH1 0x0 DUP2 ISZERO ISZERO SWAP1 POP SWAP2 SWAP1 POP JUMP JUMPDEST PUSH2 0x1397 DUP2 PUSH2 0x1382 JUMP JUMPDEST DUP2 EQ PUSH2 0x13A2 JUMPI PUSH1 0x0 DUP1 REVERT JUMPDEST POP JUMP JUMPDEST PUSH1 0x0 DUP2 CALLDATALOAD SWAP1 POP PUSH2 0x13B4 DUP2 PUSH2 0x138E JUMP JUMPDEST SWAP3 SWAP2 POP POP JUMP JUMPDEST PUSH1 0x0 PUSH20 0xFFFFFFFFFFFFFFFFFFFFFFFFFFFFFFFFFFFFFFFF DUP3 AND SWAP1 POP SWAP2 SWAP1 POP JUMP JUMPDEST PUSH1 0x0 PUSH2 0x13E5 DUP3 PUSH2 0x13BA JUMP JUMPDEST SWAP1 POP SWAP2 SWAP1 POP JUMP JUMPDEST PUSH2 0x13F5 DUP2 PUSH2 0x13DA JUMP JUMPDEST DUP2 EQ PUSH2 0x1400 JUMPI PUSH1 0x0 DUP1 REVERT JUMPDEST POP JUMP JUMPDEST PUSH1 0x0 DUP2 CALLDATALOAD SWAP1 POP PUSH2 0x1412 DUP2 PUSH2 0x13EC JUMP JUMPDEST SWAP3 SWAP2 POP POP JUMP JUMPDEST PUSH1 0x0 DUP1 REVERT JUMPDEST PUSH1 0x0 DUP1 REVERT JUMPDEST PUSH1 0x0 PUSH8 0xFFFFFFFFFFFFFFFF DUP3 GT ISZERO PUSH2 0x143D JUMPI PUSH2 0x143C PUSH2 0x12D6 JUMP JUMPDEST JUMPDEST PUSH2 0x1446 DUP3 PUSH2 0x12C5 JUMP JUMPDEST SWAP1 POP PUSH1 0x20 DUP2 ADD SWAP1 POP SWAP2 SWAP1 POP JUMP JUMPDEST DUP3 DUP2 DUP4 CALLDATACOPY PUSH1 0x0 DUP4 DUP4 ADD MSTORE POP POP POP JUMP JUMPDEST PUSH1 0x0 PUSH2 0x1475 PUSH2 0x1470 DUP5 PUSH2 0x1422 JUMP JUMPDEST PUSH2 0x1336 JUMP JUMPDEST SWAP1 POP DUP3 DUP2 MSTORE PUSH1 0x20 DUP2 ADD DUP5 DUP5 DUP5 ADD GT ISZERO PUSH2 0x1491 JUMPI PUSH2 0x1490 PUSH2 0x141D JUMP JUMPDEST JUMPDEST PUSH2 0x149C DUP5 DUP3 DUP6 PUSH2 0x1453 JUMP JUMPDEST POP SWAP4 SWAP3 POP POP POP JUMP JUMPDEST PUSH1 0x0 DUP3 PUSH1 0x1F DUP4 ADD SLT PUSH2 0x14B9 JUMPI PUSH2 0x14B8 PUSH2 0x1418 JUMP JUMPDEST JUMPDEST DUP2 CALLDATALOAD PUSH2 0x14C9 DUP5 DUP3 PUSH1 0x20 DUP7 ADD PUSH2 0x1462 JUMP JUMPDEST SWAP2 POP POP SWAP3 SWAP2 POP POP JUMP JUMPDEST PUSH1 0x3 DUP2 LT PUSH2 0x14DF JUMPI PUSH1 0x0 DUP1 REVERT JUMPDEST POP JUMP JUMPDEST PUSH1 0x0 DUP2 CALLDATALOAD SWAP1 POP PUSH2 0x14F1 DUP2 PUSH2 0x14D2 JUMP JUMPDEST SWAP3 SWAP2 POP POP JUMP JUMPDEST PUSH1 0x0 PUSH1 0x80 DUP3 DUP5 SUB SLT ISZERO PUSH2 0x150D JUMPI PUSH2 0x150C PUSH2 0x12C0 JUMP JUMPDEST JUMPDEST PUSH2 0x1517 PUSH1 0x80 PUSH2 0x1336 JUMP JUMPDEST SWAP1 POP PUSH1 0x0 DUP3 ADD CALLDATALOAD PUSH8 0xFFFFFFFFFFFFFFFF DUP2 GT ISZERO PUSH2 0x1537 JUMPI PUSH2 0x1536 PUSH2 0x1351 JUMP JUMPDEST JUMPDEST PUSH2 0x1543 DUP5 DUP3 DUP6 ADD PUSH2 0x14A4 JUMP JUMPDEST PUSH1 0x0 DUP4 ADD MSTORE POP PUSH1 0x20 PUSH2 0x1557 DUP5 DUP3 DUP6 ADD PUSH2 0x1237 JUMP JUMPDEST PUSH1 0x20 DUP4 ADD MSTORE POP PUSH1 0x40 DUP3 ADD CALLDATALOAD PUSH8 0xFFFFFFFFFFFFFFFF DUP2 GT ISZERO PUSH2 0x157B JUMPI PUSH2 0x157A PUSH2 0x1351 JUMP JUMPDEST JUMPDEST PUSH2 0x1587 DUP5 DUP3 DUP6 ADD PUSH2 0x14A4 JUMP JUMPDEST PUSH1 0x40 DUP4 ADD MSTORE POP PUSH1 0x60 PUSH2 0x159B DUP5 DUP3 DUP6 ADD PUSH2 0x14E2 JUMP JUMPDEST PUSH1 0x60 DUP4 ADD MSTORE POP SWAP3 SWAP2 POP POP JUMP JUMPDEST PUSH1 0x0 PUSH1 0xE0 DUP3 DUP5 SUB SLT ISZERO PUSH2 0x15BD JUMPI PUSH2 0x15BC PUSH2 0x12C0 JUMP JUMPDEST JUMPDEST PUSH2 0x15C7 PUSH1 0xE0 PUSH2 0x1336 JUMP JUMPDEST SWAP1 POP PUSH1 0x0 PUSH2 0x15D7 DUP5 DUP3 DUP6 ADD PUSH2 0x136D JUMP JUMPDEST PUSH1 0x0 DUP4 ADD MSTORE POP PUSH1 0x20 PUSH2 0x15EB DUP5 DUP3 DUP6 ADD PUSH2 0x1237 JUMP JUMPDEST PUSH1 0x20 DUP4 ADD MSTORE POP PUSH1 0x40 PUSH2 0x15FF DUP5 DUP3 DUP6 ADD PUSH2 0x1237 JUMP JUMPDEST PUSH1 0x40 DUP4 ADD MSTORE POP PUSH1 0x60 PUSH2 0x1613 DUP5 DUP3 DUP6 ADD PUSH2 0x13A5 JUMP JUMPDEST PUSH1 0x60 DUP4 ADD MSTORE POP PUSH1 0x80 PUSH2 0x1627 DUP5 DUP3 DUP6 ADD PUSH2 0x1403 JUMP JUMPDEST PUSH1 0x80 DUP4 ADD MSTORE POP PUSH1 0xA0 PUSH2 0x163B DUP5 DUP3 DUP6 ADD PUSH2 0x1403 JUMP JUMPDEST PUSH1 0xA0 DUP4 ADD MSTORE POP PUSH1 0xC0 DUP3 ADD CALLDATALOAD PUSH8 0xFFFFFFFFFFFFFFFF DUP2 GT ISZERO PUSH2 0x165F JUMPI PUSH2 0x165E PUSH2 0x1351 JUMP JUMPDEST JUMPDEST PUSH2 0x166B DUP5 DUP3 DUP6 ADD PUSH2 0x14F7 JUMP JUMPDEST PUSH1 0xC0 DUP4 ADD MSTORE POP SWAP3 SWAP2 POP POP JUMP JUMPDEST PUSH1 0x0 PUSH1 0x20 DUP3 DUP5 SUB SLT ISZERO PUSH2 0x168D JUMPI PUSH2 0x168C PUSH2 0x120C JUMP JUMPDEST JUMPDEST PUSH1 0x0 DUP3 ADD CALLDATALOAD PUSH8 0xFFFFFFFFFFFFFFFF DUP2 GT ISZERO PUSH2 0x16AB JUMPI PUSH2 0x16AA PUSH2 0x1211 JUMP JUMPDEST JUMPDEST PUSH2 0x16B7 DUP5 DUP3 DUP6 ADD PUSH2 0x15A7 JUMP JUMPDEST SWAP2 POP POP SWAP3 SWAP2 POP POP JUMP JUMPDEST PUSH2 0x16C9 DUP2 PUSH2 0x128C JUMP JUMPDEST DUP3 MSTORE POP POP JUMP JUMPDEST PUSH2 0x16D8 DUP2 PUSH2 0x1216 JUMP JUMPDEST DUP3 MSTORE POP POP JUMP JUMPDEST PUSH2 0x16E7 DUP2 PUSH2 0x1382 JUMP JUMPDEST DUP3 MSTORE POP POP JUMP JUMPDEST PUSH2 0x16F6 DUP2 PUSH2 0x13DA JUMP JUMPDEST DUP3 MSTORE POP POP JUMP JUMPDEST PUSH1 0x0 DUP2 MLOAD SWAP1 POP SWAP2 SWAP1 POP JUMP JUMPDEST PUSH1 0x0 DUP3 DUP3 MSTORE PUSH1 0x20 DUP3 ADD SWAP1 POP SWAP3 SWAP2 POP POP JUMP JUMPDEST PUSH1 0x0 JUMPDEST DUP4 DUP2 LT ISZERO PUSH2 0x1736 JUMPI DUP1 DUP3 ADD MLOAD DUP2 DUP5 ADD MSTORE PUSH1 0x20 DUP2 ADD SWAP1 POP PUSH2 0x171B JUMP JUMPDEST PUSH1 0x0 DUP5 DUP5 ADD MSTORE POP POP POP POP JUMP JUMPDEST PUSH1 0x0 PUSH2 0x174D DUP3 PUSH2 0x16FC JUMP JUMPDEST PUSH2 0x1757 DUP2 DUP6 PUSH2 0x1707 JUMP JUMPDEST SWAP4 POP PUSH2 0x1767 DUP2 DUP6 PUSH1 0x20 DUP7 ADD PUSH2 0x1718 JUMP JUMPDEST PUSH2 0x1770 DUP2 PUSH2 0x12C5 JUMP JUMPDEST DUP5 ADD SWAP2 POP POP SWAP3 SWAP2 POP POP JUMP JUMPDEST PUSH32 0x4E487B7100000000000000000000000000000000000000000000000000000000 PUSH1 0x0 MSTORE PUSH1 0x21 PUSH1 0x4 MSTORE PUSH1 0x24 PUSH1 0x0 REVERT JUMPDEST PUSH1 0x3 DUP2 LT PUSH2 0x17BB JUMPI PUSH2 0x17BA PUSH2 0x177B JUMP JUMPDEST JUMPDEST POP JUMP JUMPDEST PUSH1 0x0 DUP2 SWAP1 POP PUSH2 0x17CC DUP3 PUSH2 0x17AA JUMP JUMPDEST SWAP2 SWAP1 POP JUMP JUMPDEST PUSH1 0x0 PUSH2 0x17DC DUP3 PUSH2 0x17BE JUMP JUMPDEST SWAP1 POP SWAP2 SWAP1 POP JUMP JUMPDEST PUSH2 0x17EC DUP2 PUSH2 0x17D1 JUMP JUMPDEST DUP3 MSTORE POP POP JUMP JUMPDEST PUSH1 0x0 PUSH1 0x80 DUP4 ADD PUSH1 0x0 DUP4 ADD MLOAD DUP5 DUP3 SUB PUSH1 0x0 DUP7 ADD MSTORE PUSH2 0x180F DUP3 DUP3 PUSH2 0x1742 JUMP JUMPDEST SWAP2 POP POP PUSH1 0x20 DUP4 ADD MLOAD PUSH2 0x1824 PUSH1 0x20 DUP7 ADD DUP3 PUSH2 0x16CF JUMP JUMPDEST POP PUSH1 0x40 DUP4 ADD MLOAD DUP5 DUP3 SUB PUSH1 0x40 DUP7 ADD MSTORE PUSH2 0x183C DUP3 DUP3 PUSH2 0x1742 JUMP JUMPDEST SWAP2 POP POP PUSH1 0x60 DUP4 ADD MLOAD PUSH2 0x1851 PUSH1 0x60 DUP7 ADD DUP3 PUSH2 0x17E3 JUMP JUMPDEST POP DUP1 SWAP2 POP POP SWAP3 SWAP2 POP POP JUMP JUMPDEST PUSH1 0x0 PUSH1 0xE0 DUP4 ADD PUSH1 0x0 DUP4 ADD MLOAD PUSH2 0x1874 PUSH1 0x0 DUP7 ADD DUP3 PUSH2 0x16C0 JUMP JUMPDEST POP PUSH1 0x20 DUP4 ADD MLOAD PUSH2 0x1887 PUSH1 0x20 DUP7 ADD DUP3 PUSH2 0x16CF JUMP JUMPDEST POP PUSH1 0x40 DUP4 ADD MLOAD PUSH2 0x189A PUSH1 0x40 DUP7 ADD DUP3 PUSH2 0x16CF JUMP JUMPDEST POP PUSH1 0x60 DUP4 ADD MLOAD PUSH2 0x18AD PUSH1 0x60 DUP7 ADD DUP3 PUSH2 0x16DE JUMP JUMPDEST POP PUSH1 0x80 DUP4 ADD MLOAD PUSH2 0x18C0 PUSH1 0x80 DUP7 ADD DUP3 PUSH2 0x16ED JUMP JUMPDEST POP PUSH1 0xA0 DUP4 ADD MLOAD PUSH2 0x18D3 PUSH1 0xA0 DUP7 ADD DUP3 PUSH2 0x16ED JUMP JUMPDEST POP PUSH1 0xC0 DUP4 ADD MLOAD DUP5 DUP3 SUB PUSH1 0xC0 DUP7 ADD MSTORE PUSH2 0x18EB DUP3 DUP3 PUSH2 0x17F2 JUMP JUMPDEST SWAP2 POP POP DUP1 SWAP2 POP POP SWAP3 SWAP2 POP POP JUMP JUMPDEST PUSH1 0x0 PUSH1 0x20 DUP3 ADD SWAP1 POP DUP2 DUP2 SUB PUSH1 0x0 DUP4 ADD MSTORE PUSH2 0x1912 DUP2 DUP5 PUSH2 0x185C JUMP JUMPDEST SWAP1 POP SWAP3 SWAP2 POP POP JUMP JUMPDEST PUSH1 0x0 PUSH1 0x20 DUP3 DUP5 SUB SLT ISZERO PUSH2 0x1930 JUMPI PUSH2 0x192F PUSH2 0x120C JUMP JUMPDEST JUMPDEST PUSH1 0x0 PUSH2 0x193E DUP5 DUP3 DUP6 ADD PUSH2 0x136D JUMP JUMPDEST SWAP2 POP POP SWAP3 SWAP2 POP POP JUMP JUMPDEST PUSH2 0x1950 DUP2 PUSH2 0x1216 JUMP JUMPDEST DUP3 MSTORE POP POP JUMP JUMPDEST PUSH2 0x195F DUP2 PUSH2 0x1382 JUMP JUMPDEST DUP3 MSTORE POP POP JUMP JUMPDEST PUSH2 0x196E DUP2 PUSH2 0x13DA JUMP JUMPDEST DUP3 MSTORE POP POP JUMP JUMPDEST PUSH1 0x0 PUSH1 0x80 DUP4 ADD PUSH1 0x0 DUP4 ADD MLOAD DUP5 DUP3 SUB PUSH1 0x0 DUP7 ADD MSTORE PUSH2 0x1991 DUP3 DUP3 PUSH2 0x1742 JUMP JUMPDEST SWAP2 POP POP PUSH1 0x20 DUP4 ADD MLOAD PUSH2 0x19A6 PUSH1 0x20 DUP7 ADD DUP3 PUSH2 0x16CF JUMP JUMPDEST POP PUSH1 0x40 DUP4 ADD MLOAD DUP5 DUP3 SUB PUSH1 0x40 DUP7 ADD MSTORE PUSH2 0x19BE DUP3 DUP3 PUSH2 0x1742 JUMP JUMPDEST SWAP2 POP POP PUSH1 0x60 DUP4 ADD MLOAD PUSH2 0x19D3 PUSH1 0x60 DUP7 ADD DUP3 PUSH2 0x17E3 JUMP JUMPDEST POP DUP1 SWAP2 POP POP SWAP3 SWAP2 POP POP JUMP JUMPDEST PUSH1 0x0 PUSH1 0xE0 DUP3 ADD SWAP1 POP PUSH2 0x19F3 PUSH1 0x0 DUP4 ADD DUP11 PUSH2 0x1296 JUMP JUMPDEST PUSH2 0x1A00 PUSH1 0x20 DUP4 ADD DUP10 PUSH2 0x1947 JUMP JUMPDEST PUSH2 0x1A0D PUSH1 0x40 DUP4 ADD DUP9 PUSH2 0x1947 JUMP JUMPDEST PUSH2 0x1A1A PUSH1 0x60 DUP4 ADD DUP8 PUSH2 0x1956 JUMP JUMPDEST PUSH2 0x1A27 PUSH1 0x80 DUP4 ADD DUP7 PUSH2 0x1965 JUMP JUMPDEST PUSH2 0x1A34 PUSH1 0xA0 DUP4 ADD DUP6 PUSH2 0x1965 JUMP JUMPDEST DUP2 DUP2 SUB PUSH1 0xC0 DUP4 ADD MSTORE PUSH2 0x1A46 DUP2 DUP5 PUSH2 0x1974 JUMP JUMPDEST SWAP1 POP SWAP9 SWAP8 POP POP POP POP POP POP POP POP JUMP JUMPDEST PUSH1 0x0 PUSH1 0x20 DUP3 ADD SWAP1 POP PUSH2 0x1A69 PUSH1 0x0 DUP4 ADD DUP5 PUSH2 0x1956 JUMP JUMPDEST SWAP3 SWAP2 POP POP JUMP JUMPDEST PUSH1 0x0 DUP2 SWAP1 POP SWAP2 SWAP1 POP JUMP JUMPDEST PUSH2 0x1A8A PUSH2 0x1A85 DUP3 PUSH2 0x1216 JUMP JUMPDEST PUSH2 0x1A6F JUMP JUMPDEST DUP3 MSTORE POP POP JUMP JUMPDEST PUSH1 0x0 PUSH2 0x1A9C DUP3 DUP6 PUSH2 0x1A79 JUMP JUMPDEST PUSH1 0x20 DUP3 ADD SWAP2 POP PUSH2 0x1AAC DUP3 DUP5 PUSH2 0x1A79 JUMP JUMPDEST PUSH1 0x20 DUP3 ADD SWAP2 POP DUP2 SWAP1 POP SWAP4 SWAP3 POP POP POP JUMP JUMPDEST PUSH1 0x0 DUP3 DUP3 MSTORE PUSH1 0x20 DUP3 ADD SWAP1 POP SWAP3 SWAP2 POP POP JUMP JUMPDEST PUSH32 0x54686973206170706F696E746D656E7420736C6F74206973206E6F7420617661 PUSH1 0x0 DUP3 ADD MSTORE PUSH32 0x696C61626C650000000000000000000000000000000000000000000000000000 PUSH1 0x20 DUP3 ADD MSTORE POP JUMP JUMPDEST PUSH1 0x0 PUSH2 0x1B29 PUSH1 0x26 DUP4 PUSH2 0x1ABC JUMP JUMPDEST SWAP2 POP PUSH2 0x1B34 DUP3 PUSH2 0x1ACD JUMP JUMPDEST PUSH1 0x40 DUP3 ADD SWAP1 POP SWAP2 SWAP1 POP JUMP JUMPDEST PUSH1 0x0 PUSH1 0x20 DUP3 ADD SWAP1 POP DUP2 DUP2 SUB PUSH1 0x0 DUP4 ADD MSTORE PUSH2 0x1B58 DUP2 PUSH2 0x1B1C JUMP JUMPDEST SWAP1 POP SWAP2 SWAP1 POP JUMP JUMPDEST PUSH1 0x0 DUP2 MLOAD SWAP1 POP SWAP2 SWAP1 POP JUMP JUMPDEST PUSH1 0x0 DUP3 DUP3 MSTORE PUSH1 0x20 DUP3 ADD SWAP1 POP SWAP3 SWAP2 POP POP JUMP JUMPDEST PUSH1 0x0 PUSH2 0x1B86 DUP3 PUSH2 0x1B5F JUMP JUMPDEST PUSH2 0x1B90 DUP2 DUP6 PUSH2 0x1B6A JUMP JUMPDEST SWAP4 POP PUSH2 0x1BA0 DUP2 DUP6 PUSH1 0x20 DUP7 ADD PUSH2 0x1718 JUMP JUMPDEST PUSH2 0x1BA9 DUP2 PUSH2 0x12C5 JUMP JUMPDEST DUP5 ADD SWAP2 POP POP SWAP3 SWAP2 POP POP JUMP JUMPDEST PUSH1 0x0 PUSH1 0x20 DUP3 ADD SWAP1 POP DUP2 DUP2 SUB PUSH1 0x0 DUP4 ADD MSTORE PUSH2 0x1BCE DUP2 DUP5 PUSH2 0x1B7B JUMP JUMPDEST SWAP1 POP SWAP3 SWAP2 POP POP JUMP JUMPDEST PUSH1 0x0 DUP2 MLOAD SWAP1 POP PUSH2 0x1BE5 DUP2 PUSH2 0x138E JUMP JUMPDEST SWAP3 SWAP2 POP POP JUMP JUMPDEST PUSH1 0x0 PUSH1 0x20 DUP3 DUP5 SUB SLT ISZERO PUSH2 0x1C01 JUMPI PUSH2 0x1C00 PUSH2 0x120C JUMP JUMPDEST JUMPDEST PUSH1 0x0 PUSH2 0x1C0F DUP5 DUP3 DUP6 ADD PUSH2 0x1BD6 JUMP JUMPDEST SWAP2 POP POP SWAP3 SWAP2 POP POP JUMP JUMPDEST PUSH32 0x456D707479204170706F696E746D656E742E2050726570617265206170706F69 PUSH1 0x0 DUP3 ADD MSTORE PUSH32 0x6E746D656E7420616761696E0000000000000000000000000000000000000000 PUSH1 0x20 DUP3 ADD MSTORE POP JUMP JUMPDEST PUSH1 0x0 PUSH2 0x1C74 PUSH1 0x2C DUP4 PUSH2 0x1ABC JUMP JUMPDEST SWAP2 POP PUSH2 0x1C7F DUP3 PUSH2 0x1C18 JUMP JUMPDEST PUSH1 0x40 DUP3 ADD SWAP1 POP SWAP2 SWAP1 POP JUMP JUMPDEST PUSH1 0x0 PUSH1 0x20 DUP3 ADD SWAP1 POP DUP2 DUP2 SUB PUSH1 0x0 DUP4 ADD MSTORE PUSH2 0x1CA3 DUP2 PUSH2 0x1C67 JUMP JUMPDEST SWAP1 POP SWAP2 SWAP1 POP JUMP JUMPDEST PUSH32 0x4E487B7100000000000000000000000000000000000000000000000000000000 PUSH1 0x0 MSTORE PUSH1 0x22 PUSH1 0x4 MSTORE PUSH1 0x24 PUSH1 0x0 REVERT JUMPDEST PUSH1 0x0 PUSH1 0x2 DUP3 DIV SWAP1 POP PUSH1 0x1 DUP3 AND DUP1 PUSH2 0x1CF1 JUMPI PUSH1 0x7F DUP3 AND SWAP2 POP JUMPDEST PUSH1 0x20 DUP3 LT DUP2 SUB PUSH2 0x1D04 JUMPI PUSH2 0x1D03 PUSH2 0x1CAA JUMP JUMPDEST JUMPDEST POP SWAP2 SWAP1 POP JUMP JUMPDEST PUSH1 0x0 DUP2 SWAP1 POP DUP2 PUSH1 0x0 MSTORE PUSH1 0x20 PUSH1 0x0 KECCAK256 SWAP1 POP SWAP2 SWAP1 POP JUMP JUMPDEST PUSH1 0x0 PUSH1 0x20 PUSH1 0x1F DUP4 ADD DIV SWAP1 POP SWAP2 SWAP1 POP JUMP JUMPDEST PUSH1 0x0 DUP3 DUP3 SHL SWAP1 POP SWAP3 SWAP2 POP POP JUMP JUMPDEST PUSH1 0x0 PUSH1 0x8 DUP4 MUL PUSH2 0x1D6C PUSH32 0xFFFFFFFFFFFFFFFFFFFFFFFFFFFFFFFFFFFFFFFFFFFFFFFFFFFFFFFFFFFFFFFF DUP3 PUSH2 0x1D2F JUMP JUMPDEST PUSH2 0x1D76 DUP7 DUP4 PUSH2 0x1D2F JUMP JUMPDEST SWAP6 POP DUP1 NOT DUP5 AND SWAP4 POP DUP1 DUP7 AND DUP5 OR SWAP3 POP POP POP SWAP4 SWAP3 POP POP POP JUMP JUMPDEST PUSH1 0x0 DUP2 SWAP1 POP SWAP2 SWAP1 POP JUMP JUMPDEST PUSH1 0x0 PUSH2 0x1DB3 PUSH2 0x1DAE PUSH2 0x1DA9 DUP5 PUSH2 0x1216 JUMP JUMPDEST PUSH2 0x1D8E JUMP JUMPDEST PUSH2 0x1216 JUMP JUMPDEST SWAP1 POP SWAP2 SWAP1 POP JUMP JUMPDEST PUSH1 0x0 DUP2 SWAP1 POP SWAP2 SWAP1 POP JUMP JUMPDEST PUSH2 0x1DCD DUP4 PUSH2 0x1D98 JUMP JUMPDEST PUSH2 0x1DE1 PUSH2 0x1DD9 DUP3 PUSH2 0x1DBA JUMP JUMPDEST DUP5 DUP5 SLOAD PUSH2 0x1D3C JUMP JUMPDEST DUP3 SSTORE POP POP POP POP JUMP JUMPDEST PUSH1 0x0 SWAP1 JUMP JUMPDEST PUSH2 0x1DF6 PUSH2 0x1DE9 JUMP JUMPDEST PUSH2 0x1E01 DUP2 DUP5 DUP5 PUSH2 0x1DC4 JUMP JUMPDEST POP POP POP JUMP JUMPDEST JUMPDEST DUP2 DUP2 LT ISZERO PUSH2 0x1E25 JUMPI PUSH2 0x1E1A PUSH1 0x0 DUP3 PUSH2 0x1DEE JUMP JUMPDEST PUSH1 0x1 DUP2 ADD SWAP1 POP PUSH2 0x1E07 JUMP JUMPDEST POP POP JUMP JUMPDEST PUSH1 0x1F DUP3 GT ISZERO PUSH2 0x1E6A JUMPI PUSH2 0x1E3B DUP2 PUSH2 0x1D0A JUMP JUMPDEST PUSH2 0x1E44 DUP5 PUSH2 0x1D1F JUMP JUMPDEST DUP2 ADD PUSH1 0x20 DUP6 LT ISZERO PUSH2 0x1E53 JUMPI DUP2 SWAP1 POP JUMPDEST PUSH2 0x1E67 PUSH2 0x1E5F DUP6 PUSH2 0x1D1F JUMP JUMPDEST DUP4 ADD DUP3 PUSH2 0x1E06 JUMP JUMPDEST POP POP JUMPDEST POP POP POP JUMP JUMPDEST PUSH1 0x0 DUP3 DUP3 SHR SWAP1 POP SWAP3 SWAP2 POP POP JUMP JUMPDEST PUSH1 0x0 PUSH2 0x1E8D PUSH1 0x0 NOT DUP5 PUSH1 0x8 MUL PUSH2 0x1E6F JUMP JUMPDEST NOT DUP1 DUP4 AND SWAP2 POP POP SWAP3 SWAP2 POP POP JUMP JUMPDEST PUSH1 0x0 PUSH2 0x1EA6 DUP4 DUP4 PUSH2 0x1E7C JUMP JUMPDEST SWAP2 POP DUP3 PUSH1 0x2 MUL DUP3 OR SWAP1 POP SWAP3 SWAP2 POP POP JUMP JUMPDEST PUSH2 0x1EBF DUP3 PUSH2 0x16FC JUMP JUMPDEST PUSH8 0xFFFFFFFFFFFFFFFF DUP2 GT ISZERO PUSH2 0x1ED8 JUMPI PUSH2 0x1ED7 PUSH2 0x12D6 JUMP JUMPDEST JUMPDEST PUSH2 0x1EE2 DUP3 SLOAD PUSH2 0x1CD9 JUMP JUMPDEST PUSH2 0x1EED DUP3 DUP3 DUP6 PUSH2 0x1E29 JUMP JUMPDEST PUSH1 0x0 PUSH1 0x20 SWAP1 POP PUSH1 0x1F DUP4 GT PUSH1 0x1 DUP2 EQ PUSH2 0x1F20 JUMPI PUSH1 0x0 DUP5 ISZERO PUSH2 0x1F0E JUMPI DUP3 DUP8 ADD MLOAD SWAP1 POP JUMPDEST PUSH2 0x1F18 DUP6 DUP3 PUSH2 0x1E9A JUMP JUMPDEST DUP7 SSTORE POP PUSH2 0x1F80 JUMP JUMPDEST PUSH1 0x1F NOT DUP5 AND PUSH2 0x1F2E DUP7 PUSH2 0x1D0A JUMP JUMPDEST PUSH1 0x0 JUMPDEST DUP3 DUP2 LT ISZERO PUSH2 0x1F56 JUMPI DUP5 DUP10 ADD MLOAD DUP3 SSTORE PUSH1 0x1 DUP3 ADD SWAP2 POP PUSH1 0x20 DUP6 ADD SWAP5 POP PUSH1 0x20 DUP2 ADD SWAP1 POP PUSH2 0x1F31 JUMP JUMPDEST DUP7 DUP4 LT ISZERO PUSH2 0x1F73 JUMPI DUP5 DUP10 ADD MLOAD PUSH2 0x1F6F PUSH1 0x1F DUP10 AND DUP3 PUSH2 0x1E7C JUMP JUMPDEST DUP4 SSTORE POP JUMPDEST PUSH1 0x1 PUSH1 0x2 DUP9 MUL ADD DUP9 SSTORE POP POP POP JUMPDEST POP POP POP POP POP POP JUMP JUMPDEST PUSH32 0x4E487B7100000000000000000000000000000000000000000000000000000000 PUSH1 0x0 MSTORE PUSH1 0x11 PUSH1 0x4 MSTORE PUSH1 0x24 PUSH1 0x0 REVERT JUMPDEST PUSH1 0x0 PUSH2 0x1FC2 DUP3 PUSH2 0x1216 JUMP JUMPDEST SWAP2 POP PUSH32 0xFFFFFFFFFFFFFFFFFFFFFFFFFFFFFFFFFFFFFFFFFFFFFFFFFFFFFFFFFFFFFFFF DUP3 SUB PUSH2 0x1FF4 JUMPI PUSH2 0x1FF3 PUSH2 0x1F88 JUMP JUMPDEST JUMPDEST PUSH1 0x1 DUP3 ADD SWAP1 POP SWAP2 SWAP1 POP JUMP JUMPDEST PUSH32 0x4E487B7100000000000000000000000000000000000000000000000000000000 PUSH1 0x0 MSTORE PUSH1 0x32 PUSH1 0x4 MSTORE PUSH1 0x24 PUSH1 0x0 REVERT JUMPDEST PUSH32 0x4170706F696E746D656E74204372656174656400000000000000000000000000 PUSH1 0x0 DUP3 ADD MSTORE POP JUMP JUMPDEST PUSH1 0x0 PUSH2 0x2064 PUSH1 0x13 DUP4 PUSH2 0x1ABC JUMP JUMPDEST SWAP2 POP PUSH2 0x206F DUP3 PUSH2 0x202E JUMP JUMPDEST PUSH1 0x20 DUP3 ADD SWAP1 POP SWAP2 SWAP1 POP JUMP JUMPDEST PUSH1 0x0 PUSH1 0x40 DUP3 ADD SWAP1 POP PUSH2 0x208F PUSH1 0x0 DUP4 ADD DUP5 PUSH2 0x1965 JUMP JUMPDEST DUP2 DUP2 SUB PUSH1 0x20 DUP4 ADD MSTORE PUSH2 0x20A0 DUP2 PUSH2 0x2057 JUMP JUMPDEST SWAP1 POP SWAP3 SWAP2 POP POP JUMP JUMPDEST PUSH1 0x0 PUSH2 0x20B3 DUP3 PUSH2 0x1216 JUMP JUMPDEST SWAP2 POP PUSH1 0x0 DUP3 SUB PUSH2 0x20C6 JUMPI PUSH2 0x20C5 PUSH2 0x1F88 JUMP JUMPDEST JUMPDEST PUSH1 0x1 DUP3 SUB SWAP1 POP SWAP2 SWAP1 POP JUMP JUMPDEST PUSH32 0x4170706F696E746D656E742043616E63656C6C65640000000000000000000000 PUSH1 0x0 DUP3 ADD MSTORE POP JUMP JUMPDEST PUSH1 0x0 PUSH2 0x2107 PUSH1 0x15 DUP4 PUSH2 0x1ABC JUMP JUMPDEST SWAP2 POP PUSH2 0x2112 DUP3 PUSH2 0x20D1 JUMP JUMPDEST PUSH1 0x20 DUP3 ADD SWAP1 POP SWAP2 SWAP1 POP JUMP JUMPDEST PUSH1 0x0 PUSH1 0x40 DUP3 ADD SWAP1 POP PUSH2 0x2132 PUSH1 0x0 DUP4 ADD DUP5 PUSH2 0x1965 JUMP JUMPDEST DUP2 DUP2 SUB PUSH1 0x20 DUP4 ADD MSTORE PUSH2 0x2143 DUP2 PUSH2 0x20FA JUMP JUMPDEST SWAP1 POP SWAP3 SWAP2 POP POP JUMP JUMPDEST PUSH32 0x4170706F696E746D656E74204E6F7420466F756E640000000000000000000000 PUSH1 0x0 DUP3 ADD MSTORE POP JUMP JUMPDEST PUSH1 0x0 PUSH2 0x2181 PUSH1 0x15 DUP4 PUSH2 0x1ABC JUMP JUMPDEST SWAP2 POP PUSH2 0x218C DUP3 PUSH2 0x214B JUMP JUMPDEST PUSH1 0x20 DUP3 ADD SWAP1 POP SWAP2 SWAP1 POP JUMP JUMPDEST PUSH1 0x0 PUSH1 0x20 DUP3 ADD SWAP1 POP DUP2 DUP2 SUB PUSH1 0x0 DUP4 ADD MSTORE PUSH2 0x21B0 DUP2 PUSH2 0x2174 JUMP JUMPDEST SWAP1 POP SWAP2 SWAP1 POP JUMP INVALID LOG2 PUSH5 0x6970667358 0x22 SLT KECCAK256 0xB7 0xB4 PUSH5 0x8D447F9E5C 0xBB DUP9 0x24 SELFBALANCE 0xAA PUSH17 0xFA89AA971F838ACA3402C15B7D83AD5E74 0xDC PUSH5 0x736F6C6343 STOP ADDMOD GT STOP CALLER "
				},
				"gasEstimates": {
					"creation": {
						"codeDepositCost": "1737000",
						"executionCost": "1827",
						"totalCost": "1738827"
					},
					"external": {
						"appointmentStatus(bytes32)": "2862",
						"appointments(bytes32)": "infinite",
						"bookAppointment((bytes32,uint256,uint256,bool,address,address,(string,uint256,string,uint8)))": "infinite",
						"cancelAppointment(bytes32)": "infinite",
						"checkAvailability(bytes32)": "2822",
						"getAppointment(bytes32)": "infinite",
						"getHashId(uint256,uint256)": "infinite",
						"sendAppointmentReminder()": "infinite"
					}
				},
				"methodIdentifiers": {
					"appointmentStatus(bytes32)": "fe7ec2d6",
					"appointments(bytes32)": "ad36769b",
					"bookAppointment((bytes32,uint256,uint256,bool,address,address,(string,uint256,string,uint8)))": "6c4eedb8",
					"cancelAppointment(bytes32)": "e6ab0f59",
					"checkAvailability(bytes32)": "c667e4ff",
					"getAppointment(bytes32)": "ce2a18ce",
					"getHashId(uint256,uint256)": "1a0cc30b",
					"sendAppointmentReminder()": "8fd3a372"
				}
			},
			"storageLayout": {
				"storage": [
					{
						"astId": 12,
						"contract": "contracts/AppointmentScheduler.sol:AppointmentScheduler",
						"label": "appointments",
						"offset": 0,
						"slot": "0",
						"type": "t_mapping(t_bytes32,t_struct(AppointmentRecord)270_storage)"
					},
					{
						"astId": 16,
						"contract": "contracts/AppointmentScheduler.sol:AppointmentScheduler",
						"label": "appointmentStatus",
						"offset": 0,
						"slot": "1",
						"type": "t_mapping(t_bytes32,t_bool)"
					},
					{
						"astId": 19,
						"contract": "contracts/AppointmentScheduler.sol:AppointmentScheduler",
						"label": "keys",
						"offset": 0,
						"slot": "2",
						"type": "t_array(t_bytes32)dyn_storage"
					},
					{
						"astId": 21,
						"contract": "contracts/AppointmentScheduler.sol:AppointmentScheduler",
						"label": "appointmentCounter",
						"offset": 0,
						"slot": "3",
						"type": "t_uint256"
					}
				],
				"types": {
					"t_address": {
						"encoding": "inplace",
						"label": "address",
						"numberOfBytes": "20"
					},
					"t_array(t_bytes32)dyn_storage": {
						"base": "t_bytes32",
						"encoding": "dynamic_array",
						"label": "bytes32[]",
						"numberOfBytes": "32"
					},
					"t_bool": {
						"encoding": "inplace",
						"label": "bool",
						"numberOfBytes": "1"
					},
					"t_bytes32": {
						"encoding": "inplace",
						"label": "bytes32",
						"numberOfBytes": "32"
					},
					"t_enum(ReminderStatus)274": {
						"encoding": "inplace",
						"label": "enum Appointment.ReminderStatus",
						"numberOfBytes": "1"
					},
					"t_mapping(t_bytes32,t_bool)": {
						"encoding": "mapping",
						"key": "t_bytes32",
						"label": "mapping(bytes32 => bool)",
						"numberOfBytes": "32",
						"value": "t_bool"
					},
					"t_mapping(t_bytes32,t_struct(AppointmentRecord)270_storage)": {
						"encoding": "mapping",
						"key": "t_bytes32",
						"label": "mapping(bytes32 => struct Appointment.AppointmentRecord)",
						"numberOfBytes": "32",
						"value": "t_struct(AppointmentRecord)270_storage"
					},
					"t_string_storage": {
						"encoding": "bytes",
						"label": "string",
						"numberOfBytes": "32"
					},
					"t_struct(AppointmentRecord)270_storage": {
						"encoding": "inplace",
						"label": "struct Appointment.AppointmentRecord",
						"members": [
							{
								"astId": 256,
								"contract": "contracts/AppointmentScheduler.sol:AppointmentScheduler",
								"label": "id",
								"offset": 0,
								"slot": "0",
								"type": "t_bytes32"
							},
							{
								"astId": 258,
								"contract": "contracts/AppointmentScheduler.sol:AppointmentScheduler",
								"label": "appointmentDate",
								"offset": 0,
								"slot": "1",
								"type": "t_uint256"
							},
							{
								"astId": 260,
								"contract": "contracts/AppointmentScheduler.sol:AppointmentScheduler",
								"label": "appointmentTime",
								"offset": 0,
								"slot": "2",
								"type": "t_uint256"
							},
							{
								"astId": 262,
								"contract": "contracts/AppointmentScheduler.sol:AppointmentScheduler",
								"label": "isAvailable",
								"offset": 0,
								"slot": "3",
								"type": "t_bool"
							},
							{
								"astId": 264,
								"contract": "contracts/AppointmentScheduler.sol:AppointmentScheduler",
								"label": "patientAddress",
								"offset": 1,
								"slot": "3",
								"type": "t_address"
							},
							{
								"astId": 266,
								"contract": "contracts/AppointmentScheduler.sol:AppointmentScheduler",
								"label": "doctorAddress",
								"offset": 0,
								"slot": "4",
								"type": "t_address"
							},
							{
								"astId": 269,
								"contract": "contracts/AppointmentScheduler.sol:AppointmentScheduler",
								"label": "reminder",
								"offset": 0,
								"slot": "5",
								"type": "t_struct(AppointmentReminder)284_storage"
							}
						],
						"numberOfBytes": "288"
					},
					"t_struct(AppointmentReminder)284_storage": {
						"encoding": "inplace",
						"label": "struct Appointment.AppointmentReminder",
						"members": [
							{
								"astId": 276,
								"contract": "contracts/AppointmentScheduler.sol:AppointmentScheduler",
								"label": "reminderMethod",
								"offset": 0,
								"slot": "0",
								"type": "t_string_storage"
							},
							{
								"astId": 278,
								"contract": "contracts/AppointmentScheduler.sol:AppointmentScheduler",
								"label": "reminderFrequency",
								"offset": 0,
								"slot": "1",
								"type": "t_uint256"
							},
							{
								"astId": 280,
								"contract": "contracts/AppointmentScheduler.sol:AppointmentScheduler",
								"label": "message",
								"offset": 0,
								"slot": "2",
								"type": "t_string_storage"
							},
							{
								"astId": 283,
								"contract": "contracts/AppointmentScheduler.sol:AppointmentScheduler",
								"label": "status",
								"offset": 0,
								"slot": "3",
								"type": "t_enum(ReminderStatus)274"
							}
						],
						"numberOfBytes": "128"
					},
					"t_uint256": {
						"encoding": "inplace",
						"label": "uint256",
						"numberOfBytes": "32"
					}
				}
			},
			"userdoc": {
				"kind": "user",
				"methods": {},
				"version": 1
			}
		}
	}
}