{
	"contracts/PatientScheduling.sol": {
		"AppointmentScheduler": {
			"abi": [
				{
					"inputs": [],
					"name": "appointmentCount",
					"outputs": [
						{
							"internalType": "uint256",
							"name": "",
							"type": "uint256"
						}
					],
					"stateMutability": "view",
					"type": "function"
				},
				{
					"inputs": [
						{
							"internalType": "uint256",
							"name": "",
							"type": "uint256"
						}
					],
					"name": "appointments",
					"outputs": [
						{
							"internalType": "uint256",
							"name": "id",
							"type": "uint256"
						},
						{
							"internalType": "uint256",
							"name": "date",
							"type": "uint256"
						},
						{
							"internalType": "uint256",
							"name": "time",
							"type": "uint256"
						},
						{
							"internalType": "string",
							"name": "location",
							"type": "string"
						},
						{
							"internalType": "address",
							"name": "patientAddress",
							"type": "address"
						},
						{
							"internalType": "bool",
							"name": "isAvailable",
							"type": "bool"
						}
					],
					"stateMutability": "view",
					"type": "function"
				},
				{
					"inputs": [
						{
							"internalType": "uint256",
							"name": "appointmentId",
							"type": "uint256"
						},
						{
							"internalType": "uint256",
							"name": "date",
							"type": "uint256"
						},
						{
							"internalType": "uint256",
							"name": "time",
							"type": "uint256"
						},
						{
							"internalType": "address",
							"name": "patientAddress",
							"type": "address"
						}
					],
					"name": "bookAppointment",
					"outputs": [],
					"stateMutability": "nonpayable",
					"type": "function"
				},
				{
					"inputs": [
						{
							"internalType": "uint256",
							"name": "appointmentId",
							"type": "uint256"
						}
					],
					"name": "cancelAppointment",
					"outputs": [],
					"stateMutability": "nonpayable",
					"type": "function"
				},
				{
					"inputs": [
						{
							"internalType": "uint256",
							"name": "appointmentId",
							"type": "uint256"
						}
					],
					"name": "checkAvailability",
					"outputs": [
						{
							"internalType": "bool",
							"name": "",
							"type": "bool"
						}
					],
					"stateMutability": "view",
					"type": "function"
				},
				{
					"inputs": [
						{
							"internalType": "uint256",
							"name": "appointmentId",
							"type": "uint256"
						},
						{
							"internalType": "uint256",
							"name": "date",
							"type": "uint256"
						},
						{
							"internalType": "uint256",
							"name": "time",
							"type": "uint256"
						},
						{
							"internalType": "string",
							"name": "location",
							"type": "string"
						}
					],
					"name": "modifyAppointment",
					"outputs": [],
					"stateMutability": "nonpayable",
					"type": "function"
				}
			],
			"devdoc": {
				"kind": "dev",
				"methods": {},
				"version": 1
			},
			"evm": {
				"assembly": "    /* \"contracts/PatientScheduling.sol\":25:1578  contract AppointmentScheduler {... */\n  mstore(0x40, 0x80)\n  callvalue\n  dup1\n  iszero\n  tag_1\n  jumpi\n  0x00\n  dup1\n  revert\ntag_1:\n  pop\n  dataSize(sub_0)\n  dup1\n  dataOffset(sub_0)\n  0x00\n  codecopy\n  0x00\n  return\nstop\n\nsub_0: assembly {\n        /* \"contracts/PatientScheduling.sol\":25:1578  contract AppointmentScheduler {... */\n      mstore(0x40, 0x80)\n      callvalue\n      dup1\n      iszero\n      tag_1\n      jumpi\n      0x00\n      dup1\n      revert\n    tag_1:\n      pop\n      jumpi(tag_2, lt(calldatasize, 0x04))\n      shr(0xe0, calldataload(0x00))\n      dup1\n      0x12dc9013\n      eq\n      tag_3\n      jumpi\n      dup1\n      0x753999ef\n      eq\n      tag_4\n      jumpi\n      dup1\n      0xa7e64405\n      eq\n      tag_5\n      jumpi\n      dup1\n      0xdc827389\n      eq\n      tag_6\n      jumpi\n      dup1\n      0xe5a2d7c6\n      eq\n      tag_7\n      jumpi\n      dup1\n      0xeebc3fb2\n      eq\n      tag_8\n      jumpi\n    tag_2:\n      0x00\n      dup1\n      revert\n        /* \"contracts/PatientScheduling.sol\":244:296  mapping (uint256 => Appointment) public appointments */\n    tag_3:\n      tag_9\n      0x04\n      dup1\n      calldatasize\n      sub\n      dup2\n      add\n      swap1\n      tag_10\n      swap2\n      swap1\n      tag_11\n      jump\t// in\n    tag_10:\n      tag_12\n      jump\t// in\n    tag_9:\n      mload(0x40)\n      tag_13\n      swap7\n      swap6\n      swap5\n      swap4\n      swap3\n      swap2\n      swap1\n      tag_14\n      jump\t// in\n    tag_13:\n      mload(0x40)\n      dup1\n      swap2\n      sub\n      swap1\n      return\n        /* \"contracts/PatientScheduling.sol\":1381:1576  function checkAvailability(uint256 appointmentId) public view returns (bool) {... */\n    tag_4:\n      tag_15\n      0x04\n      dup1\n      calldatasize\n      sub\n      dup2\n      add\n      swap1\n      tag_16\n      swap2\n      swap1\n      tag_11\n      jump\t// in\n    tag_16:\n      tag_17\n      jump\t// in\n    tag_15:\n      mload(0x40)\n      tag_18\n      swap2\n      swap1\n      tag_19\n      jump\t// in\n    tag_18:\n      mload(0x40)\n      dup1\n      swap2\n      sub\n      swap1\n      return\n        /* \"contracts/PatientScheduling.sol\":1087:1371  function cancelAppointment(uint256 appointmentId) public {... */\n    tag_5:\n      tag_20\n      0x04\n      dup1\n      calldatasize\n      sub\n      dup2\n      add\n      swap1\n      tag_21\n      swap2\n      swap1\n      tag_11\n      jump\t// in\n    tag_21:\n      tag_22\n      jump\t// in\n    tag_20:\n      stop\n        /* \"contracts/PatientScheduling.sol\":344:773  function bookAppointment(uint256 appointmentId, uint256 date, uint256 time, address patientAddress) public {... */\n    tag_6:\n      tag_23\n      0x04\n      dup1\n      calldatasize\n      sub\n      dup2\n      add\n      swap1\n      tag_24\n      swap2\n      swap1\n      tag_25\n      jump\t// in\n    tag_24:\n      tag_26\n      jump\t// in\n    tag_23:\n      stop\n        /* \"contracts/PatientScheduling.sol\":783:1077  function modifyAppointment(uint256 appointmentId, uint256 date, uint256 time, string memory location) public {... */\n    tag_7:\n      tag_27\n      0x04\n      dup1\n      calldatasize\n      sub\n      dup2\n      add\n      swap1\n      tag_28\n      swap2\n      swap1\n      tag_29\n      jump\t// in\n    tag_28:\n      tag_30\n      jump\t// in\n    tag_27:\n      stop\n        /* \"contracts/PatientScheduling.sol\":302:333  uint256 public appointmentCount */\n    tag_8:\n      tag_31\n      tag_32\n      jump\t// in\n    tag_31:\n      mload(0x40)\n      tag_33\n      swap2\n      swap1\n      tag_34\n      jump\t// in\n    tag_33:\n      mload(0x40)\n      dup1\n      swap2\n      sub\n      swap1\n      return\n        /* \"contracts/PatientScheduling.sol\":244:296  mapping (uint256 => Appointment) public appointments */\n    tag_12:\n      mstore(0x20, 0x00)\n      dup1\n      0x00\n      mstore\n      keccak256(0x00, 0x40)\n      0x00\n      swap2\n      pop\n      swap1\n      pop\n      dup1\n      0x00\n      add\n      sload\n      swap1\n      dup1\n      0x01\n      add\n      sload\n      swap1\n      dup1\n      0x02\n      add\n      sload\n      swap1\n      dup1\n      0x03\n      add\n      dup1\n      sload\n      tag_35\n      swap1\n      tag_36\n      jump\t// in\n    tag_35:\n      dup1\n      0x1f\n      add\n      0x20\n      dup1\n      swap2\n      div\n      mul\n      0x20\n      add\n      mload(0x40)\n      swap1\n      dup2\n      add\n      0x40\n      mstore\n      dup1\n      swap3\n      swap2\n      swap1\n      dup2\n      dup2\n      mstore\n      0x20\n      add\n      dup3\n      dup1\n      sload\n      tag_37\n      swap1\n      tag_36\n      jump\t// in\n    tag_37:\n      dup1\n      iszero\n      tag_38\n      jumpi\n      dup1\n      0x1f\n      lt\n      tag_39\n      jumpi\n      0x0100\n      dup1\n      dup4\n      sload\n      div\n      mul\n      dup4\n      mstore\n      swap2\n      0x20\n      add\n      swap2\n      jump(tag_38)\n    tag_39:\n      dup3\n      add\n      swap2\n      swap1\n      0x00\n      mstore\n      keccak256(0x00, 0x20)\n      swap1\n    tag_40:\n      dup2\n      sload\n      dup2\n      mstore\n      swap1\n      0x01\n      add\n      swap1\n      0x20\n      add\n      dup1\n      dup4\n      gt\n      tag_40\n      jumpi\n      dup3\n      swap1\n      sub\n      0x1f\n      and\n      dup3\n      add\n      swap2\n    tag_38:\n      pop\n      pop\n      pop\n      pop\n      pop\n      swap1\n      dup1\n      0x04\n      add\n      0x00\n      swap1\n      sload\n      swap1\n      0x0100\n      exp\n      swap1\n      div\n      0xffffffffffffffffffffffffffffffffffffffff\n      and\n      swap1\n      dup1\n      0x04\n      add\n      0x14\n      swap1\n      sload\n      swap1\n      0x0100\n      exp\n      swap1\n      div\n      0xff\n      and\n      swap1\n      pop\n      dup7\n      jump\t// out\n        /* \"contracts/PatientScheduling.sol\":1381:1576  function checkAvailability(uint256 appointmentId) public view returns (bool) {... */\n    tag_17:\n        /* \"contracts/PatientScheduling.sol\":1452:1456  bool */\n      0x00\n        /* \"contracts/PatientScheduling.sol\":1468:1499  Appointment storage appointment */\n      dup1\n        /* \"contracts/PatientScheduling.sol\":1502:1514  appointments */\n      0x00\n        /* \"contracts/PatientScheduling.sol\":1502:1529  appointments[appointmentId] */\n      dup1\n        /* \"contracts/PatientScheduling.sol\":1515:1528  appointmentId */\n      dup5\n        /* \"contracts/PatientScheduling.sol\":1502:1529  appointments[appointmentId] */\n      dup2\n      mstore\n      0x20\n      add\n      swap1\n      dup2\n      mstore\n      0x20\n      add\n      0x00\n      keccak256\n        /* \"contracts/PatientScheduling.sol\":1468:1529  Appointment storage appointment = appointments[appointmentId] */\n      swap1\n      pop\n        /* \"contracts/PatientScheduling.sol\":1546:1557  appointment */\n      dup1\n        /* \"contracts/PatientScheduling.sol\":1546:1569  appointment.isAvailable */\n      0x04\n      add\n      0x14\n      swap1\n      sload\n      swap1\n      0x0100\n      exp\n      swap1\n      div\n      0xff\n      and\n        /* \"contracts/PatientScheduling.sol\":1539:1569  return appointment.isAvailable */\n      swap2\n      pop\n      pop\n        /* \"contracts/PatientScheduling.sol\":1381:1576  function checkAvailability(uint256 appointmentId) public view returns (bool) {... */\n      swap2\n      swap1\n      pop\n      jump\t// out\n        /* \"contracts/PatientScheduling.sol\":1087:1371  function cancelAppointment(uint256 appointmentId) public {... */\n    tag_22:\n        /* \"contracts/PatientScheduling.sol\":1154:1185  Appointment storage appointment */\n      0x00\n        /* \"contracts/PatientScheduling.sol\":1188:1200  appointments */\n      dup1\n        /* \"contracts/PatientScheduling.sol\":1188:1215  appointments[appointmentId] */\n      0x00\n        /* \"contracts/PatientScheduling.sol\":1201:1214  appointmentId */\n      dup4\n        /* \"contracts/PatientScheduling.sol\":1188:1215  appointments[appointmentId] */\n      dup2\n      mstore\n      0x20\n      add\n      swap1\n      dup2\n      mstore\n      0x20\n      add\n      0x00\n      keccak256\n        /* \"contracts/PatientScheduling.sol\":1154:1215  Appointment storage appointment = appointments[appointmentId] */\n      swap1\n      pop\n        /* \"contracts/PatientScheduling.sol\":1244:1245  0 */\n      0x00\n        /* \"contracts/PatientScheduling.sol\":1225:1236  appointment */\n      dup2\n        /* \"contracts/PatientScheduling.sol\":1225:1241  appointment.date */\n      0x01\n      add\n        /* \"contracts/PatientScheduling.sol\":1225:1245  appointment.date = 0 */\n      dup2\n      swap1\n      sstore\n      pop\n        /* \"contracts/PatientScheduling.sol\":1274:1275  0 */\n      0x00\n        /* \"contracts/PatientScheduling.sol\":1255:1266  appointment */\n      dup2\n        /* \"contracts/PatientScheduling.sol\":1255:1271  appointment.time */\n      0x02\n      add\n        /* \"contracts/PatientScheduling.sol\":1255:1275  appointment.time = 0 */\n      dup2\n      swap1\n      sstore\n      pop\n        /* \"contracts/PatientScheduling.sol\":1322:1323  0 */\n      0x00\n        /* \"contracts/PatientScheduling.sol\":1285:1296  appointment */\n      dup2\n        /* \"contracts/PatientScheduling.sol\":1285:1311  appointment.patientAddress */\n      0x04\n      add\n      0x00\n        /* \"contracts/PatientScheduling.sol\":1285:1324  appointment.patientAddress = address(0) */\n      0x0100\n      exp\n      dup2\n      sload\n      dup2\n      0xffffffffffffffffffffffffffffffffffffffff\n      mul\n      not\n      and\n      swap1\n      dup4\n      0xffffffffffffffffffffffffffffffffffffffff\n      and\n      mul\n      or\n      swap1\n      sstore\n      pop\n        /* \"contracts/PatientScheduling.sol\":1360:1364  true */\n      0x01\n        /* \"contracts/PatientScheduling.sol\":1334:1345  appointment */\n      dup2\n        /* \"contracts/PatientScheduling.sol\":1334:1357  appointment.isAvailable */\n      0x04\n      add\n      0x14\n        /* \"contracts/PatientScheduling.sol\":1334:1364  appointment.isAvailable = true */\n      0x0100\n      exp\n      dup2\n      sload\n      dup2\n      0xff\n      mul\n      not\n      and\n      swap1\n      dup4\n      iszero\n      iszero\n      mul\n      or\n      swap1\n      sstore\n      pop\n        /* \"contracts/PatientScheduling.sol\":1144:1371  {... */\n      pop\n        /* \"contracts/PatientScheduling.sol\":1087:1371  function cancelAppointment(uint256 appointmentId) public {... */\n      pop\n      jump\t// out\n        /* \"contracts/PatientScheduling.sol\":344:773  function bookAppointment(uint256 appointmentId, uint256 date, uint256 time, address patientAddress) public {... */\n    tag_26:\n        /* \"contracts/PatientScheduling.sol\":461:492  Appointment storage appointment */\n      0x00\n        /* \"contracts/PatientScheduling.sol\":495:507  appointments */\n      dup1\n        /* \"contracts/PatientScheduling.sol\":495:522  appointments[appointmentId] */\n      0x00\n        /* \"contracts/PatientScheduling.sol\":508:521  appointmentId */\n      dup7\n        /* \"contracts/PatientScheduling.sol\":495:522  appointments[appointmentId] */\n      dup2\n      mstore\n      0x20\n      add\n      swap1\n      dup2\n      mstore\n      0x20\n      add\n      0x00\n      keccak256\n        /* \"contracts/PatientScheduling.sol\":461:522  Appointment storage appointment = appointments[appointmentId] */\n      swap1\n      pop\n        /* \"contracts/PatientScheduling.sol\":540:551  appointment */\n      dup1\n        /* \"contracts/PatientScheduling.sol\":540:563  appointment.isAvailable */\n      0x04\n      add\n      0x14\n      swap1\n      sload\n      swap1\n      0x0100\n      exp\n      swap1\n      div\n      0xff\n      and\n        /* \"contracts/PatientScheduling.sol\":532:606  require(appointment.isAvailable, \"This appointment slot is not available\") */\n      tag_44\n      jumpi\n      mload(0x40)\n      0x08c379a000000000000000000000000000000000000000000000000000000000\n      dup2\n      mstore\n      0x04\n      add\n      tag_45\n      swap1\n      tag_46\n      jump\t// in\n    tag_45:\n      mload(0x40)\n      dup1\n      swap2\n      sub\n      swap1\n      revert\n    tag_44:\n        /* \"contracts/PatientScheduling.sol\":635:639  date */\n      dup4\n        /* \"contracts/PatientScheduling.sol\":616:627  appointment */\n      dup2\n        /* \"contracts/PatientScheduling.sol\":616:632  appointment.date */\n      0x01\n      add\n        /* \"contracts/PatientScheduling.sol\":616:639  appointment.date = date */\n      dup2\n      swap1\n      sstore\n      pop\n        /* \"contracts/PatientScheduling.sol\":668:672  time */\n      dup3\n        /* \"contracts/PatientScheduling.sol\":649:660  appointment */\n      dup2\n        /* \"contracts/PatientScheduling.sol\":649:665  appointment.time */\n      0x02\n      add\n        /* \"contracts/PatientScheduling.sol\":649:672  appointment.time = time */\n      dup2\n      swap1\n      sstore\n      pop\n        /* \"contracts/PatientScheduling.sol\":711:725  patientAddress */\n      dup2\n        /* \"contracts/PatientScheduling.sol\":682:693  appointment */\n      dup2\n        /* \"contracts/PatientScheduling.sol\":682:708  appointment.patientAddress */\n      0x04\n      add\n      0x00\n        /* \"contracts/PatientScheduling.sol\":682:725  appointment.patientAddress = patientAddress */\n      0x0100\n      exp\n      dup2\n      sload\n      dup2\n      0xffffffffffffffffffffffffffffffffffffffff\n      mul\n      not\n      and\n      swap1\n      dup4\n      0xffffffffffffffffffffffffffffffffffffffff\n      and\n      mul\n      or\n      swap1\n      sstore\n      pop\n        /* \"contracts/PatientScheduling.sol\":761:766  false */\n      0x00\n        /* \"contracts/PatientScheduling.sol\":735:746  appointment */\n      dup2\n        /* \"contracts/PatientScheduling.sol\":735:758  appointment.isAvailable */\n      0x04\n      add\n      0x14\n        /* \"contracts/PatientScheduling.sol\":735:766  appointment.isAvailable = false */\n      0x0100\n      exp\n      dup2\n      sload\n      dup2\n      0xff\n      mul\n      not\n      and\n      swap1\n      dup4\n      iszero\n      iszero\n      mul\n      or\n      swap1\n      sstore\n      pop\n        /* \"contracts/PatientScheduling.sol\":451:773  {... */\n      pop\n        /* \"contracts/PatientScheduling.sol\":344:773  function bookAppointment(uint256 appointmentId, uint256 date, uint256 time, address patientAddress) public {... */\n      pop\n      pop\n      pop\n      pop\n      jump\t// out\n        /* \"contracts/PatientScheduling.sol\":783:1077  function modifyAppointment(uint256 appointmentId, uint256 date, uint256 time, string memory location) public {... */\n    tag_30:\n        /* \"contracts/PatientScheduling.sol\":902:933  Appointment storage appointment */\n      0x00\n        /* \"contracts/PatientScheduling.sol\":936:948  appointments */\n      dup1\n        /* \"contracts/PatientScheduling.sol\":936:963  appointments[appointmentId] */\n      0x00\n        /* \"contracts/PatientScheduling.sol\":949:962  appointmentId */\n      dup7\n        /* \"contracts/PatientScheduling.sol\":936:963  appointments[appointmentId] */\n      dup2\n      mstore\n      0x20\n      add\n      swap1\n      dup2\n      mstore\n      0x20\n      add\n      0x00\n      keccak256\n        /* \"contracts/PatientScheduling.sol\":902:963  Appointment storage appointment = appointments[appointmentId] */\n      swap1\n      pop\n        /* \"contracts/PatientScheduling.sol\":992:996  date */\n      dup4\n        /* \"contracts/PatientScheduling.sol\":973:984  appointment */\n      dup2\n        /* \"contracts/PatientScheduling.sol\":973:989  appointment.date */\n      0x01\n      add\n        /* \"contracts/PatientScheduling.sol\":973:996  appointment.date = date */\n      dup2\n      swap1\n      sstore\n      pop\n        /* \"contracts/PatientScheduling.sol\":1025:1029  time */\n      dup3\n        /* \"contracts/PatientScheduling.sol\":1006:1017  appointment */\n      dup2\n        /* \"contracts/PatientScheduling.sol\":1006:1022  appointment.time */\n      0x02\n      add\n        /* \"contracts/PatientScheduling.sol\":1006:1029  appointment.time = time */\n      dup2\n      swap1\n      sstore\n      pop\n        /* \"contracts/PatientScheduling.sol\":1062:1070  location */\n      dup2\n        /* \"contracts/PatientScheduling.sol\":1039:1050  appointment */\n      dup2\n        /* \"contracts/PatientScheduling.sol\":1039:1059  appointment.location */\n      0x03\n      add\n        /* \"contracts/PatientScheduling.sol\":1039:1070  appointment.location = location */\n      swap1\n      dup2\n      tag_48\n      swap2\n      swap1\n      tag_49\n      jump\t// in\n    tag_48:\n      pop\n        /* \"contracts/PatientScheduling.sol\":892:1077  {... */\n      pop\n        /* \"contracts/PatientScheduling.sol\":783:1077  function modifyAppointment(uint256 appointmentId, uint256 date, uint256 time, string memory location) public {... */\n      pop\n      pop\n      pop\n      pop\n      jump\t// out\n        /* \"contracts/PatientScheduling.sol\":302:333  uint256 public appointmentCount */\n    tag_32:\n      sload(0x01)\n      dup2\n      jump\t// out\n        /* \"#utility.yul\":7:82   */\n    tag_50:\n        /* \"#utility.yul\":40:46   */\n      0x00\n        /* \"#utility.yul\":73:75   */\n      0x40\n        /* \"#utility.yul\":67:76   */\n      mload\n        /* \"#utility.yul\":57:76   */\n      swap1\n      pop\n        /* \"#utility.yul\":7:82   */\n      swap1\n      jump\t// out\n        /* \"#utility.yul\":88:205   */\n    tag_51:\n        /* \"#utility.yul\":197:198   */\n      0x00\n        /* \"#utility.yul\":194:195   */\n      dup1\n        /* \"#utility.yul\":187:199   */\n      revert\n        /* \"#utility.yul\":211:328   */\n    tag_52:\n        /* \"#utility.yul\":320:321   */\n      0x00\n        /* \"#utility.yul\":317:318   */\n      dup1\n        /* \"#utility.yul\":310:322   */\n      revert\n        /* \"#utility.yul\":334:411   */\n    tag_53:\n        /* \"#utility.yul\":371:378   */\n      0x00\n        /* \"#utility.yul\":400:405   */\n      dup2\n        /* \"#utility.yul\":389:405   */\n      swap1\n      pop\n        /* \"#utility.yul\":334:411   */\n      swap2\n      swap1\n      pop\n      jump\t// out\n        /* \"#utility.yul\":417:539   */\n    tag_54:\n        /* \"#utility.yul\":490:514   */\n      tag_102\n        /* \"#utility.yul\":508:513   */\n      dup2\n        /* \"#utility.yul\":490:514   */\n      tag_53\n      jump\t// in\n    tag_102:\n        /* \"#utility.yul\":483:488   */\n      dup2\n        /* \"#utility.yul\":480:515   */\n      eq\n        /* \"#utility.yul\":470:533   */\n      tag_103\n      jumpi\n        /* \"#utility.yul\":529:530   */\n      0x00\n        /* \"#utility.yul\":526:527   */\n      dup1\n        /* \"#utility.yul\":519:531   */\n      revert\n        /* \"#utility.yul\":470:533   */\n    tag_103:\n        /* \"#utility.yul\":417:539   */\n      pop\n      jump\t// out\n        /* \"#utility.yul\":545:684   */\n    tag_55:\n        /* \"#utility.yul\":591:596   */\n      0x00\n        /* \"#utility.yul\":629:635   */\n      dup2\n        /* \"#utility.yul\":616:636   */\n      calldataload\n        /* \"#utility.yul\":607:636   */\n      swap1\n      pop\n        /* \"#utility.yul\":645:678   */\n      tag_105\n        /* \"#utility.yul\":672:677   */\n      dup2\n        /* \"#utility.yul\":645:678   */\n      tag_54\n      jump\t// in\n    tag_105:\n        /* \"#utility.yul\":545:684   */\n      swap3\n      swap2\n      pop\n      pop\n      jump\t// out\n        /* \"#utility.yul\":690:1019   */\n    tag_11:\n        /* \"#utility.yul\":749:755   */\n      0x00\n        /* \"#utility.yul\":798:800   */\n      0x20\n        /* \"#utility.yul\":786:795   */\n      dup3\n        /* \"#utility.yul\":777:784   */\n      dup5\n        /* \"#utility.yul\":773:796   */\n      sub\n        /* \"#utility.yul\":769:801   */\n      slt\n        /* \"#utility.yul\":766:885   */\n      iszero\n      tag_107\n      jumpi\n        /* \"#utility.yul\":804:883   */\n      tag_108\n      tag_51\n      jump\t// in\n    tag_108:\n        /* \"#utility.yul\":766:885   */\n    tag_107:\n        /* \"#utility.yul\":924:925   */\n      0x00\n        /* \"#utility.yul\":949:1002   */\n      tag_109\n        /* \"#utility.yul\":994:1001   */\n      dup5\n        /* \"#utility.yul\":985:991   */\n      dup3\n        /* \"#utility.yul\":974:983   */\n      dup6\n        /* \"#utility.yul\":970:992   */\n      add\n        /* \"#utility.yul\":949:1002   */\n      tag_55\n      jump\t// in\n    tag_109:\n        /* \"#utility.yul\":939:1002   */\n      swap2\n      pop\n        /* \"#utility.yul\":895:1012   */\n      pop\n        /* \"#utility.yul\":690:1019   */\n      swap3\n      swap2\n      pop\n      pop\n      jump\t// out\n        /* \"#utility.yul\":1025:1143   */\n    tag_56:\n        /* \"#utility.yul\":1112:1136   */\n      tag_111\n        /* \"#utility.yul\":1130:1135   */\n      dup2\n        /* \"#utility.yul\":1112:1136   */\n      tag_53\n      jump\t// in\n    tag_111:\n        /* \"#utility.yul\":1107:1110   */\n      dup3\n        /* \"#utility.yul\":1100:1137   */\n      mstore\n        /* \"#utility.yul\":1025:1143   */\n      pop\n      pop\n      jump\t// out\n        /* \"#utility.yul\":1149:1248   */\n    tag_57:\n        /* \"#utility.yul\":1201:1207   */\n      0x00\n        /* \"#utility.yul\":1235:1240   */\n      dup2\n        /* \"#utility.yul\":1229:1241   */\n      mload\n        /* \"#utility.yul\":1219:1241   */\n      swap1\n      pop\n        /* \"#utility.yul\":1149:1248   */\n      swap2\n      swap1\n      pop\n      jump\t// out\n        /* \"#utility.yul\":1254:1423   */\n    tag_58:\n        /* \"#utility.yul\":1338:1349   */\n      0x00\n        /* \"#utility.yul\":1372:1378   */\n      dup3\n        /* \"#utility.yul\":1367:1370   */\n      dup3\n        /* \"#utility.yul\":1360:1379   */\n      mstore\n        /* \"#utility.yul\":1412:1416   */\n      0x20\n        /* \"#utility.yul\":1407:1410   */\n      dup3\n        /* \"#utility.yul\":1403:1417   */\n      add\n        /* \"#utility.yul\":1388:1417   */\n      swap1\n      pop\n        /* \"#utility.yul\":1254:1423   */\n      swap3\n      swap2\n      pop\n      pop\n      jump\t// out\n        /* \"#utility.yul\":1429:1675   */\n    tag_59:\n        /* \"#utility.yul\":1510:1511   */\n      0x00\n        /* \"#utility.yul\":1520:1633   */\n    tag_115:\n        /* \"#utility.yul\":1534:1540   */\n      dup4\n        /* \"#utility.yul\":1531:1532   */\n      dup2\n        /* \"#utility.yul\":1528:1541   */\n      lt\n        /* \"#utility.yul\":1520:1633   */\n      iszero\n      tag_117\n      jumpi\n        /* \"#utility.yul\":1619:1620   */\n      dup1\n        /* \"#utility.yul\":1614:1617   */\n      dup3\n        /* \"#utility.yul\":1610:1621   */\n      add\n        /* \"#utility.yul\":1604:1622   */\n      mload\n        /* \"#utility.yul\":1600:1601   */\n      dup2\n        /* \"#utility.yul\":1595:1598   */\n      dup5\n        /* \"#utility.yul\":1591:1602   */\n      add\n        /* \"#utility.yul\":1584:1623   */\n      mstore\n        /* \"#utility.yul\":1556:1558   */\n      0x20\n        /* \"#utility.yul\":1553:1554   */\n      dup2\n        /* \"#utility.yul\":1549:1559   */\n      add\n        /* \"#utility.yul\":1544:1559   */\n      swap1\n      pop\n        /* \"#utility.yul\":1520:1633   */\n      jump(tag_115)\n    tag_117:\n        /* \"#utility.yul\":1667:1668   */\n      0x00\n        /* \"#utility.yul\":1658:1664   */\n      dup5\n        /* \"#utility.yul\":1653:1656   */\n      dup5\n        /* \"#utility.yul\":1649:1665   */\n      add\n        /* \"#utility.yul\":1642:1669   */\n      mstore\n        /* \"#utility.yul\":1491:1675   */\n      pop\n        /* \"#utility.yul\":1429:1675   */\n      pop\n      pop\n      pop\n      jump\t// out\n        /* \"#utility.yul\":1681:1783   */\n    tag_60:\n        /* \"#utility.yul\":1722:1728   */\n      0x00\n        /* \"#utility.yul\":1773:1775   */\n      0x1f\n        /* \"#utility.yul\":1769:1776   */\n      not\n        /* \"#utility.yul\":1764:1766   */\n      0x1f\n        /* \"#utility.yul\":1757:1762   */\n      dup4\n        /* \"#utility.yul\":1753:1767   */\n      add\n        /* \"#utility.yul\":1749:1777   */\n      and\n        /* \"#utility.yul\":1739:1777   */\n      swap1\n      pop\n        /* \"#utility.yul\":1681:1783   */\n      swap2\n      swap1\n      pop\n      jump\t// out\n        /* \"#utility.yul\":1789:2166   */\n    tag_61:\n        /* \"#utility.yul\":1877:1880   */\n      0x00\n        /* \"#utility.yul\":1905:1944   */\n      tag_120\n        /* \"#utility.yul\":1938:1943   */\n      dup3\n        /* \"#utility.yul\":1905:1944   */\n      tag_57\n      jump\t// in\n    tag_120:\n        /* \"#utility.yul\":1960:2031   */\n      tag_121\n        /* \"#utility.yul\":2024:2030   */\n      dup2\n        /* \"#utility.yul\":2019:2022   */\n      dup6\n        /* \"#utility.yul\":1960:2031   */\n      tag_58\n      jump\t// in\n    tag_121:\n        /* \"#utility.yul\":1953:2031   */\n      swap4\n      pop\n        /* \"#utility.yul\":2040:2105   */\n      tag_122\n        /* \"#utility.yul\":2098:2104   */\n      dup2\n        /* \"#utility.yul\":2093:2096   */\n      dup6\n        /* \"#utility.yul\":2086:2090   */\n      0x20\n        /* \"#utility.yul\":2079:2084   */\n      dup7\n        /* \"#utility.yul\":2075:2091   */\n      add\n        /* \"#utility.yul\":2040:2105   */\n      tag_59\n      jump\t// in\n    tag_122:\n        /* \"#utility.yul\":2130:2159   */\n      tag_123\n        /* \"#utility.yul\":2152:2158   */\n      dup2\n        /* \"#utility.yul\":2130:2159   */\n      tag_60\n      jump\t// in\n    tag_123:\n        /* \"#utility.yul\":2125:2128   */\n      dup5\n        /* \"#utility.yul\":2121:2160   */\n      add\n        /* \"#utility.yul\":2114:2160   */\n      swap2\n      pop\n        /* \"#utility.yul\":1881:2166   */\n      pop\n        /* \"#utility.yul\":1789:2166   */\n      swap3\n      swap2\n      pop\n      pop\n      jump\t// out\n        /* \"#utility.yul\":2172:2298   */\n    tag_62:\n        /* \"#utility.yul\":2209:2216   */\n      0x00\n        /* \"#utility.yul\":2249:2291   */\n      0xffffffffffffffffffffffffffffffffffffffff\n        /* \"#utility.yul\":2242:2247   */\n      dup3\n        /* \"#utility.yul\":2238:2292   */\n      and\n        /* \"#utility.yul\":2227:2292   */\n      swap1\n      pop\n        /* \"#utility.yul\":2172:2298   */\n      swap2\n      swap1\n      pop\n      jump\t// out\n        /* \"#utility.yul\":2304:2400   */\n    tag_63:\n        /* \"#utility.yul\":2341:2348   */\n      0x00\n        /* \"#utility.yul\":2370:2394   */\n      tag_126\n        /* \"#utility.yul\":2388:2393   */\n      dup3\n        /* \"#utility.yul\":2370:2394   */\n      tag_62\n      jump\t// in\n    tag_126:\n        /* \"#utility.yul\":2359:2394   */\n      swap1\n      pop\n        /* \"#utility.yul\":2304:2400   */\n      swap2\n      swap1\n      pop\n      jump\t// out\n        /* \"#utility.yul\":2406:2524   */\n    tag_64:\n        /* \"#utility.yul\":2493:2517   */\n      tag_128\n        /* \"#utility.yul\":2511:2516   */\n      dup2\n        /* \"#utility.yul\":2493:2517   */\n      tag_63\n      jump\t// in\n    tag_128:\n        /* \"#utility.yul\":2488:2491   */\n      dup3\n        /* \"#utility.yul\":2481:2518   */\n      mstore\n        /* \"#utility.yul\":2406:2524   */\n      pop\n      pop\n      jump\t// out\n        /* \"#utility.yul\":2530:2620   */\n    tag_65:\n        /* \"#utility.yul\":2564:2571   */\n      0x00\n        /* \"#utility.yul\":2607:2612   */\n      dup2\n        /* \"#utility.yul\":2600:2613   */\n      iszero\n        /* \"#utility.yul\":2593:2614   */\n      iszero\n        /* \"#utility.yul\":2582:2614   */\n      swap1\n      pop\n        /* \"#utility.yul\":2530:2620   */\n      swap2\n      swap1\n      pop\n      jump\t// out\n        /* \"#utility.yul\":2626:2735   */\n    tag_66:\n        /* \"#utility.yul\":2707:2728   */\n      tag_131\n        /* \"#utility.yul\":2722:2727   */\n      dup2\n        /* \"#utility.yul\":2707:2728   */\n      tag_65\n      jump\t// in\n    tag_131:\n        /* \"#utility.yul\":2702:2705   */\n      dup3\n        /* \"#utility.yul\":2695:2729   */\n      mstore\n        /* \"#utility.yul\":2626:2735   */\n      pop\n      pop\n      jump\t// out\n        /* \"#utility.yul\":2741:3595   */\n    tag_14:\n        /* \"#utility.yul\":2988:2992   */\n      0x00\n        /* \"#utility.yul\":3026:3029   */\n      0xc0\n        /* \"#utility.yul\":3015:3024   */\n      dup3\n        /* \"#utility.yul\":3011:3030   */\n      add\n        /* \"#utility.yul\":3003:3030   */\n      swap1\n      pop\n        /* \"#utility.yul\":3040:3111   */\n      tag_133\n        /* \"#utility.yul\":3108:3109   */\n      0x00\n        /* \"#utility.yul\":3097:3106   */\n      dup4\n        /* \"#utility.yul\":3093:3110   */\n      add\n        /* \"#utility.yul\":3084:3090   */\n      dup10\n        /* \"#utility.yul\":3040:3111   */\n      tag_56\n      jump\t// in\n    tag_133:\n        /* \"#utility.yul\":3121:3193   */\n      tag_134\n        /* \"#utility.yul\":3189:3191   */\n      0x20\n        /* \"#utility.yul\":3178:3187   */\n      dup4\n        /* \"#utility.yul\":3174:3192   */\n      add\n        /* \"#utility.yul\":3165:3171   */\n      dup9\n        /* \"#utility.yul\":3121:3193   */\n      tag_56\n      jump\t// in\n    tag_134:\n        /* \"#utility.yul\":3203:3275   */\n      tag_135\n        /* \"#utility.yul\":3271:3273   */\n      0x40\n        /* \"#utility.yul\":3260:3269   */\n      dup4\n        /* \"#utility.yul\":3256:3274   */\n      add\n        /* \"#utility.yul\":3247:3253   */\n      dup8\n        /* \"#utility.yul\":3203:3275   */\n      tag_56\n      jump\t// in\n    tag_135:\n        /* \"#utility.yul\":3322:3331   */\n      dup2\n        /* \"#utility.yul\":3316:3320   */\n      dup2\n        /* \"#utility.yul\":3312:3332   */\n      sub\n        /* \"#utility.yul\":3307:3309   */\n      0x60\n        /* \"#utility.yul\":3296:3305   */\n      dup4\n        /* \"#utility.yul\":3292:3310   */\n      add\n        /* \"#utility.yul\":3285:3333   */\n      mstore\n        /* \"#utility.yul\":3350:3428   */\n      tag_136\n        /* \"#utility.yul\":3423:3427   */\n      dup2\n        /* \"#utility.yul\":3414:3420   */\n      dup7\n        /* \"#utility.yul\":3350:3428   */\n      tag_61\n      jump\t// in\n    tag_136:\n        /* \"#utility.yul\":3342:3428   */\n      swap1\n      pop\n        /* \"#utility.yul\":3438:3511   */\n      tag_137\n        /* \"#utility.yul\":3506:3509   */\n      0x80\n        /* \"#utility.yul\":3495:3504   */\n      dup4\n        /* \"#utility.yul\":3491:3510   */\n      add\n        /* \"#utility.yul\":3482:3488   */\n      dup6\n        /* \"#utility.yul\":3438:3511   */\n      tag_64\n      jump\t// in\n    tag_137:\n        /* \"#utility.yul\":3521:3588   */\n      tag_138\n        /* \"#utility.yul\":3583:3586   */\n      0xa0\n        /* \"#utility.yul\":3572:3581   */\n      dup4\n        /* \"#utility.yul\":3568:3587   */\n      add\n        /* \"#utility.yul\":3559:3565   */\n      dup5\n        /* \"#utility.yul\":3521:3588   */\n      tag_66\n      jump\t// in\n    tag_138:\n        /* \"#utility.yul\":2741:3595   */\n      swap8\n      swap7\n      pop\n      pop\n      pop\n      pop\n      pop\n      pop\n      pop\n      jump\t// out\n        /* \"#utility.yul\":3601:3811   */\n    tag_19:\n        /* \"#utility.yul\":3688:3692   */\n      0x00\n        /* \"#utility.yul\":3726:3728   */\n      0x20\n        /* \"#utility.yul\":3715:3724   */\n      dup3\n        /* \"#utility.yul\":3711:3729   */\n      add\n        /* \"#utility.yul\":3703:3729   */\n      swap1\n      pop\n        /* \"#utility.yul\":3739:3804   */\n      tag_140\n        /* \"#utility.yul\":3801:3802   */\n      0x00\n        /* \"#utility.yul\":3790:3799   */\n      dup4\n        /* \"#utility.yul\":3786:3803   */\n      add\n        /* \"#utility.yul\":3777:3783   */\n      dup5\n        /* \"#utility.yul\":3739:3804   */\n      tag_66\n      jump\t// in\n    tag_140:\n        /* \"#utility.yul\":3601:3811   */\n      swap3\n      swap2\n      pop\n      pop\n      jump\t// out\n        /* \"#utility.yul\":3817:3939   */\n    tag_67:\n        /* \"#utility.yul\":3890:3914   */\n      tag_142\n        /* \"#utility.yul\":3908:3913   */\n      dup2\n        /* \"#utility.yul\":3890:3914   */\n      tag_63\n      jump\t// in\n    tag_142:\n        /* \"#utility.yul\":3883:3888   */\n      dup2\n        /* \"#utility.yul\":3880:3915   */\n      eq\n        /* \"#utility.yul\":3870:3933   */\n      tag_143\n      jumpi\n        /* \"#utility.yul\":3929:3930   */\n      0x00\n        /* \"#utility.yul\":3926:3927   */\n      dup1\n        /* \"#utility.yul\":3919:3931   */\n      revert\n        /* \"#utility.yul\":3870:3933   */\n    tag_143:\n        /* \"#utility.yul\":3817:3939   */\n      pop\n      jump\t// out\n        /* \"#utility.yul\":3945:4084   */\n    tag_68:\n        /* \"#utility.yul\":3991:3996   */\n      0x00\n        /* \"#utility.yul\":4029:4035   */\n      dup2\n        /* \"#utility.yul\":4016:4036   */\n      calldataload\n        /* \"#utility.yul\":4007:4036   */\n      swap1\n      pop\n        /* \"#utility.yul\":4045:4078   */\n      tag_145\n        /* \"#utility.yul\":4072:4077   */\n      dup2\n        /* \"#utility.yul\":4045:4078   */\n      tag_67\n      jump\t// in\n    tag_145:\n        /* \"#utility.yul\":3945:4084   */\n      swap3\n      swap2\n      pop\n      pop\n      jump\t// out\n        /* \"#utility.yul\":4090:4855   */\n    tag_25:\n        /* \"#utility.yul\":4176:4182   */\n      0x00\n        /* \"#utility.yul\":4184:4190   */\n      dup1\n        /* \"#utility.yul\":4192:4198   */\n      0x00\n        /* \"#utility.yul\":4200:4206   */\n      dup1\n        /* \"#utility.yul\":4249:4252   */\n      0x80\n        /* \"#utility.yul\":4237:4246   */\n      dup6\n        /* \"#utility.yul\":4228:4235   */\n      dup8\n        /* \"#utility.yul\":4224:4247   */\n      sub\n        /* \"#utility.yul\":4220:4253   */\n      slt\n        /* \"#utility.yul\":4217:4337   */\n      iszero\n      tag_147\n      jumpi\n        /* \"#utility.yul\":4256:4335   */\n      tag_148\n      tag_51\n      jump\t// in\n    tag_148:\n        /* \"#utility.yul\":4217:4337   */\n    tag_147:\n        /* \"#utility.yul\":4376:4377   */\n      0x00\n        /* \"#utility.yul\":4401:4454   */\n      tag_149\n        /* \"#utility.yul\":4446:4453   */\n      dup8\n        /* \"#utility.yul\":4437:4443   */\n      dup3\n        /* \"#utility.yul\":4426:4435   */\n      dup9\n        /* \"#utility.yul\":4422:4444   */\n      add\n        /* \"#utility.yul\":4401:4454   */\n      tag_55\n      jump\t// in\n    tag_149:\n        /* \"#utility.yul\":4391:4454   */\n      swap5\n      pop\n        /* \"#utility.yul\":4347:4464   */\n      pop\n        /* \"#utility.yul\":4503:4505   */\n      0x20\n        /* \"#utility.yul\":4529:4582   */\n      tag_150\n        /* \"#utility.yul\":4574:4581   */\n      dup8\n        /* \"#utility.yul\":4565:4571   */\n      dup3\n        /* \"#utility.yul\":4554:4563   */\n      dup9\n        /* \"#utility.yul\":4550:4572   */\n      add\n        /* \"#utility.yul\":4529:4582   */\n      tag_55\n      jump\t// in\n    tag_150:\n        /* \"#utility.yul\":4519:4582   */\n      swap4\n      pop\n        /* \"#utility.yul\":4474:4592   */\n      pop\n        /* \"#utility.yul\":4631:4633   */\n      0x40\n        /* \"#utility.yul\":4657:4710   */\n      tag_151\n        /* \"#utility.yul\":4702:4709   */\n      dup8\n        /* \"#utility.yul\":4693:4699   */\n      dup3\n        /* \"#utility.yul\":4682:4691   */\n      dup9\n        /* \"#utility.yul\":4678:4700   */\n      add\n        /* \"#utility.yul\":4657:4710   */\n      tag_55\n      jump\t// in\n    tag_151:\n        /* \"#utility.yul\":4647:4710   */\n      swap3\n      pop\n        /* \"#utility.yul\":4602:4720   */\n      pop\n        /* \"#utility.yul\":4759:4761   */\n      0x60\n        /* \"#utility.yul\":4785:4838   */\n      tag_152\n        /* \"#utility.yul\":4830:4837   */\n      dup8\n        /* \"#utility.yul\":4821:4827   */\n      dup3\n        /* \"#utility.yul\":4810:4819   */\n      dup9\n        /* \"#utility.yul\":4806:4828   */\n      add\n        /* \"#utility.yul\":4785:4838   */\n      tag_68\n      jump\t// in\n    tag_152:\n        /* \"#utility.yul\":4775:4838   */\n      swap2\n      pop\n        /* \"#utility.yul\":4730:4848   */\n      pop\n        /* \"#utility.yul\":4090:4855   */\n      swap3\n      swap6\n      swap2\n      swap5\n      pop\n      swap3\n      pop\n      jump\t// out\n        /* \"#utility.yul\":4861:4978   */\n    tag_69:\n        /* \"#utility.yul\":4970:4971   */\n      0x00\n        /* \"#utility.yul\":4967:4968   */\n      dup1\n        /* \"#utility.yul\":4960:4972   */\n      revert\n        /* \"#utility.yul\":4984:5101   */\n    tag_70:\n        /* \"#utility.yul\":5093:5094   */\n      0x00\n        /* \"#utility.yul\":5090:5091   */\n      dup1\n        /* \"#utility.yul\":5083:5095   */\n      revert\n        /* \"#utility.yul\":5107:5287   */\n    tag_71:\n        /* \"#utility.yul\":5155:5232   */\n      0x4e487b7100000000000000000000000000000000000000000000000000000000\n        /* \"#utility.yul\":5152:5153   */\n      0x00\n        /* \"#utility.yul\":5145:5233   */\n      mstore\n        /* \"#utility.yul\":5252:5256   */\n      0x41\n        /* \"#utility.yul\":5249:5250   */\n      0x04\n        /* \"#utility.yul\":5242:5257   */\n      mstore\n        /* \"#utility.yul\":5276:5280   */\n      0x24\n        /* \"#utility.yul\":5273:5274   */\n      0x00\n        /* \"#utility.yul\":5266:5281   */\n      revert\n        /* \"#utility.yul\":5293:5574   */\n    tag_72:\n        /* \"#utility.yul\":5376:5403   */\n      tag_157\n        /* \"#utility.yul\":5398:5402   */\n      dup3\n        /* \"#utility.yul\":5376:5403   */\n      tag_60\n      jump\t// in\n    tag_157:\n        /* \"#utility.yul\":5368:5374   */\n      dup2\n        /* \"#utility.yul\":5364:5404   */\n      add\n        /* \"#utility.yul\":5506:5512   */\n      dup2\n        /* \"#utility.yul\":5494:5504   */\n      dup2\n        /* \"#utility.yul\":5491:5513   */\n      lt\n        /* \"#utility.yul\":5470:5488   */\n      0xffffffffffffffff\n        /* \"#utility.yul\":5458:5468   */\n      dup3\n        /* \"#utility.yul\":5455:5489   */\n      gt\n        /* \"#utility.yul\":5452:5514   */\n      or\n        /* \"#utility.yul\":5449:5537   */\n      iszero\n      tag_158\n      jumpi\n        /* \"#utility.yul\":5517:5535   */\n      tag_159\n      tag_71\n      jump\t// in\n    tag_159:\n        /* \"#utility.yul\":5449:5537   */\n    tag_158:\n        /* \"#utility.yul\":5557:5567   */\n      dup1\n        /* \"#utility.yul\":5553:5555   */\n      0x40\n        /* \"#utility.yul\":5546:5568   */\n      mstore\n        /* \"#utility.yul\":5336:5574   */\n      pop\n        /* \"#utility.yul\":5293:5574   */\n      pop\n      pop\n      jump\t// out\n        /* \"#utility.yul\":5580:5709   */\n    tag_73:\n        /* \"#utility.yul\":5614:5620   */\n      0x00\n        /* \"#utility.yul\":5641:5661   */\n      tag_161\n      tag_50\n      jump\t// in\n    tag_161:\n        /* \"#utility.yul\":5631:5661   */\n      swap1\n      pop\n        /* \"#utility.yul\":5670:5703   */\n      tag_162\n        /* \"#utility.yul\":5698:5702   */\n      dup3\n        /* \"#utility.yul\":5690:5696   */\n      dup3\n        /* \"#utility.yul\":5670:5703   */\n      tag_72\n      jump\t// in\n    tag_162:\n        /* \"#utility.yul\":5580:5709   */\n      swap2\n      swap1\n      pop\n      jump\t// out\n        /* \"#utility.yul\":5715:6023   */\n    tag_74:\n        /* \"#utility.yul\":5777:5781   */\n      0x00\n        /* \"#utility.yul\":5867:5885   */\n      0xffffffffffffffff\n        /* \"#utility.yul\":5859:5865   */\n      dup3\n        /* \"#utility.yul\":5856:5886   */\n      gt\n        /* \"#utility.yul\":5853:5909   */\n      iszero\n      tag_164\n      jumpi\n        /* \"#utility.yul\":5889:5907   */\n      tag_165\n      tag_71\n      jump\t// in\n    tag_165:\n        /* \"#utility.yul\":5853:5909   */\n    tag_164:\n        /* \"#utility.yul\":5927:5956   */\n      tag_166\n        /* \"#utility.yul\":5949:5955   */\n      dup3\n        /* \"#utility.yul\":5927:5956   */\n      tag_60\n      jump\t// in\n    tag_166:\n        /* \"#utility.yul\":5919:5956   */\n      swap1\n      pop\n        /* \"#utility.yul\":6011:6015   */\n      0x20\n        /* \"#utility.yul\":6005:6009   */\n      dup2\n        /* \"#utility.yul\":6001:6016   */\n      add\n        /* \"#utility.yul\":5993:6016   */\n      swap1\n      pop\n        /* \"#utility.yul\":5715:6023   */\n      swap2\n      swap1\n      pop\n      jump\t// out\n        /* \"#utility.yul\":6029:6175   */\n    tag_75:\n        /* \"#utility.yul\":6126:6132   */\n      dup3\n        /* \"#utility.yul\":6121:6124   */\n      dup2\n        /* \"#utility.yul\":6116:6119   */\n      dup4\n        /* \"#utility.yul\":6103:6133   */\n      calldatacopy\n        /* \"#utility.yul\":6167:6168   */\n      0x00\n        /* \"#utility.yul\":6158:6164   */\n      dup4\n        /* \"#utility.yul\":6153:6156   */\n      dup4\n        /* \"#utility.yul\":6149:6165   */\n      add\n        /* \"#utility.yul\":6142:6169   */\n      mstore\n        /* \"#utility.yul\":6029:6175   */\n      pop\n      pop\n      pop\n      jump\t// out\n        /* \"#utility.yul\":6181:6606   */\n    tag_76:\n        /* \"#utility.yul\":6259:6264   */\n      0x00\n        /* \"#utility.yul\":6284:6350   */\n      tag_169\n        /* \"#utility.yul\":6300:6349   */\n      tag_170\n        /* \"#utility.yul\":6342:6348   */\n      dup5\n        /* \"#utility.yul\":6300:6349   */\n      tag_74\n      jump\t// in\n    tag_170:\n        /* \"#utility.yul\":6284:6350   */\n      tag_73\n      jump\t// in\n    tag_169:\n        /* \"#utility.yul\":6275:6350   */\n      swap1\n      pop\n        /* \"#utility.yul\":6373:6379   */\n      dup3\n        /* \"#utility.yul\":6366:6371   */\n      dup2\n        /* \"#utility.yul\":6359:6380   */\n      mstore\n        /* \"#utility.yul\":6411:6415   */\n      0x20\n        /* \"#utility.yul\":6404:6409   */\n      dup2\n        /* \"#utility.yul\":6400:6416   */\n      add\n        /* \"#utility.yul\":6449:6452   */\n      dup5\n        /* \"#utility.yul\":6440:6446   */\n      dup5\n        /* \"#utility.yul\":6435:6438   */\n      dup5\n        /* \"#utility.yul\":6431:6447   */\n      add\n        /* \"#utility.yul\":6428:6453   */\n      gt\n        /* \"#utility.yul\":6425:6537   */\n      iszero\n      tag_171\n      jumpi\n        /* \"#utility.yul\":6456:6535   */\n      tag_172\n      tag_70\n      jump\t// in\n    tag_172:\n        /* \"#utility.yul\":6425:6537   */\n    tag_171:\n        /* \"#utility.yul\":6546:6600   */\n      tag_173\n        /* \"#utility.yul\":6593:6599   */\n      dup5\n        /* \"#utility.yul\":6588:6591   */\n      dup3\n        /* \"#utility.yul\":6583:6586   */\n      dup6\n        /* \"#utility.yul\":6546:6600   */\n      tag_75\n      jump\t// in\n    tag_173:\n        /* \"#utility.yul\":6265:6606   */\n      pop\n        /* \"#utility.yul\":6181:6606   */\n      swap4\n      swap3\n      pop\n      pop\n      pop\n      jump\t// out\n        /* \"#utility.yul\":6626:6966   */\n    tag_77:\n        /* \"#utility.yul\":6682:6687   */\n      0x00\n        /* \"#utility.yul\":6731:6734   */\n      dup3\n        /* \"#utility.yul\":6724:6728   */\n      0x1f\n        /* \"#utility.yul\":6716:6722   */\n      dup4\n        /* \"#utility.yul\":6712:6729   */\n      add\n        /* \"#utility.yul\":6708:6735   */\n      slt\n        /* \"#utility.yul\":6698:6820   */\n      tag_175\n      jumpi\n        /* \"#utility.yul\":6739:6818   */\n      tag_176\n      tag_69\n      jump\t// in\n    tag_176:\n        /* \"#utility.yul\":6698:6820   */\n    tag_175:\n        /* \"#utility.yul\":6856:6862   */\n      dup2\n        /* \"#utility.yul\":6843:6863   */\n      calldataload\n        /* \"#utility.yul\":6881:6960   */\n      tag_177\n        /* \"#utility.yul\":6956:6959   */\n      dup5\n        /* \"#utility.yul\":6948:6954   */\n      dup3\n        /* \"#utility.yul\":6941:6945   */\n      0x20\n        /* \"#utility.yul\":6933:6939   */\n      dup7\n        /* \"#utility.yul\":6929:6946   */\n      add\n        /* \"#utility.yul\":6881:6960   */\n      tag_76\n      jump\t// in\n    tag_177:\n        /* \"#utility.yul\":6872:6960   */\n      swap2\n      pop\n        /* \"#utility.yul\":6688:6966   */\n      pop\n        /* \"#utility.yul\":6626:6966   */\n      swap3\n      swap2\n      pop\n      pop\n      jump\t// out\n        /* \"#utility.yul\":6972:7917   */\n    tag_29:\n        /* \"#utility.yul\":7068:7074   */\n      0x00\n        /* \"#utility.yul\":7076:7082   */\n      dup1\n        /* \"#utility.yul\":7084:7090   */\n      0x00\n        /* \"#utility.yul\":7092:7098   */\n      dup1\n        /* \"#utility.yul\":7141:7144   */\n      0x80\n        /* \"#utility.yul\":7129:7138   */\n      dup6\n        /* \"#utility.yul\":7120:7127   */\n      dup8\n        /* \"#utility.yul\":7116:7139   */\n      sub\n        /* \"#utility.yul\":7112:7145   */\n      slt\n        /* \"#utility.yul\":7109:7229   */\n      iszero\n      tag_179\n      jumpi\n        /* \"#utility.yul\":7148:7227   */\n      tag_180\n      tag_51\n      jump\t// in\n    tag_180:\n        /* \"#utility.yul\":7109:7229   */\n    tag_179:\n        /* \"#utility.yul\":7268:7269   */\n      0x00\n        /* \"#utility.yul\":7293:7346   */\n      tag_181\n        /* \"#utility.yul\":7338:7345   */\n      dup8\n        /* \"#utility.yul\":7329:7335   */\n      dup3\n        /* \"#utility.yul\":7318:7327   */\n      dup9\n        /* \"#utility.yul\":7314:7336   */\n      add\n        /* \"#utility.yul\":7293:7346   */\n      tag_55\n      jump\t// in\n    tag_181:\n        /* \"#utility.yul\":7283:7346   */\n      swap5\n      pop\n        /* \"#utility.yul\":7239:7356   */\n      pop\n        /* \"#utility.yul\":7395:7397   */\n      0x20\n        /* \"#utility.yul\":7421:7474   */\n      tag_182\n        /* \"#utility.yul\":7466:7473   */\n      dup8\n        /* \"#utility.yul\":7457:7463   */\n      dup3\n        /* \"#utility.yul\":7446:7455   */\n      dup9\n        /* \"#utility.yul\":7442:7464   */\n      add\n        /* \"#utility.yul\":7421:7474   */\n      tag_55\n      jump\t// in\n    tag_182:\n        /* \"#utility.yul\":7411:7474   */\n      swap4\n      pop\n        /* \"#utility.yul\":7366:7484   */\n      pop\n        /* \"#utility.yul\":7523:7525   */\n      0x40\n        /* \"#utility.yul\":7549:7602   */\n      tag_183\n        /* \"#utility.yul\":7594:7601   */\n      dup8\n        /* \"#utility.yul\":7585:7591   */\n      dup3\n        /* \"#utility.yul\":7574:7583   */\n      dup9\n        /* \"#utility.yul\":7570:7592   */\n      add\n        /* \"#utility.yul\":7549:7602   */\n      tag_55\n      jump\t// in\n    tag_183:\n        /* \"#utility.yul\":7539:7602   */\n      swap3\n      pop\n        /* \"#utility.yul\":7494:7612   */\n      pop\n        /* \"#utility.yul\":7679:7681   */\n      0x60\n        /* \"#utility.yul\":7668:7677   */\n      dup6\n        /* \"#utility.yul\":7664:7682   */\n      add\n        /* \"#utility.yul\":7651:7683   */\n      calldataload\n        /* \"#utility.yul\":7710:7728   */\n      0xffffffffffffffff\n        /* \"#utility.yul\":7702:7708   */\n      dup2\n        /* \"#utility.yul\":7699:7729   */\n      gt\n        /* \"#utility.yul\":7696:7813   */\n      iszero\n      tag_184\n      jumpi\n        /* \"#utility.yul\":7732:7811   */\n      tag_185\n      tag_52\n      jump\t// in\n    tag_185:\n        /* \"#utility.yul\":7696:7813   */\n    tag_184:\n        /* \"#utility.yul\":7837:7900   */\n      tag_186\n        /* \"#utility.yul\":7892:7899   */\n      dup8\n        /* \"#utility.yul\":7883:7889   */\n      dup3\n        /* \"#utility.yul\":7872:7881   */\n      dup9\n        /* \"#utility.yul\":7868:7890   */\n      add\n        /* \"#utility.yul\":7837:7900   */\n      tag_77\n      jump\t// in\n    tag_186:\n        /* \"#utility.yul\":7827:7900   */\n      swap2\n      pop\n        /* \"#utility.yul\":7622:7910   */\n      pop\n        /* \"#utility.yul\":6972:7917   */\n      swap3\n      swap6\n      swap2\n      swap5\n      pop\n      swap3\n      pop\n      jump\t// out\n        /* \"#utility.yul\":7923:8145   */\n    tag_34:\n        /* \"#utility.yul\":8016:8020   */\n      0x00\n        /* \"#utility.yul\":8054:8056   */\n      0x20\n        /* \"#utility.yul\":8043:8052   */\n      dup3\n        /* \"#utility.yul\":8039:8057   */\n      add\n        /* \"#utility.yul\":8031:8057   */\n      swap1\n      pop\n        /* \"#utility.yul\":8067:8138   */\n      tag_188\n        /* \"#utility.yul\":8135:8136   */\n      0x00\n        /* \"#utility.yul\":8124:8133   */\n      dup4\n        /* \"#utility.yul\":8120:8137   */\n      add\n        /* \"#utility.yul\":8111:8117   */\n      dup5\n        /* \"#utility.yul\":8067:8138   */\n      tag_56\n      jump\t// in\n    tag_188:\n        /* \"#utility.yul\":7923:8145   */\n      swap3\n      swap2\n      pop\n      pop\n      jump\t// out\n        /* \"#utility.yul\":8151:8331   */\n    tag_78:\n        /* \"#utility.yul\":8199:8276   */\n      0x4e487b7100000000000000000000000000000000000000000000000000000000\n        /* \"#utility.yul\":8196:8197   */\n      0x00\n        /* \"#utility.yul\":8189:8277   */\n      mstore\n        /* \"#utility.yul\":8296:8300   */\n      0x22\n        /* \"#utility.yul\":8293:8294   */\n      0x04\n        /* \"#utility.yul\":8286:8301   */\n      mstore\n        /* \"#utility.yul\":8320:8324   */\n      0x24\n        /* \"#utility.yul\":8317:8318   */\n      0x00\n        /* \"#utility.yul\":8310:8325   */\n      revert\n        /* \"#utility.yul\":8337:8657   */\n    tag_36:\n        /* \"#utility.yul\":8381:8387   */\n      0x00\n        /* \"#utility.yul\":8418:8419   */\n      0x02\n        /* \"#utility.yul\":8412:8416   */\n      dup3\n        /* \"#utility.yul\":8408:8420   */\n      div\n        /* \"#utility.yul\":8398:8420   */\n      swap1\n      pop\n        /* \"#utility.yul\":8465:8466   */\n      0x01\n        /* \"#utility.yul\":8459:8463   */\n      dup3\n        /* \"#utility.yul\":8455:8467   */\n      and\n        /* \"#utility.yul\":8486:8504   */\n      dup1\n        /* \"#utility.yul\":8476:8557   */\n      tag_191\n      jumpi\n        /* \"#utility.yul\":8542:8546   */\n      0x7f\n        /* \"#utility.yul\":8534:8540   */\n      dup3\n        /* \"#utility.yul\":8530:8547   */\n      and\n        /* \"#utility.yul\":8520:8547   */\n      swap2\n      pop\n        /* \"#utility.yul\":8476:8557   */\n    tag_191:\n        /* \"#utility.yul\":8604:8606   */\n      0x20\n        /* \"#utility.yul\":8596:8602   */\n      dup3\n        /* \"#utility.yul\":8593:8607   */\n      lt\n        /* \"#utility.yul\":8573:8591   */\n      dup2\n        /* \"#utility.yul\":8570:8608   */\n      sub\n        /* \"#utility.yul\":8567:8651   */\n      tag_192\n      jumpi\n        /* \"#utility.yul\":8623:8641   */\n      tag_193\n      tag_78\n      jump\t// in\n    tag_193:\n        /* \"#utility.yul\":8567:8651   */\n    tag_192:\n        /* \"#utility.yul\":8388:8657   */\n      pop\n        /* \"#utility.yul\":8337:8657   */\n      swap2\n      swap1\n      pop\n      jump\t// out\n        /* \"#utility.yul\":8663:8888   */\n    tag_79:\n        /* \"#utility.yul\":8803:8837   */\n      0x54686973206170706f696e746d656e7420736c6f74206973206e6f7420617661\n        /* \"#utility.yul\":8799:8800   */\n      0x00\n        /* \"#utility.yul\":8791:8797   */\n      dup3\n        /* \"#utility.yul\":8787:8801   */\n      add\n        /* \"#utility.yul\":8780:8838   */\n      mstore\n        /* \"#utility.yul\":8872:8880   */\n      0x696c61626c650000000000000000000000000000000000000000000000000000\n        /* \"#utility.yul\":8867:8869   */\n      0x20\n        /* \"#utility.yul\":8859:8865   */\n      dup3\n        /* \"#utility.yul\":8855:8870   */\n      add\n        /* \"#utility.yul\":8848:8881   */\n      mstore\n        /* \"#utility.yul\":8663:8888   */\n      pop\n      jump\t// out\n        /* \"#utility.yul\":8894:9260   */\n    tag_80:\n        /* \"#utility.yul\":9036:9039   */\n      0x00\n        /* \"#utility.yul\":9057:9124   */\n      tag_196\n        /* \"#utility.yul\":9121:9123   */\n      0x26\n        /* \"#utility.yul\":9116:9119   */\n      dup4\n        /* \"#utility.yul\":9057:9124   */\n      tag_58\n      jump\t// in\n    tag_196:\n        /* \"#utility.yul\":9050:9124   */\n      swap2\n      pop\n        /* \"#utility.yul\":9133:9226   */\n      tag_197\n        /* \"#utility.yul\":9222:9225   */\n      dup3\n        /* \"#utility.yul\":9133:9226   */\n      tag_79\n      jump\t// in\n    tag_197:\n        /* \"#utility.yul\":9251:9253   */\n      0x40\n        /* \"#utility.yul\":9246:9249   */\n      dup3\n        /* \"#utility.yul\":9242:9254   */\n      add\n        /* \"#utility.yul\":9235:9254   */\n      swap1\n      pop\n        /* \"#utility.yul\":8894:9260   */\n      swap2\n      swap1\n      pop\n      jump\t// out\n        /* \"#utility.yul\":9266:9685   */\n    tag_46:\n        /* \"#utility.yul\":9432:9436   */\n      0x00\n        /* \"#utility.yul\":9470:9472   */\n      0x20\n        /* \"#utility.yul\":9459:9468   */\n      dup3\n        /* \"#utility.yul\":9455:9473   */\n      add\n        /* \"#utility.yul\":9447:9473   */\n      swap1\n      pop\n        /* \"#utility.yul\":9519:9528   */\n      dup2\n        /* \"#utility.yul\":9513:9517   */\n      dup2\n        /* \"#utility.yul\":9509:9529   */\n      sub\n        /* \"#utility.yul\":9505:9506   */\n      0x00\n        /* \"#utility.yul\":9494:9503   */\n      dup4\n        /* \"#utility.yul\":9490:9507   */\n      add\n        /* \"#utility.yul\":9483:9530   */\n      mstore\n        /* \"#utility.yul\":9547:9678   */\n      tag_199\n        /* \"#utility.yul\":9673:9677   */\n      dup2\n        /* \"#utility.yul\":9547:9678   */\n      tag_80\n      jump\t// in\n    tag_199:\n        /* \"#utility.yul\":9539:9678   */\n      swap1\n      pop\n        /* \"#utility.yul\":9266:9685   */\n      swap2\n      swap1\n      pop\n      jump\t// out\n        /* \"#utility.yul\":9691:9832   */\n    tag_81:\n        /* \"#utility.yul\":9740:9744   */\n      0x00\n        /* \"#utility.yul\":9763:9766   */\n      dup2\n        /* \"#utility.yul\":9755:9766   */\n      swap1\n      pop\n        /* \"#utility.yul\":9786:9789   */\n      dup2\n        /* \"#utility.yul\":9783:9784   */\n      0x00\n        /* \"#utility.yul\":9776:9790   */\n      mstore\n        /* \"#utility.yul\":9820:9824   */\n      0x20\n        /* \"#utility.yul\":9817:9818   */\n      0x00\n        /* \"#utility.yul\":9807:9825   */\n      keccak256\n        /* \"#utility.yul\":9799:9825   */\n      swap1\n      pop\n        /* \"#utility.yul\":9691:9832   */\n      swap2\n      swap1\n      pop\n      jump\t// out\n        /* \"#utility.yul\":9838:9931   */\n    tag_82:\n        /* \"#utility.yul\":9875:9881   */\n      0x00\n        /* \"#utility.yul\":9922:9924   */\n      0x20\n        /* \"#utility.yul\":9917:9919   */\n      0x1f\n        /* \"#utility.yul\":9910:9915   */\n      dup4\n        /* \"#utility.yul\":9906:9920   */\n      add\n        /* \"#utility.yul\":9902:9925   */\n      div\n        /* \"#utility.yul\":9892:9925   */\n      swap1\n      pop\n        /* \"#utility.yul\":9838:9931   */\n      swap2\n      swap1\n      pop\n      jump\t// out\n        /* \"#utility.yul\":9937:10044   */\n    tag_83:\n        /* \"#utility.yul\":9981:9989   */\n      0x00\n        /* \"#utility.yul\":10031:10036   */\n      dup3\n        /* \"#utility.yul\":10025:10029   */\n      dup3\n        /* \"#utility.yul\":10021:10037   */\n      shl\n        /* \"#utility.yul\":10000:10037   */\n      swap1\n      pop\n        /* \"#utility.yul\":9937:10044   */\n      swap3\n      swap2\n      pop\n      pop\n      jump\t// out\n        /* \"#utility.yul\":10050:10443   */\n    tag_84:\n        /* \"#utility.yul\":10119:10125   */\n      0x00\n        /* \"#utility.yul\":10169:10170   */\n      0x08\n        /* \"#utility.yul\":10157:10167   */\n      dup4\n        /* \"#utility.yul\":10153:10171   */\n      mul\n        /* \"#utility.yul\":10192:10289   */\n      tag_204\n        /* \"#utility.yul\":10222:10288   */\n      0xffffffffffffffffffffffffffffffffffffffffffffffffffffffffffffffff\n        /* \"#utility.yul\":10211:10220   */\n      dup3\n        /* \"#utility.yul\":10192:10289   */\n      tag_83\n      jump\t// in\n    tag_204:\n        /* \"#utility.yul\":10310:10349   */\n      tag_205\n        /* \"#utility.yul\":10340:10348   */\n      dup7\n        /* \"#utility.yul\":10329:10338   */\n      dup4\n        /* \"#utility.yul\":10310:10349   */\n      tag_83\n      jump\t// in\n    tag_205:\n        /* \"#utility.yul\":10298:10349   */\n      swap6\n      pop\n        /* \"#utility.yul\":10382:10386   */\n      dup1\n        /* \"#utility.yul\":10378:10387   */\n      not\n        /* \"#utility.yul\":10371:10376   */\n      dup5\n        /* \"#utility.yul\":10367:10388   */\n      and\n        /* \"#utility.yul\":10358:10388   */\n      swap4\n      pop\n        /* \"#utility.yul\":10431:10435   */\n      dup1\n        /* \"#utility.yul\":10421:10429   */\n      dup7\n        /* \"#utility.yul\":10417:10436   */\n      and\n        /* \"#utility.yul\":10410:10415   */\n      dup5\n        /* \"#utility.yul\":10407:10437   */\n      or\n        /* \"#utility.yul\":10397:10437   */\n      swap3\n      pop\n        /* \"#utility.yul\":10126:10443   */\n      pop\n      pop\n        /* \"#utility.yul\":10050:10443   */\n      swap4\n      swap3\n      pop\n      pop\n      pop\n      jump\t// out\n        /* \"#utility.yul\":10449:10509   */\n    tag_85:\n        /* \"#utility.yul\":10477:10480   */\n      0x00\n        /* \"#utility.yul\":10498:10503   */\n      dup2\n        /* \"#utility.yul\":10491:10503   */\n      swap1\n      pop\n        /* \"#utility.yul\":10449:10509   */\n      swap2\n      swap1\n      pop\n      jump\t// out\n        /* \"#utility.yul\":10515:10657   */\n    tag_86:\n        /* \"#utility.yul\":10565:10574   */\n      0x00\n        /* \"#utility.yul\":10598:10651   */\n      tag_208\n        /* \"#utility.yul\":10616:10650   */\n      tag_209\n        /* \"#utility.yul\":10625:10649   */\n      tag_210\n        /* \"#utility.yul\":10643:10648   */\n      dup5\n        /* \"#utility.yul\":10625:10649   */\n      tag_53\n      jump\t// in\n    tag_210:\n        /* \"#utility.yul\":10616:10650   */\n      tag_85\n      jump\t// in\n    tag_209:\n        /* \"#utility.yul\":10598:10651   */\n      tag_53\n      jump\t// in\n    tag_208:\n        /* \"#utility.yul\":10585:10651   */\n      swap1\n      pop\n        /* \"#utility.yul\":10515:10657   */\n      swap2\n      swap1\n      pop\n      jump\t// out\n        /* \"#utility.yul\":10663:10738   */\n    tag_87:\n        /* \"#utility.yul\":10706:10709   */\n      0x00\n        /* \"#utility.yul\":10727:10732   */\n      dup2\n        /* \"#utility.yul\":10720:10732   */\n      swap1\n      pop\n        /* \"#utility.yul\":10663:10738   */\n      swap2\n      swap1\n      pop\n      jump\t// out\n        /* \"#utility.yul\":10744:11013   */\n    tag_88:\n        /* \"#utility.yul\":10854:10893   */\n      tag_213\n        /* \"#utility.yul\":10885:10892   */\n      dup4\n        /* \"#utility.yul\":10854:10893   */\n      tag_86\n      jump\t// in\n    tag_213:\n        /* \"#utility.yul\":10915:11006   */\n      tag_214\n        /* \"#utility.yul\":10964:11005   */\n      tag_215\n        /* \"#utility.yul\":10988:11004   */\n      dup3\n        /* \"#utility.yul\":10964:11005   */\n      tag_87\n      jump\t// in\n    tag_215:\n        /* \"#utility.yul\":10956:10962   */\n      dup5\n        /* \"#utility.yul\":10949:10953   */\n      dup5\n        /* \"#utility.yul\":10943:10954   */\n      sload\n        /* \"#utility.yul\":10915:11006   */\n      tag_84\n      jump\t// in\n    tag_214:\n        /* \"#utility.yul\":10909:10913   */\n      dup3\n        /* \"#utility.yul\":10902:11007   */\n      sstore\n        /* \"#utility.yul\":10820:11013   */\n      pop\n        /* \"#utility.yul\":10744:11013   */\n      pop\n      pop\n      pop\n      jump\t// out\n        /* \"#utility.yul\":11019:11092   */\n    tag_89:\n        /* \"#utility.yul\":11064:11067   */\n      0x00\n        /* \"#utility.yul\":11019:11092   */\n      swap1\n      jump\t// out\n        /* \"#utility.yul\":11098:11287   */\n    tag_90:\n        /* \"#utility.yul\":11175:11207   */\n      tag_218\n      tag_89\n      jump\t// in\n    tag_218:\n        /* \"#utility.yul\":11216:11281   */\n      tag_219\n        /* \"#utility.yul\":11274:11280   */\n      dup2\n        /* \"#utility.yul\":11266:11272   */\n      dup5\n        /* \"#utility.yul\":11260:11264   */\n      dup5\n        /* \"#utility.yul\":11216:11281   */\n      tag_88\n      jump\t// in\n    tag_219:\n        /* \"#utility.yul\":11151:11287   */\n      pop\n        /* \"#utility.yul\":11098:11287   */\n      pop\n      pop\n      jump\t// out\n        /* \"#utility.yul\":11293:11479   */\n    tag_91:\n        /* \"#utility.yul\":11353:11473   */\n    tag_221:\n        /* \"#utility.yul\":11370:11373   */\n      dup2\n        /* \"#utility.yul\":11363:11368   */\n      dup2\n        /* \"#utility.yul\":11360:11374   */\n      lt\n        /* \"#utility.yul\":11353:11473   */\n      iszero\n      tag_223\n      jumpi\n        /* \"#utility.yul\":11424:11463   */\n      tag_224\n        /* \"#utility.yul\":11461:11462   */\n      0x00\n        /* \"#utility.yul\":11454:11459   */\n      dup3\n        /* \"#utility.yul\":11424:11463   */\n      tag_90\n      jump\t// in\n    tag_224:\n        /* \"#utility.yul\":11397:11398   */\n      0x01\n        /* \"#utility.yul\":11390:11395   */\n      dup2\n        /* \"#utility.yul\":11386:11399   */\n      add\n        /* \"#utility.yul\":11377:11399   */\n      swap1\n      pop\n        /* \"#utility.yul\":11353:11473   */\n      jump(tag_221)\n    tag_223:\n        /* \"#utility.yul\":11293:11479   */\n      pop\n      pop\n      jump\t// out\n        /* \"#utility.yul\":11485:12028   */\n    tag_92:\n        /* \"#utility.yul\":11586:11588   */\n      0x1f\n        /* \"#utility.yul\":11581:11584   */\n      dup3\n        /* \"#utility.yul\":11578:11589   */\n      gt\n        /* \"#utility.yul\":11575:12021   */\n      iszero\n      tag_226\n      jumpi\n        /* \"#utility.yul\":11620:11658   */\n      tag_227\n        /* \"#utility.yul\":11652:11657   */\n      dup2\n        /* \"#utility.yul\":11620:11658   */\n      tag_81\n      jump\t// in\n    tag_227:\n        /* \"#utility.yul\":11704:11733   */\n      tag_228\n        /* \"#utility.yul\":11722:11732   */\n      dup5\n        /* \"#utility.yul\":11704:11733   */\n      tag_82\n      jump\t// in\n    tag_228:\n        /* \"#utility.yul\":11694:11702   */\n      dup2\n        /* \"#utility.yul\":11690:11734   */\n      add\n        /* \"#utility.yul\":11887:11889   */\n      0x20\n        /* \"#utility.yul\":11875:11885   */\n      dup6\n        /* \"#utility.yul\":11872:11890   */\n      lt\n        /* \"#utility.yul\":11869:11918   */\n      iszero\n      tag_229\n      jumpi\n        /* \"#utility.yul\":11908:11916   */\n      dup2\n        /* \"#utility.yul\":11893:11916   */\n      swap1\n      pop\n        /* \"#utility.yul\":11869:11918   */\n    tag_229:\n        /* \"#utility.yul\":11931:12011   */\n      tag_230\n        /* \"#utility.yul\":11987:12009   */\n      tag_231\n        /* \"#utility.yul\":12005:12008   */\n      dup6\n        /* \"#utility.yul\":11987:12009   */\n      tag_82\n      jump\t// in\n    tag_231:\n        /* \"#utility.yul\":11977:11985   */\n      dup4\n        /* \"#utility.yul\":11973:12010   */\n      add\n        /* \"#utility.yul\":11960:11971   */\n      dup3\n        /* \"#utility.yul\":11931:12011   */\n      tag_91\n      jump\t// in\n    tag_230:\n        /* \"#utility.yul\":11590:12021   */\n      pop\n      pop\n        /* \"#utility.yul\":11575:12021   */\n    tag_226:\n        /* \"#utility.yul\":11485:12028   */\n      pop\n      pop\n      pop\n      jump\t// out\n        /* \"#utility.yul\":12034:12151   */\n    tag_93:\n        /* \"#utility.yul\":12088:12096   */\n      0x00\n        /* \"#utility.yul\":12138:12143   */\n      dup3\n        /* \"#utility.yul\":12132:12136   */\n      dup3\n        /* \"#utility.yul\":12128:12144   */\n      shr\n        /* \"#utility.yul\":12107:12144   */\n      swap1\n      pop\n        /* \"#utility.yul\":12034:12151   */\n      swap3\n      swap2\n      pop\n      pop\n      jump\t// out\n        /* \"#utility.yul\":12157:12326   */\n    tag_94:\n        /* \"#utility.yul\":12201:12207   */\n      0x00\n        /* \"#utility.yul\":12234:12285   */\n      tag_234\n        /* \"#utility.yul\":12282:12283   */\n      0x00\n        /* \"#utility.yul\":12278:12284   */\n      not\n        /* \"#utility.yul\":12270:12275   */\n      dup5\n        /* \"#utility.yul\":12267:12268   */\n      0x08\n        /* \"#utility.yul\":12263:12276   */\n      mul\n        /* \"#utility.yul\":12234:12285   */\n      tag_93\n      jump\t// in\n    tag_234:\n        /* \"#utility.yul\":12230:12286   */\n      not\n        /* \"#utility.yul\":12315:12319   */\n      dup1\n        /* \"#utility.yul\":12309:12313   */\n      dup4\n        /* \"#utility.yul\":12305:12320   */\n      and\n        /* \"#utility.yul\":12295:12320   */\n      swap2\n      pop\n        /* \"#utility.yul\":12208:12326   */\n      pop\n        /* \"#utility.yul\":12157:12326   */\n      swap3\n      swap2\n      pop\n      pop\n      jump\t// out\n        /* \"#utility.yul\":12331:12626   */\n    tag_95:\n        /* \"#utility.yul\":12407:12411   */\n      0x00\n        /* \"#utility.yul\":12553:12582   */\n      tag_236\n        /* \"#utility.yul\":12578:12581   */\n      dup4\n        /* \"#utility.yul\":12572:12576   */\n      dup4\n        /* \"#utility.yul\":12553:12582   */\n      tag_94\n      jump\t// in\n    tag_236:\n        /* \"#utility.yul\":12545:12582   */\n      swap2\n      pop\n        /* \"#utility.yul\":12615:12618   */\n      dup3\n        /* \"#utility.yul\":12612:12613   */\n      0x02\n        /* \"#utility.yul\":12608:12619   */\n      mul\n        /* \"#utility.yul\":12602:12606   */\n      dup3\n        /* \"#utility.yul\":12599:12620   */\n      or\n        /* \"#utility.yul\":12591:12620   */\n      swap1\n      pop\n        /* \"#utility.yul\":12331:12626   */\n      swap3\n      swap2\n      pop\n      pop\n      jump\t// out\n        /* \"#utility.yul\":12631:14026   */\n    tag_49:\n        /* \"#utility.yul\":12748:12785   */\n      tag_238\n        /* \"#utility.yul\":12781:12784   */\n      dup3\n        /* \"#utility.yul\":12748:12785   */\n      tag_57\n      jump\t// in\n    tag_238:\n        /* \"#utility.yul\":12850:12868   */\n      0xffffffffffffffff\n        /* \"#utility.yul\":12842:12848   */\n      dup2\n        /* \"#utility.yul\":12839:12869   */\n      gt\n        /* \"#utility.yul\":12836:12892   */\n      iszero\n      tag_239\n      jumpi\n        /* \"#utility.yul\":12872:12890   */\n      tag_240\n      tag_71\n      jump\t// in\n    tag_240:\n        /* \"#utility.yul\":12836:12892   */\n    tag_239:\n        /* \"#utility.yul\":12916:12954   */\n      tag_241\n        /* \"#utility.yul\":12948:12952   */\n      dup3\n        /* \"#utility.yul\":12942:12953   */\n      sload\n        /* \"#utility.yul\":12916:12954   */\n      tag_36\n      jump\t// in\n    tag_241:\n        /* \"#utility.yul\":13001:13068   */\n      tag_242\n        /* \"#utility.yul\":13061:13067   */\n      dup3\n        /* \"#utility.yul\":13053:13059   */\n      dup3\n        /* \"#utility.yul\":13047:13051   */\n      dup6\n        /* \"#utility.yul\":13001:13068   */\n      tag_92\n      jump\t// in\n    tag_242:\n        /* \"#utility.yul\":13095:13096   */\n      0x00\n        /* \"#utility.yul\":13119:13123   */\n      0x20\n        /* \"#utility.yul\":13106:13123   */\n      swap1\n      pop\n        /* \"#utility.yul\":13151:13153   */\n      0x1f\n        /* \"#utility.yul\":13143:13149   */\n      dup4\n        /* \"#utility.yul\":13140:13154   */\n      gt\n        /* \"#utility.yul\":13168:13169   */\n      0x01\n        /* \"#utility.yul\":13163:13781   */\n      dup2\n      eq\n      tag_244\n      jumpi\n        /* \"#utility.yul\":13825:13826   */\n      0x00\n        /* \"#utility.yul\":13842:13848   */\n      dup5\n        /* \"#utility.yul\":13839:13916   */\n      iszero\n      tag_245\n      jumpi\n        /* \"#utility.yul\":13891:13900   */\n      dup3\n        /* \"#utility.yul\":13886:13889   */\n      dup8\n        /* \"#utility.yul\":13882:13901   */\n      add\n        /* \"#utility.yul\":13876:13902   */\n      mload\n        /* \"#utility.yul\":13867:13902   */\n      swap1\n      pop\n        /* \"#utility.yul\":13839:13916   */\n    tag_245:\n        /* \"#utility.yul\":13942:14009   */\n      tag_246\n        /* \"#utility.yul\":14002:14008   */\n      dup6\n        /* \"#utility.yul\":13995:14000   */\n      dup3\n        /* \"#utility.yul\":13942:14009   */\n      tag_95\n      jump\t// in\n    tag_246:\n        /* \"#utility.yul\":13936:13940   */\n      dup7\n        /* \"#utility.yul\":13929:14010   */\n      sstore\n        /* \"#utility.yul\":13798:14020   */\n      pop\n        /* \"#utility.yul\":13133:14020   */\n      jump(tag_243)\n        /* \"#utility.yul\":13163:13781   */\n    tag_244:\n        /* \"#utility.yul\":13215:13219   */\n      0x1f\n        /* \"#utility.yul\":13211:13220   */\n      not\n        /* \"#utility.yul\":13203:13209   */\n      dup5\n        /* \"#utility.yul\":13199:13221   */\n      and\n        /* \"#utility.yul\":13249:13286   */\n      tag_247\n        /* \"#utility.yul\":13281:13285   */\n      dup7\n        /* \"#utility.yul\":13249:13286   */\n      tag_81\n      jump\t// in\n    tag_247:\n        /* \"#utility.yul\":13308:13309   */\n      0x00\n        /* \"#utility.yul\":13322:13530   */\n    tag_248:\n        /* \"#utility.yul\":13336:13343   */\n      dup3\n        /* \"#utility.yul\":13333:13334   */\n      dup2\n        /* \"#utility.yul\":13330:13344   */\n      lt\n        /* \"#utility.yul\":13322:13530   */\n      iszero\n      tag_250\n      jumpi\n        /* \"#utility.yul\":13415:13424   */\n      dup5\n        /* \"#utility.yul\":13410:13413   */\n      dup10\n        /* \"#utility.yul\":13406:13425   */\n      add\n        /* \"#utility.yul\":13400:13426   */\n      mload\n        /* \"#utility.yul\":13392:13398   */\n      dup3\n        /* \"#utility.yul\":13385:13427   */\n      sstore\n        /* \"#utility.yul\":13466:13467   */\n      0x01\n        /* \"#utility.yul\":13458:13464   */\n      dup3\n        /* \"#utility.yul\":13454:13468   */\n      add\n        /* \"#utility.yul\":13444:13468   */\n      swap2\n      pop\n        /* \"#utility.yul\":13513:13515   */\n      0x20\n        /* \"#utility.yul\":13502:13511   */\n      dup6\n        /* \"#utility.yul\":13498:13516   */\n      add\n        /* \"#utility.yul\":13485:13516   */\n      swap5\n      pop\n        /* \"#utility.yul\":13359:13363   */\n      0x20\n        /* \"#utility.yul\":13356:13357   */\n      dup2\n        /* \"#utility.yul\":13352:13364   */\n      add\n        /* \"#utility.yul\":13347:13364   */\n      swap1\n      pop\n        /* \"#utility.yul\":13322:13530   */\n      jump(tag_248)\n    tag_250:\n        /* \"#utility.yul\":13558:13564   */\n      dup7\n        /* \"#utility.yul\":13549:13556   */\n      dup4\n        /* \"#utility.yul\":13546:13565   */\n      lt\n        /* \"#utility.yul\":13543:13722   */\n      iszero\n      tag_251\n      jumpi\n        /* \"#utility.yul\":13616:13625   */\n      dup5\n        /* \"#utility.yul\":13611:13614   */\n      dup10\n        /* \"#utility.yul\":13607:13626   */\n      add\n        /* \"#utility.yul\":13601:13627   */\n      mload\n        /* \"#utility.yul\":13659:13707   */\n      tag_252\n        /* \"#utility.yul\":13701:13705   */\n      0x1f\n        /* \"#utility.yul\":13693:13699   */\n      dup10\n        /* \"#utility.yul\":13689:13706   */\n      and\n        /* \"#utility.yul\":13678:13687   */\n      dup3\n        /* \"#utility.yul\":13659:13707   */\n      tag_94\n      jump\t// in\n    tag_252:\n        /* \"#utility.yul\":13651:13657   */\n      dup4\n        /* \"#utility.yul\":13644:13708   */\n      sstore\n        /* \"#utility.yul\":13566:13722   */\n      pop\n        /* \"#utility.yul\":13543:13722   */\n    tag_251:\n        /* \"#utility.yul\":13768:13769   */\n      0x01\n        /* \"#utility.yul\":13764:13765   */\n      0x02\n        /* \"#utility.yul\":13756:13762   */\n      dup9\n        /* \"#utility.yul\":13752:13766   */\n      mul\n        /* \"#utility.yul\":13748:13770   */\n      add\n        /* \"#utility.yul\":13742:13746   */\n      dup9\n        /* \"#utility.yul\":13735:13771   */\n      sstore\n        /* \"#utility.yul\":13170:13781   */\n      pop\n      pop\n      pop\n        /* \"#utility.yul\":13133:14020   */\n    tag_243:\n      pop\n        /* \"#utility.yul\":12723:14026   */\n      pop\n      pop\n      pop\n        /* \"#utility.yul\":12631:14026   */\n      pop\n      pop\n      jump\t// out\n\n    auxdata: 0xa26469706673582212206f7cb57e6ff9620c521405969be1d19704a09d6888974404c6613d7487def4e664736f6c63430008110033\n}\n",
				"bytecode": {
					"linkReferences": {},
					"object": "608060405234801561001057600080fd5b50610c17806100206000396000f3fe608060405234801561001057600080fd5b50600436106100625760003560e01c806312dc901314610067578063753999ef1461009c578063a7e64405146100cc578063dc827389146100e8578063e5a2d7c614610104578063eebc3fb214610120575b600080fd5b610081600480360381019061007c9190610460565b61013e565b60405161009396959493929190610588565b60405180910390f35b6100b660048036038101906100b19190610460565b61022f565b6040516100c391906105f0565b60405180910390f35b6100e660048036038101906100e19190610460565b610260565b005b61010260048036038101906100fd9190610637565b6102ef565b005b61011e600480360381019061011991906107d3565b6103cf565b005b610128610410565b6040516101359190610856565b60405180910390f35b6000602052806000526040600020600091509050806000015490806001015490806002015490806003018054610173906108a0565b80601f016020809104026020016040519081016040528092919081815260200182805461019f906108a0565b80156101ec5780601f106101c1576101008083540402835291602001916101ec565b820191906000526020600020905b8154815290600101906020018083116101cf57829003601f168201915b5050505050908060040160009054906101000a900473ffffffffffffffffffffffffffffffffffffffff16908060040160149054906101000a900460ff16905086565b60008060008084815260200190815260200160002090508060040160149054906101000a900460ff16915050919050565b60008060008381526020019081526020016000209050600081600101819055506000816002018190555060008160040160006101000a81548173ffffffffffffffffffffffffffffffffffffffff021916908373ffffffffffffffffffffffffffffffffffffffff16021790555060018160040160146101000a81548160ff0219169083151502179055505050565b600080600086815260200190815260200160002090508060040160149054906101000a900460ff16610356576040517f08c379a000000000000000000000000000000000000000000000000000000000815260040161034d90610943565b60405180910390fd5b838160010181905550828160020181905550818160040160006101000a81548173ffffffffffffffffffffffffffffffffffffffff021916908373ffffffffffffffffffffffffffffffffffffffff16021790555060008160040160146101000a81548160ff0219169083151502179055505050505050565b60008060008681526020019081526020016000209050838160010181905550828160020181905550818160030190816104089190610b0f565b505050505050565b60015481565b6000604051905090565b600080fd5b600080fd5b6000819050919050565b61043d8161042a565b811461044857600080fd5b50565b60008135905061045a81610434565b92915050565b60006020828403121561047657610475610420565b5b60006104848482850161044b565b91505092915050565b6104968161042a565b82525050565b600081519050919050565b600082825260208201905092915050565b60005b838110156104d65780820151818401526020810190506104bb565b60008484015250505050565b6000601f19601f8301169050919050565b60006104fe8261049c565b61050881856104a7565b93506105188185602086016104b8565b610521816104e2565b840191505092915050565b600073ffffffffffffffffffffffffffffffffffffffff82169050919050565b60006105578261052c565b9050919050565b6105678161054c565b82525050565b60008115159050919050565b6105828161056d565b82525050565b600060c08201905061059d600083018961048d565b6105aa602083018861048d565b6105b7604083018761048d565b81810360608301526105c981866104f3565b90506105d8608083018561055e565b6105e560a0830184610579565b979650505050505050565b60006020820190506106056000830184610579565b92915050565b6106148161054c565b811461061f57600080fd5b50565b6000813590506106318161060b565b92915050565b6000806000806080858703121561065157610650610420565b5b600061065f8782880161044b565b94505060206106708782880161044b565b93505060406106818782880161044b565b925050606061069287828801610622565b91505092959194509250565b600080fd5b600080fd5b7f4e487b7100000000000000000000000000000000000000000000000000000000600052604160045260246000fd5b6106e0826104e2565b810181811067ffffffffffffffff821117156106ff576106fe6106a8565b5b80604052505050565b6000610712610416565b905061071e82826106d7565b919050565b600067ffffffffffffffff82111561073e5761073d6106a8565b5b610747826104e2565b9050602081019050919050565b82818337600083830152505050565b600061077661077184610723565b610708565b905082815260208101848484011115610792576107916106a3565b5b61079d848285610754565b509392505050565b600082601f8301126107ba576107b961069e565b5b81356107ca848260208601610763565b91505092915050565b600080600080608085870312156107ed576107ec610420565b5b60006107fb8782880161044b565b945050602061080c8782880161044b565b935050604061081d8782880161044b565b925050606085013567ffffffffffffffff81111561083e5761083d610425565b5b61084a878288016107a5565b91505092959194509250565b600060208201905061086b600083018461048d565b92915050565b7f4e487b7100000000000000000000000000000000000000000000000000000000600052602260045260246000fd5b600060028204905060018216806108b857607f821691505b6020821081036108cb576108ca610871565b5b50919050565b7f54686973206170706f696e746d656e7420736c6f74206973206e6f742061766160008201527f696c61626c650000000000000000000000000000000000000000000000000000602082015250565b600061092d6026836104a7565b9150610938826108d1565b604082019050919050565b6000602082019050818103600083015261095c81610920565b9050919050565b60008190508160005260206000209050919050565b60006020601f8301049050919050565b600082821b905092915050565b6000600883026109c57fffffffffffffffffffffffffffffffffffffffffffffffffffffffffffffffff82610988565b6109cf8683610988565b95508019841693508086168417925050509392505050565b6000819050919050565b6000610a0c610a07610a028461042a565b6109e7565b61042a565b9050919050565b6000819050919050565b610a26836109f1565b610a3a610a3282610a13565b848454610995565b825550505050565b600090565b610a4f610a42565b610a5a818484610a1d565b505050565b5b81811015610a7e57610a73600082610a47565b600181019050610a60565b5050565b601f821115610ac357610a9481610963565b610a9d84610978565b81016020851015610aac578190505b610ac0610ab885610978565b830182610a5f565b50505b505050565b600082821c905092915050565b6000610ae660001984600802610ac8565b1980831691505092915050565b6000610aff8383610ad5565b9150826002028217905092915050565b610b188261049c565b67ffffffffffffffff811115610b3157610b306106a8565b5b610b3b82546108a0565b610b46828285610a82565b600060209050601f831160018114610b795760008415610b67578287015190505b610b718582610af3565b865550610bd9565b601f198416610b8786610963565b60005b82811015610baf57848901518255600182019150602085019450602081019050610b8a565b86831015610bcc5784890151610bc8601f891682610ad5565b8355505b6001600288020188555050505b50505050505056fea26469706673582212206f7cb57e6ff9620c521405969be1d19704a09d6888974404c6613d7487def4e664736f6c63430008110033",
					"opcodes": "PUSH1 0x80 PUSH1 0x40 MSTORE CALLVALUE DUP1 ISZERO PUSH2 0x10 JUMPI PUSH1 0x0 DUP1 REVERT JUMPDEST POP PUSH2 0xC17 DUP1 PUSH2 0x20 PUSH1 0x0 CODECOPY PUSH1 0x0 RETURN INVALID PUSH1 0x80 PUSH1 0x40 MSTORE CALLVALUE DUP1 ISZERO PUSH2 0x10 JUMPI PUSH1 0x0 DUP1 REVERT JUMPDEST POP PUSH1 0x4 CALLDATASIZE LT PUSH2 0x62 JUMPI PUSH1 0x0 CALLDATALOAD PUSH1 0xE0 SHR DUP1 PUSH4 0x12DC9013 EQ PUSH2 0x67 JUMPI DUP1 PUSH4 0x753999EF EQ PUSH2 0x9C JUMPI DUP1 PUSH4 0xA7E64405 EQ PUSH2 0xCC JUMPI DUP1 PUSH4 0xDC827389 EQ PUSH2 0xE8 JUMPI DUP1 PUSH4 0xE5A2D7C6 EQ PUSH2 0x104 JUMPI DUP1 PUSH4 0xEEBC3FB2 EQ PUSH2 0x120 JUMPI JUMPDEST PUSH1 0x0 DUP1 REVERT JUMPDEST PUSH2 0x81 PUSH1 0x4 DUP1 CALLDATASIZE SUB DUP2 ADD SWAP1 PUSH2 0x7C SWAP2 SWAP1 PUSH2 0x460 JUMP JUMPDEST PUSH2 0x13E JUMP JUMPDEST PUSH1 0x40 MLOAD PUSH2 0x93 SWAP7 SWAP6 SWAP5 SWAP4 SWAP3 SWAP2 SWAP1 PUSH2 0x588 JUMP JUMPDEST PUSH1 0x40 MLOAD DUP1 SWAP2 SUB SWAP1 RETURN JUMPDEST PUSH2 0xB6 PUSH1 0x4 DUP1 CALLDATASIZE SUB DUP2 ADD SWAP1 PUSH2 0xB1 SWAP2 SWAP1 PUSH2 0x460 JUMP JUMPDEST PUSH2 0x22F JUMP JUMPDEST PUSH1 0x40 MLOAD PUSH2 0xC3 SWAP2 SWAP1 PUSH2 0x5F0 JUMP JUMPDEST PUSH1 0x40 MLOAD DUP1 SWAP2 SUB SWAP1 RETURN JUMPDEST PUSH2 0xE6 PUSH1 0x4 DUP1 CALLDATASIZE SUB DUP2 ADD SWAP1 PUSH2 0xE1 SWAP2 SWAP1 PUSH2 0x460 JUMP JUMPDEST PUSH2 0x260 JUMP JUMPDEST STOP JUMPDEST PUSH2 0x102 PUSH1 0x4 DUP1 CALLDATASIZE SUB DUP2 ADD SWAP1 PUSH2 0xFD SWAP2 SWAP1 PUSH2 0x637 JUMP JUMPDEST PUSH2 0x2EF JUMP JUMPDEST STOP JUMPDEST PUSH2 0x11E PUSH1 0x4 DUP1 CALLDATASIZE SUB DUP2 ADD SWAP1 PUSH2 0x119 SWAP2 SWAP1 PUSH2 0x7D3 JUMP JUMPDEST PUSH2 0x3CF JUMP JUMPDEST STOP JUMPDEST PUSH2 0x128 PUSH2 0x410 JUMP JUMPDEST PUSH1 0x40 MLOAD PUSH2 0x135 SWAP2 SWAP1 PUSH2 0x856 JUMP JUMPDEST PUSH1 0x40 MLOAD DUP1 SWAP2 SUB SWAP1 RETURN JUMPDEST PUSH1 0x0 PUSH1 0x20 MSTORE DUP1 PUSH1 0x0 MSTORE PUSH1 0x40 PUSH1 0x0 KECCAK256 PUSH1 0x0 SWAP2 POP SWAP1 POP DUP1 PUSH1 0x0 ADD SLOAD SWAP1 DUP1 PUSH1 0x1 ADD SLOAD SWAP1 DUP1 PUSH1 0x2 ADD SLOAD SWAP1 DUP1 PUSH1 0x3 ADD DUP1 SLOAD PUSH2 0x173 SWAP1 PUSH2 0x8A0 JUMP JUMPDEST DUP1 PUSH1 0x1F ADD PUSH1 0x20 DUP1 SWAP2 DIV MUL PUSH1 0x20 ADD PUSH1 0x40 MLOAD SWAP1 DUP2 ADD PUSH1 0x40 MSTORE DUP1 SWAP3 SWAP2 SWAP1 DUP2 DUP2 MSTORE PUSH1 0x20 ADD DUP3 DUP1 SLOAD PUSH2 0x19F SWAP1 PUSH2 0x8A0 JUMP JUMPDEST DUP1 ISZERO PUSH2 0x1EC JUMPI DUP1 PUSH1 0x1F LT PUSH2 0x1C1 JUMPI PUSH2 0x100 DUP1 DUP4 SLOAD DIV MUL DUP4 MSTORE SWAP2 PUSH1 0x20 ADD SWAP2 PUSH2 0x1EC JUMP JUMPDEST DUP3 ADD SWAP2 SWAP1 PUSH1 0x0 MSTORE PUSH1 0x20 PUSH1 0x0 KECCAK256 SWAP1 JUMPDEST DUP2 SLOAD DUP2 MSTORE SWAP1 PUSH1 0x1 ADD SWAP1 PUSH1 0x20 ADD DUP1 DUP4 GT PUSH2 0x1CF JUMPI DUP3 SWAP1 SUB PUSH1 0x1F AND DUP3 ADD SWAP2 JUMPDEST POP POP POP POP POP SWAP1 DUP1 PUSH1 0x4 ADD PUSH1 0x0 SWAP1 SLOAD SWAP1 PUSH2 0x100 EXP SWAP1 DIV PUSH20 0xFFFFFFFFFFFFFFFFFFFFFFFFFFFFFFFFFFFFFFFF AND SWAP1 DUP1 PUSH1 0x4 ADD PUSH1 0x14 SWAP1 SLOAD SWAP1 PUSH2 0x100 EXP SWAP1 DIV PUSH1 0xFF AND SWAP1 POP DUP7 JUMP JUMPDEST PUSH1 0x0 DUP1 PUSH1 0x0 DUP1 DUP5 DUP2 MSTORE PUSH1 0x20 ADD SWAP1 DUP2 MSTORE PUSH1 0x20 ADD PUSH1 0x0 KECCAK256 SWAP1 POP DUP1 PUSH1 0x4 ADD PUSH1 0x14 SWAP1 SLOAD SWAP1 PUSH2 0x100 EXP SWAP1 DIV PUSH1 0xFF AND SWAP2 POP POP SWAP2 SWAP1 POP JUMP JUMPDEST PUSH1 0x0 DUP1 PUSH1 0x0 DUP4 DUP2 MSTORE PUSH1 0x20 ADD SWAP1 DUP2 MSTORE PUSH1 0x20 ADD PUSH1 0x0 KECCAK256 SWAP1 POP PUSH1 0x0 DUP2 PUSH1 0x1 ADD DUP2 SWAP1 SSTORE POP PUSH1 0x0 DUP2 PUSH1 0x2 ADD DUP2 SWAP1 SSTORE POP PUSH1 0x0 DUP2 PUSH1 0x4 ADD PUSH1 0x0 PUSH2 0x100 EXP DUP2 SLOAD DUP2 PUSH20 0xFFFFFFFFFFFFFFFFFFFFFFFFFFFFFFFFFFFFFFFF MUL NOT AND SWAP1 DUP4 PUSH20 0xFFFFFFFFFFFFFFFFFFFFFFFFFFFFFFFFFFFFFFFF AND MUL OR SWAP1 SSTORE POP PUSH1 0x1 DUP2 PUSH1 0x4 ADD PUSH1 0x14 PUSH2 0x100 EXP DUP2 SLOAD DUP2 PUSH1 0xFF MUL NOT AND SWAP1 DUP4 ISZERO ISZERO MUL OR SWAP1 SSTORE POP POP POP JUMP JUMPDEST PUSH1 0x0 DUP1 PUSH1 0x0 DUP7 DUP2 MSTORE PUSH1 0x20 ADD SWAP1 DUP2 MSTORE PUSH1 0x20 ADD PUSH1 0x0 KECCAK256 SWAP1 POP DUP1 PUSH1 0x4 ADD PUSH1 0x14 SWAP1 SLOAD SWAP1 PUSH2 0x100 EXP SWAP1 DIV PUSH1 0xFF AND PUSH2 0x356 JUMPI PUSH1 0x40 MLOAD PUSH32 0x8C379A000000000000000000000000000000000000000000000000000000000 DUP2 MSTORE PUSH1 0x4 ADD PUSH2 0x34D SWAP1 PUSH2 0x943 JUMP JUMPDEST PUSH1 0x40 MLOAD DUP1 SWAP2 SUB SWAP1 REVERT JUMPDEST DUP4 DUP2 PUSH1 0x1 ADD DUP2 SWAP1 SSTORE POP DUP3 DUP2 PUSH1 0x2 ADD DUP2 SWAP1 SSTORE POP DUP2 DUP2 PUSH1 0x4 ADD PUSH1 0x0 PUSH2 0x100 EXP DUP2 SLOAD DUP2 PUSH20 0xFFFFFFFFFFFFFFFFFFFFFFFFFFFFFFFFFFFFFFFF MUL NOT AND SWAP1 DUP4 PUSH20 0xFFFFFFFFFFFFFFFFFFFFFFFFFFFFFFFFFFFFFFFF AND MUL OR SWAP1 SSTORE POP PUSH1 0x0 DUP2 PUSH1 0x4 ADD PUSH1 0x14 PUSH2 0x100 EXP DUP2 SLOAD DUP2 PUSH1 0xFF MUL NOT AND SWAP1 DUP4 ISZERO ISZERO MUL OR SWAP1 SSTORE POP POP POP POP POP POP JUMP JUMPDEST PUSH1 0x0 DUP1 PUSH1 0x0 DUP7 DUP2 MSTORE PUSH1 0x20 ADD SWAP1 DUP2 MSTORE PUSH1 0x20 ADD PUSH1 0x0 KECCAK256 SWAP1 POP DUP4 DUP2 PUSH1 0x1 ADD DUP2 SWAP1 SSTORE POP DUP3 DUP2 PUSH1 0x2 ADD DUP2 SWAP1 SSTORE POP DUP2 DUP2 PUSH1 0x3 ADD SWAP1 DUP2 PUSH2 0x408 SWAP2 SWAP1 PUSH2 0xB0F JUMP JUMPDEST POP POP POP POP POP POP JUMP JUMPDEST PUSH1 0x1 SLOAD DUP2 JUMP JUMPDEST PUSH1 0x0 PUSH1 0x40 MLOAD SWAP1 POP SWAP1 JUMP JUMPDEST PUSH1 0x0 DUP1 REVERT JUMPDEST PUSH1 0x0 DUP1 REVERT JUMPDEST PUSH1 0x0 DUP2 SWAP1 POP SWAP2 SWAP1 POP JUMP JUMPDEST PUSH2 0x43D DUP2 PUSH2 0x42A JUMP JUMPDEST DUP2 EQ PUSH2 0x448 JUMPI PUSH1 0x0 DUP1 REVERT JUMPDEST POP JUMP JUMPDEST PUSH1 0x0 DUP2 CALLDATALOAD SWAP1 POP PUSH2 0x45A DUP2 PUSH2 0x434 JUMP JUMPDEST SWAP3 SWAP2 POP POP JUMP JUMPDEST PUSH1 0x0 PUSH1 0x20 DUP3 DUP5 SUB SLT ISZERO PUSH2 0x476 JUMPI PUSH2 0x475 PUSH2 0x420 JUMP JUMPDEST JUMPDEST PUSH1 0x0 PUSH2 0x484 DUP5 DUP3 DUP6 ADD PUSH2 0x44B JUMP JUMPDEST SWAP2 POP POP SWAP3 SWAP2 POP POP JUMP JUMPDEST PUSH2 0x496 DUP2 PUSH2 0x42A JUMP JUMPDEST DUP3 MSTORE POP POP JUMP JUMPDEST PUSH1 0x0 DUP2 MLOAD SWAP1 POP SWAP2 SWAP1 POP JUMP JUMPDEST PUSH1 0x0 DUP3 DUP3 MSTORE PUSH1 0x20 DUP3 ADD SWAP1 POP SWAP3 SWAP2 POP POP JUMP JUMPDEST PUSH1 0x0 JUMPDEST DUP4 DUP2 LT ISZERO PUSH2 0x4D6 JUMPI DUP1 DUP3 ADD MLOAD DUP2 DUP5 ADD MSTORE PUSH1 0x20 DUP2 ADD SWAP1 POP PUSH2 0x4BB JUMP JUMPDEST PUSH1 0x0 DUP5 DUP5 ADD MSTORE POP POP POP POP JUMP JUMPDEST PUSH1 0x0 PUSH1 0x1F NOT PUSH1 0x1F DUP4 ADD AND SWAP1 POP SWAP2 SWAP1 POP JUMP JUMPDEST PUSH1 0x0 PUSH2 0x4FE DUP3 PUSH2 0x49C JUMP JUMPDEST PUSH2 0x508 DUP2 DUP6 PUSH2 0x4A7 JUMP JUMPDEST SWAP4 POP PUSH2 0x518 DUP2 DUP6 PUSH1 0x20 DUP7 ADD PUSH2 0x4B8 JUMP JUMPDEST PUSH2 0x521 DUP2 PUSH2 0x4E2 JUMP JUMPDEST DUP5 ADD SWAP2 POP POP SWAP3 SWAP2 POP POP JUMP JUMPDEST PUSH1 0x0 PUSH20 0xFFFFFFFFFFFFFFFFFFFFFFFFFFFFFFFFFFFFFFFF DUP3 AND SWAP1 POP SWAP2 SWAP1 POP JUMP JUMPDEST PUSH1 0x0 PUSH2 0x557 DUP3 PUSH2 0x52C JUMP JUMPDEST SWAP1 POP SWAP2 SWAP1 POP JUMP JUMPDEST PUSH2 0x567 DUP2 PUSH2 0x54C JUMP JUMPDEST DUP3 MSTORE POP POP JUMP JUMPDEST PUSH1 0x0 DUP2 ISZERO ISZERO SWAP1 POP SWAP2 SWAP1 POP JUMP JUMPDEST PUSH2 0x582 DUP2 PUSH2 0x56D JUMP JUMPDEST DUP3 MSTORE POP POP JUMP JUMPDEST PUSH1 0x0 PUSH1 0xC0 DUP3 ADD SWAP1 POP PUSH2 0x59D PUSH1 0x0 DUP4 ADD DUP10 PUSH2 0x48D JUMP JUMPDEST PUSH2 0x5AA PUSH1 0x20 DUP4 ADD DUP9 PUSH2 0x48D JUMP JUMPDEST PUSH2 0x5B7 PUSH1 0x40 DUP4 ADD DUP8 PUSH2 0x48D JUMP JUMPDEST DUP2 DUP2 SUB PUSH1 0x60 DUP4 ADD MSTORE PUSH2 0x5C9 DUP2 DUP7 PUSH2 0x4F3 JUMP JUMPDEST SWAP1 POP PUSH2 0x5D8 PUSH1 0x80 DUP4 ADD DUP6 PUSH2 0x55E JUMP JUMPDEST PUSH2 0x5E5 PUSH1 0xA0 DUP4 ADD DUP5 PUSH2 0x579 JUMP JUMPDEST SWAP8 SWAP7 POP POP POP POP POP POP POP JUMP JUMPDEST PUSH1 0x0 PUSH1 0x20 DUP3 ADD SWAP1 POP PUSH2 0x605 PUSH1 0x0 DUP4 ADD DUP5 PUSH2 0x579 JUMP JUMPDEST SWAP3 SWAP2 POP POP JUMP JUMPDEST PUSH2 0x614 DUP2 PUSH2 0x54C JUMP JUMPDEST DUP2 EQ PUSH2 0x61F JUMPI PUSH1 0x0 DUP1 REVERT JUMPDEST POP JUMP JUMPDEST PUSH1 0x0 DUP2 CALLDATALOAD SWAP1 POP PUSH2 0x631 DUP2 PUSH2 0x60B JUMP JUMPDEST SWAP3 SWAP2 POP POP JUMP JUMPDEST PUSH1 0x0 DUP1 PUSH1 0x0 DUP1 PUSH1 0x80 DUP6 DUP8 SUB SLT ISZERO PUSH2 0x651 JUMPI PUSH2 0x650 PUSH2 0x420 JUMP JUMPDEST JUMPDEST PUSH1 0x0 PUSH2 0x65F DUP8 DUP3 DUP9 ADD PUSH2 0x44B JUMP JUMPDEST SWAP5 POP POP PUSH1 0x20 PUSH2 0x670 DUP8 DUP3 DUP9 ADD PUSH2 0x44B JUMP JUMPDEST SWAP4 POP POP PUSH1 0x40 PUSH2 0x681 DUP8 DUP3 DUP9 ADD PUSH2 0x44B JUMP JUMPDEST SWAP3 POP POP PUSH1 0x60 PUSH2 0x692 DUP8 DUP3 DUP9 ADD PUSH2 0x622 JUMP JUMPDEST SWAP2 POP POP SWAP3 SWAP6 SWAP2 SWAP5 POP SWAP3 POP JUMP JUMPDEST PUSH1 0x0 DUP1 REVERT JUMPDEST PUSH1 0x0 DUP1 REVERT JUMPDEST PUSH32 0x4E487B7100000000000000000000000000000000000000000000000000000000 PUSH1 0x0 MSTORE PUSH1 0x41 PUSH1 0x4 MSTORE PUSH1 0x24 PUSH1 0x0 REVERT JUMPDEST PUSH2 0x6E0 DUP3 PUSH2 0x4E2 JUMP JUMPDEST DUP2 ADD DUP2 DUP2 LT PUSH8 0xFFFFFFFFFFFFFFFF DUP3 GT OR ISZERO PUSH2 0x6FF JUMPI PUSH2 0x6FE PUSH2 0x6A8 JUMP JUMPDEST JUMPDEST DUP1 PUSH1 0x40 MSTORE POP POP POP JUMP JUMPDEST PUSH1 0x0 PUSH2 0x712 PUSH2 0x416 JUMP JUMPDEST SWAP1 POP PUSH2 0x71E DUP3 DUP3 PUSH2 0x6D7 JUMP JUMPDEST SWAP2 SWAP1 POP JUMP JUMPDEST PUSH1 0x0 PUSH8 0xFFFFFFFFFFFFFFFF DUP3 GT ISZERO PUSH2 0x73E JUMPI PUSH2 0x73D PUSH2 0x6A8 JUMP JUMPDEST JUMPDEST PUSH2 0x747 DUP3 PUSH2 0x4E2 JUMP JUMPDEST SWAP1 POP PUSH1 0x20 DUP2 ADD SWAP1 POP SWAP2 SWAP1 POP JUMP JUMPDEST DUP3 DUP2 DUP4 CALLDATACOPY PUSH1 0x0 DUP4 DUP4 ADD MSTORE POP POP POP JUMP JUMPDEST PUSH1 0x0 PUSH2 0x776 PUSH2 0x771 DUP5 PUSH2 0x723 JUMP JUMPDEST PUSH2 0x708 JUMP JUMPDEST SWAP1 POP DUP3 DUP2 MSTORE PUSH1 0x20 DUP2 ADD DUP5 DUP5 DUP5 ADD GT ISZERO PUSH2 0x792 JUMPI PUSH2 0x791 PUSH2 0x6A3 JUMP JUMPDEST JUMPDEST PUSH2 0x79D DUP5 DUP3 DUP6 PUSH2 0x754 JUMP JUMPDEST POP SWAP4 SWAP3 POP POP POP JUMP JUMPDEST PUSH1 0x0 DUP3 PUSH1 0x1F DUP4 ADD SLT PUSH2 0x7BA JUMPI PUSH2 0x7B9 PUSH2 0x69E JUMP JUMPDEST JUMPDEST DUP2 CALLDATALOAD PUSH2 0x7CA DUP5 DUP3 PUSH1 0x20 DUP7 ADD PUSH2 0x763 JUMP JUMPDEST SWAP2 POP POP SWAP3 SWAP2 POP POP JUMP JUMPDEST PUSH1 0x0 DUP1 PUSH1 0x0 DUP1 PUSH1 0x80 DUP6 DUP8 SUB SLT ISZERO PUSH2 0x7ED JUMPI PUSH2 0x7EC PUSH2 0x420 JUMP JUMPDEST JUMPDEST PUSH1 0x0 PUSH2 0x7FB DUP8 DUP3 DUP9 ADD PUSH2 0x44B JUMP JUMPDEST SWAP5 POP POP PUSH1 0x20 PUSH2 0x80C DUP8 DUP3 DUP9 ADD PUSH2 0x44B JUMP JUMPDEST SWAP4 POP POP PUSH1 0x40 PUSH2 0x81D DUP8 DUP3 DUP9 ADD PUSH2 0x44B JUMP JUMPDEST SWAP3 POP POP PUSH1 0x60 DUP6 ADD CALLDATALOAD PUSH8 0xFFFFFFFFFFFFFFFF DUP2 GT ISZERO PUSH2 0x83E JUMPI PUSH2 0x83D PUSH2 0x425 JUMP JUMPDEST JUMPDEST PUSH2 0x84A DUP8 DUP3 DUP9 ADD PUSH2 0x7A5 JUMP JUMPDEST SWAP2 POP POP SWAP3 SWAP6 SWAP2 SWAP5 POP SWAP3 POP JUMP JUMPDEST PUSH1 0x0 PUSH1 0x20 DUP3 ADD SWAP1 POP PUSH2 0x86B PUSH1 0x0 DUP4 ADD DUP5 PUSH2 0x48D JUMP JUMPDEST SWAP3 SWAP2 POP POP JUMP JUMPDEST PUSH32 0x4E487B7100000000000000000000000000000000000000000000000000000000 PUSH1 0x0 MSTORE PUSH1 0x22 PUSH1 0x4 MSTORE PUSH1 0x24 PUSH1 0x0 REVERT JUMPDEST PUSH1 0x0 PUSH1 0x2 DUP3 DIV SWAP1 POP PUSH1 0x1 DUP3 AND DUP1 PUSH2 0x8B8 JUMPI PUSH1 0x7F DUP3 AND SWAP2 POP JUMPDEST PUSH1 0x20 DUP3 LT DUP2 SUB PUSH2 0x8CB JUMPI PUSH2 0x8CA PUSH2 0x871 JUMP JUMPDEST JUMPDEST POP SWAP2 SWAP1 POP JUMP JUMPDEST PUSH32 0x54686973206170706F696E746D656E7420736C6F74206973206E6F7420617661 PUSH1 0x0 DUP3 ADD MSTORE PUSH32 0x696C61626C650000000000000000000000000000000000000000000000000000 PUSH1 0x20 DUP3 ADD MSTORE POP JUMP JUMPDEST PUSH1 0x0 PUSH2 0x92D PUSH1 0x26 DUP4 PUSH2 0x4A7 JUMP JUMPDEST SWAP2 POP PUSH2 0x938 DUP3 PUSH2 0x8D1 JUMP JUMPDEST PUSH1 0x40 DUP3 ADD SWAP1 POP SWAP2 SWAP1 POP JUMP JUMPDEST PUSH1 0x0 PUSH1 0x20 DUP3 ADD SWAP1 POP DUP2 DUP2 SUB PUSH1 0x0 DUP4 ADD MSTORE PUSH2 0x95C DUP2 PUSH2 0x920 JUMP JUMPDEST SWAP1 POP SWAP2 SWAP1 POP JUMP JUMPDEST PUSH1 0x0 DUP2 SWAP1 POP DUP2 PUSH1 0x0 MSTORE PUSH1 0x20 PUSH1 0x0 KECCAK256 SWAP1 POP SWAP2 SWAP1 POP JUMP JUMPDEST PUSH1 0x0 PUSH1 0x20 PUSH1 0x1F DUP4 ADD DIV SWAP1 POP SWAP2 SWAP1 POP JUMP JUMPDEST PUSH1 0x0 DUP3 DUP3 SHL SWAP1 POP SWAP3 SWAP2 POP POP JUMP JUMPDEST PUSH1 0x0 PUSH1 0x8 DUP4 MUL PUSH2 0x9C5 PUSH32 0xFFFFFFFFFFFFFFFFFFFFFFFFFFFFFFFFFFFFFFFFFFFFFFFFFFFFFFFFFFFFFFFF DUP3 PUSH2 0x988 JUMP JUMPDEST PUSH2 0x9CF DUP7 DUP4 PUSH2 0x988 JUMP JUMPDEST SWAP6 POP DUP1 NOT DUP5 AND SWAP4 POP DUP1 DUP7 AND DUP5 OR SWAP3 POP POP POP SWAP4 SWAP3 POP POP POP JUMP JUMPDEST PUSH1 0x0 DUP2 SWAP1 POP SWAP2 SWAP1 POP JUMP JUMPDEST PUSH1 0x0 PUSH2 0xA0C PUSH2 0xA07 PUSH2 0xA02 DUP5 PUSH2 0x42A JUMP JUMPDEST PUSH2 0x9E7 JUMP JUMPDEST PUSH2 0x42A JUMP JUMPDEST SWAP1 POP SWAP2 SWAP1 POP JUMP JUMPDEST PUSH1 0x0 DUP2 SWAP1 POP SWAP2 SWAP1 POP JUMP JUMPDEST PUSH2 0xA26 DUP4 PUSH2 0x9F1 JUMP JUMPDEST PUSH2 0xA3A PUSH2 0xA32 DUP3 PUSH2 0xA13 JUMP JUMPDEST DUP5 DUP5 SLOAD PUSH2 0x995 JUMP JUMPDEST DUP3 SSTORE POP POP POP POP JUMP JUMPDEST PUSH1 0x0 SWAP1 JUMP JUMPDEST PUSH2 0xA4F PUSH2 0xA42 JUMP JUMPDEST PUSH2 0xA5A DUP2 DUP5 DUP5 PUSH2 0xA1D JUMP JUMPDEST POP POP POP JUMP JUMPDEST JUMPDEST DUP2 DUP2 LT ISZERO PUSH2 0xA7E JUMPI PUSH2 0xA73 PUSH1 0x0 DUP3 PUSH2 0xA47 JUMP JUMPDEST PUSH1 0x1 DUP2 ADD SWAP1 POP PUSH2 0xA60 JUMP JUMPDEST POP POP JUMP JUMPDEST PUSH1 0x1F DUP3 GT ISZERO PUSH2 0xAC3 JUMPI PUSH2 0xA94 DUP2 PUSH2 0x963 JUMP JUMPDEST PUSH2 0xA9D DUP5 PUSH2 0x978 JUMP JUMPDEST DUP2 ADD PUSH1 0x20 DUP6 LT ISZERO PUSH2 0xAAC JUMPI DUP2 SWAP1 POP JUMPDEST PUSH2 0xAC0 PUSH2 0xAB8 DUP6 PUSH2 0x978 JUMP JUMPDEST DUP4 ADD DUP3 PUSH2 0xA5F JUMP JUMPDEST POP POP JUMPDEST POP POP POP JUMP JUMPDEST PUSH1 0x0 DUP3 DUP3 SHR SWAP1 POP SWAP3 SWAP2 POP POP JUMP JUMPDEST PUSH1 0x0 PUSH2 0xAE6 PUSH1 0x0 NOT DUP5 PUSH1 0x8 MUL PUSH2 0xAC8 JUMP JUMPDEST NOT DUP1 DUP4 AND SWAP2 POP POP SWAP3 SWAP2 POP POP JUMP JUMPDEST PUSH1 0x0 PUSH2 0xAFF DUP4 DUP4 PUSH2 0xAD5 JUMP JUMPDEST SWAP2 POP DUP3 PUSH1 0x2 MUL DUP3 OR SWAP1 POP SWAP3 SWAP2 POP POP JUMP JUMPDEST PUSH2 0xB18 DUP3 PUSH2 0x49C JUMP JUMPDEST PUSH8 0xFFFFFFFFFFFFFFFF DUP2 GT ISZERO PUSH2 0xB31 JUMPI PUSH2 0xB30 PUSH2 0x6A8 JUMP JUMPDEST JUMPDEST PUSH2 0xB3B DUP3 SLOAD PUSH2 0x8A0 JUMP JUMPDEST PUSH2 0xB46 DUP3 DUP3 DUP6 PUSH2 0xA82 JUMP JUMPDEST PUSH1 0x0 PUSH1 0x20 SWAP1 POP PUSH1 0x1F DUP4 GT PUSH1 0x1 DUP2 EQ PUSH2 0xB79 JUMPI PUSH1 0x0 DUP5 ISZERO PUSH2 0xB67 JUMPI DUP3 DUP8 ADD MLOAD SWAP1 POP JUMPDEST PUSH2 0xB71 DUP6 DUP3 PUSH2 0xAF3 JUMP JUMPDEST DUP7 SSTORE POP PUSH2 0xBD9 JUMP JUMPDEST PUSH1 0x1F NOT DUP5 AND PUSH2 0xB87 DUP7 PUSH2 0x963 JUMP JUMPDEST PUSH1 0x0 JUMPDEST DUP3 DUP2 LT ISZERO PUSH2 0xBAF JUMPI DUP5 DUP10 ADD MLOAD DUP3 SSTORE PUSH1 0x1 DUP3 ADD SWAP2 POP PUSH1 0x20 DUP6 ADD SWAP5 POP PUSH1 0x20 DUP2 ADD SWAP1 POP PUSH2 0xB8A JUMP JUMPDEST DUP7 DUP4 LT ISZERO PUSH2 0xBCC JUMPI DUP5 DUP10 ADD MLOAD PUSH2 0xBC8 PUSH1 0x1F DUP10 AND DUP3 PUSH2 0xAD5 JUMP JUMPDEST DUP4 SSTORE POP JUMPDEST PUSH1 0x1 PUSH1 0x2 DUP9 MUL ADD DUP9 SSTORE POP POP POP JUMPDEST POP POP POP POP POP POP JUMP INVALID LOG2 PUSH5 0x6970667358 0x22 SLT KECCAK256 PUSH16 0x7CB57E6FF9620C521405969BE1D19704 LOG0 SWAP14 PUSH9 0x88974404C6613D7487 0xDE DELEGATECALL 0xE6 PUSH5 0x736F6C6343 STOP ADDMOD GT STOP CALLER "
				},
				"gasEstimates": {
					"creation": {
						"codeDepositCost": "619000",
						"executionCost": "651",
						"totalCost": "619651"
					},
					"external": {
						"appointmentCount()": "2517",
						"appointments(uint256)": "infinite",
						"bookAppointment(uint256,uint256,uint256,address)": "infinite",
						"cancelAppointment(uint256)": "59155",
						"checkAvailability(uint256)": "2891",
						"modifyAppointment(uint256,uint256,uint256,string)": "infinite"
					}
				},
				"methodIdentifiers": {
					"appointmentCount()": "eebc3fb2",
					"appointments(uint256)": "12dc9013",
					"bookAppointment(uint256,uint256,uint256,address)": "dc827389",
					"cancelAppointment(uint256)": "a7e64405",
					"checkAvailability(uint256)": "753999ef",
					"modifyAppointment(uint256,uint256,uint256,string)": "e5a2d7c6"
				}
			},
			"storageLayout": {
				"storage": [
					{
						"astId": 19,
						"contract": "contracts/PatientScheduling.sol:AppointmentScheduler",
						"label": "appointments",
						"offset": 0,
						"slot": "0",
						"type": "t_mapping(t_uint256,t_struct(Appointment)14_storage)"
					},
					{
						"astId": 21,
						"contract": "contracts/PatientScheduling.sol:AppointmentScheduler",
						"label": "appointmentCount",
						"offset": 0,
						"slot": "1",
						"type": "t_uint256"
					}
				],
				"types": {
					"t_address": {
						"encoding": "inplace",
						"label": "address",
						"numberOfBytes": "20"
					},
					"t_bool": {
						"encoding": "inplace",
						"label": "bool",
						"numberOfBytes": "1"
					},
					"t_mapping(t_uint256,t_struct(Appointment)14_storage)": {
						"encoding": "mapping",
						"key": "t_uint256",
						"label": "mapping(uint256 => struct AppointmentScheduler.Appointment)",
						"numberOfBytes": "32",
						"value": "t_struct(Appointment)14_storage"
					},
					"t_string_storage": {
						"encoding": "bytes",
						"label": "string",
						"numberOfBytes": "32"
					},
					"t_struct(Appointment)14_storage": {
						"encoding": "inplace",
						"label": "struct AppointmentScheduler.Appointment",
						"members": [
							{
								"astId": 3,
								"contract": "contracts/PatientScheduling.sol:AppointmentScheduler",
								"label": "id",
								"offset": 0,
								"slot": "0",
								"type": "t_uint256"
							},
							{
								"astId": 5,
								"contract": "contracts/PatientScheduling.sol:AppointmentScheduler",
								"label": "date",
								"offset": 0,
								"slot": "1",
								"type": "t_uint256"
							},
							{
								"astId": 7,
								"contract": "contracts/PatientScheduling.sol:AppointmentScheduler",
								"label": "time",
								"offset": 0,
								"slot": "2",
								"type": "t_uint256"
							},
							{
								"astId": 9,
								"contract": "contracts/PatientScheduling.sol:AppointmentScheduler",
								"label": "location",
								"offset": 0,
								"slot": "3",
								"type": "t_string_storage"
							},
							{
								"astId": 11,
								"contract": "contracts/PatientScheduling.sol:AppointmentScheduler",
								"label": "patientAddress",
								"offset": 0,
								"slot": "4",
								"type": "t_address"
							},
							{
								"astId": 13,
								"contract": "contracts/PatientScheduling.sol:AppointmentScheduler",
								"label": "isAvailable",
								"offset": 20,
								"slot": "4",
								"type": "t_bool"
							}
						],
						"numberOfBytes": "160"
					},
					"t_uint256": {
						"encoding": "inplace",
						"label": "uint256",
						"numberOfBytes": "32"
					}
				}
			},
			"userdoc": {
				"kind": "user",
				"methods": {},
				"version": 1
			}
		}
	}
}