{
	"contracts/AppointmentScheduler.sol": {
		"AppointmentScheduler": {
			"abi": [
				{
					"inputs": [
						{
							"internalType": "bytes32",
							"name": "",
							"type": "bytes32"
						}
					],
					"name": "appointmentStatus",
					"outputs": [
						{
							"internalType": "bool",
							"name": "",
							"type": "bool"
						}
					],
					"stateMutability": "view",
					"type": "function"
				},
				{
					"inputs": [
						{
							"internalType": "bytes32",
							"name": "",
							"type": "bytes32"
						}
					],
					"name": "appointments",
					"outputs": [
						{
							"internalType": "bytes32",
							"name": "id",
							"type": "bytes32"
						},
						{
							"internalType": "uint256",
							"name": "appointmentDate",
							"type": "uint256"
						},
						{
							"internalType": "uint256",
							"name": "appointmentTime",
							"type": "uint256"
						},
						{
							"internalType": "address",
							"name": "patientAddress",
							"type": "address"
						},
						{
							"internalType": "address",
							"name": "doctorAddress",
							"type": "address"
						},
						{
							"internalType": "string",
							"name": "reminderMethod",
							"type": "string"
						},
						{
							"internalType": "uint256",
							"name": "reminderBeforeInMins",
							"type": "uint256"
						},
						{
							"internalType": "string",
							"name": "message",
							"type": "string"
						}
					],
					"stateMutability": "view",
					"type": "function"
				},
				{
					"inputs": [
						{
							"components": [
								{
									"internalType": "bytes32",
									"name": "id",
									"type": "bytes32"
								},
								{
									"internalType": "uint256",
									"name": "appointmentDate",
									"type": "uint256"
								},
								{
									"internalType": "uint256",
									"name": "appointmentTime",
									"type": "uint256"
								},
								{
									"internalType": "address",
									"name": "patientAddress",
									"type": "address"
								},
								{
									"internalType": "address",
									"name": "doctorAddress",
									"type": "address"
								},
								{
									"internalType": "string",
									"name": "reminderMethod",
									"type": "string"
								},
								{
									"internalType": "uint256",
									"name": "reminderBeforeInMins",
									"type": "uint256"
								},
								{
									"internalType": "string",
									"name": "message",
									"type": "string"
								}
							],
							"internalType": "struct Appointment.AppointmentRecord",
							"name": "appointment",
							"type": "tuple"
						}
					],
					"name": "bookAppointment",
					"outputs": [
						{
							"components": [
								{
									"internalType": "bytes32",
									"name": "id",
									"type": "bytes32"
								},
								{
									"internalType": "uint256",
									"name": "appointmentDate",
									"type": "uint256"
								},
								{
									"internalType": "uint256",
									"name": "appointmentTime",
									"type": "uint256"
								},
								{
									"internalType": "address",
									"name": "patientAddress",
									"type": "address"
								},
								{
									"internalType": "address",
									"name": "doctorAddress",
									"type": "address"
								},
								{
									"internalType": "string",
									"name": "reminderMethod",
									"type": "string"
								},
								{
									"internalType": "uint256",
									"name": "reminderBeforeInMins",
									"type": "uint256"
								},
								{
									"internalType": "string",
									"name": "message",
									"type": "string"
								}
							],
							"internalType": "struct Appointment.AppointmentRecord",
							"name": "",
							"type": "tuple"
						}
					],
					"stateMutability": "nonpayable",
					"type": "function"
				},
				{
					"inputs": [
						{
							"internalType": "bytes32",
							"name": "apptId",
							"type": "bytes32"
						}
					],
					"name": "cancelAppointment",
					"outputs": [],
					"stateMutability": "nonpayable",
					"type": "function"
				},
				{
					"inputs": [
						{
							"internalType": "bytes32",
							"name": "slot",
							"type": "bytes32"
						}
					],
					"name": "checkAvailability",
					"outputs": [
						{
							"internalType": "bool",
							"name": "",
							"type": "bool"
						}
					],
					"stateMutability": "view",
					"type": "function"
				},
				{
					"inputs": [
						{
							"internalType": "bytes32",
							"name": "apptId",
							"type": "bytes32"
						}
					],
					"name": "getAppointment",
					"outputs": [
						{
							"components": [
								{
									"internalType": "bytes32",
									"name": "id",
									"type": "bytes32"
								},
								{
									"internalType": "uint256",
									"name": "appointmentDate",
									"type": "uint256"
								},
								{
									"internalType": "uint256",
									"name": "appointmentTime",
									"type": "uint256"
								},
								{
									"internalType": "address",
									"name": "patientAddress",
									"type": "address"
								},
								{
									"internalType": "address",
									"name": "doctorAddress",
									"type": "address"
								},
								{
									"internalType": "string",
									"name": "reminderMethod",
									"type": "string"
								},
								{
									"internalType": "uint256",
									"name": "reminderBeforeInMins",
									"type": "uint256"
								},
								{
									"internalType": "string",
									"name": "message",
									"type": "string"
								}
							],
							"internalType": "struct Appointment.AppointmentRecord",
							"name": "",
							"type": "tuple"
						}
					],
					"stateMutability": "view",
					"type": "function"
				},
				{
					"inputs": [
						{
							"internalType": "uint256",
							"name": "date",
							"type": "uint256"
						},
						{
							"internalType": "uint256",
							"name": "time",
							"type": "uint256"
						}
					],
					"name": "getHashId",
					"outputs": [
						{
							"internalType": "bytes32",
							"name": "",
							"type": "bytes32"
						}
					],
					"stateMutability": "pure",
					"type": "function"
				},
				{
					"inputs": [
						{
							"internalType": "bytes32",
							"name": "apptId",
							"type": "bytes32"
						},
						{
							"components": [
								{
									"internalType": "bytes32",
									"name": "id",
									"type": "bytes32"
								},
								{
									"internalType": "uint256",
									"name": "appointmentDate",
									"type": "uint256"
								},
								{
									"internalType": "uint256",
									"name": "appointmentTime",
									"type": "uint256"
								},
								{
									"internalType": "address",
									"name": "patientAddress",
									"type": "address"
								},
								{
									"internalType": "address",
									"name": "doctorAddress",
									"type": "address"
								},
								{
									"internalType": "string",
									"name": "reminderMethod",
									"type": "string"
								},
								{
									"internalType": "uint256",
									"name": "reminderBeforeInMins",
									"type": "uint256"
								},
								{
									"internalType": "string",
									"name": "message",
									"type": "string"
								}
							],
							"internalType": "struct Appointment.AppointmentRecord",
							"name": "_appointment",
							"type": "tuple"
						}
					],
					"name": "modifyAppointment",
					"outputs": [
						{
							"components": [
								{
									"internalType": "bytes32",
									"name": "id",
									"type": "bytes32"
								},
								{
									"internalType": "uint256",
									"name": "appointmentDate",
									"type": "uint256"
								},
								{
									"internalType": "uint256",
									"name": "appointmentTime",
									"type": "uint256"
								},
								{
									"internalType": "address",
									"name": "patientAddress",
									"type": "address"
								},
								{
									"internalType": "address",
									"name": "doctorAddress",
									"type": "address"
								},
								{
									"internalType": "string",
									"name": "reminderMethod",
									"type": "string"
								},
								{
									"internalType": "uint256",
									"name": "reminderBeforeInMins",
									"type": "uint256"
								},
								{
									"internalType": "string",
									"name": "message",
									"type": "string"
								}
							],
							"internalType": "struct Appointment.AppointmentRecord",
							"name": "",
							"type": "tuple"
						}
					],
					"stateMutability": "nonpayable",
					"type": "function"
				}
			],
			"devdoc": {
				"kind": "dev",
				"methods": {},
				"version": 1
			},
			"evm": {
				"assembly": "    /* \"contracts/AppointmentScheduler.sol\":185:3070  contract AppointmentScheduler {... */\n  mstore(0x40, 0x80)\n  callvalue\n  dup1\n  iszero\n  tag_1\n  jumpi\n  0x00\n  dup1\n  revert\ntag_1:\n  pop\n  dataSize(sub_0)\n  dup1\n  dataOffset(sub_0)\n  0x00\n  codecopy\n  0x00\n  return\nstop\n\nsub_0: assembly {\n        /* \"contracts/AppointmentScheduler.sol\":185:3070  contract AppointmentScheduler {... */\n      mstore(0x40, 0x80)\n      callvalue\n      dup1\n      iszero\n      tag_1\n      jumpi\n      0x00\n      dup1\n      revert\n    tag_1:\n      pop\n      jumpi(tag_2, lt(calldatasize, 0x04))\n      shr(0xe0, calldataload(0x00))\n      dup1\n      0xce2a18ce\n      gt\n      tag_11\n      jumpi\n      dup1\n      0xce2a18ce\n      eq\n      tag_7\n      jumpi\n      dup1\n      0xdd534bde\n      eq\n      tag_8\n      jumpi\n      dup1\n      0xe6ab0f59\n      eq\n      tag_9\n      jumpi\n      dup1\n      0xfe7ec2d6\n      eq\n      tag_10\n      jumpi\n      jump(tag_2)\n    tag_11:\n      dup1\n      0x1a0cc30b\n      eq\n      tag_3\n      jumpi\n      dup1\n      0x4e01bb35\n      eq\n      tag_4\n      jumpi\n      dup1\n      0xad36769b\n      eq\n      tag_5\n      jumpi\n      dup1\n      0xc667e4ff\n      eq\n      tag_6\n      jumpi\n    tag_2:\n      0x00\n      dup1\n      revert\n        /* \"contracts/AppointmentScheduler.sol\":2929:3068  function getHashId(uint256 date, uint256 time) public pure returns (bytes32){... */\n    tag_3:\n      tag_12\n      0x04\n      dup1\n      calldatasize\n      sub\n      dup2\n      add\n      swap1\n      tag_13\n      swap2\n      swap1\n      tag_14\n      jump\t// in\n    tag_13:\n      tag_15\n      jump\t// in\n    tag_12:\n      mload(0x40)\n      tag_16\n      swap2\n      swap1\n      tag_17\n      jump\t// in\n    tag_16:\n      mload(0x40)\n      dup1\n      swap2\n      sub\n      swap1\n      return\n        /* \"contracts/AppointmentScheduler.sol\":1412:2285  function modifyAppointment(bytes32 apptId,Appointment.AppointmentRecord memory _appointment) external returns (Appointment.AppointmentRecord memory){... */\n    tag_4:\n      tag_18\n      0x04\n      dup1\n      calldatasize\n      sub\n      dup2\n      add\n      swap1\n      tag_19\n      swap2\n      swap1\n      tag_20\n      jump\t// in\n    tag_19:\n      tag_21\n      jump\t// in\n    tag_18:\n      mload(0x40)\n      tag_22\n      swap2\n      swap1\n      tag_23\n      jump\t// in\n    tag_22:\n      mload(0x40)\n      dup1\n      swap2\n      sub\n      swap1\n      return\n        /* \"contracts/AppointmentScheduler.sol\":279:349  mapping (bytes32 => Appointment.AppointmentRecord) public appointments */\n    tag_5:\n      tag_24\n      0x04\n      dup1\n      calldatasize\n      sub\n      dup2\n      add\n      swap1\n      tag_25\n      swap2\n      swap1\n      tag_26\n      jump\t// in\n    tag_25:\n      tag_27\n      jump\t// in\n    tag_24:\n      mload(0x40)\n      tag_28\n      swap9\n      swap8\n      swap7\n      swap6\n      swap5\n      swap4\n      swap3\n      swap2\n      swap1\n      tag_29\n      jump\t// in\n    tag_28:\n      mload(0x40)\n      dup1\n      swap2\n      sub\n      swap1\n      return\n        /* \"contracts/AppointmentScheduler.sol\":2673:2796  function checkAvailability(bytes32 slot) public view returns (bool) {        ... */\n    tag_6:\n      tag_30\n      0x04\n      dup1\n      calldatasize\n      sub\n      dup2\n      add\n      swap1\n      tag_31\n      swap2\n      swap1\n      tag_26\n      jump\t// in\n    tag_31:\n      tag_32\n      jump\t// in\n    tag_30:\n      mload(0x40)\n      tag_33\n      swap2\n      swap1\n      tag_34\n      jump\t// in\n    tag_33:\n      mload(0x40)\n      dup1\n      swap2\n      sub\n      swap1\n      return\n        /* \"contracts/AppointmentScheduler.sol\":2481:2620  function getAppointment(bytes32 apptId) public view returns (Appointment.AppointmentRecord memory) {... */\n    tag_7:\n      tag_35\n      0x04\n      dup1\n      calldatasize\n      sub\n      dup2\n      add\n      swap1\n      tag_36\n      swap2\n      swap1\n      tag_26\n      jump\t// in\n    tag_36:\n      tag_37\n      jump\t// in\n    tag_35:\n      mload(0x40)\n      tag_38\n      swap2\n      swap1\n      tag_23\n      jump\t// in\n    tag_38:\n      mload(0x40)\n      dup1\n      swap2\n      sub\n      swap1\n      return\n        /* \"contracts/AppointmentScheduler.sol\":751:1402  function bookAppointment(Appointment.AppointmentRecord memory appointment) external returns (Appointment.AppointmentRecord memory){        ... */\n    tag_8:\n      tag_39\n      0x04\n      dup1\n      calldatasize\n      sub\n      dup2\n      add\n      swap1\n      tag_40\n      swap2\n      swap1\n      tag_41\n      jump\t// in\n    tag_40:\n      tag_42\n      jump\t// in\n    tag_39:\n      mload(0x40)\n      tag_43\n      swap2\n      swap1\n      tag_23\n      jump\t// in\n    tag_43:\n      mload(0x40)\n      dup1\n      swap2\n      sub\n      swap1\n      return\n        /* \"contracts/AppointmentScheduler.sol\":2295:2404  function cancelAppointment(bytes32 apptId) external {        ... */\n    tag_9:\n      tag_44\n      0x04\n      dup1\n      calldatasize\n      sub\n      dup2\n      add\n      swap1\n      tag_45\n      swap2\n      swap1\n      tag_26\n      jump\t// in\n    tag_45:\n      tag_46\n      jump\t// in\n    tag_44:\n      stop\n        /* \"contracts/AppointmentScheduler.sol\":359:408  mapping(bytes32 => bool) public appointmentStatus */\n    tag_10:\n      tag_47\n      0x04\n      dup1\n      calldatasize\n      sub\n      dup2\n      add\n      swap1\n      tag_48\n      swap2\n      swap1\n      tag_26\n      jump\t// in\n    tag_48:\n      tag_49\n      jump\t// in\n    tag_47:\n      mload(0x40)\n      tag_50\n      swap2\n      swap1\n      tag_34\n      jump\t// in\n    tag_50:\n      mload(0x40)\n      dup1\n      swap2\n      sub\n      swap1\n      return\n        /* \"contracts/AppointmentScheduler.sol\":2929:3068  function getHashId(uint256 date, uint256 time) public pure returns (bytes32){... */\n    tag_15:\n        /* \"contracts/AppointmentScheduler.sol\":2997:3004  bytes32 */\n      0x00\n        /* \"contracts/AppointmentScheduler.sol\":3049:3053  date */\n      dup3\n        /* \"contracts/AppointmentScheduler.sol\":3055:3059  time */\n      dup3\n        /* \"contracts/AppointmentScheduler.sol\":3032:3060  abi.encodePacked(date, time) */\n      add(0x20, mload(0x40))\n      tag_52\n      swap3\n      swap2\n      swap1\n      tag_53\n      jump\t// in\n    tag_52:\n      mload(0x40)\n      0x20\n      dup2\n      dup4\n      sub\n      sub\n      dup2\n      mstore\n      swap1\n      0x40\n      mstore\n        /* \"contracts/AppointmentScheduler.sol\":3022:3061  keccak256(abi.encodePacked(date, time)) */\n      dup1\n      mload\n      swap1\n      0x20\n      add\n      keccak256\n        /* \"contracts/AppointmentScheduler.sol\":3015:3061  return keccak256(abi.encodePacked(date, time)) */\n      swap1\n      pop\n        /* \"contracts/AppointmentScheduler.sol\":2929:3068  function getHashId(uint256 date, uint256 time) public pure returns (bytes32){... */\n      swap3\n      swap2\n      pop\n      pop\n      jump\t// out\n        /* \"contracts/AppointmentScheduler.sol\":1412:2285  function modifyAppointment(bytes32 apptId,Appointment.AppointmentRecord memory _appointment) external returns (Appointment.AppointmentRecord memory){... */\n    tag_21:\n        /* \"contracts/AppointmentScheduler.sol\":1523:1559  Appointment.AppointmentRecord memory */\n      tag_54\n      tag_55\n      jump\t// in\n    tag_54:\n        /* \"contracts/AppointmentScheduler.sol\":1635:1645  bytes32 id */\n      0x00\n        /* \"contracts/AppointmentScheduler.sol\":1648:1716  getHashId(_appointment.appointmentDate,_appointment.appointmentTime) */\n      tag_57\n        /* \"contracts/AppointmentScheduler.sol\":1658:1670  _appointment */\n      dup4\n        /* \"contracts/AppointmentScheduler.sol\":1658:1686  _appointment.appointmentDate */\n      0x20\n      add\n      mload\n        /* \"contracts/AppointmentScheduler.sol\":1687:1699  _appointment */\n      dup5\n        /* \"contracts/AppointmentScheduler.sol\":1687:1715  _appointment.appointmentTime */\n      0x40\n      add\n      mload\n        /* \"contracts/AppointmentScheduler.sol\":1648:1657  getHashId */\n      tag_15\n        /* \"contracts/AppointmentScheduler.sol\":1648:1716  getHashId(_appointment.appointmentDate,_appointment.appointmentTime) */\n      jump\t// in\n    tag_57:\n        /* \"contracts/AppointmentScheduler.sol\":1635:1716  bytes32 id = getHashId(_appointment.appointmentDate,_appointment.appointmentTime) */\n      swap1\n      pop\n        /* \"contracts/AppointmentScheduler.sol\":1739:1741  id */\n      dup1\n        /* \"contracts/AppointmentScheduler.sol\":1729:1735  apptId */\n      dup5\n        /* \"contracts/AppointmentScheduler.sol\":1729:1741  apptId != id */\n      eq\n        /* \"contracts/AppointmentScheduler.sol\":1726:2203  if(apptId != id){... */\n      tag_58\n      jumpi\n        /* \"contracts/AppointmentScheduler.sol\":1764:1781  appointmentStatus */\n      0x01\n        /* \"contracts/AppointmentScheduler.sol\":1764:1785  appointmentStatus[id] */\n      0x00\n        /* \"contracts/AppointmentScheduler.sol\":1782:1784  id */\n      dup3\n        /* \"contracts/AppointmentScheduler.sol\":1764:1785  appointmentStatus[id] */\n      dup2\n      mstore\n      0x20\n      add\n      swap1\n      dup2\n      mstore\n      0x20\n      add\n      0x00\n      keccak256\n      0x00\n      swap1\n      sload\n      swap1\n      0x0100\n      exp\n      swap1\n      div\n      0xff\n      and\n        /* \"contracts/AppointmentScheduler.sol\":1756:1828  require(appointmentStatus[id], \"This appointment slot is not available\") */\n      tag_59\n      jumpi\n      mload(0x40)\n      0x08c379a000000000000000000000000000000000000000000000000000000000\n      dup2\n      mstore\n      0x04\n      add\n      tag_60\n      swap1\n      tag_61\n      jump\t// in\n    tag_60:\n      mload(0x40)\n      dup1\n      swap2\n      sub\n      swap1\n      revert\n    tag_59:\n        /* \"contracts/AppointmentScheduler.sol\":1861:1873  _appointment */\n      dup3\n        /* \"contracts/AppointmentScheduler.sol\":1842:1854  appointments */\n      0x00\n        /* \"contracts/AppointmentScheduler.sol\":1842:1858  appointments[id] */\n      dup1\n        /* \"contracts/AppointmentScheduler.sol\":1855:1857  id */\n      dup4\n        /* \"contracts/AppointmentScheduler.sol\":1842:1858  appointments[id] */\n      dup2\n      mstore\n      0x20\n      add\n      swap1\n      dup2\n      mstore\n      0x20\n      add\n      0x00\n      keccak256\n        /* \"contracts/AppointmentScheduler.sol\":1842:1873  appointments[id] = _appointment */\n      0x00\n      dup3\n      add\n      mload\n      dup2\n      0x00\n      add\n      sstore\n      0x20\n      dup3\n      add\n      mload\n      dup2\n      0x01\n      add\n      sstore\n      0x40\n      dup3\n      add\n      mload\n      dup2\n      0x02\n      add\n      sstore\n      0x60\n      dup3\n      add\n      mload\n      dup2\n      0x03\n      add\n      exp(0x0100, 0x00)\n      dup2\n      sload\n      dup2\n      0xffffffffffffffffffffffffffffffffffffffff\n      mul\n      not\n      and\n      swap1\n      dup4\n      0xffffffffffffffffffffffffffffffffffffffff\n      and\n      mul\n      or\n      swap1\n      sstore\n      pop\n      0x80\n      dup3\n      add\n      mload\n      dup2\n      0x04\n      add\n      exp(0x0100, 0x00)\n      dup2\n      sload\n      dup2\n      0xffffffffffffffffffffffffffffffffffffffff\n      mul\n      not\n      and\n      swap1\n      dup4\n      0xffffffffffffffffffffffffffffffffffffffff\n      and\n      mul\n      or\n      swap1\n      sstore\n      pop\n      0xa0\n      dup3\n      add\n      mload\n      dup2\n      0x05\n      add\n      swap1\n      dup2\n      tag_62\n      swap2\n      swap1\n      tag_63\n      jump\t// in\n    tag_62:\n      pop\n      0xc0\n      dup3\n      add\n      mload\n      dup2\n      0x06\n      add\n      sstore\n      0xe0\n      dup3\n      add\n      mload\n      dup2\n      0x07\n      add\n      swap1\n      dup2\n      tag_64\n      swap2\n      swap1\n      tag_63\n      jump\t// in\n    tag_64:\n      pop\n      swap1\n      pop\n      pop\n        /* \"contracts/AppointmentScheduler.sol\":1911:1916  false */\n      0x00\n        /* \"contracts/AppointmentScheduler.sol\":1887:1904  appointmentStatus */\n      0x01\n        /* \"contracts/AppointmentScheduler.sol\":1887:1908  appointmentStatus[id] */\n      0x00\n        /* \"contracts/AppointmentScheduler.sol\":1905:1907  id */\n      dup4\n        /* \"contracts/AppointmentScheduler.sol\":1887:1908  appointmentStatus[id] */\n      dup2\n      mstore\n      0x20\n      add\n      swap1\n      dup2\n      mstore\n      0x20\n      add\n      0x00\n      keccak256\n      0x00\n        /* \"contracts/AppointmentScheduler.sol\":1887:1916  appointmentStatus[id] = false */\n      0x0100\n      exp\n      dup2\n      sload\n      dup2\n      0xff\n      mul\n      not\n      and\n      swap1\n      dup4\n      iszero\n      iszero\n      mul\n      or\n      swap1\n      sstore\n      pop\n        /* \"contracts/AppointmentScheduler.sol\":2176:2180  true */\n      0x01\n        /* \"contracts/AppointmentScheduler.sol\":2148:2165  appointmentStatus */\n      dup1\n        /* \"contracts/AppointmentScheduler.sol\":2148:2173  appointmentStatus[apptId] */\n      0x00\n        /* \"contracts/AppointmentScheduler.sol\":2166:2172  apptId */\n      dup7\n        /* \"contracts/AppointmentScheduler.sol\":2148:2173  appointmentStatus[apptId] */\n      dup2\n      mstore\n      0x20\n      add\n      swap1\n      dup2\n      mstore\n      0x20\n      add\n      0x00\n      keccak256\n      0x00\n        /* \"contracts/AppointmentScheduler.sol\":2148:2180  appointmentStatus[apptId] = true */\n      0x0100\n      exp\n      dup2\n      sload\n      dup2\n      0xff\n      mul\n      not\n      and\n      swap1\n      dup4\n      iszero\n      iszero\n      mul\n      or\n      swap1\n      sstore\n      pop\n        /* \"contracts/AppointmentScheduler.sol\":1726:2203  if(apptId != id){... */\n    tag_58:\n        /* \"contracts/AppointmentScheduler.sol\":2235:2247  _appointment */\n      dup3\n        /* \"contracts/AppointmentScheduler.sol\":2212:2224  appointments */\n      0x00\n        /* \"contracts/AppointmentScheduler.sol\":2212:2232  appointments[apptId] */\n      dup1\n        /* \"contracts/AppointmentScheduler.sol\":2225:2231  apptId */\n      dup7\n        /* \"contracts/AppointmentScheduler.sol\":2212:2232  appointments[apptId] */\n      dup2\n      mstore\n      0x20\n      add\n      swap1\n      dup2\n      mstore\n      0x20\n      add\n      0x00\n      keccak256\n        /* \"contracts/AppointmentScheduler.sol\":2212:2247  appointments[apptId] = _appointment */\n      0x00\n      dup3\n      add\n      mload\n      dup2\n      0x00\n      add\n      sstore\n      0x20\n      dup3\n      add\n      mload\n      dup2\n      0x01\n      add\n      sstore\n      0x40\n      dup3\n      add\n      mload\n      dup2\n      0x02\n      add\n      sstore\n      0x60\n      dup3\n      add\n      mload\n      dup2\n      0x03\n      add\n      exp(0x0100, 0x00)\n      dup2\n      sload\n      dup2\n      0xffffffffffffffffffffffffffffffffffffffff\n      mul\n      not\n      and\n      swap1\n      dup4\n      0xffffffffffffffffffffffffffffffffffffffff\n      and\n      mul\n      or\n      swap1\n      sstore\n      pop\n      0x80\n      dup3\n      add\n      mload\n      dup2\n      0x04\n      add\n      exp(0x0100, 0x00)\n      dup2\n      sload\n      dup2\n      0xffffffffffffffffffffffffffffffffffffffff\n      mul\n      not\n      and\n      swap1\n      dup4\n      0xffffffffffffffffffffffffffffffffffffffff\n      and\n      mul\n      or\n      swap1\n      sstore\n      pop\n      0xa0\n      dup3\n      add\n      mload\n      dup2\n      0x05\n      add\n      swap1\n      dup2\n      tag_65\n      swap2\n      swap1\n      tag_63\n      jump\t// in\n    tag_65:\n      pop\n      0xc0\n      dup3\n      add\n      mload\n      dup2\n      0x06\n      add\n      sstore\n      0xe0\n      dup3\n      add\n      mload\n      dup2\n      0x07\n      add\n      swap1\n      dup2\n      tag_66\n      swap2\n      swap1\n      tag_63\n      jump\t// in\n    tag_66:\n      pop\n      swap1\n      pop\n      pop\n        /* \"contracts/AppointmentScheduler.sol\":2266:2278  _appointment */\n      dup3\n        /* \"contracts/AppointmentScheduler.sol\":2259:2278  return _appointment */\n      swap2\n      pop\n      pop\n        /* \"contracts/AppointmentScheduler.sol\":1412:2285  function modifyAppointment(bytes32 apptId,Appointment.AppointmentRecord memory _appointment) external returns (Appointment.AppointmentRecord memory){... */\n      swap3\n      swap2\n      pop\n      pop\n      jump\t// out\n        /* \"contracts/AppointmentScheduler.sol\":279:349  mapping (bytes32 => Appointment.AppointmentRecord) public appointments */\n    tag_27:\n      mstore(0x20, 0x00)\n      dup1\n      0x00\n      mstore\n      keccak256(0x00, 0x40)\n      0x00\n      swap2\n      pop\n      swap1\n      pop\n      dup1\n      0x00\n      add\n      sload\n      swap1\n      dup1\n      0x01\n      add\n      sload\n      swap1\n      dup1\n      0x02\n      add\n      sload\n      swap1\n      dup1\n      0x03\n      add\n      0x00\n      swap1\n      sload\n      swap1\n      0x0100\n      exp\n      swap1\n      div\n      0xffffffffffffffffffffffffffffffffffffffff\n      and\n      swap1\n      dup1\n      0x04\n      add\n      0x00\n      swap1\n      sload\n      swap1\n      0x0100\n      exp\n      swap1\n      div\n      0xffffffffffffffffffffffffffffffffffffffff\n      and\n      swap1\n      dup1\n      0x05\n      add\n      dup1\n      sload\n      tag_67\n      swap1\n      tag_68\n      jump\t// in\n    tag_67:\n      dup1\n      0x1f\n      add\n      0x20\n      dup1\n      swap2\n      div\n      mul\n      0x20\n      add\n      mload(0x40)\n      swap1\n      dup2\n      add\n      0x40\n      mstore\n      dup1\n      swap3\n      swap2\n      swap1\n      dup2\n      dup2\n      mstore\n      0x20\n      add\n      dup3\n      dup1\n      sload\n      tag_69\n      swap1\n      tag_68\n      jump\t// in\n    tag_69:\n      dup1\n      iszero\n      tag_70\n      jumpi\n      dup1\n      0x1f\n      lt\n      tag_71\n      jumpi\n      0x0100\n      dup1\n      dup4\n      sload\n      div\n      mul\n      dup4\n      mstore\n      swap2\n      0x20\n      add\n      swap2\n      jump(tag_70)\n    tag_71:\n      dup3\n      add\n      swap2\n      swap1\n      0x00\n      mstore\n      keccak256(0x00, 0x20)\n      swap1\n    tag_72:\n      dup2\n      sload\n      dup2\n      mstore\n      swap1\n      0x01\n      add\n      swap1\n      0x20\n      add\n      dup1\n      dup4\n      gt\n      tag_72\n      jumpi\n      dup3\n      swap1\n      sub\n      0x1f\n      and\n      dup3\n      add\n      swap2\n    tag_70:\n      pop\n      pop\n      pop\n      pop\n      pop\n      swap1\n      dup1\n      0x06\n      add\n      sload\n      swap1\n      dup1\n      0x07\n      add\n      dup1\n      sload\n      tag_73\n      swap1\n      tag_68\n      jump\t// in\n    tag_73:\n      dup1\n      0x1f\n      add\n      0x20\n      dup1\n      swap2\n      div\n      mul\n      0x20\n      add\n      mload(0x40)\n      swap1\n      dup2\n      add\n      0x40\n      mstore\n      dup1\n      swap3\n      swap2\n      swap1\n      dup2\n      dup2\n      mstore\n      0x20\n      add\n      dup3\n      dup1\n      sload\n      tag_74\n      swap1\n      tag_68\n      jump\t// in\n    tag_74:\n      dup1\n      iszero\n      tag_75\n      jumpi\n      dup1\n      0x1f\n      lt\n      tag_76\n      jumpi\n      0x0100\n      dup1\n      dup4\n      sload\n      div\n      mul\n      dup4\n      mstore\n      swap2\n      0x20\n      add\n      swap2\n      jump(tag_75)\n    tag_76:\n      dup3\n      add\n      swap2\n      swap1\n      0x00\n      mstore\n      keccak256(0x00, 0x20)\n      swap1\n    tag_77:\n      dup2\n      sload\n      dup2\n      mstore\n      swap1\n      0x01\n      add\n      swap1\n      0x20\n      add\n      dup1\n      dup4\n      gt\n      tag_77\n      jumpi\n      dup3\n      swap1\n      sub\n      0x1f\n      and\n      dup3\n      add\n      swap2\n    tag_75:\n      pop\n      pop\n      pop\n      pop\n      pop\n      swap1\n      pop\n      dup9\n      jump\t// out\n        /* \"contracts/AppointmentScheduler.sol\":2673:2796  function checkAvailability(bytes32 slot) public view returns (bool) {        ... */\n    tag_32:\n        /* \"contracts/AppointmentScheduler.sol\":2735:2739  bool */\n      0x00\n        /* \"contracts/AppointmentScheduler.sol\":2766:2783  appointmentStatus */\n      0x01\n        /* \"contracts/AppointmentScheduler.sol\":2766:2789  appointmentStatus[slot] */\n      0x00\n        /* \"contracts/AppointmentScheduler.sol\":2784:2788  slot */\n      dup4\n        /* \"contracts/AppointmentScheduler.sol\":2766:2789  appointmentStatus[slot] */\n      dup2\n      mstore\n      0x20\n      add\n      swap1\n      dup2\n      mstore\n      0x20\n      add\n      0x00\n      keccak256\n      0x00\n      swap1\n      sload\n      swap1\n      0x0100\n      exp\n      swap1\n      div\n      0xff\n      and\n        /* \"contracts/AppointmentScheduler.sol\":2759:2789  return appointmentStatus[slot] */\n      swap1\n      pop\n        /* \"contracts/AppointmentScheduler.sol\":2673:2796  function checkAvailability(bytes32 slot) public view returns (bool) {        ... */\n      swap2\n      swap1\n      pop\n      jump\t// out\n        /* \"contracts/AppointmentScheduler.sol\":2481:2620  function getAppointment(bytes32 apptId) public view returns (Appointment.AppointmentRecord memory) {... */\n    tag_37:\n        /* \"contracts/AppointmentScheduler.sol\":2542:2578  Appointment.AppointmentRecord memory */\n      tag_79\n      tag_55\n      jump\t// in\n    tag_79:\n        /* \"contracts/AppointmentScheduler.sol\":2593:2605  appointments */\n      0x00\n        /* \"contracts/AppointmentScheduler.sol\":2593:2613  appointments[apptId] */\n      dup1\n        /* \"contracts/AppointmentScheduler.sol\":2606:2612  apptId */\n      dup4\n        /* \"contracts/AppointmentScheduler.sol\":2593:2613  appointments[apptId] */\n      dup2\n      mstore\n      0x20\n      add\n      swap1\n      dup2\n      mstore\n      0x20\n      add\n      0x00\n      keccak256\n        /* \"contracts/AppointmentScheduler.sol\":2586:2613  return appointments[apptId] */\n      mload(0x40)\n      dup1\n      0x0100\n      add\n      0x40\n      mstore\n      swap1\n      dup2\n      0x00\n      dup3\n      add\n      sload\n      dup2\n      mstore\n      0x20\n      add\n      0x01\n      dup3\n      add\n      sload\n      dup2\n      mstore\n      0x20\n      add\n      0x02\n      dup3\n      add\n      sload\n      dup2\n      mstore\n      0x20\n      add\n      0x03\n      dup3\n      add\n      0x00\n      swap1\n      sload\n      swap1\n      0x0100\n      exp\n      swap1\n      div\n      0xffffffffffffffffffffffffffffffffffffffff\n      and\n      0xffffffffffffffffffffffffffffffffffffffff\n      and\n      0xffffffffffffffffffffffffffffffffffffffff\n      and\n      dup2\n      mstore\n      0x20\n      add\n      0x04\n      dup3\n      add\n      0x00\n      swap1\n      sload\n      swap1\n      0x0100\n      exp\n      swap1\n      div\n      0xffffffffffffffffffffffffffffffffffffffff\n      and\n      0xffffffffffffffffffffffffffffffffffffffff\n      and\n      0xffffffffffffffffffffffffffffffffffffffff\n      and\n      dup2\n      mstore\n      0x20\n      add\n      0x05\n      dup3\n      add\n      dup1\n      sload\n      tag_81\n      swap1\n      tag_68\n      jump\t// in\n    tag_81:\n      dup1\n      0x1f\n      add\n      0x20\n      dup1\n      swap2\n      div\n      mul\n      0x20\n      add\n      mload(0x40)\n      swap1\n      dup2\n      add\n      0x40\n      mstore\n      dup1\n      swap3\n      swap2\n      swap1\n      dup2\n      dup2\n      mstore\n      0x20\n      add\n      dup3\n      dup1\n      sload\n      tag_82\n      swap1\n      tag_68\n      jump\t// in\n    tag_82:\n      dup1\n      iszero\n      tag_83\n      jumpi\n      dup1\n      0x1f\n      lt\n      tag_84\n      jumpi\n      0x0100\n      dup1\n      dup4\n      sload\n      div\n      mul\n      dup4\n      mstore\n      swap2\n      0x20\n      add\n      swap2\n      jump(tag_83)\n    tag_84:\n      dup3\n      add\n      swap2\n      swap1\n      0x00\n      mstore\n      keccak256(0x00, 0x20)\n      swap1\n    tag_85:\n      dup2\n      sload\n      dup2\n      mstore\n      swap1\n      0x01\n      add\n      swap1\n      0x20\n      add\n      dup1\n      dup4\n      gt\n      tag_85\n      jumpi\n      dup3\n      swap1\n      sub\n      0x1f\n      and\n      dup3\n      add\n      swap2\n    tag_83:\n      pop\n      pop\n      pop\n      pop\n      pop\n      dup2\n      mstore\n      0x20\n      add\n      0x06\n      dup3\n      add\n      sload\n      dup2\n      mstore\n      0x20\n      add\n      0x07\n      dup3\n      add\n      dup1\n      sload\n      tag_86\n      swap1\n      tag_68\n      jump\t// in\n    tag_86:\n      dup1\n      0x1f\n      add\n      0x20\n      dup1\n      swap2\n      div\n      mul\n      0x20\n      add\n      mload(0x40)\n      swap1\n      dup2\n      add\n      0x40\n      mstore\n      dup1\n      swap3\n      swap2\n      swap1\n      dup2\n      dup2\n      mstore\n      0x20\n      add\n      dup3\n      dup1\n      sload\n      tag_87\n      swap1\n      tag_68\n      jump\t// in\n    tag_87:\n      dup1\n      iszero\n      tag_88\n      jumpi\n      dup1\n      0x1f\n      lt\n      tag_89\n      jumpi\n      0x0100\n      dup1\n      dup4\n      sload\n      div\n      mul\n      dup4\n      mstore\n      swap2\n      0x20\n      add\n      swap2\n      jump(tag_88)\n    tag_89:\n      dup3\n      add\n      swap2\n      swap1\n      0x00\n      mstore\n      keccak256(0x00, 0x20)\n      swap1\n    tag_90:\n      dup2\n      sload\n      dup2\n      mstore\n      swap1\n      0x01\n      add\n      swap1\n      0x20\n      add\n      dup1\n      dup4\n      gt\n      tag_90\n      jumpi\n      dup3\n      swap1\n      sub\n      0x1f\n      and\n      dup3\n      add\n      swap2\n    tag_88:\n      pop\n      pop\n      pop\n      pop\n      pop\n      dup2\n      mstore\n      pop\n      pop\n      swap1\n      pop\n        /* \"contracts/AppointmentScheduler.sol\":2481:2620  function getAppointment(bytes32 apptId) public view returns (Appointment.AppointmentRecord memory) {... */\n      swap2\n      swap1\n      pop\n      jump\t// out\n        /* \"contracts/AppointmentScheduler.sol\":751:1402  function bookAppointment(Appointment.AppointmentRecord memory appointment) external returns (Appointment.AppointmentRecord memory){        ... */\n    tag_42:\n        /* \"contracts/AppointmentScheduler.sol\":844:880  Appointment.AppointmentRecord memory */\n      tag_91\n      tag_55\n      jump\t// in\n    tag_91:\n        /* \"contracts/AppointmentScheduler.sol\":899:913  bytes32 apptId */\n      0x00\n        /* \"contracts/AppointmentScheduler.sol\":916:982  getHashId(appointment.appointmentDate,appointment.appointmentTime) */\n      tag_93\n        /* \"contracts/AppointmentScheduler.sol\":926:937  appointment */\n      dup4\n        /* \"contracts/AppointmentScheduler.sol\":926:953  appointment.appointmentDate */\n      0x20\n      add\n      mload\n        /* \"contracts/AppointmentScheduler.sol\":954:965  appointment */\n      dup5\n        /* \"contracts/AppointmentScheduler.sol\":954:981  appointment.appointmentTime */\n      0x40\n      add\n      mload\n        /* \"contracts/AppointmentScheduler.sol\":916:925  getHashId */\n      tag_15\n        /* \"contracts/AppointmentScheduler.sol\":916:982  getHashId(appointment.appointmentDate,appointment.appointmentTime) */\n      jump\t// in\n    tag_93:\n        /* \"contracts/AppointmentScheduler.sol\":899:982  bytes32 apptId = getHashId(appointment.appointmentDate,appointment.appointmentTime) */\n      swap1\n      pop\n        /* \"contracts/AppointmentScheduler.sol\":1000:1017  appointmentStatus */\n      0x01\n        /* \"contracts/AppointmentScheduler.sol\":1000:1025  appointmentStatus[apptId] */\n      0x00\n        /* \"contracts/AppointmentScheduler.sol\":1018:1024  apptId */\n      dup3\n        /* \"contracts/AppointmentScheduler.sol\":1000:1025  appointmentStatus[apptId] */\n      dup2\n      mstore\n      0x20\n      add\n      swap1\n      dup2\n      mstore\n      0x20\n      add\n      0x00\n      keccak256\n      0x00\n      swap1\n      sload\n      swap1\n      0x0100\n      exp\n      swap1\n      div\n      0xff\n      and\n        /* \"contracts/AppointmentScheduler.sol\":992:1068  require(appointmentStatus[apptId], \"This appointment slot is not available\") */\n      tag_94\n      jumpi\n      mload(0x40)\n      0x08c379a000000000000000000000000000000000000000000000000000000000\n      dup2\n      mstore\n      0x04\n      add\n      tag_95\n      swap1\n      tag_61\n      jump\t// in\n    tag_95:\n      mload(0x40)\n      dup1\n      swap2\n      sub\n      swap1\n      revert\n    tag_94:\n        /* \"contracts/AppointmentScheduler.sol\":1088:1101  StructHelpers */\n      linkerSymbol(\"288d728ca5367516b201473e0fe842eff5787a424f4de81e8fb425ee3b78622c\")\n        /* \"contracts/AppointmentScheduler.sol\":1088:1111  StructHelpers.isDefault */\n      0x5b16923c\n        /* \"contracts/AppointmentScheduler.sol\":1123:1134  appointment */\n      dup5\n        /* \"contracts/AppointmentScheduler.sol\":1112:1135  abi.encode(appointment) */\n      add(0x20, mload(0x40))\n      tag_96\n      swap2\n      swap1\n      tag_23\n      jump\t// in\n    tag_96:\n      mload(0x40)\n      0x20\n      dup2\n      dup4\n      sub\n      sub\n      dup2\n      mstore\n      swap1\n      0x40\n      mstore\n        /* \"contracts/AppointmentScheduler.sol\":1088:1136  StructHelpers.isDefault(abi.encode(appointment)) */\n      mload(0x40)\n      dup3\n      0xffffffff\n      and\n      0xe0\n      shl\n      dup2\n      mstore\n      0x04\n      add\n      tag_97\n      swap2\n      swap1\n      tag_98\n      jump\t// in\n    tag_97:\n      0x20\n      mload(0x40)\n      dup1\n      dup4\n      sub\n      dup2\n      dup7\n      gas\n      delegatecall\n      iszero\n      dup1\n      iszero\n      tag_100\n      jumpi\n      returndatasize\n      0x00\n      dup1\n      returndatacopy\n      revert(0x00, returndatasize)\n    tag_100:\n      pop\n      pop\n      pop\n      pop\n      mload(0x40)\n      returndatasize\n      not(0x1f)\n      0x1f\n      dup3\n      add\n      and\n      dup3\n      add\n      dup1\n      0x40\n      mstore\n      pop\n      dup2\n      add\n      swap1\n      tag_101\n      swap2\n      swap1\n      tag_102\n      jump\t// in\n    tag_101:\n        /* \"contracts/AppointmentScheduler.sol\":1086:1137  !(StructHelpers.isDefault(abi.encode(appointment))) */\n      iszero\n        /* \"contracts/AppointmentScheduler.sol\":1078:1185  require(!(StructHelpers.isDefault(abi.encode(appointment))),\"Empty Appointment. Prepare appointment again\") */\n      tag_103\n      jumpi\n      mload(0x40)\n      0x08c379a000000000000000000000000000000000000000000000000000000000\n      dup2\n      mstore\n      0x04\n      add\n      tag_104\n      swap1\n      tag_105\n      jump\t// in\n    tag_104:\n      mload(0x40)\n      dup1\n      swap2\n      sub\n      swap1\n      revert\n    tag_103:\n        /* \"contracts/AppointmentScheduler.sol\":1256:1267  appointment */\n      dup3\n        /* \"contracts/AppointmentScheduler.sol\":1233:1245  appointments */\n      0x00\n        /* \"contracts/AppointmentScheduler.sol\":1233:1253  appointments[apptId] */\n      dup1\n        /* \"contracts/AppointmentScheduler.sol\":1246:1252  apptId */\n      dup4\n        /* \"contracts/AppointmentScheduler.sol\":1233:1253  appointments[apptId] */\n      dup2\n      mstore\n      0x20\n      add\n      swap1\n      dup2\n      mstore\n      0x20\n      add\n      0x00\n      keccak256\n        /* \"contracts/AppointmentScheduler.sol\":1233:1267  appointments[apptId] = appointment */\n      0x00\n      dup3\n      add\n      mload\n      dup2\n      0x00\n      add\n      sstore\n      0x20\n      dup3\n      add\n      mload\n      dup2\n      0x01\n      add\n      sstore\n      0x40\n      dup3\n      add\n      mload\n      dup2\n      0x02\n      add\n      sstore\n      0x60\n      dup3\n      add\n      mload\n      dup2\n      0x03\n      add\n      exp(0x0100, 0x00)\n      dup2\n      sload\n      dup2\n      0xffffffffffffffffffffffffffffffffffffffff\n      mul\n      not\n      and\n      swap1\n      dup4\n      0xffffffffffffffffffffffffffffffffffffffff\n      and\n      mul\n      or\n      swap1\n      sstore\n      pop\n      0x80\n      dup3\n      add\n      mload\n      dup2\n      0x04\n      add\n      exp(0x0100, 0x00)\n      dup2\n      sload\n      dup2\n      0xffffffffffffffffffffffffffffffffffffffff\n      mul\n      not\n      and\n      swap1\n      dup4\n      0xffffffffffffffffffffffffffffffffffffffff\n      and\n      mul\n      or\n      swap1\n      sstore\n      pop\n      0xa0\n      dup3\n      add\n      mload\n      dup2\n      0x05\n      add\n      swap1\n      dup2\n      tag_106\n      swap2\n      swap1\n      tag_63\n      jump\t// in\n    tag_106:\n      pop\n      0xc0\n      dup3\n      add\n      mload\n      dup2\n      0x06\n      add\n      sstore\n      0xe0\n      dup3\n      add\n      mload\n      dup2\n      0x07\n      add\n      swap1\n      dup2\n      tag_107\n      swap2\n      swap1\n      tag_63\n      jump\t// in\n    tag_107:\n      pop\n      swap1\n      pop\n      pop\n        /* \"contracts/AppointmentScheduler.sol\":1353:1358  false */\n      0x00\n        /* \"contracts/AppointmentScheduler.sol\":1325:1342  appointmentStatus */\n      0x01\n        /* \"contracts/AppointmentScheduler.sol\":1325:1350  appointmentStatus[apptId] */\n      0x00\n        /* \"contracts/AppointmentScheduler.sol\":1343:1349  apptId */\n      dup4\n        /* \"contracts/AppointmentScheduler.sol\":1325:1350  appointmentStatus[apptId] */\n      dup2\n      mstore\n      0x20\n      add\n      swap1\n      dup2\n      mstore\n      0x20\n      add\n      0x00\n      keccak256\n      0x00\n        /* \"contracts/AppointmentScheduler.sol\":1325:1358  appointmentStatus[apptId] = false */\n      0x0100\n      exp\n      dup2\n      sload\n      dup2\n      0xff\n      mul\n      not\n      and\n      swap1\n      dup4\n      iszero\n      iszero\n      mul\n      or\n      swap1\n      sstore\n      pop\n        /* \"contracts/AppointmentScheduler.sol\":1375:1387  appointments */\n      0x00\n        /* \"contracts/AppointmentScheduler.sol\":1375:1395  appointments[apptId] */\n      dup1\n        /* \"contracts/AppointmentScheduler.sol\":1388:1394  apptId */\n      dup3\n        /* \"contracts/AppointmentScheduler.sol\":1375:1395  appointments[apptId] */\n      dup2\n      mstore\n      0x20\n      add\n      swap1\n      dup2\n      mstore\n      0x20\n      add\n      0x00\n      keccak256\n        /* \"contracts/AppointmentScheduler.sol\":1368:1395  return appointments[apptId] */\n      mload(0x40)\n      dup1\n      0x0100\n      add\n      0x40\n      mstore\n      swap1\n      dup2\n      0x00\n      dup3\n      add\n      sload\n      dup2\n      mstore\n      0x20\n      add\n      0x01\n      dup3\n      add\n      sload\n      dup2\n      mstore\n      0x20\n      add\n      0x02\n      dup3\n      add\n      sload\n      dup2\n      mstore\n      0x20\n      add\n      0x03\n      dup3\n      add\n      0x00\n      swap1\n      sload\n      swap1\n      0x0100\n      exp\n      swap1\n      div\n      0xffffffffffffffffffffffffffffffffffffffff\n      and\n      0xffffffffffffffffffffffffffffffffffffffff\n      and\n      0xffffffffffffffffffffffffffffffffffffffff\n      and\n      dup2\n      mstore\n      0x20\n      add\n      0x04\n      dup3\n      add\n      0x00\n      swap1\n      sload\n      swap1\n      0x0100\n      exp\n      swap1\n      div\n      0xffffffffffffffffffffffffffffffffffffffff\n      and\n      0xffffffffffffffffffffffffffffffffffffffff\n      and\n      0xffffffffffffffffffffffffffffffffffffffff\n      and\n      dup2\n      mstore\n      0x20\n      add\n      0x05\n      dup3\n      add\n      dup1\n      sload\n      tag_108\n      swap1\n      tag_68\n      jump\t// in\n    tag_108:\n      dup1\n      0x1f\n      add\n      0x20\n      dup1\n      swap2\n      div\n      mul\n      0x20\n      add\n      mload(0x40)\n      swap1\n      dup2\n      add\n      0x40\n      mstore\n      dup1\n      swap3\n      swap2\n      swap1\n      dup2\n      dup2\n      mstore\n      0x20\n      add\n      dup3\n      dup1\n      sload\n      tag_109\n      swap1\n      tag_68\n      jump\t// in\n    tag_109:\n      dup1\n      iszero\n      tag_110\n      jumpi\n      dup1\n      0x1f\n      lt\n      tag_111\n      jumpi\n      0x0100\n      dup1\n      dup4\n      sload\n      div\n      mul\n      dup4\n      mstore\n      swap2\n      0x20\n      add\n      swap2\n      jump(tag_110)\n    tag_111:\n      dup3\n      add\n      swap2\n      swap1\n      0x00\n      mstore\n      keccak256(0x00, 0x20)\n      swap1\n    tag_112:\n      dup2\n      sload\n      dup2\n      mstore\n      swap1\n      0x01\n      add\n      swap1\n      0x20\n      add\n      dup1\n      dup4\n      gt\n      tag_112\n      jumpi\n      dup3\n      swap1\n      sub\n      0x1f\n      and\n      dup3\n      add\n      swap2\n    tag_110:\n      pop\n      pop\n      pop\n      pop\n      pop\n      dup2\n      mstore\n      0x20\n      add\n      0x06\n      dup3\n      add\n      sload\n      dup2\n      mstore\n      0x20\n      add\n      0x07\n      dup3\n      add\n      dup1\n      sload\n      tag_113\n      swap1\n      tag_68\n      jump\t// in\n    tag_113:\n      dup1\n      0x1f\n      add\n      0x20\n      dup1\n      swap2\n      div\n      mul\n      0x20\n      add\n      mload(0x40)\n      swap1\n      dup2\n      add\n      0x40\n      mstore\n      dup1\n      swap3\n      swap2\n      swap1\n      dup2\n      dup2\n      mstore\n      0x20\n      add\n      dup3\n      dup1\n      sload\n      tag_114\n      swap1\n      tag_68\n      jump\t// in\n    tag_114:\n      dup1\n      iszero\n      tag_115\n      jumpi\n      dup1\n      0x1f\n      lt\n      tag_116\n      jumpi\n      0x0100\n      dup1\n      dup4\n      sload\n      div\n      mul\n      dup4\n      mstore\n      swap2\n      0x20\n      add\n      swap2\n      jump(tag_115)\n    tag_116:\n      dup3\n      add\n      swap2\n      swap1\n      0x00\n      mstore\n      keccak256(0x00, 0x20)\n      swap1\n    tag_117:\n      dup2\n      sload\n      dup2\n      mstore\n      swap1\n      0x01\n      add\n      swap1\n      0x20\n      add\n      dup1\n      dup4\n      gt\n      tag_117\n      jumpi\n      dup3\n      swap1\n      sub\n      0x1f\n      and\n      dup3\n      add\n      swap2\n    tag_115:\n      pop\n      pop\n      pop\n      pop\n      pop\n      dup2\n      mstore\n      pop\n      pop\n      swap2\n      pop\n      pop\n        /* \"contracts/AppointmentScheduler.sol\":751:1402  function bookAppointment(Appointment.AppointmentRecord memory appointment) external returns (Appointment.AppointmentRecord memory){        ... */\n      swap2\n      swap1\n      pop\n      jump\t// out\n        /* \"contracts/AppointmentScheduler.sol\":2295:2404  function cancelAppointment(bytes32 apptId) external {        ... */\n    tag_46:\n        /* \"contracts/AppointmentScheduler.sol\":2393:2397  true */\n      0x01\n        /* \"contracts/AppointmentScheduler.sol\":2365:2382  appointmentStatus */\n      dup1\n        /* \"contracts/AppointmentScheduler.sol\":2365:2390  appointmentStatus[apptId] */\n      0x00\n        /* \"contracts/AppointmentScheduler.sol\":2383:2389  apptId */\n      dup4\n        /* \"contracts/AppointmentScheduler.sol\":2365:2390  appointmentStatus[apptId] */\n      dup2\n      mstore\n      0x20\n      add\n      swap1\n      dup2\n      mstore\n      0x20\n      add\n      0x00\n      keccak256\n      0x00\n        /* \"contracts/AppointmentScheduler.sol\":2365:2397  appointmentStatus[apptId] = true */\n      0x0100\n      exp\n      dup2\n      sload\n      dup2\n      0xff\n      mul\n      not\n      and\n      swap1\n      dup4\n      iszero\n      iszero\n      mul\n      or\n      swap1\n      sstore\n      pop\n        /* \"contracts/AppointmentScheduler.sol\":2295:2404  function cancelAppointment(bytes32 apptId) external {        ... */\n      pop\n      jump\t// out\n        /* \"contracts/AppointmentScheduler.sol\":359:408  mapping(bytes32 => bool) public appointmentStatus */\n    tag_49:\n      mstore(0x20, 0x01)\n      dup1\n      0x00\n      mstore\n      keccak256(0x00, 0x40)\n      0x00\n      swap2\n      pop\n      sload\n      swap1\n      0x0100\n      exp\n      swap1\n      div\n      0xff\n      and\n      dup2\n      jump\t// out\n    tag_55:\n      mload(0x40)\n      dup1\n      0x0100\n      add\n      0x40\n      mstore\n      dup1\n      0x00\n      dup1\n      not\n      and\n      dup2\n      mstore\n      0x20\n      add\n      0x00\n      dup2\n      mstore\n      0x20\n      add\n      0x00\n      dup2\n      mstore\n      0x20\n      add\n      and(0xffffffffffffffffffffffffffffffffffffffff, 0x00)\n      dup2\n      mstore\n      0x20\n      add\n      and(0xffffffffffffffffffffffffffffffffffffffff, 0x00)\n      dup2\n      mstore\n      0x20\n      add\n      0x60\n      dup2\n      mstore\n      0x20\n      add\n      0x00\n      dup2\n      mstore\n      0x20\n      add\n      0x60\n      dup2\n      mstore\n      pop\n      swap1\n      jump\t// out\n        /* \"#utility.yul\":7:82   */\n    tag_119:\n        /* \"#utility.yul\":40:46   */\n      0x00\n        /* \"#utility.yul\":73:75   */\n      0x40\n        /* \"#utility.yul\":67:76   */\n      mload\n        /* \"#utility.yul\":57:76   */\n      swap1\n      pop\n        /* \"#utility.yul\":7:82   */\n      swap1\n      jump\t// out\n        /* \"#utility.yul\":88:205   */\n    tag_120:\n        /* \"#utility.yul\":197:198   */\n      0x00\n        /* \"#utility.yul\":194:195   */\n      dup1\n        /* \"#utility.yul\":187:199   */\n      revert\n        /* \"#utility.yul\":211:328   */\n    tag_121:\n        /* \"#utility.yul\":320:321   */\n      0x00\n        /* \"#utility.yul\":317:318   */\n      dup1\n        /* \"#utility.yul\":310:322   */\n      revert\n        /* \"#utility.yul\":334:411   */\n    tag_122:\n        /* \"#utility.yul\":371:378   */\n      0x00\n        /* \"#utility.yul\":400:405   */\n      dup2\n        /* \"#utility.yul\":389:405   */\n      swap1\n      pop\n        /* \"#utility.yul\":334:411   */\n      swap2\n      swap1\n      pop\n      jump\t// out\n        /* \"#utility.yul\":417:539   */\n    tag_123:\n        /* \"#utility.yul\":490:514   */\n      tag_193\n        /* \"#utility.yul\":508:513   */\n      dup2\n        /* \"#utility.yul\":490:514   */\n      tag_122\n      jump\t// in\n    tag_193:\n        /* \"#utility.yul\":483:488   */\n      dup2\n        /* \"#utility.yul\":480:515   */\n      eq\n        /* \"#utility.yul\":470:533   */\n      tag_194\n      jumpi\n        /* \"#utility.yul\":529:530   */\n      0x00\n        /* \"#utility.yul\":526:527   */\n      dup1\n        /* \"#utility.yul\":519:531   */\n      revert\n        /* \"#utility.yul\":470:533   */\n    tag_194:\n        /* \"#utility.yul\":417:539   */\n      pop\n      jump\t// out\n        /* \"#utility.yul\":545:684   */\n    tag_124:\n        /* \"#utility.yul\":591:596   */\n      0x00\n        /* \"#utility.yul\":629:635   */\n      dup2\n        /* \"#utility.yul\":616:636   */\n      calldataload\n        /* \"#utility.yul\":607:636   */\n      swap1\n      pop\n        /* \"#utility.yul\":645:678   */\n      tag_196\n        /* \"#utility.yul\":672:677   */\n      dup2\n        /* \"#utility.yul\":645:678   */\n      tag_123\n      jump\t// in\n    tag_196:\n        /* \"#utility.yul\":545:684   */\n      swap3\n      swap2\n      pop\n      pop\n      jump\t// out\n        /* \"#utility.yul\":690:1164   */\n    tag_14:\n        /* \"#utility.yul\":758:764   */\n      0x00\n        /* \"#utility.yul\":766:772   */\n      dup1\n        /* \"#utility.yul\":815:817   */\n      0x40\n        /* \"#utility.yul\":803:812   */\n      dup4\n        /* \"#utility.yul\":794:801   */\n      dup6\n        /* \"#utility.yul\":790:813   */\n      sub\n        /* \"#utility.yul\":786:818   */\n      slt\n        /* \"#utility.yul\":783:902   */\n      iszero\n      tag_198\n      jumpi\n        /* \"#utility.yul\":821:900   */\n      tag_199\n      tag_120\n      jump\t// in\n    tag_199:\n        /* \"#utility.yul\":783:902   */\n    tag_198:\n        /* \"#utility.yul\":941:942   */\n      0x00\n        /* \"#utility.yul\":966:1019   */\n      tag_200\n        /* \"#utility.yul\":1011:1018   */\n      dup6\n        /* \"#utility.yul\":1002:1008   */\n      dup3\n        /* \"#utility.yul\":991:1000   */\n      dup7\n        /* \"#utility.yul\":987:1009   */\n      add\n        /* \"#utility.yul\":966:1019   */\n      tag_124\n      jump\t// in\n    tag_200:\n        /* \"#utility.yul\":956:1019   */\n      swap3\n      pop\n        /* \"#utility.yul\":912:1029   */\n      pop\n        /* \"#utility.yul\":1068:1070   */\n      0x20\n        /* \"#utility.yul\":1094:1147   */\n      tag_201\n        /* \"#utility.yul\":1139:1146   */\n      dup6\n        /* \"#utility.yul\":1130:1136   */\n      dup3\n        /* \"#utility.yul\":1119:1128   */\n      dup7\n        /* \"#utility.yul\":1115:1137   */\n      add\n        /* \"#utility.yul\":1094:1147   */\n      tag_124\n      jump\t// in\n    tag_201:\n        /* \"#utility.yul\":1084:1147   */\n      swap2\n      pop\n        /* \"#utility.yul\":1039:1157   */\n      pop\n        /* \"#utility.yul\":690:1164   */\n      swap3\n      pop\n      swap3\n      swap1\n      pop\n      jump\t// out\n        /* \"#utility.yul\":1170:1247   */\n    tag_125:\n        /* \"#utility.yul\":1207:1214   */\n      0x00\n        /* \"#utility.yul\":1236:1241   */\n      dup2\n        /* \"#utility.yul\":1225:1241   */\n      swap1\n      pop\n        /* \"#utility.yul\":1170:1247   */\n      swap2\n      swap1\n      pop\n      jump\t// out\n        /* \"#utility.yul\":1253:1371   */\n    tag_126:\n        /* \"#utility.yul\":1340:1364   */\n      tag_204\n        /* \"#utility.yul\":1358:1363   */\n      dup2\n        /* \"#utility.yul\":1340:1364   */\n      tag_125\n      jump\t// in\n    tag_204:\n        /* \"#utility.yul\":1335:1338   */\n      dup3\n        /* \"#utility.yul\":1328:1365   */\n      mstore\n        /* \"#utility.yul\":1253:1371   */\n      pop\n      pop\n      jump\t// out\n        /* \"#utility.yul\":1377:1599   */\n    tag_17:\n        /* \"#utility.yul\":1470:1474   */\n      0x00\n        /* \"#utility.yul\":1508:1510   */\n      0x20\n        /* \"#utility.yul\":1497:1506   */\n      dup3\n        /* \"#utility.yul\":1493:1511   */\n      add\n        /* \"#utility.yul\":1485:1511   */\n      swap1\n      pop\n        /* \"#utility.yul\":1521:1592   */\n      tag_206\n        /* \"#utility.yul\":1589:1590   */\n      0x00\n        /* \"#utility.yul\":1578:1587   */\n      dup4\n        /* \"#utility.yul\":1574:1591   */\n      add\n        /* \"#utility.yul\":1565:1571   */\n      dup5\n        /* \"#utility.yul\":1521:1592   */\n      tag_126\n      jump\t// in\n    tag_206:\n        /* \"#utility.yul\":1377:1599   */\n      swap3\n      swap2\n      pop\n      pop\n      jump\t// out\n        /* \"#utility.yul\":1605:1727   */\n    tag_127:\n        /* \"#utility.yul\":1678:1702   */\n      tag_208\n        /* \"#utility.yul\":1696:1701   */\n      dup2\n        /* \"#utility.yul\":1678:1702   */\n      tag_125\n      jump\t// in\n    tag_208:\n        /* \"#utility.yul\":1671:1676   */\n      dup2\n        /* \"#utility.yul\":1668:1703   */\n      eq\n        /* \"#utility.yul\":1658:1721   */\n      tag_209\n      jumpi\n        /* \"#utility.yul\":1717:1718   */\n      0x00\n        /* \"#utility.yul\":1714:1715   */\n      dup1\n        /* \"#utility.yul\":1707:1719   */\n      revert\n        /* \"#utility.yul\":1658:1721   */\n    tag_209:\n        /* \"#utility.yul\":1605:1727   */\n      pop\n      jump\t// out\n        /* \"#utility.yul\":1733:1872   */\n    tag_128:\n        /* \"#utility.yul\":1779:1784   */\n      0x00\n        /* \"#utility.yul\":1817:1823   */\n      dup2\n        /* \"#utility.yul\":1804:1824   */\n      calldataload\n        /* \"#utility.yul\":1795:1824   */\n      swap1\n      pop\n        /* \"#utility.yul\":1833:1866   */\n      tag_211\n        /* \"#utility.yul\":1860:1865   */\n      dup2\n        /* \"#utility.yul\":1833:1866   */\n      tag_127\n      jump\t// in\n    tag_211:\n        /* \"#utility.yul\":1733:1872   */\n      swap3\n      swap2\n      pop\n      pop\n      jump\t// out\n        /* \"#utility.yul\":1878:1995   */\n    tag_129:\n        /* \"#utility.yul\":1987:1988   */\n      0x00\n        /* \"#utility.yul\":1984:1985   */\n      dup1\n        /* \"#utility.yul\":1977:1989   */\n      revert\n        /* \"#utility.yul\":2001:2103   */\n    tag_130:\n        /* \"#utility.yul\":2042:2048   */\n      0x00\n        /* \"#utility.yul\":2093:2095   */\n      0x1f\n        /* \"#utility.yul\":2089:2096   */\n      not\n        /* \"#utility.yul\":2084:2086   */\n      0x1f\n        /* \"#utility.yul\":2077:2082   */\n      dup4\n        /* \"#utility.yul\":2073:2087   */\n      add\n        /* \"#utility.yul\":2069:2097   */\n      and\n        /* \"#utility.yul\":2059:2097   */\n      swap1\n      pop\n        /* \"#utility.yul\":2001:2103   */\n      swap2\n      swap1\n      pop\n      jump\t// out\n        /* \"#utility.yul\":2109:2289   */\n    tag_131:\n        /* \"#utility.yul\":2157:2234   */\n      0x4e487b7100000000000000000000000000000000000000000000000000000000\n        /* \"#utility.yul\":2154:2155   */\n      0x00\n        /* \"#utility.yul\":2147:2235   */\n      mstore\n        /* \"#utility.yul\":2254:2258   */\n      0x41\n        /* \"#utility.yul\":2251:2252   */\n      0x04\n        /* \"#utility.yul\":2244:2259   */\n      mstore\n        /* \"#utility.yul\":2278:2282   */\n      0x24\n        /* \"#utility.yul\":2275:2276   */\n      0x00\n        /* \"#utility.yul\":2268:2283   */\n      revert\n        /* \"#utility.yul\":2295:2576   */\n    tag_132:\n        /* \"#utility.yul\":2378:2405   */\n      tag_216\n        /* \"#utility.yul\":2400:2404   */\n      dup3\n        /* \"#utility.yul\":2378:2405   */\n      tag_130\n      jump\t// in\n    tag_216:\n        /* \"#utility.yul\":2370:2376   */\n      dup2\n        /* \"#utility.yul\":2366:2406   */\n      add\n        /* \"#utility.yul\":2508:2514   */\n      dup2\n        /* \"#utility.yul\":2496:2506   */\n      dup2\n        /* \"#utility.yul\":2493:2515   */\n      lt\n        /* \"#utility.yul\":2472:2490   */\n      0xffffffffffffffff\n        /* \"#utility.yul\":2460:2470   */\n      dup3\n        /* \"#utility.yul\":2457:2491   */\n      gt\n        /* \"#utility.yul\":2454:2516   */\n      or\n        /* \"#utility.yul\":2451:2539   */\n      iszero\n      tag_217\n      jumpi\n        /* \"#utility.yul\":2519:2537   */\n      tag_218\n      tag_131\n      jump\t// in\n    tag_218:\n        /* \"#utility.yul\":2451:2539   */\n    tag_217:\n        /* \"#utility.yul\":2559:2569   */\n      dup1\n        /* \"#utility.yul\":2555:2557   */\n      0x40\n        /* \"#utility.yul\":2548:2570   */\n      mstore\n        /* \"#utility.yul\":2338:2576   */\n      pop\n        /* \"#utility.yul\":2295:2576   */\n      pop\n      pop\n      jump\t// out\n        /* \"#utility.yul\":2582:2711   */\n    tag_133:\n        /* \"#utility.yul\":2616:2622   */\n      0x00\n        /* \"#utility.yul\":2643:2663   */\n      tag_220\n      tag_119\n      jump\t// in\n    tag_220:\n        /* \"#utility.yul\":2633:2663   */\n      swap1\n      pop\n        /* \"#utility.yul\":2672:2705   */\n      tag_221\n        /* \"#utility.yul\":2700:2704   */\n      dup3\n        /* \"#utility.yul\":2692:2698   */\n      dup3\n        /* \"#utility.yul\":2672:2705   */\n      tag_132\n      jump\t// in\n    tag_221:\n        /* \"#utility.yul\":2582:2711   */\n      swap2\n      swap1\n      pop\n      jump\t// out\n        /* \"#utility.yul\":2717:2834   */\n    tag_134:\n        /* \"#utility.yul\":2826:2827   */\n      0x00\n        /* \"#utility.yul\":2823:2824   */\n      dup1\n        /* \"#utility.yul\":2816:2828   */\n      revert\n        /* \"#utility.yul\":2840:2966   */\n    tag_135:\n        /* \"#utility.yul\":2877:2884   */\n      0x00\n        /* \"#utility.yul\":2917:2959   */\n      0xffffffffffffffffffffffffffffffffffffffff\n        /* \"#utility.yul\":2910:2915   */\n      dup3\n        /* \"#utility.yul\":2906:2960   */\n      and\n        /* \"#utility.yul\":2895:2960   */\n      swap1\n      pop\n        /* \"#utility.yul\":2840:2966   */\n      swap2\n      swap1\n      pop\n      jump\t// out\n        /* \"#utility.yul\":2972:3068   */\n    tag_136:\n        /* \"#utility.yul\":3009:3016   */\n      0x00\n        /* \"#utility.yul\":3038:3062   */\n      tag_225\n        /* \"#utility.yul\":3056:3061   */\n      dup3\n        /* \"#utility.yul\":3038:3062   */\n      tag_135\n      jump\t// in\n    tag_225:\n        /* \"#utility.yul\":3027:3062   */\n      swap1\n      pop\n        /* \"#utility.yul\":2972:3068   */\n      swap2\n      swap1\n      pop\n      jump\t// out\n        /* \"#utility.yul\":3074:3196   */\n    tag_137:\n        /* \"#utility.yul\":3147:3171   */\n      tag_227\n        /* \"#utility.yul\":3165:3170   */\n      dup2\n        /* \"#utility.yul\":3147:3171   */\n      tag_136\n      jump\t// in\n    tag_227:\n        /* \"#utility.yul\":3140:3145   */\n      dup2\n        /* \"#utility.yul\":3137:3172   */\n      eq\n        /* \"#utility.yul\":3127:3190   */\n      tag_228\n      jumpi\n        /* \"#utility.yul\":3186:3187   */\n      0x00\n        /* \"#utility.yul\":3183:3184   */\n      dup1\n        /* \"#utility.yul\":3176:3188   */\n      revert\n        /* \"#utility.yul\":3127:3190   */\n    tag_228:\n        /* \"#utility.yul\":3074:3196   */\n      pop\n      jump\t// out\n        /* \"#utility.yul\":3202:3341   */\n    tag_138:\n        /* \"#utility.yul\":3248:3253   */\n      0x00\n        /* \"#utility.yul\":3286:3292   */\n      dup2\n        /* \"#utility.yul\":3273:3293   */\n      calldataload\n        /* \"#utility.yul\":3264:3293   */\n      swap1\n      pop\n        /* \"#utility.yul\":3302:3335   */\n      tag_230\n        /* \"#utility.yul\":3329:3334   */\n      dup2\n        /* \"#utility.yul\":3302:3335   */\n      tag_137\n      jump\t// in\n    tag_230:\n        /* \"#utility.yul\":3202:3341   */\n      swap3\n      swap2\n      pop\n      pop\n      jump\t// out\n        /* \"#utility.yul\":3347:3464   */\n    tag_139:\n        /* \"#utility.yul\":3456:3457   */\n      0x00\n        /* \"#utility.yul\":3453:3454   */\n      dup1\n        /* \"#utility.yul\":3446:3458   */\n      revert\n        /* \"#utility.yul\":3470:3587   */\n    tag_140:\n        /* \"#utility.yul\":3579:3580   */\n      0x00\n        /* \"#utility.yul\":3576:3577   */\n      dup1\n        /* \"#utility.yul\":3569:3581   */\n      revert\n        /* \"#utility.yul\":3593:3901   */\n    tag_141:\n        /* \"#utility.yul\":3655:3659   */\n      0x00\n        /* \"#utility.yul\":3745:3763   */\n      0xffffffffffffffff\n        /* \"#utility.yul\":3737:3743   */\n      dup3\n        /* \"#utility.yul\":3734:3764   */\n      gt\n        /* \"#utility.yul\":3731:3787   */\n      iszero\n      tag_234\n      jumpi\n        /* \"#utility.yul\":3767:3785   */\n      tag_235\n      tag_131\n      jump\t// in\n    tag_235:\n        /* \"#utility.yul\":3731:3787   */\n    tag_234:\n        /* \"#utility.yul\":3805:3834   */\n      tag_236\n        /* \"#utility.yul\":3827:3833   */\n      dup3\n        /* \"#utility.yul\":3805:3834   */\n      tag_130\n      jump\t// in\n    tag_236:\n        /* \"#utility.yul\":3797:3834   */\n      swap1\n      pop\n        /* \"#utility.yul\":3889:3893   */\n      0x20\n        /* \"#utility.yul\":3883:3887   */\n      dup2\n        /* \"#utility.yul\":3879:3894   */\n      add\n        /* \"#utility.yul\":3871:3894   */\n      swap1\n      pop\n        /* \"#utility.yul\":3593:3901   */\n      swap2\n      swap1\n      pop\n      jump\t// out\n        /* \"#utility.yul\":3907:4053   */\n    tag_142:\n        /* \"#utility.yul\":4004:4010   */\n      dup3\n        /* \"#utility.yul\":3999:4002   */\n      dup2\n        /* \"#utility.yul\":3994:3997   */\n      dup4\n        /* \"#utility.yul\":3981:4011   */\n      calldatacopy\n        /* \"#utility.yul\":4045:4046   */\n      0x00\n        /* \"#utility.yul\":4036:4042   */\n      dup4\n        /* \"#utility.yul\":4031:4034   */\n      dup4\n        /* \"#utility.yul\":4027:4043   */\n      add\n        /* \"#utility.yul\":4020:4047   */\n      mstore\n        /* \"#utility.yul\":3907:4053   */\n      pop\n      pop\n      pop\n      jump\t// out\n        /* \"#utility.yul\":4059:4484   */\n    tag_143:\n        /* \"#utility.yul\":4137:4142   */\n      0x00\n        /* \"#utility.yul\":4162:4228   */\n      tag_239\n        /* \"#utility.yul\":4178:4227   */\n      tag_240\n        /* \"#utility.yul\":4220:4226   */\n      dup5\n        /* \"#utility.yul\":4178:4227   */\n      tag_141\n      jump\t// in\n    tag_240:\n        /* \"#utility.yul\":4162:4228   */\n      tag_133\n      jump\t// in\n    tag_239:\n        /* \"#utility.yul\":4153:4228   */\n      swap1\n      pop\n        /* \"#utility.yul\":4251:4257   */\n      dup3\n        /* \"#utility.yul\":4244:4249   */\n      dup2\n        /* \"#utility.yul\":4237:4258   */\n      mstore\n        /* \"#utility.yul\":4289:4293   */\n      0x20\n        /* \"#utility.yul\":4282:4287   */\n      dup2\n        /* \"#utility.yul\":4278:4294   */\n      add\n        /* \"#utility.yul\":4327:4330   */\n      dup5\n        /* \"#utility.yul\":4318:4324   */\n      dup5\n        /* \"#utility.yul\":4313:4316   */\n      dup5\n        /* \"#utility.yul\":4309:4325   */\n      add\n        /* \"#utility.yul\":4306:4331   */\n      gt\n        /* \"#utility.yul\":4303:4415   */\n      iszero\n      tag_241\n      jumpi\n        /* \"#utility.yul\":4334:4413   */\n      tag_242\n      tag_140\n      jump\t// in\n    tag_242:\n        /* \"#utility.yul\":4303:4415   */\n    tag_241:\n        /* \"#utility.yul\":4424:4478   */\n      tag_243\n        /* \"#utility.yul\":4471:4477   */\n      dup5\n        /* \"#utility.yul\":4466:4469   */\n      dup3\n        /* \"#utility.yul\":4461:4464   */\n      dup6\n        /* \"#utility.yul\":4424:4478   */\n      tag_142\n      jump\t// in\n    tag_243:\n        /* \"#utility.yul\":4143:4484   */\n      pop\n        /* \"#utility.yul\":4059:4484   */\n      swap4\n      swap3\n      pop\n      pop\n      pop\n      jump\t// out\n        /* \"#utility.yul\":4504:4844   */\n    tag_144:\n        /* \"#utility.yul\":4560:4565   */\n      0x00\n        /* \"#utility.yul\":4609:4612   */\n      dup3\n        /* \"#utility.yul\":4602:4606   */\n      0x1f\n        /* \"#utility.yul\":4594:4600   */\n      dup4\n        /* \"#utility.yul\":4590:4607   */\n      add\n        /* \"#utility.yul\":4586:4613   */\n      slt\n        /* \"#utility.yul\":4576:4698   */\n      tag_245\n      jumpi\n        /* \"#utility.yul\":4617:4696   */\n      tag_246\n      tag_139\n      jump\t// in\n    tag_246:\n        /* \"#utility.yul\":4576:4698   */\n    tag_245:\n        /* \"#utility.yul\":4734:4740   */\n      dup2\n        /* \"#utility.yul\":4721:4741   */\n      calldataload\n        /* \"#utility.yul\":4759:4838   */\n      tag_247\n        /* \"#utility.yul\":4834:4837   */\n      dup5\n        /* \"#utility.yul\":4826:4832   */\n      dup3\n        /* \"#utility.yul\":4819:4823   */\n      0x20\n        /* \"#utility.yul\":4811:4817   */\n      dup7\n        /* \"#utility.yul\":4807:4824   */\n      add\n        /* \"#utility.yul\":4759:4838   */\n      tag_143\n      jump\t// in\n    tag_247:\n        /* \"#utility.yul\":4750:4838   */\n      swap2\n      pop\n        /* \"#utility.yul\":4566:4844   */\n      pop\n        /* \"#utility.yul\":4504:4844   */\n      swap3\n      swap2\n      pop\n      pop\n      jump\t// out\n        /* \"#utility.yul\":4894:6859   */\n    tag_145:\n        /* \"#utility.yul\":4977:4982   */\n      0x00\n        /* \"#utility.yul\":5021:5027   */\n      0x0100\n        /* \"#utility.yul\":5009:5018   */\n      dup3\n        /* \"#utility.yul\":5004:5007   */\n      dup5\n        /* \"#utility.yul\":5000:5019   */\n      sub\n        /* \"#utility.yul\":4996:5028   */\n      slt\n        /* \"#utility.yul\":4993:5112   */\n      iszero\n      tag_249\n      jumpi\n        /* \"#utility.yul\":5031:5110   */\n      tag_250\n      tag_129\n      jump\t// in\n    tag_250:\n        /* \"#utility.yul\":4993:5112   */\n    tag_249:\n        /* \"#utility.yul\":5130:5153   */\n      tag_251\n        /* \"#utility.yul\":5146:5152   */\n      0x0100\n        /* \"#utility.yul\":5130:5153   */\n      tag_133\n      jump\t// in\n    tag_251:\n        /* \"#utility.yul\":5121:5153   */\n      swap1\n      pop\n        /* \"#utility.yul\":5210:5211   */\n      0x00\n        /* \"#utility.yul\":5250:5299   */\n      tag_252\n        /* \"#utility.yul\":5295:5298   */\n      dup5\n        /* \"#utility.yul\":5286:5292   */\n      dup3\n        /* \"#utility.yul\":5275:5284   */\n      dup6\n        /* \"#utility.yul\":5271:5293   */\n      add\n        /* \"#utility.yul\":5250:5299   */\n      tag_128\n      jump\t// in\n    tag_252:\n        /* \"#utility.yul\":5243:5247   */\n      0x00\n        /* \"#utility.yul\":5236:5241   */\n      dup4\n        /* \"#utility.yul\":5232:5248   */\n      add\n        /* \"#utility.yul\":5225:5300   */\n      mstore\n        /* \"#utility.yul\":5163:5311   */\n      pop\n        /* \"#utility.yul\":5381:5383   */\n      0x20\n        /* \"#utility.yul\":5422:5471   */\n      tag_253\n        /* \"#utility.yul\":5467:5470   */\n      dup5\n        /* \"#utility.yul\":5458:5464   */\n      dup3\n        /* \"#utility.yul\":5447:5456   */\n      dup6\n        /* \"#utility.yul\":5443:5465   */\n      add\n        /* \"#utility.yul\":5422:5471   */\n      tag_124\n      jump\t// in\n    tag_253:\n        /* \"#utility.yul\":5415:5419   */\n      0x20\n        /* \"#utility.yul\":5408:5413   */\n      dup4\n        /* \"#utility.yul\":5404:5420   */\n      add\n        /* \"#utility.yul\":5397:5472   */\n      mstore\n        /* \"#utility.yul\":5321:5483   */\n      pop\n        /* \"#utility.yul\":5553:5555   */\n      0x40\n        /* \"#utility.yul\":5594:5643   */\n      tag_254\n        /* \"#utility.yul\":5639:5642   */\n      dup5\n        /* \"#utility.yul\":5630:5636   */\n      dup3\n        /* \"#utility.yul\":5619:5628   */\n      dup6\n        /* \"#utility.yul\":5615:5637   */\n      add\n        /* \"#utility.yul\":5594:5643   */\n      tag_124\n      jump\t// in\n    tag_254:\n        /* \"#utility.yul\":5587:5591   */\n      0x40\n        /* \"#utility.yul\":5580:5585   */\n      dup4\n        /* \"#utility.yul\":5576:5592   */\n      add\n        /* \"#utility.yul\":5569:5644   */\n      mstore\n        /* \"#utility.yul\":5493:5655   */\n      pop\n        /* \"#utility.yul\":5724:5726   */\n      0x60\n        /* \"#utility.yul\":5765:5814   */\n      tag_255\n        /* \"#utility.yul\":5810:5813   */\n      dup5\n        /* \"#utility.yul\":5801:5807   */\n      dup3\n        /* \"#utility.yul\":5790:5799   */\n      dup6\n        /* \"#utility.yul\":5786:5808   */\n      add\n        /* \"#utility.yul\":5765:5814   */\n      tag_138\n      jump\t// in\n    tag_255:\n        /* \"#utility.yul\":5758:5762   */\n      0x60\n        /* \"#utility.yul\":5751:5756   */\n      dup4\n        /* \"#utility.yul\":5747:5763   */\n      add\n        /* \"#utility.yul\":5740:5815   */\n      mstore\n        /* \"#utility.yul\":5665:5826   */\n      pop\n        /* \"#utility.yul\":5894:5897   */\n      0x80\n        /* \"#utility.yul\":5936:5985   */\n      tag_256\n        /* \"#utility.yul\":5981:5984   */\n      dup5\n        /* \"#utility.yul\":5972:5978   */\n      dup3\n        /* \"#utility.yul\":5961:5970   */\n      dup6\n        /* \"#utility.yul\":5957:5979   */\n      add\n        /* \"#utility.yul\":5936:5985   */\n      tag_138\n      jump\t// in\n    tag_256:\n        /* \"#utility.yul\":5929:5933   */\n      0x80\n        /* \"#utility.yul\":5922:5927   */\n      dup4\n        /* \"#utility.yul\":5918:5934   */\n      add\n        /* \"#utility.yul\":5911:5986   */\n      mstore\n        /* \"#utility.yul\":5836:5997   */\n      pop\n        /* \"#utility.yul\":6094:6097   */\n      0xa0\n        /* \"#utility.yul\":6083:6092   */\n      dup3\n        /* \"#utility.yul\":6079:6098   */\n      add\n        /* \"#utility.yul\":6066:6099   */\n      calldataload\n        /* \"#utility.yul\":6126:6144   */\n      0xffffffffffffffff\n        /* \"#utility.yul\":6118:6124   */\n      dup2\n        /* \"#utility.yul\":6115:6145   */\n      gt\n        /* \"#utility.yul\":6112:6229   */\n      iszero\n      tag_257\n      jumpi\n        /* \"#utility.yul\":6148:6227   */\n      tag_258\n      tag_134\n      jump\t// in\n    tag_258:\n        /* \"#utility.yul\":6112:6229   */\n    tag_257:\n        /* \"#utility.yul\":6268:6327   */\n      tag_259\n        /* \"#utility.yul\":6323:6326   */\n      dup5\n        /* \"#utility.yul\":6314:6320   */\n      dup3\n        /* \"#utility.yul\":6303:6312   */\n      dup6\n        /* \"#utility.yul\":6299:6321   */\n      add\n        /* \"#utility.yul\":6268:6327   */\n      tag_144\n      jump\t// in\n    tag_259:\n        /* \"#utility.yul\":6261:6265   */\n      0xa0\n        /* \"#utility.yul\":6254:6259   */\n      dup4\n        /* \"#utility.yul\":6250:6266   */\n      add\n        /* \"#utility.yul\":6243:6328   */\n      mstore\n        /* \"#utility.yul\":6007:6339   */\n      pop\n        /* \"#utility.yul\":6414:6417   */\n      0xc0\n        /* \"#utility.yul\":6456:6505   */\n      tag_260\n        /* \"#utility.yul\":6501:6504   */\n      dup5\n        /* \"#utility.yul\":6492:6498   */\n      dup3\n        /* \"#utility.yul\":6481:6490   */\n      dup6\n        /* \"#utility.yul\":6477:6499   */\n      add\n        /* \"#utility.yul\":6456:6505   */\n      tag_124\n      jump\t// in\n    tag_260:\n        /* \"#utility.yul\":6449:6453   */\n      0xc0\n        /* \"#utility.yul\":6442:6447   */\n      dup4\n        /* \"#utility.yul\":6438:6454   */\n      add\n        /* \"#utility.yul\":6431:6506   */\n      mstore\n        /* \"#utility.yul\":6349:6517   */\n      pop\n        /* \"#utility.yul\":6607:6610   */\n      0xe0\n        /* \"#utility.yul\":6596:6605   */\n      dup3\n        /* \"#utility.yul\":6592:6611   */\n      add\n        /* \"#utility.yul\":6579:6612   */\n      calldataload\n        /* \"#utility.yul\":6639:6657   */\n      0xffffffffffffffff\n        /* \"#utility.yul\":6631:6637   */\n      dup2\n        /* \"#utility.yul\":6628:6658   */\n      gt\n        /* \"#utility.yul\":6625:6742   */\n      iszero\n      tag_261\n      jumpi\n        /* \"#utility.yul\":6661:6740   */\n      tag_262\n      tag_134\n      jump\t// in\n    tag_262:\n        /* \"#utility.yul\":6625:6742   */\n    tag_261:\n        /* \"#utility.yul\":6781:6840   */\n      tag_263\n        /* \"#utility.yul\":6836:6839   */\n      dup5\n        /* \"#utility.yul\":6827:6833   */\n      dup3\n        /* \"#utility.yul\":6816:6825   */\n      dup6\n        /* \"#utility.yul\":6812:6834   */\n      add\n        /* \"#utility.yul\":6781:6840   */\n      tag_144\n      jump\t// in\n    tag_263:\n        /* \"#utility.yul\":6774:6778   */\n      0xe0\n        /* \"#utility.yul\":6767:6772   */\n      dup4\n        /* \"#utility.yul\":6763:6779   */\n      add\n        /* \"#utility.yul\":6756:6841   */\n      mstore\n        /* \"#utility.yul\":6527:6852   */\n      pop\n        /* \"#utility.yul\":4894:6859   */\n      swap3\n      swap2\n      pop\n      pop\n      jump\t// out\n        /* \"#utility.yul\":6865:7567   */\n    tag_20:\n        /* \"#utility.yul\":6967:6973   */\n      0x00\n        /* \"#utility.yul\":6975:6981   */\n      dup1\n        /* \"#utility.yul\":7024:7026   */\n      0x40\n        /* \"#utility.yul\":7012:7021   */\n      dup4\n        /* \"#utility.yul\":7003:7010   */\n      dup6\n        /* \"#utility.yul\":6999:7022   */\n      sub\n        /* \"#utility.yul\":6995:7027   */\n      slt\n        /* \"#utility.yul\":6992:7111   */\n      iszero\n      tag_265\n      jumpi\n        /* \"#utility.yul\":7030:7109   */\n      tag_266\n      tag_120\n      jump\t// in\n    tag_266:\n        /* \"#utility.yul\":6992:7111   */\n    tag_265:\n        /* \"#utility.yul\":7150:7151   */\n      0x00\n        /* \"#utility.yul\":7175:7228   */\n      tag_267\n        /* \"#utility.yul\":7220:7227   */\n      dup6\n        /* \"#utility.yul\":7211:7217   */\n      dup3\n        /* \"#utility.yul\":7200:7209   */\n      dup7\n        /* \"#utility.yul\":7196:7218   */\n      add\n        /* \"#utility.yul\":7175:7228   */\n      tag_128\n      jump\t// in\n    tag_267:\n        /* \"#utility.yul\":7165:7228   */\n      swap3\n      pop\n        /* \"#utility.yul\":7121:7238   */\n      pop\n        /* \"#utility.yul\":7305:7307   */\n      0x20\n        /* \"#utility.yul\":7294:7303   */\n      dup4\n        /* \"#utility.yul\":7290:7308   */\n      add\n        /* \"#utility.yul\":7277:7309   */\n      calldataload\n        /* \"#utility.yul\":7336:7354   */\n      0xffffffffffffffff\n        /* \"#utility.yul\":7328:7334   */\n      dup2\n        /* \"#utility.yul\":7325:7355   */\n      gt\n        /* \"#utility.yul\":7322:7439   */\n      iszero\n      tag_268\n      jumpi\n        /* \"#utility.yul\":7358:7437   */\n      tag_269\n      tag_121\n      jump\t// in\n    tag_269:\n        /* \"#utility.yul\":7322:7439   */\n    tag_268:\n        /* \"#utility.yul\":7463:7550   */\n      tag_270\n        /* \"#utility.yul\":7542:7549   */\n      dup6\n        /* \"#utility.yul\":7533:7539   */\n      dup3\n        /* \"#utility.yul\":7522:7531   */\n      dup7\n        /* \"#utility.yul\":7518:7540   */\n      add\n        /* \"#utility.yul\":7463:7550   */\n      tag_145\n      jump\t// in\n    tag_270:\n        /* \"#utility.yul\":7453:7550   */\n      swap2\n      pop\n        /* \"#utility.yul\":7248:7560   */\n      pop\n        /* \"#utility.yul\":6865:7567   */\n      swap3\n      pop\n      swap3\n      swap1\n      pop\n      jump\t// out\n        /* \"#utility.yul\":7573:7681   */\n    tag_146:\n        /* \"#utility.yul\":7650:7674   */\n      tag_272\n        /* \"#utility.yul\":7668:7673   */\n      dup2\n        /* \"#utility.yul\":7650:7674   */\n      tag_125\n      jump\t// in\n    tag_272:\n        /* \"#utility.yul\":7645:7648   */\n      dup3\n        /* \"#utility.yul\":7638:7675   */\n      mstore\n        /* \"#utility.yul\":7573:7681   */\n      pop\n      pop\n      jump\t// out\n        /* \"#utility.yul\":7687:7795   */\n    tag_147:\n        /* \"#utility.yul\":7764:7788   */\n      tag_274\n        /* \"#utility.yul\":7782:7787   */\n      dup2\n        /* \"#utility.yul\":7764:7788   */\n      tag_122\n      jump\t// in\n    tag_274:\n        /* \"#utility.yul\":7759:7762   */\n      dup3\n        /* \"#utility.yul\":7752:7789   */\n      mstore\n        /* \"#utility.yul\":7687:7795   */\n      pop\n      pop\n      jump\t// out\n        /* \"#utility.yul\":7801:7909   */\n    tag_148:\n        /* \"#utility.yul\":7878:7902   */\n      tag_276\n        /* \"#utility.yul\":7896:7901   */\n      dup2\n        /* \"#utility.yul\":7878:7902   */\n      tag_136\n      jump\t// in\n    tag_276:\n        /* \"#utility.yul\":7873:7876   */\n      dup3\n        /* \"#utility.yul\":7866:7903   */\n      mstore\n        /* \"#utility.yul\":7801:7909   */\n      pop\n      pop\n      jump\t// out\n        /* \"#utility.yul\":7915:8014   */\n    tag_149:\n        /* \"#utility.yul\":7967:7973   */\n      0x00\n        /* \"#utility.yul\":8001:8006   */\n      dup2\n        /* \"#utility.yul\":7995:8007   */\n      mload\n        /* \"#utility.yul\":7985:8007   */\n      swap1\n      pop\n        /* \"#utility.yul\":7915:8014   */\n      swap2\n      swap1\n      pop\n      jump\t// out\n        /* \"#utility.yul\":8020:8179   */\n    tag_150:\n        /* \"#utility.yul\":8094:8105   */\n      0x00\n        /* \"#utility.yul\":8128:8134   */\n      dup3\n        /* \"#utility.yul\":8123:8126   */\n      dup3\n        /* \"#utility.yul\":8116:8135   */\n      mstore\n        /* \"#utility.yul\":8168:8172   */\n      0x20\n        /* \"#utility.yul\":8163:8166   */\n      dup3\n        /* \"#utility.yul\":8159:8173   */\n      add\n        /* \"#utility.yul\":8144:8173   */\n      swap1\n      pop\n        /* \"#utility.yul\":8020:8179   */\n      swap3\n      swap2\n      pop\n      pop\n      jump\t// out\n        /* \"#utility.yul\":8185:8431   */\n    tag_151:\n        /* \"#utility.yul\":8266:8267   */\n      0x00\n        /* \"#utility.yul\":8276:8389   */\n    tag_280:\n        /* \"#utility.yul\":8290:8296   */\n      dup4\n        /* \"#utility.yul\":8287:8288   */\n      dup2\n        /* \"#utility.yul\":8284:8297   */\n      lt\n        /* \"#utility.yul\":8276:8389   */\n      iszero\n      tag_282\n      jumpi\n        /* \"#utility.yul\":8375:8376   */\n      dup1\n        /* \"#utility.yul\":8370:8373   */\n      dup3\n        /* \"#utility.yul\":8366:8377   */\n      add\n        /* \"#utility.yul\":8360:8378   */\n      mload\n        /* \"#utility.yul\":8356:8357   */\n      dup2\n        /* \"#utility.yul\":8351:8354   */\n      dup5\n        /* \"#utility.yul\":8347:8358   */\n      add\n        /* \"#utility.yul\":8340:8379   */\n      mstore\n        /* \"#utility.yul\":8312:8314   */\n      0x20\n        /* \"#utility.yul\":8309:8310   */\n      dup2\n        /* \"#utility.yul\":8305:8315   */\n      add\n        /* \"#utility.yul\":8300:8315   */\n      swap1\n      pop\n        /* \"#utility.yul\":8276:8389   */\n      jump(tag_280)\n    tag_282:\n        /* \"#utility.yul\":8423:8424   */\n      0x00\n        /* \"#utility.yul\":8414:8420   */\n      dup5\n        /* \"#utility.yul\":8409:8412   */\n      dup5\n        /* \"#utility.yul\":8405:8421   */\n      add\n        /* \"#utility.yul\":8398:8425   */\n      mstore\n        /* \"#utility.yul\":8247:8431   */\n      pop\n        /* \"#utility.yul\":8185:8431   */\n      pop\n      pop\n      pop\n      jump\t// out\n        /* \"#utility.yul\":8437:8794   */\n    tag_152:\n        /* \"#utility.yul\":8515:8518   */\n      0x00\n        /* \"#utility.yul\":8543:8582   */\n      tag_284\n        /* \"#utility.yul\":8576:8581   */\n      dup3\n        /* \"#utility.yul\":8543:8582   */\n      tag_149\n      jump\t// in\n    tag_284:\n        /* \"#utility.yul\":8598:8659   */\n      tag_285\n        /* \"#utility.yul\":8652:8658   */\n      dup2\n        /* \"#utility.yul\":8647:8650   */\n      dup6\n        /* \"#utility.yul\":8598:8659   */\n      tag_150\n      jump\t// in\n    tag_285:\n        /* \"#utility.yul\":8591:8659   */\n      swap4\n      pop\n        /* \"#utility.yul\":8668:8733   */\n      tag_286\n        /* \"#utility.yul\":8726:8732   */\n      dup2\n        /* \"#utility.yul\":8721:8724   */\n      dup6\n        /* \"#utility.yul\":8714:8718   */\n      0x20\n        /* \"#utility.yul\":8707:8712   */\n      dup7\n        /* \"#utility.yul\":8703:8719   */\n      add\n        /* \"#utility.yul\":8668:8733   */\n      tag_151\n      jump\t// in\n    tag_286:\n        /* \"#utility.yul\":8758:8787   */\n      tag_287\n        /* \"#utility.yul\":8780:8786   */\n      dup2\n        /* \"#utility.yul\":8758:8787   */\n      tag_130\n      jump\t// in\n    tag_287:\n        /* \"#utility.yul\":8753:8756   */\n      dup5\n        /* \"#utility.yul\":8749:8788   */\n      add\n        /* \"#utility.yul\":8742:8788   */\n      swap2\n      pop\n        /* \"#utility.yul\":8519:8794   */\n      pop\n        /* \"#utility.yul\":8437:8794   */\n      swap3\n      swap2\n      pop\n      pop\n      jump\t// out\n        /* \"#utility.yul\":8884:10693   */\n    tag_153:\n        /* \"#utility.yul\":9021:9024   */\n      0x00\n        /* \"#utility.yul\":9057:9063   */\n      0x0100\n        /* \"#utility.yul\":9052:9055   */\n      dup4\n        /* \"#utility.yul\":9048:9064   */\n      add\n        /* \"#utility.yul\":9144:9148   */\n      0x00\n        /* \"#utility.yul\":9137:9142   */\n      dup4\n        /* \"#utility.yul\":9133:9149   */\n      add\n        /* \"#utility.yul\":9127:9150   */\n      mload\n        /* \"#utility.yul\":9163:9226   */\n      tag_289\n        /* \"#utility.yul\":9220:9224   */\n      0x00\n        /* \"#utility.yul\":9215:9218   */\n      dup7\n        /* \"#utility.yul\":9211:9225   */\n      add\n        /* \"#utility.yul\":9197:9209   */\n      dup3\n        /* \"#utility.yul\":9163:9226   */\n      tag_146\n      jump\t// in\n    tag_289:\n        /* \"#utility.yul\":9074:9236   */\n      pop\n        /* \"#utility.yul\":9329:9333   */\n      0x20\n        /* \"#utility.yul\":9322:9327   */\n      dup4\n        /* \"#utility.yul\":9318:9334   */\n      add\n        /* \"#utility.yul\":9312:9335   */\n      mload\n        /* \"#utility.yul\":9348:9411   */\n      tag_290\n        /* \"#utility.yul\":9405:9409   */\n      0x20\n        /* \"#utility.yul\":9400:9403   */\n      dup7\n        /* \"#utility.yul\":9396:9410   */\n      add\n        /* \"#utility.yul\":9382:9394   */\n      dup3\n        /* \"#utility.yul\":9348:9411   */\n      tag_147\n      jump\t// in\n    tag_290:\n        /* \"#utility.yul\":9246:9421   */\n      pop\n        /* \"#utility.yul\":9514:9518   */\n      0x40\n        /* \"#utility.yul\":9507:9512   */\n      dup4\n        /* \"#utility.yul\":9503:9519   */\n      add\n        /* \"#utility.yul\":9497:9520   */\n      mload\n        /* \"#utility.yul\":9533:9596   */\n      tag_291\n        /* \"#utility.yul\":9590:9594   */\n      0x40\n        /* \"#utility.yul\":9585:9588   */\n      dup7\n        /* \"#utility.yul\":9581:9595   */\n      add\n        /* \"#utility.yul\":9567:9579   */\n      dup3\n        /* \"#utility.yul\":9533:9596   */\n      tag_147\n      jump\t// in\n    tag_291:\n        /* \"#utility.yul\":9431:9606   */\n      pop\n        /* \"#utility.yul\":9698:9702   */\n      0x60\n        /* \"#utility.yul\":9691:9696   */\n      dup4\n        /* \"#utility.yul\":9687:9703   */\n      add\n        /* \"#utility.yul\":9681:9704   */\n      mload\n        /* \"#utility.yul\":9717:9780   */\n      tag_292\n        /* \"#utility.yul\":9774:9778   */\n      0x60\n        /* \"#utility.yul\":9769:9772   */\n      dup7\n        /* \"#utility.yul\":9765:9779   */\n      add\n        /* \"#utility.yul\":9751:9763   */\n      dup3\n        /* \"#utility.yul\":9717:9780   */\n      tag_148\n      jump\t// in\n    tag_292:\n        /* \"#utility.yul\":9616:9790   */\n      pop\n        /* \"#utility.yul\":9881:9885   */\n      0x80\n        /* \"#utility.yul\":9874:9879   */\n      dup4\n        /* \"#utility.yul\":9870:9886   */\n      add\n        /* \"#utility.yul\":9864:9887   */\n      mload\n        /* \"#utility.yul\":9900:9963   */\n      tag_293\n        /* \"#utility.yul\":9957:9961   */\n      0x80\n        /* \"#utility.yul\":9952:9955   */\n      dup7\n        /* \"#utility.yul\":9948:9962   */\n      add\n        /* \"#utility.yul\":9934:9946   */\n      dup3\n        /* \"#utility.yul\":9900:9963   */\n      tag_148\n      jump\t// in\n    tag_293:\n        /* \"#utility.yul\":9800:9973   */\n      pop\n        /* \"#utility.yul\":10065:10069   */\n      0xa0\n        /* \"#utility.yul\":10058:10063   */\n      dup4\n        /* \"#utility.yul\":10054:10070   */\n      add\n        /* \"#utility.yul\":10048:10071   */\n      mload\n        /* \"#utility.yul\":10118:10121   */\n      dup5\n        /* \"#utility.yul\":10112:10116   */\n      dup3\n        /* \"#utility.yul\":10108:10122   */\n      sub\n        /* \"#utility.yul\":10101:10105   */\n      0xa0\n        /* \"#utility.yul\":10096:10099   */\n      dup7\n        /* \"#utility.yul\":10092:10106   */\n      add\n        /* \"#utility.yul\":10085:10123   */\n      mstore\n        /* \"#utility.yul\":10144:10217   */\n      tag_294\n        /* \"#utility.yul\":10212:10216   */\n      dup3\n        /* \"#utility.yul\":10198:10210   */\n      dup3\n        /* \"#utility.yul\":10144:10217   */\n      tag_152\n      jump\t// in\n    tag_294:\n        /* \"#utility.yul\":10136:10217   */\n      swap2\n      pop\n        /* \"#utility.yul\":9983:10228   */\n      pop\n        /* \"#utility.yul\":10326:10330   */\n      0xc0\n        /* \"#utility.yul\":10319:10324   */\n      dup4\n        /* \"#utility.yul\":10315:10331   */\n      add\n        /* \"#utility.yul\":10309:10332   */\n      mload\n        /* \"#utility.yul\":10345:10408   */\n      tag_295\n        /* \"#utility.yul\":10402:10406   */\n      0xc0\n        /* \"#utility.yul\":10397:10400   */\n      dup7\n        /* \"#utility.yul\":10393:10407   */\n      add\n        /* \"#utility.yul\":10379:10391   */\n      dup3\n        /* \"#utility.yul\":10345:10408   */\n      tag_147\n      jump\t// in\n    tag_295:\n        /* \"#utility.yul\":10238:10418   */\n      pop\n        /* \"#utility.yul\":10503:10507   */\n      0xe0\n        /* \"#utility.yul\":10496:10501   */\n      dup4\n        /* \"#utility.yul\":10492:10508   */\n      add\n        /* \"#utility.yul\":10486:10509   */\n      mload\n        /* \"#utility.yul\":10556:10559   */\n      dup5\n        /* \"#utility.yul\":10550:10554   */\n      dup3\n        /* \"#utility.yul\":10546:10560   */\n      sub\n        /* \"#utility.yul\":10539:10543   */\n      0xe0\n        /* \"#utility.yul\":10534:10537   */\n      dup7\n        /* \"#utility.yul\":10530:10544   */\n      add\n        /* \"#utility.yul\":10523:10561   */\n      mstore\n        /* \"#utility.yul\":10582:10655   */\n      tag_296\n        /* \"#utility.yul\":10650:10654   */\n      dup3\n        /* \"#utility.yul\":10636:10648   */\n      dup3\n        /* \"#utility.yul\":10582:10655   */\n      tag_152\n      jump\t// in\n    tag_296:\n        /* \"#utility.yul\":10574:10655   */\n      swap2\n      pop\n        /* \"#utility.yul\":10428:10666   */\n      pop\n        /* \"#utility.yul\":10683:10687   */\n      dup1\n        /* \"#utility.yul\":10676:10687   */\n      swap2\n      pop\n        /* \"#utility.yul\":9026:10693   */\n      pop\n        /* \"#utility.yul\":8884:10693   */\n      swap3\n      swap2\n      pop\n      pop\n      jump\t// out\n        /* \"#utility.yul\":10699:11108   */\n    tag_23:\n        /* \"#utility.yul\":10860:10864   */\n      0x00\n        /* \"#utility.yul\":10898:10900   */\n      0x20\n        /* \"#utility.yul\":10887:10896   */\n      dup3\n        /* \"#utility.yul\":10883:10901   */\n      add\n        /* \"#utility.yul\":10875:10901   */\n      swap1\n      pop\n        /* \"#utility.yul\":10947:10956   */\n      dup2\n        /* \"#utility.yul\":10941:10945   */\n      dup2\n        /* \"#utility.yul\":10937:10957   */\n      sub\n        /* \"#utility.yul\":10933:10934   */\n      0x00\n        /* \"#utility.yul\":10922:10931   */\n      dup4\n        /* \"#utility.yul\":10918:10935   */\n      add\n        /* \"#utility.yul\":10911:10958   */\n      mstore\n        /* \"#utility.yul\":10975:11101   */\n      tag_298\n        /* \"#utility.yul\":11096:11100   */\n      dup2\n        /* \"#utility.yul\":11087:11093   */\n      dup5\n        /* \"#utility.yul\":10975:11101   */\n      tag_153\n      jump\t// in\n    tag_298:\n        /* \"#utility.yul\":10967:11101   */\n      swap1\n      pop\n        /* \"#utility.yul\":10699:11108   */\n      swap3\n      swap2\n      pop\n      pop\n      jump\t// out\n        /* \"#utility.yul\":11114:11443   */\n    tag_26:\n        /* \"#utility.yul\":11173:11179   */\n      0x00\n        /* \"#utility.yul\":11222:11224   */\n      0x20\n        /* \"#utility.yul\":11210:11219   */\n      dup3\n        /* \"#utility.yul\":11201:11208   */\n      dup5\n        /* \"#utility.yul\":11197:11220   */\n      sub\n        /* \"#utility.yul\":11193:11225   */\n      slt\n        /* \"#utility.yul\":11190:11309   */\n      iszero\n      tag_300\n      jumpi\n        /* \"#utility.yul\":11228:11307   */\n      tag_301\n      tag_120\n      jump\t// in\n    tag_301:\n        /* \"#utility.yul\":11190:11309   */\n    tag_300:\n        /* \"#utility.yul\":11348:11349   */\n      0x00\n        /* \"#utility.yul\":11373:11426   */\n      tag_302\n        /* \"#utility.yul\":11418:11425   */\n      dup5\n        /* \"#utility.yul\":11409:11415   */\n      dup3\n        /* \"#utility.yul\":11398:11407   */\n      dup6\n        /* \"#utility.yul\":11394:11416   */\n      add\n        /* \"#utility.yul\":11373:11426   */\n      tag_128\n      jump\t// in\n    tag_302:\n        /* \"#utility.yul\":11363:11426   */\n      swap2\n      pop\n        /* \"#utility.yul\":11319:11436   */\n      pop\n        /* \"#utility.yul\":11114:11443   */\n      swap3\n      swap2\n      pop\n      pop\n      jump\t// out\n        /* \"#utility.yul\":11449:11567   */\n    tag_154:\n        /* \"#utility.yul\":11536:11560   */\n      tag_304\n        /* \"#utility.yul\":11554:11559   */\n      dup2\n        /* \"#utility.yul\":11536:11560   */\n      tag_122\n      jump\t// in\n    tag_304:\n        /* \"#utility.yul\":11531:11534   */\n      dup3\n        /* \"#utility.yul\":11524:11561   */\n      mstore\n        /* \"#utility.yul\":11449:11567   */\n      pop\n      pop\n      jump\t// out\n        /* \"#utility.yul\":11573:11691   */\n    tag_155:\n        /* \"#utility.yul\":11660:11684   */\n      tag_306\n        /* \"#utility.yul\":11678:11683   */\n      dup2\n        /* \"#utility.yul\":11660:11684   */\n      tag_136\n      jump\t// in\n    tag_306:\n        /* \"#utility.yul\":11655:11658   */\n      dup3\n        /* \"#utility.yul\":11648:11685   */\n      mstore\n        /* \"#utility.yul\":11573:11691   */\n      pop\n      pop\n      jump\t// out\n        /* \"#utility.yul\":11697:11866   */\n    tag_156:\n        /* \"#utility.yul\":11781:11792   */\n      0x00\n        /* \"#utility.yul\":11815:11821   */\n      dup3\n        /* \"#utility.yul\":11810:11813   */\n      dup3\n        /* \"#utility.yul\":11803:11822   */\n      mstore\n        /* \"#utility.yul\":11855:11859   */\n      0x20\n        /* \"#utility.yul\":11850:11853   */\n      dup3\n        /* \"#utility.yul\":11846:11860   */\n      add\n        /* \"#utility.yul\":11831:11860   */\n      swap1\n      pop\n        /* \"#utility.yul\":11697:11866   */\n      swap3\n      swap2\n      pop\n      pop\n      jump\t// out\n        /* \"#utility.yul\":11872:12249   */\n    tag_157:\n        /* \"#utility.yul\":11960:11963   */\n      0x00\n        /* \"#utility.yul\":11988:12027   */\n      tag_309\n        /* \"#utility.yul\":12021:12026   */\n      dup3\n        /* \"#utility.yul\":11988:12027   */\n      tag_149\n      jump\t// in\n    tag_309:\n        /* \"#utility.yul\":12043:12114   */\n      tag_310\n        /* \"#utility.yul\":12107:12113   */\n      dup2\n        /* \"#utility.yul\":12102:12105   */\n      dup6\n        /* \"#utility.yul\":12043:12114   */\n      tag_156\n      jump\t// in\n    tag_310:\n        /* \"#utility.yul\":12036:12114   */\n      swap4\n      pop\n        /* \"#utility.yul\":12123:12188   */\n      tag_311\n        /* \"#utility.yul\":12181:12187   */\n      dup2\n        /* \"#utility.yul\":12176:12179   */\n      dup6\n        /* \"#utility.yul\":12169:12173   */\n      0x20\n        /* \"#utility.yul\":12162:12167   */\n      dup7\n        /* \"#utility.yul\":12158:12174   */\n      add\n        /* \"#utility.yul\":12123:12188   */\n      tag_151\n      jump\t// in\n    tag_311:\n        /* \"#utility.yul\":12213:12242   */\n      tag_312\n        /* \"#utility.yul\":12235:12241   */\n      dup2\n        /* \"#utility.yul\":12213:12242   */\n      tag_130\n      jump\t// in\n    tag_312:\n        /* \"#utility.yul\":12208:12211   */\n      dup5\n        /* \"#utility.yul\":12204:12243   */\n      add\n        /* \"#utility.yul\":12197:12243   */\n      swap2\n      pop\n        /* \"#utility.yul\":11964:12249   */\n      pop\n        /* \"#utility.yul\":11872:12249   */\n      swap3\n      swap2\n      pop\n      pop\n      jump\t// out\n        /* \"#utility.yul\":12255:13434   */\n    tag_29:\n        /* \"#utility.yul\":12584:12588   */\n      0x00\n        /* \"#utility.yul\":12622:12625   */\n      0x0100\n        /* \"#utility.yul\":12611:12620   */\n      dup3\n        /* \"#utility.yul\":12607:12626   */\n      add\n        /* \"#utility.yul\":12599:12626   */\n      swap1\n      pop\n        /* \"#utility.yul\":12636:12707   */\n      tag_314\n        /* \"#utility.yul\":12704:12705   */\n      0x00\n        /* \"#utility.yul\":12693:12702   */\n      dup4\n        /* \"#utility.yul\":12689:12706   */\n      add\n        /* \"#utility.yul\":12680:12686   */\n      dup12\n        /* \"#utility.yul\":12636:12707   */\n      tag_126\n      jump\t// in\n    tag_314:\n        /* \"#utility.yul\":12717:12789   */\n      tag_315\n        /* \"#utility.yul\":12785:12787   */\n      0x20\n        /* \"#utility.yul\":12774:12783   */\n      dup4\n        /* \"#utility.yul\":12770:12788   */\n      add\n        /* \"#utility.yul\":12761:12767   */\n      dup11\n        /* \"#utility.yul\":12717:12789   */\n      tag_154\n      jump\t// in\n    tag_315:\n        /* \"#utility.yul\":12799:12871   */\n      tag_316\n        /* \"#utility.yul\":12867:12869   */\n      0x40\n        /* \"#utility.yul\":12856:12865   */\n      dup4\n        /* \"#utility.yul\":12852:12870   */\n      add\n        /* \"#utility.yul\":12843:12849   */\n      dup10\n        /* \"#utility.yul\":12799:12871   */\n      tag_154\n      jump\t// in\n    tag_316:\n        /* \"#utility.yul\":12881:12953   */\n      tag_317\n        /* \"#utility.yul\":12949:12951   */\n      0x60\n        /* \"#utility.yul\":12938:12947   */\n      dup4\n        /* \"#utility.yul\":12934:12952   */\n      add\n        /* \"#utility.yul\":12925:12931   */\n      dup9\n        /* \"#utility.yul\":12881:12953   */\n      tag_155\n      jump\t// in\n    tag_317:\n        /* \"#utility.yul\":12963:13036   */\n      tag_318\n        /* \"#utility.yul\":13031:13034   */\n      0x80\n        /* \"#utility.yul\":13020:13029   */\n      dup4\n        /* \"#utility.yul\":13016:13035   */\n      add\n        /* \"#utility.yul\":13007:13013   */\n      dup8\n        /* \"#utility.yul\":12963:13036   */\n      tag_155\n      jump\t// in\n    tag_318:\n        /* \"#utility.yul\":13084:13093   */\n      dup2\n        /* \"#utility.yul\":13078:13082   */\n      dup2\n        /* \"#utility.yul\":13074:13094   */\n      sub\n        /* \"#utility.yul\":13068:13071   */\n      0xa0\n        /* \"#utility.yul\":13057:13066   */\n      dup4\n        /* \"#utility.yul\":13053:13072   */\n      add\n        /* \"#utility.yul\":13046:13095   */\n      mstore\n        /* \"#utility.yul\":13112:13190   */\n      tag_319\n        /* \"#utility.yul\":13185:13189   */\n      dup2\n        /* \"#utility.yul\":13176:13182   */\n      dup7\n        /* \"#utility.yul\":13112:13190   */\n      tag_157\n      jump\t// in\n    tag_319:\n        /* \"#utility.yul\":13104:13190   */\n      swap1\n      pop\n        /* \"#utility.yul\":13200:13273   */\n      tag_320\n        /* \"#utility.yul\":13268:13271   */\n      0xc0\n        /* \"#utility.yul\":13257:13266   */\n      dup4\n        /* \"#utility.yul\":13253:13272   */\n      add\n        /* \"#utility.yul\":13244:13250   */\n      dup6\n        /* \"#utility.yul\":13200:13273   */\n      tag_154\n      jump\t// in\n    tag_320:\n        /* \"#utility.yul\":13321:13330   */\n      dup2\n        /* \"#utility.yul\":13315:13319   */\n      dup2\n        /* \"#utility.yul\":13311:13331   */\n      sub\n        /* \"#utility.yul\":13305:13308   */\n      0xe0\n        /* \"#utility.yul\":13294:13303   */\n      dup4\n        /* \"#utility.yul\":13290:13309   */\n      add\n        /* \"#utility.yul\":13283:13332   */\n      mstore\n        /* \"#utility.yul\":13349:13427   */\n      tag_321\n        /* \"#utility.yul\":13422:13426   */\n      dup2\n        /* \"#utility.yul\":13413:13419   */\n      dup5\n        /* \"#utility.yul\":13349:13427   */\n      tag_157\n      jump\t// in\n    tag_321:\n        /* \"#utility.yul\":13341:13427   */\n      swap1\n      pop\n        /* \"#utility.yul\":12255:13434   */\n      swap10\n      swap9\n      pop\n      pop\n      pop\n      pop\n      pop\n      pop\n      pop\n      pop\n      pop\n      jump\t// out\n        /* \"#utility.yul\":13440:13530   */\n    tag_158:\n        /* \"#utility.yul\":13474:13481   */\n      0x00\n        /* \"#utility.yul\":13517:13522   */\n      dup2\n        /* \"#utility.yul\":13510:13523   */\n      iszero\n        /* \"#utility.yul\":13503:13524   */\n      iszero\n        /* \"#utility.yul\":13492:13524   */\n      swap1\n      pop\n        /* \"#utility.yul\":13440:13530   */\n      swap2\n      swap1\n      pop\n      jump\t// out\n        /* \"#utility.yul\":13536:13645   */\n    tag_159:\n        /* \"#utility.yul\":13617:13638   */\n      tag_324\n        /* \"#utility.yul\":13632:13637   */\n      dup2\n        /* \"#utility.yul\":13617:13638   */\n      tag_158\n      jump\t// in\n    tag_324:\n        /* \"#utility.yul\":13612:13615   */\n      dup3\n        /* \"#utility.yul\":13605:13639   */\n      mstore\n        /* \"#utility.yul\":13536:13645   */\n      pop\n      pop\n      jump\t// out\n        /* \"#utility.yul\":13651:13861   */\n    tag_34:\n        /* \"#utility.yul\":13738:13742   */\n      0x00\n        /* \"#utility.yul\":13776:13778   */\n      0x20\n        /* \"#utility.yul\":13765:13774   */\n      dup3\n        /* \"#utility.yul\":13761:13779   */\n      add\n        /* \"#utility.yul\":13753:13779   */\n      swap1\n      pop\n        /* \"#utility.yul\":13789:13854   */\n      tag_326\n        /* \"#utility.yul\":13851:13852   */\n      0x00\n        /* \"#utility.yul\":13840:13849   */\n      dup4\n        /* \"#utility.yul\":13836:13853   */\n      add\n        /* \"#utility.yul\":13827:13833   */\n      dup5\n        /* \"#utility.yul\":13789:13854   */\n      tag_159\n      jump\t// in\n    tag_326:\n        /* \"#utility.yul\":13651:13861   */\n      swap3\n      swap2\n      pop\n      pop\n      jump\t// out\n        /* \"#utility.yul\":13867:14424   */\n    tag_41:\n        /* \"#utility.yul\":13960:13966   */\n      0x00\n        /* \"#utility.yul\":14009:14011   */\n      0x20\n        /* \"#utility.yul\":13997:14006   */\n      dup3\n        /* \"#utility.yul\":13988:13995   */\n      dup5\n        /* \"#utility.yul\":13984:14007   */\n      sub\n        /* \"#utility.yul\":13980:14012   */\n      slt\n        /* \"#utility.yul\":13977:14096   */\n      iszero\n      tag_328\n      jumpi\n        /* \"#utility.yul\":14015:14094   */\n      tag_329\n      tag_120\n      jump\t// in\n    tag_329:\n        /* \"#utility.yul\":13977:14096   */\n    tag_328:\n        /* \"#utility.yul\":14163:14164   */\n      0x00\n        /* \"#utility.yul\":14152:14161   */\n      dup3\n        /* \"#utility.yul\":14148:14165   */\n      add\n        /* \"#utility.yul\":14135:14166   */\n      calldataload\n        /* \"#utility.yul\":14193:14211   */\n      0xffffffffffffffff\n        /* \"#utility.yul\":14185:14191   */\n      dup2\n        /* \"#utility.yul\":14182:14212   */\n      gt\n        /* \"#utility.yul\":14179:14296   */\n      iszero\n      tag_330\n      jumpi\n        /* \"#utility.yul\":14215:14294   */\n      tag_331\n      tag_121\n      jump\t// in\n    tag_331:\n        /* \"#utility.yul\":14179:14296   */\n    tag_330:\n        /* \"#utility.yul\":14320:14407   */\n      tag_332\n        /* \"#utility.yul\":14399:14406   */\n      dup5\n        /* \"#utility.yul\":14390:14396   */\n      dup3\n        /* \"#utility.yul\":14379:14388   */\n      dup6\n        /* \"#utility.yul\":14375:14397   */\n      add\n        /* \"#utility.yul\":14320:14407   */\n      tag_145\n      jump\t// in\n    tag_332:\n        /* \"#utility.yul\":14310:14407   */\n      swap2\n      pop\n        /* \"#utility.yul\":14106:14417   */\n      pop\n        /* \"#utility.yul\":13867:14424   */\n      swap3\n      swap2\n      pop\n      pop\n      jump\t// out\n        /* \"#utility.yul\":14430:14509   */\n    tag_160:\n        /* \"#utility.yul\":14469:14476   */\n      0x00\n        /* \"#utility.yul\":14498:14503   */\n      dup2\n        /* \"#utility.yul\":14487:14503   */\n      swap1\n      pop\n        /* \"#utility.yul\":14430:14509   */\n      swap2\n      swap1\n      pop\n      jump\t// out\n        /* \"#utility.yul\":14515:14672   */\n    tag_161:\n        /* \"#utility.yul\":14620:14665   */\n      tag_335\n        /* \"#utility.yul\":14640:14664   */\n      tag_336\n        /* \"#utility.yul\":14658:14663   */\n      dup3\n        /* \"#utility.yul\":14640:14664   */\n      tag_122\n      jump\t// in\n    tag_336:\n        /* \"#utility.yul\":14620:14665   */\n      tag_160\n      jump\t// in\n    tag_335:\n        /* \"#utility.yul\":14615:14618   */\n      dup3\n        /* \"#utility.yul\":14608:14666   */\n      mstore\n        /* \"#utility.yul\":14515:14672   */\n      pop\n      pop\n      jump\t// out\n        /* \"#utility.yul\":14678:15075   */\n    tag_53:\n        /* \"#utility.yul\":14818:14821   */\n      0x00\n        /* \"#utility.yul\":14833:14908   */\n      tag_338\n        /* \"#utility.yul\":14904:14907   */\n      dup3\n        /* \"#utility.yul\":14895:14901   */\n      dup6\n        /* \"#utility.yul\":14833:14908   */\n      tag_161\n      jump\t// in\n    tag_338:\n        /* \"#utility.yul\":14933:14935   */\n      0x20\n        /* \"#utility.yul\":14928:14931   */\n      dup3\n        /* \"#utility.yul\":14924:14936   */\n      add\n        /* \"#utility.yul\":14917:14936   */\n      swap2\n      pop\n        /* \"#utility.yul\":14946:15021   */\n      tag_339\n        /* \"#utility.yul\":15017:15020   */\n      dup3\n        /* \"#utility.yul\":15008:15014   */\n      dup5\n        /* \"#utility.yul\":14946:15021   */\n      tag_161\n      jump\t// in\n    tag_339:\n        /* \"#utility.yul\":15046:15048   */\n      0x20\n        /* \"#utility.yul\":15041:15044   */\n      dup3\n        /* \"#utility.yul\":15037:15049   */\n      add\n        /* \"#utility.yul\":15030:15049   */\n      swap2\n      pop\n        /* \"#utility.yul\":15066:15069   */\n      dup2\n        /* \"#utility.yul\":15059:15069   */\n      swap1\n      pop\n        /* \"#utility.yul\":14678:15075   */\n      swap4\n      swap3\n      pop\n      pop\n      pop\n      jump\t// out\n        /* \"#utility.yul\":15081:15306   */\n    tag_162:\n        /* \"#utility.yul\":15221:15255   */\n      0x54686973206170706f696e746d656e7420736c6f74206973206e6f7420617661\n        /* \"#utility.yul\":15217:15218   */\n      0x00\n        /* \"#utility.yul\":15209:15215   */\n      dup3\n        /* \"#utility.yul\":15205:15219   */\n      add\n        /* \"#utility.yul\":15198:15256   */\n      mstore\n        /* \"#utility.yul\":15290:15298   */\n      0x696c61626c650000000000000000000000000000000000000000000000000000\n        /* \"#utility.yul\":15285:15287   */\n      0x20\n        /* \"#utility.yul\":15277:15283   */\n      dup3\n        /* \"#utility.yul\":15273:15288   */\n      add\n        /* \"#utility.yul\":15266:15299   */\n      mstore\n        /* \"#utility.yul\":15081:15306   */\n      pop\n      jump\t// out\n        /* \"#utility.yul\":15312:15678   */\n    tag_163:\n        /* \"#utility.yul\":15454:15457   */\n      0x00\n        /* \"#utility.yul\":15475:15542   */\n      tag_342\n        /* \"#utility.yul\":15539:15541   */\n      0x26\n        /* \"#utility.yul\":15534:15537   */\n      dup4\n        /* \"#utility.yul\":15475:15542   */\n      tag_156\n      jump\t// in\n    tag_342:\n        /* \"#utility.yul\":15468:15542   */\n      swap2\n      pop\n        /* \"#utility.yul\":15551:15644   */\n      tag_343\n        /* \"#utility.yul\":15640:15643   */\n      dup3\n        /* \"#utility.yul\":15551:15644   */\n      tag_162\n      jump\t// in\n    tag_343:\n        /* \"#utility.yul\":15669:15671   */\n      0x40\n        /* \"#utility.yul\":15664:15667   */\n      dup3\n        /* \"#utility.yul\":15660:15672   */\n      add\n        /* \"#utility.yul\":15653:15672   */\n      swap1\n      pop\n        /* \"#utility.yul\":15312:15678   */\n      swap2\n      swap1\n      pop\n      jump\t// out\n        /* \"#utility.yul\":15684:16103   */\n    tag_61:\n        /* \"#utility.yul\":15850:15854   */\n      0x00\n        /* \"#utility.yul\":15888:15890   */\n      0x20\n        /* \"#utility.yul\":15877:15886   */\n      dup3\n        /* \"#utility.yul\":15873:15891   */\n      add\n        /* \"#utility.yul\":15865:15891   */\n      swap1\n      pop\n        /* \"#utility.yul\":15937:15946   */\n      dup2\n        /* \"#utility.yul\":15931:15935   */\n      dup2\n        /* \"#utility.yul\":15927:15947   */\n      sub\n        /* \"#utility.yul\":15923:15924   */\n      0x00\n        /* \"#utility.yul\":15912:15921   */\n      dup4\n        /* \"#utility.yul\":15908:15925   */\n      add\n        /* \"#utility.yul\":15901:15948   */\n      mstore\n        /* \"#utility.yul\":15965:16096   */\n      tag_345\n        /* \"#utility.yul\":16091:16095   */\n      dup2\n        /* \"#utility.yul\":15965:16096   */\n      tag_163\n      jump\t// in\n    tag_345:\n        /* \"#utility.yul\":15957:16096   */\n      swap1\n      pop\n        /* \"#utility.yul\":15684:16103   */\n      swap2\n      swap1\n      pop\n      jump\t// out\n        /* \"#utility.yul\":16109:16289   */\n    tag_164:\n        /* \"#utility.yul\":16157:16234   */\n      0x4e487b7100000000000000000000000000000000000000000000000000000000\n        /* \"#utility.yul\":16154:16155   */\n      0x00\n        /* \"#utility.yul\":16147:16235   */\n      mstore\n        /* \"#utility.yul\":16254:16258   */\n      0x22\n        /* \"#utility.yul\":16251:16252   */\n      0x04\n        /* \"#utility.yul\":16244:16259   */\n      mstore\n        /* \"#utility.yul\":16278:16282   */\n      0x24\n        /* \"#utility.yul\":16275:16276   */\n      0x00\n        /* \"#utility.yul\":16268:16283   */\n      revert\n        /* \"#utility.yul\":16295:16615   */\n    tag_68:\n        /* \"#utility.yul\":16339:16345   */\n      0x00\n        /* \"#utility.yul\":16376:16377   */\n      0x02\n        /* \"#utility.yul\":16370:16374   */\n      dup3\n        /* \"#utility.yul\":16366:16378   */\n      div\n        /* \"#utility.yul\":16356:16378   */\n      swap1\n      pop\n        /* \"#utility.yul\":16423:16424   */\n      0x01\n        /* \"#utility.yul\":16417:16421   */\n      dup3\n        /* \"#utility.yul\":16413:16425   */\n      and\n        /* \"#utility.yul\":16444:16462   */\n      dup1\n        /* \"#utility.yul\":16434:16515   */\n      tag_348\n      jumpi\n        /* \"#utility.yul\":16500:16504   */\n      0x7f\n        /* \"#utility.yul\":16492:16498   */\n      dup3\n        /* \"#utility.yul\":16488:16505   */\n      and\n        /* \"#utility.yul\":16478:16505   */\n      swap2\n      pop\n        /* \"#utility.yul\":16434:16515   */\n    tag_348:\n        /* \"#utility.yul\":16562:16564   */\n      0x20\n        /* \"#utility.yul\":16554:16560   */\n      dup3\n        /* \"#utility.yul\":16551:16565   */\n      lt\n        /* \"#utility.yul\":16531:16549   */\n      dup2\n        /* \"#utility.yul\":16528:16566   */\n      sub\n        /* \"#utility.yul\":16525:16609   */\n      tag_349\n      jumpi\n        /* \"#utility.yul\":16581:16599   */\n      tag_350\n      tag_164\n      jump\t// in\n    tag_350:\n        /* \"#utility.yul\":16525:16609   */\n    tag_349:\n        /* \"#utility.yul\":16346:16615   */\n      pop\n        /* \"#utility.yul\":16295:16615   */\n      swap2\n      swap1\n      pop\n      jump\t// out\n        /* \"#utility.yul\":16621:16762   */\n    tag_165:\n        /* \"#utility.yul\":16670:16674   */\n      0x00\n        /* \"#utility.yul\":16693:16696   */\n      dup2\n        /* \"#utility.yul\":16685:16696   */\n      swap1\n      pop\n        /* \"#utility.yul\":16716:16719   */\n      dup2\n        /* \"#utility.yul\":16713:16714   */\n      0x00\n        /* \"#utility.yul\":16706:16720   */\n      mstore\n        /* \"#utility.yul\":16750:16754   */\n      0x20\n        /* \"#utility.yul\":16747:16748   */\n      0x00\n        /* \"#utility.yul\":16737:16755   */\n      keccak256\n        /* \"#utility.yul\":16729:16755   */\n      swap1\n      pop\n        /* \"#utility.yul\":16621:16762   */\n      swap2\n      swap1\n      pop\n      jump\t// out\n        /* \"#utility.yul\":16768:16861   */\n    tag_166:\n        /* \"#utility.yul\":16805:16811   */\n      0x00\n        /* \"#utility.yul\":16852:16854   */\n      0x20\n        /* \"#utility.yul\":16847:16849   */\n      0x1f\n        /* \"#utility.yul\":16840:16845   */\n      dup4\n        /* \"#utility.yul\":16836:16850   */\n      add\n        /* \"#utility.yul\":16832:16855   */\n      div\n        /* \"#utility.yul\":16822:16855   */\n      swap1\n      pop\n        /* \"#utility.yul\":16768:16861   */\n      swap2\n      swap1\n      pop\n      jump\t// out\n        /* \"#utility.yul\":16867:16974   */\n    tag_167:\n        /* \"#utility.yul\":16911:16919   */\n      0x00\n        /* \"#utility.yul\":16961:16966   */\n      dup3\n        /* \"#utility.yul\":16955:16959   */\n      dup3\n        /* \"#utility.yul\":16951:16967   */\n      shl\n        /* \"#utility.yul\":16930:16967   */\n      swap1\n      pop\n        /* \"#utility.yul\":16867:16974   */\n      swap3\n      swap2\n      pop\n      pop\n      jump\t// out\n        /* \"#utility.yul\":16980:17373   */\n    tag_168:\n        /* \"#utility.yul\":17049:17055   */\n      0x00\n        /* \"#utility.yul\":17099:17100   */\n      0x08\n        /* \"#utility.yul\":17087:17097   */\n      dup4\n        /* \"#utility.yul\":17083:17101   */\n      mul\n        /* \"#utility.yul\":17122:17219   */\n      tag_355\n        /* \"#utility.yul\":17152:17218   */\n      0xffffffffffffffffffffffffffffffffffffffffffffffffffffffffffffffff\n        /* \"#utility.yul\":17141:17150   */\n      dup3\n        /* \"#utility.yul\":17122:17219   */\n      tag_167\n      jump\t// in\n    tag_355:\n        /* \"#utility.yul\":17240:17279   */\n      tag_356\n        /* \"#utility.yul\":17270:17278   */\n      dup7\n        /* \"#utility.yul\":17259:17268   */\n      dup4\n        /* \"#utility.yul\":17240:17279   */\n      tag_167\n      jump\t// in\n    tag_356:\n        /* \"#utility.yul\":17228:17279   */\n      swap6\n      pop\n        /* \"#utility.yul\":17312:17316   */\n      dup1\n        /* \"#utility.yul\":17308:17317   */\n      not\n        /* \"#utility.yul\":17301:17306   */\n      dup5\n        /* \"#utility.yul\":17297:17318   */\n      and\n        /* \"#utility.yul\":17288:17318   */\n      swap4\n      pop\n        /* \"#utility.yul\":17361:17365   */\n      dup1\n        /* \"#utility.yul\":17351:17359   */\n      dup7\n        /* \"#utility.yul\":17347:17366   */\n      and\n        /* \"#utility.yul\":17340:17345   */\n      dup5\n        /* \"#utility.yul\":17337:17367   */\n      or\n        /* \"#utility.yul\":17327:17367   */\n      swap3\n      pop\n        /* \"#utility.yul\":17056:17373   */\n      pop\n      pop\n        /* \"#utility.yul\":16980:17373   */\n      swap4\n      swap3\n      pop\n      pop\n      pop\n      jump\t// out\n        /* \"#utility.yul\":17379:17439   */\n    tag_169:\n        /* \"#utility.yul\":17407:17410   */\n      0x00\n        /* \"#utility.yul\":17428:17433   */\n      dup2\n        /* \"#utility.yul\":17421:17433   */\n      swap1\n      pop\n        /* \"#utility.yul\":17379:17439   */\n      swap2\n      swap1\n      pop\n      jump\t// out\n        /* \"#utility.yul\":17445:17587   */\n    tag_170:\n        /* \"#utility.yul\":17495:17504   */\n      0x00\n        /* \"#utility.yul\":17528:17581   */\n      tag_359\n        /* \"#utility.yul\":17546:17580   */\n      tag_360\n        /* \"#utility.yul\":17555:17579   */\n      tag_361\n        /* \"#utility.yul\":17573:17578   */\n      dup5\n        /* \"#utility.yul\":17555:17579   */\n      tag_122\n      jump\t// in\n    tag_361:\n        /* \"#utility.yul\":17546:17580   */\n      tag_169\n      jump\t// in\n    tag_360:\n        /* \"#utility.yul\":17528:17581   */\n      tag_122\n      jump\t// in\n    tag_359:\n        /* \"#utility.yul\":17515:17581   */\n      swap1\n      pop\n        /* \"#utility.yul\":17445:17587   */\n      swap2\n      swap1\n      pop\n      jump\t// out\n        /* \"#utility.yul\":17593:17668   */\n    tag_171:\n        /* \"#utility.yul\":17636:17639   */\n      0x00\n        /* \"#utility.yul\":17657:17662   */\n      dup2\n        /* \"#utility.yul\":17650:17662   */\n      swap1\n      pop\n        /* \"#utility.yul\":17593:17668   */\n      swap2\n      swap1\n      pop\n      jump\t// out\n        /* \"#utility.yul\":17674:17943   */\n    tag_172:\n        /* \"#utility.yul\":17784:17823   */\n      tag_364\n        /* \"#utility.yul\":17815:17822   */\n      dup4\n        /* \"#utility.yul\":17784:17823   */\n      tag_170\n      jump\t// in\n    tag_364:\n        /* \"#utility.yul\":17845:17936   */\n      tag_365\n        /* \"#utility.yul\":17894:17935   */\n      tag_366\n        /* \"#utility.yul\":17918:17934   */\n      dup3\n        /* \"#utility.yul\":17894:17935   */\n      tag_171\n      jump\t// in\n    tag_366:\n        /* \"#utility.yul\":17886:17892   */\n      dup5\n        /* \"#utility.yul\":17879:17883   */\n      dup5\n        /* \"#utility.yul\":17873:17884   */\n      sload\n        /* \"#utility.yul\":17845:17936   */\n      tag_168\n      jump\t// in\n    tag_365:\n        /* \"#utility.yul\":17839:17843   */\n      dup3\n        /* \"#utility.yul\":17832:17937   */\n      sstore\n        /* \"#utility.yul\":17750:17943   */\n      pop\n        /* \"#utility.yul\":17674:17943   */\n      pop\n      pop\n      pop\n      jump\t// out\n        /* \"#utility.yul\":17949:18022   */\n    tag_173:\n        /* \"#utility.yul\":17994:17997   */\n      0x00\n        /* \"#utility.yul\":17949:18022   */\n      swap1\n      jump\t// out\n        /* \"#utility.yul\":18028:18217   */\n    tag_174:\n        /* \"#utility.yul\":18105:18137   */\n      tag_369\n      tag_173\n      jump\t// in\n    tag_369:\n        /* \"#utility.yul\":18146:18211   */\n      tag_370\n        /* \"#utility.yul\":18204:18210   */\n      dup2\n        /* \"#utility.yul\":18196:18202   */\n      dup5\n        /* \"#utility.yul\":18190:18194   */\n      dup5\n        /* \"#utility.yul\":18146:18211   */\n      tag_172\n      jump\t// in\n    tag_370:\n        /* \"#utility.yul\":18081:18217   */\n      pop\n        /* \"#utility.yul\":18028:18217   */\n      pop\n      pop\n      jump\t// out\n        /* \"#utility.yul\":18223:18409   */\n    tag_175:\n        /* \"#utility.yul\":18283:18403   */\n    tag_372:\n        /* \"#utility.yul\":18300:18303   */\n      dup2\n        /* \"#utility.yul\":18293:18298   */\n      dup2\n        /* \"#utility.yul\":18290:18304   */\n      lt\n        /* \"#utility.yul\":18283:18403   */\n      iszero\n      tag_374\n      jumpi\n        /* \"#utility.yul\":18354:18393   */\n      tag_375\n        /* \"#utility.yul\":18391:18392   */\n      0x00\n        /* \"#utility.yul\":18384:18389   */\n      dup3\n        /* \"#utility.yul\":18354:18393   */\n      tag_174\n      jump\t// in\n    tag_375:\n        /* \"#utility.yul\":18327:18328   */\n      0x01\n        /* \"#utility.yul\":18320:18325   */\n      dup2\n        /* \"#utility.yul\":18316:18329   */\n      add\n        /* \"#utility.yul\":18307:18329   */\n      swap1\n      pop\n        /* \"#utility.yul\":18283:18403   */\n      jump(tag_372)\n    tag_374:\n        /* \"#utility.yul\":18223:18409   */\n      pop\n      pop\n      jump\t// out\n        /* \"#utility.yul\":18415:18958   */\n    tag_176:\n        /* \"#utility.yul\":18516:18518   */\n      0x1f\n        /* \"#utility.yul\":18511:18514   */\n      dup3\n        /* \"#utility.yul\":18508:18519   */\n      gt\n        /* \"#utility.yul\":18505:18951   */\n      iszero\n      tag_377\n      jumpi\n        /* \"#utility.yul\":18550:18588   */\n      tag_378\n        /* \"#utility.yul\":18582:18587   */\n      dup2\n        /* \"#utility.yul\":18550:18588   */\n      tag_165\n      jump\t// in\n    tag_378:\n        /* \"#utility.yul\":18634:18663   */\n      tag_379\n        /* \"#utility.yul\":18652:18662   */\n      dup5\n        /* \"#utility.yul\":18634:18663   */\n      tag_166\n      jump\t// in\n    tag_379:\n        /* \"#utility.yul\":18624:18632   */\n      dup2\n        /* \"#utility.yul\":18620:18664   */\n      add\n        /* \"#utility.yul\":18817:18819   */\n      0x20\n        /* \"#utility.yul\":18805:18815   */\n      dup6\n        /* \"#utility.yul\":18802:18820   */\n      lt\n        /* \"#utility.yul\":18799:18848   */\n      iszero\n      tag_380\n      jumpi\n        /* \"#utility.yul\":18838:18846   */\n      dup2\n        /* \"#utility.yul\":18823:18846   */\n      swap1\n      pop\n        /* \"#utility.yul\":18799:18848   */\n    tag_380:\n        /* \"#utility.yul\":18861:18941   */\n      tag_381\n        /* \"#utility.yul\":18917:18939   */\n      tag_382\n        /* \"#utility.yul\":18935:18938   */\n      dup6\n        /* \"#utility.yul\":18917:18939   */\n      tag_166\n      jump\t// in\n    tag_382:\n        /* \"#utility.yul\":18907:18915   */\n      dup4\n        /* \"#utility.yul\":18903:18940   */\n      add\n        /* \"#utility.yul\":18890:18901   */\n      dup3\n        /* \"#utility.yul\":18861:18941   */\n      tag_175\n      jump\t// in\n    tag_381:\n        /* \"#utility.yul\":18520:18951   */\n      pop\n      pop\n        /* \"#utility.yul\":18505:18951   */\n    tag_377:\n        /* \"#utility.yul\":18415:18958   */\n      pop\n      pop\n      pop\n      jump\t// out\n        /* \"#utility.yul\":18964:19081   */\n    tag_177:\n        /* \"#utility.yul\":19018:19026   */\n      0x00\n        /* \"#utility.yul\":19068:19073   */\n      dup3\n        /* \"#utility.yul\":19062:19066   */\n      dup3\n        /* \"#utility.yul\":19058:19074   */\n      shr\n        /* \"#utility.yul\":19037:19074   */\n      swap1\n      pop\n        /* \"#utility.yul\":18964:19081   */\n      swap3\n      swap2\n      pop\n      pop\n      jump\t// out\n        /* \"#utility.yul\":19087:19256   */\n    tag_178:\n        /* \"#utility.yul\":19131:19137   */\n      0x00\n        /* \"#utility.yul\":19164:19215   */\n      tag_385\n        /* \"#utility.yul\":19212:19213   */\n      0x00\n        /* \"#utility.yul\":19208:19214   */\n      not\n        /* \"#utility.yul\":19200:19205   */\n      dup5\n        /* \"#utility.yul\":19197:19198   */\n      0x08\n        /* \"#utility.yul\":19193:19206   */\n      mul\n        /* \"#utility.yul\":19164:19215   */\n      tag_177\n      jump\t// in\n    tag_385:\n        /* \"#utility.yul\":19160:19216   */\n      not\n        /* \"#utility.yul\":19245:19249   */\n      dup1\n        /* \"#utility.yul\":19239:19243   */\n      dup4\n        /* \"#utility.yul\":19235:19250   */\n      and\n        /* \"#utility.yul\":19225:19250   */\n      swap2\n      pop\n        /* \"#utility.yul\":19138:19256   */\n      pop\n        /* \"#utility.yul\":19087:19256   */\n      swap3\n      swap2\n      pop\n      pop\n      jump\t// out\n        /* \"#utility.yul\":19261:19556   */\n    tag_179:\n        /* \"#utility.yul\":19337:19341   */\n      0x00\n        /* \"#utility.yul\":19483:19512   */\n      tag_387\n        /* \"#utility.yul\":19508:19511   */\n      dup4\n        /* \"#utility.yul\":19502:19506   */\n      dup4\n        /* \"#utility.yul\":19483:19512   */\n      tag_178\n      jump\t// in\n    tag_387:\n        /* \"#utility.yul\":19475:19512   */\n      swap2\n      pop\n        /* \"#utility.yul\":19545:19548   */\n      dup3\n        /* \"#utility.yul\":19542:19543   */\n      0x02\n        /* \"#utility.yul\":19538:19549   */\n      mul\n        /* \"#utility.yul\":19532:19536   */\n      dup3\n        /* \"#utility.yul\":19529:19550   */\n      or\n        /* \"#utility.yul\":19521:19550   */\n      swap1\n      pop\n        /* \"#utility.yul\":19261:19556   */\n      swap3\n      swap2\n      pop\n      pop\n      jump\t// out\n        /* \"#utility.yul\":19561:20956   */\n    tag_63:\n        /* \"#utility.yul\":19678:19715   */\n      tag_389\n        /* \"#utility.yul\":19711:19714   */\n      dup3\n        /* \"#utility.yul\":19678:19715   */\n      tag_149\n      jump\t// in\n    tag_389:\n        /* \"#utility.yul\":19780:19798   */\n      0xffffffffffffffff\n        /* \"#utility.yul\":19772:19778   */\n      dup2\n        /* \"#utility.yul\":19769:19799   */\n      gt\n        /* \"#utility.yul\":19766:19822   */\n      iszero\n      tag_390\n      jumpi\n        /* \"#utility.yul\":19802:19820   */\n      tag_391\n      tag_131\n      jump\t// in\n    tag_391:\n        /* \"#utility.yul\":19766:19822   */\n    tag_390:\n        /* \"#utility.yul\":19846:19884   */\n      tag_392\n        /* \"#utility.yul\":19878:19882   */\n      dup3\n        /* \"#utility.yul\":19872:19883   */\n      sload\n        /* \"#utility.yul\":19846:19884   */\n      tag_68\n      jump\t// in\n    tag_392:\n        /* \"#utility.yul\":19931:19998   */\n      tag_393\n        /* \"#utility.yul\":19991:19997   */\n      dup3\n        /* \"#utility.yul\":19983:19989   */\n      dup3\n        /* \"#utility.yul\":19977:19981   */\n      dup6\n        /* \"#utility.yul\":19931:19998   */\n      tag_176\n      jump\t// in\n    tag_393:\n        /* \"#utility.yul\":20025:20026   */\n      0x00\n        /* \"#utility.yul\":20049:20053   */\n      0x20\n        /* \"#utility.yul\":20036:20053   */\n      swap1\n      pop\n        /* \"#utility.yul\":20081:20083   */\n      0x1f\n        /* \"#utility.yul\":20073:20079   */\n      dup4\n        /* \"#utility.yul\":20070:20084   */\n      gt\n        /* \"#utility.yul\":20098:20099   */\n      0x01\n        /* \"#utility.yul\":20093:20711   */\n      dup2\n      eq\n      tag_395\n      jumpi\n        /* \"#utility.yul\":20755:20756   */\n      0x00\n        /* \"#utility.yul\":20772:20778   */\n      dup5\n        /* \"#utility.yul\":20769:20846   */\n      iszero\n      tag_396\n      jumpi\n        /* \"#utility.yul\":20821:20830   */\n      dup3\n        /* \"#utility.yul\":20816:20819   */\n      dup8\n        /* \"#utility.yul\":20812:20831   */\n      add\n        /* \"#utility.yul\":20806:20832   */\n      mload\n        /* \"#utility.yul\":20797:20832   */\n      swap1\n      pop\n        /* \"#utility.yul\":20769:20846   */\n    tag_396:\n        /* \"#utility.yul\":20872:20939   */\n      tag_397\n        /* \"#utility.yul\":20932:20938   */\n      dup6\n        /* \"#utility.yul\":20925:20930   */\n      dup3\n        /* \"#utility.yul\":20872:20939   */\n      tag_179\n      jump\t// in\n    tag_397:\n        /* \"#utility.yul\":20866:20870   */\n      dup7\n        /* \"#utility.yul\":20859:20940   */\n      sstore\n        /* \"#utility.yul\":20728:20950   */\n      pop\n        /* \"#utility.yul\":20063:20950   */\n      jump(tag_394)\n        /* \"#utility.yul\":20093:20711   */\n    tag_395:\n        /* \"#utility.yul\":20145:20149   */\n      0x1f\n        /* \"#utility.yul\":20141:20150   */\n      not\n        /* \"#utility.yul\":20133:20139   */\n      dup5\n        /* \"#utility.yul\":20129:20151   */\n      and\n        /* \"#utility.yul\":20179:20216   */\n      tag_398\n        /* \"#utility.yul\":20211:20215   */\n      dup7\n        /* \"#utility.yul\":20179:20216   */\n      tag_165\n      jump\t// in\n    tag_398:\n        /* \"#utility.yul\":20238:20239   */\n      0x00\n        /* \"#utility.yul\":20252:20460   */\n    tag_399:\n        /* \"#utility.yul\":20266:20273   */\n      dup3\n        /* \"#utility.yul\":20263:20264   */\n      dup2\n        /* \"#utility.yul\":20260:20274   */\n      lt\n        /* \"#utility.yul\":20252:20460   */\n      iszero\n      tag_401\n      jumpi\n        /* \"#utility.yul\":20345:20354   */\n      dup5\n        /* \"#utility.yul\":20340:20343   */\n      dup10\n        /* \"#utility.yul\":20336:20355   */\n      add\n        /* \"#utility.yul\":20330:20356   */\n      mload\n        /* \"#utility.yul\":20322:20328   */\n      dup3\n        /* \"#utility.yul\":20315:20357   */\n      sstore\n        /* \"#utility.yul\":20396:20397   */\n      0x01\n        /* \"#utility.yul\":20388:20394   */\n      dup3\n        /* \"#utility.yul\":20384:20398   */\n      add\n        /* \"#utility.yul\":20374:20398   */\n      swap2\n      pop\n        /* \"#utility.yul\":20443:20445   */\n      0x20\n        /* \"#utility.yul\":20432:20441   */\n      dup6\n        /* \"#utility.yul\":20428:20446   */\n      add\n        /* \"#utility.yul\":20415:20446   */\n      swap5\n      pop\n        /* \"#utility.yul\":20289:20293   */\n      0x20\n        /* \"#utility.yul\":20286:20287   */\n      dup2\n        /* \"#utility.yul\":20282:20294   */\n      add\n        /* \"#utility.yul\":20277:20294   */\n      swap1\n      pop\n        /* \"#utility.yul\":20252:20460   */\n      jump(tag_399)\n    tag_401:\n        /* \"#utility.yul\":20488:20494   */\n      dup7\n        /* \"#utility.yul\":20479:20486   */\n      dup4\n        /* \"#utility.yul\":20476:20495   */\n      lt\n        /* \"#utility.yul\":20473:20652   */\n      iszero\n      tag_402\n      jumpi\n        /* \"#utility.yul\":20546:20555   */\n      dup5\n        /* \"#utility.yul\":20541:20544   */\n      dup10\n        /* \"#utility.yul\":20537:20556   */\n      add\n        /* \"#utility.yul\":20531:20557   */\n      mload\n        /* \"#utility.yul\":20589:20637   */\n      tag_403\n        /* \"#utility.yul\":20631:20635   */\n      0x1f\n        /* \"#utility.yul\":20623:20629   */\n      dup10\n        /* \"#utility.yul\":20619:20636   */\n      and\n        /* \"#utility.yul\":20608:20617   */\n      dup3\n        /* \"#utility.yul\":20589:20637   */\n      tag_178\n      jump\t// in\n    tag_403:\n        /* \"#utility.yul\":20581:20587   */\n      dup4\n        /* \"#utility.yul\":20574:20638   */\n      sstore\n        /* \"#utility.yul\":20496:20652   */\n      pop\n        /* \"#utility.yul\":20473:20652   */\n    tag_402:\n        /* \"#utility.yul\":20698:20699   */\n      0x01\n        /* \"#utility.yul\":20694:20695   */\n      0x02\n        /* \"#utility.yul\":20686:20692   */\n      dup9\n        /* \"#utility.yul\":20682:20696   */\n      mul\n        /* \"#utility.yul\":20678:20700   */\n      add\n        /* \"#utility.yul\":20672:20676   */\n      dup9\n        /* \"#utility.yul\":20665:20701   */\n      sstore\n        /* \"#utility.yul\":20100:20711   */\n      pop\n      pop\n      pop\n        /* \"#utility.yul\":20063:20950   */\n    tag_394:\n      pop\n        /* \"#utility.yul\":19653:20956   */\n      pop\n      pop\n      pop\n        /* \"#utility.yul\":19561:20956   */\n      pop\n      pop\n      jump\t// out\n        /* \"#utility.yul\":20962:21060   */\n    tag_180:\n        /* \"#utility.yul\":21013:21019   */\n      0x00\n        /* \"#utility.yul\":21047:21052   */\n      dup2\n        /* \"#utility.yul\":21041:21053   */\n      mload\n        /* \"#utility.yul\":21031:21053   */\n      swap1\n      pop\n        /* \"#utility.yul\":20962:21060   */\n      swap2\n      swap1\n      pop\n      jump\t// out\n        /* \"#utility.yul\":21066:21242   */\n    tag_181:\n        /* \"#utility.yul\":21157:21168   */\n      0x00\n        /* \"#utility.yul\":21191:21197   */\n      dup3\n        /* \"#utility.yul\":21186:21189   */\n      dup3\n        /* \"#utility.yul\":21179:21198   */\n      mstore\n        /* \"#utility.yul\":21231:21235   */\n      0x20\n        /* \"#utility.yul\":21226:21229   */\n      dup3\n        /* \"#utility.yul\":21222:21236   */\n      add\n        /* \"#utility.yul\":21207:21236   */\n      swap1\n      pop\n        /* \"#utility.yul\":21066:21242   */\n      swap3\n      swap2\n      pop\n      pop\n      jump\t// out\n        /* \"#utility.yul\":21248:21637   */\n    tag_182:\n        /* \"#utility.yul\":21342:21345   */\n      0x00\n        /* \"#utility.yul\":21370:21408   */\n      tag_407\n        /* \"#utility.yul\":21402:21407   */\n      dup3\n        /* \"#utility.yul\":21370:21408   */\n      tag_180\n      jump\t// in\n    tag_407:\n        /* \"#utility.yul\":21424:21502   */\n      tag_408\n        /* \"#utility.yul\":21495:21501   */\n      dup2\n        /* \"#utility.yul\":21490:21493   */\n      dup6\n        /* \"#utility.yul\":21424:21502   */\n      tag_181\n      jump\t// in\n    tag_408:\n        /* \"#utility.yul\":21417:21502   */\n      swap4\n      pop\n        /* \"#utility.yul\":21511:21576   */\n      tag_409\n        /* \"#utility.yul\":21569:21575   */\n      dup2\n        /* \"#utility.yul\":21564:21567   */\n      dup6\n        /* \"#utility.yul\":21557:21561   */\n      0x20\n        /* \"#utility.yul\":21550:21555   */\n      dup7\n        /* \"#utility.yul\":21546:21562   */\n      add\n        /* \"#utility.yul\":21511:21576   */\n      tag_151\n      jump\t// in\n    tag_409:\n        /* \"#utility.yul\":21601:21630   */\n      tag_410\n        /* \"#utility.yul\":21623:21629   */\n      dup2\n        /* \"#utility.yul\":21601:21630   */\n      tag_130\n      jump\t// in\n    tag_410:\n        /* \"#utility.yul\":21596:21599   */\n      dup5\n        /* \"#utility.yul\":21592:21631   */\n      add\n        /* \"#utility.yul\":21585:21631   */\n      swap2\n      pop\n        /* \"#utility.yul\":21346:21637   */\n      pop\n        /* \"#utility.yul\":21248:21637   */\n      swap3\n      swap2\n      pop\n      pop\n      jump\t// out\n        /* \"#utility.yul\":21643:21968   */\n    tag_98:\n        /* \"#utility.yul\":21762:21766   */\n      0x00\n        /* \"#utility.yul\":21800:21802   */\n      0x20\n        /* \"#utility.yul\":21789:21798   */\n      dup3\n        /* \"#utility.yul\":21785:21803   */\n      add\n        /* \"#utility.yul\":21777:21803   */\n      swap1\n      pop\n        /* \"#utility.yul\":21849:21858   */\n      dup2\n        /* \"#utility.yul\":21843:21847   */\n      dup2\n        /* \"#utility.yul\":21839:21859   */\n      sub\n        /* \"#utility.yul\":21835:21836   */\n      0x00\n        /* \"#utility.yul\":21824:21833   */\n      dup4\n        /* \"#utility.yul\":21820:21837   */\n      add\n        /* \"#utility.yul\":21813:21860   */\n      mstore\n        /* \"#utility.yul\":21877:21961   */\n      tag_412\n        /* \"#utility.yul\":21956:21960   */\n      dup2\n        /* \"#utility.yul\":21947:21953   */\n      dup5\n        /* \"#utility.yul\":21877:21961   */\n      tag_182\n      jump\t// in\n    tag_412:\n        /* \"#utility.yul\":21869:21961   */\n      swap1\n      pop\n        /* \"#utility.yul\":21643:21968   */\n      swap3\n      swap2\n      pop\n      pop\n      jump\t// out\n        /* \"#utility.yul\":21974:22090   */\n    tag_183:\n        /* \"#utility.yul\":22044:22065   */\n      tag_414\n        /* \"#utility.yul\":22059:22064   */\n      dup2\n        /* \"#utility.yul\":22044:22065   */\n      tag_158\n      jump\t// in\n    tag_414:\n        /* \"#utility.yul\":22037:22042   */\n      dup2\n        /* \"#utility.yul\":22034:22066   */\n      eq\n        /* \"#utility.yul\":22024:22084   */\n      tag_415\n      jumpi\n        /* \"#utility.yul\":22080:22081   */\n      0x00\n        /* \"#utility.yul\":22077:22078   */\n      dup1\n        /* \"#utility.yul\":22070:22082   */\n      revert\n        /* \"#utility.yul\":22024:22084   */\n    tag_415:\n        /* \"#utility.yul\":21974:22090   */\n      pop\n      jump\t// out\n        /* \"#utility.yul\":22096:22233   */\n    tag_184:\n        /* \"#utility.yul\":22150:22155   */\n      0x00\n        /* \"#utility.yul\":22181:22187   */\n      dup2\n        /* \"#utility.yul\":22175:22188   */\n      mload\n        /* \"#utility.yul\":22166:22188   */\n      swap1\n      pop\n        /* \"#utility.yul\":22197:22227   */\n      tag_417\n        /* \"#utility.yul\":22221:22226   */\n      dup2\n        /* \"#utility.yul\":22197:22227   */\n      tag_183\n      jump\t// in\n    tag_417:\n        /* \"#utility.yul\":22096:22233   */\n      swap3\n      swap2\n      pop\n      pop\n      jump\t// out\n        /* \"#utility.yul\":22239:22584   */\n    tag_102:\n        /* \"#utility.yul\":22306:22312   */\n      0x00\n        /* \"#utility.yul\":22355:22357   */\n      0x20\n        /* \"#utility.yul\":22343:22352   */\n      dup3\n        /* \"#utility.yul\":22334:22341   */\n      dup5\n        /* \"#utility.yul\":22330:22353   */\n      sub\n        /* \"#utility.yul\":22326:22358   */\n      slt\n        /* \"#utility.yul\":22323:22442   */\n      iszero\n      tag_419\n      jumpi\n        /* \"#utility.yul\":22361:22440   */\n      tag_420\n      tag_120\n      jump\t// in\n    tag_420:\n        /* \"#utility.yul\":22323:22442   */\n    tag_419:\n        /* \"#utility.yul\":22481:22482   */\n      0x00\n        /* \"#utility.yul\":22506:22567   */\n      tag_421\n        /* \"#utility.yul\":22559:22566   */\n      dup5\n        /* \"#utility.yul\":22550:22556   */\n      dup3\n        /* \"#utility.yul\":22539:22548   */\n      dup6\n        /* \"#utility.yul\":22535:22557   */\n      add\n        /* \"#utility.yul\":22506:22567   */\n      tag_184\n      jump\t// in\n    tag_421:\n        /* \"#utility.yul\":22496:22567   */\n      swap2\n      pop\n        /* \"#utility.yul\":22452:22577   */\n      pop\n        /* \"#utility.yul\":22239:22584   */\n      swap3\n      swap2\n      pop\n      pop\n      jump\t// out\n        /* \"#utility.yul\":22590:22821   */\n    tag_185:\n        /* \"#utility.yul\":22730:22764   */\n      0x456d707479204170706f696e746d656e742e2050726570617265206170706f69\n        /* \"#utility.yul\":22726:22727   */\n      0x00\n        /* \"#utility.yul\":22718:22724   */\n      dup3\n        /* \"#utility.yul\":22714:22728   */\n      add\n        /* \"#utility.yul\":22707:22765   */\n      mstore\n        /* \"#utility.yul\":22799:22813   */\n      0x6e746d656e7420616761696e0000000000000000000000000000000000000000\n        /* \"#utility.yul\":22794:22796   */\n      0x20\n        /* \"#utility.yul\":22786:22792   */\n      dup3\n        /* \"#utility.yul\":22782:22797   */\n      add\n        /* \"#utility.yul\":22775:22814   */\n      mstore\n        /* \"#utility.yul\":22590:22821   */\n      pop\n      jump\t// out\n        /* \"#utility.yul\":22827:23193   */\n    tag_186:\n        /* \"#utility.yul\":22969:22972   */\n      0x00\n        /* \"#utility.yul\":22990:23057   */\n      tag_424\n        /* \"#utility.yul\":23054:23056   */\n      0x2c\n        /* \"#utility.yul\":23049:23052   */\n      dup4\n        /* \"#utility.yul\":22990:23057   */\n      tag_156\n      jump\t// in\n    tag_424:\n        /* \"#utility.yul\":22983:23057   */\n      swap2\n      pop\n        /* \"#utility.yul\":23066:23159   */\n      tag_425\n        /* \"#utility.yul\":23155:23158   */\n      dup3\n        /* \"#utility.yul\":23066:23159   */\n      tag_185\n      jump\t// in\n    tag_425:\n        /* \"#utility.yul\":23184:23186   */\n      0x40\n        /* \"#utility.yul\":23179:23182   */\n      dup3\n        /* \"#utility.yul\":23175:23187   */\n      add\n        /* \"#utility.yul\":23168:23187   */\n      swap1\n      pop\n        /* \"#utility.yul\":22827:23193   */\n      swap2\n      swap1\n      pop\n      jump\t// out\n        /* \"#utility.yul\":23199:23618   */\n    tag_105:\n        /* \"#utility.yul\":23365:23369   */\n      0x00\n        /* \"#utility.yul\":23403:23405   */\n      0x20\n        /* \"#utility.yul\":23392:23401   */\n      dup3\n        /* \"#utility.yul\":23388:23406   */\n      add\n        /* \"#utility.yul\":23380:23406   */\n      swap1\n      pop\n        /* \"#utility.yul\":23452:23461   */\n      dup2\n        /* \"#utility.yul\":23446:23450   */\n      dup2\n        /* \"#utility.yul\":23442:23462   */\n      sub\n        /* \"#utility.yul\":23438:23439   */\n      0x00\n        /* \"#utility.yul\":23427:23436   */\n      dup4\n        /* \"#utility.yul\":23423:23440   */\n      add\n        /* \"#utility.yul\":23416:23463   */\n      mstore\n        /* \"#utility.yul\":23480:23611   */\n      tag_427\n        /* \"#utility.yul\":23606:23610   */\n      dup2\n        /* \"#utility.yul\":23480:23611   */\n      tag_186\n      jump\t// in\n    tag_427:\n        /* \"#utility.yul\":23472:23611   */\n      swap1\n      pop\n        /* \"#utility.yul\":23199:23618   */\n      swap2\n      swap1\n      pop\n      jump\t// out\n\n    auxdata: 0xa264697066735822122035ab70bff7e2f4e33d4cf21964d53e3eb275cd9224306477e4577bf97808474364736f6c63430008110033\n}\n",
				"bytecode": {
					"linkReferences": {
						"contracts/libraries/StructHelpers.sol": {
							"StructHelpers": [
								{
									"length": 20,
									"start": 2449
								}
							]
						}
					},
					"object": "608060405234801561001057600080fd5b50611aba806100206000396000f3fe608060405234801561001057600080fd5b50600436106100885760003560e01c8063ce2a18ce1161005b578063ce2a18ce14610154578063dd534bde14610184578063e6ab0f59146101b4578063fe7ec2d6146101d057610088565b80631a0cc30b1461008d5780634e01bb35146100bd578063ad36769b146100ed578063c667e4ff14610124575b600080fd5b6100a760048036038101906100a29190610e94565b610200565b6040516100b49190610eed565b60405180910390f35b6100d760048036038101906100d291906111e4565b610233565b6040516100e491906113a3565b60405180910390f35b610107600480360381019061010291906113c5565b61050a565b60405161011b98979695949392919061145a565b60405180910390f35b61013e600480360381019061013991906113c5565b6106a2565b60405161014b9190611501565b60405180910390f35b61016e600480360381019061016991906113c5565b6106cc565b60405161017b91906113a3565b60405180910390f35b61019e6004803603810190610199919061151c565b6108f1565b6040516101ab91906113a3565b60405180910390f35b6101ce60048036038101906101c991906113c5565b610d88565b005b6101ea60048036038101906101e591906113c5565b610db6565b6040516101f79190611501565b60405180910390f35b60008282604051602001610215929190611586565b60405160208183030381529060405280519060200120905092915050565b61023b610dd6565b600061024f83602001518460400151610200565b9050808414610408576001600082815260200190815260200160002060009054906101000a900460ff166102b8576040517f08c379a00000000000000000000000000000000000000000000000000000000081526004016102af90611624565b60405180910390fd5b8260008083815260200190815260200160002060008201518160000155602082015181600101556040820151816002015560608201518160030160006101000a81548173ffffffffffffffffffffffffffffffffffffffff021916908373ffffffffffffffffffffffffffffffffffffffff16021790555060808201518160040160006101000a81548173ffffffffffffffffffffffffffffffffffffffff021916908373ffffffffffffffffffffffffffffffffffffffff16021790555060a082015181600501908161038c9190611850565b5060c0820151816006015560e08201518160070190816103ac9190611850565b5090505060006001600083815260200190815260200160002060006101000a81548160ff021916908315150217905550600180600086815260200190815260200160002060006101000a81548160ff0219169083151502179055505b8260008086815260200190815260200160002060008201518160000155602082015181600101556040820151816002015560608201518160030160006101000a81548173ffffffffffffffffffffffffffffffffffffffff021916908373ffffffffffffffffffffffffffffffffffffffff16021790555060808201518160040160006101000a81548173ffffffffffffffffffffffffffffffffffffffff021916908373ffffffffffffffffffffffffffffffffffffffff16021790555060a08201518160050190816104dc9190611850565b5060c0820151816006015560e08201518160070190816104fc9190611850565b509050508291505092915050565b60006020528060005260406000206000915090508060000154908060010154908060020154908060030160009054906101000a900473ffffffffffffffffffffffffffffffffffffffff16908060040160009054906101000a900473ffffffffffffffffffffffffffffffffffffffff169080600501805461058b90611673565b80601f01602080910402602001604051908101604052809291908181526020018280546105b790611673565b80156106045780601f106105d957610100808354040283529160200191610604565b820191906000526020600020905b8154815290600101906020018083116105e757829003601f168201915b50505050509080600601549080600701805461061f90611673565b80601f016020809104026020016040519081016040528092919081815260200182805461064b90611673565b80156106985780601f1061066d57610100808354040283529160200191610698565b820191906000526020600020905b81548152906001019060200180831161067b57829003601f168201915b5050505050905088565b60006001600083815260200190815260200160002060009054906101000a900460ff169050919050565b6106d4610dd6565b600080838152602001908152602001600020604051806101000160405290816000820154815260200160018201548152602001600282015481526020016003820160009054906101000a900473ffffffffffffffffffffffffffffffffffffffff1673ffffffffffffffffffffffffffffffffffffffff1673ffffffffffffffffffffffffffffffffffffffff1681526020016004820160009054906101000a900473ffffffffffffffffffffffffffffffffffffffff1673ffffffffffffffffffffffffffffffffffffffff1673ffffffffffffffffffffffffffffffffffffffff1681526020016005820180546107cc90611673565b80601f01602080910402602001604051908101604052809291908181526020018280546107f890611673565b80156108455780601f1061081a57610100808354040283529160200191610845565b820191906000526020600020905b81548152906001019060200180831161082857829003601f168201915b505050505081526020016006820154815260200160078201805461086890611673565b80601f016020809104026020016040519081016040528092919081815260200182805461089490611673565b80156108e15780601f106108b6576101008083540402835291602001916108e1565b820191906000526020600020905b8154815290600101906020018083116108c457829003601f168201915b5050505050815250509050919050565b6108f9610dd6565b600061090d83602001518460400151610200565b90506001600082815260200190815260200160002060009054906101000a900460ff1661096f576040517f08c379a000000000000000000000000000000000000000000000000000000000815260040161096690611624565b60405180910390fd5b73__$288d728ca5367516b201473e0fe842eff5$__635b16923c8460405160200161099a91906113a3565b6040516020818303038152906040526040518263ffffffff1660e01b81526004016109c59190611977565b602060405180830381865af41580156109e2573d6000803e3d6000fd5b505050506040513d601f19601f82011682018060405250810190610a0691906119c5565b15610a46576040517f08c379a0000000000000000000000000000000000000000000000000000000008152600401610a3d90611a64565b60405180910390fd5b8260008083815260200190815260200160002060008201518160000155602082015181600101556040820151816002015560608201518160030160006101000a81548173ffffffffffffffffffffffffffffffffffffffff021916908373ffffffffffffffffffffffffffffffffffffffff16021790555060808201518160040160006101000a81548173ffffffffffffffffffffffffffffffffffffffff021916908373ffffffffffffffffffffffffffffffffffffffff16021790555060a0820151816005019081610b1a9190611850565b5060c0820151816006015560e0820151816007019081610b3a9190611850565b5090505060006001600083815260200190815260200160002060006101000a81548160ff021916908315150217905550600080828152602001908152602001600020604051806101000160405290816000820154815260200160018201548152602001600282015481526020016003820160009054906101000a900473ffffffffffffffffffffffffffffffffffffffff1673ffffffffffffffffffffffffffffffffffffffff1673ffffffffffffffffffffffffffffffffffffffff1681526020016004820160009054906101000a900473ffffffffffffffffffffffffffffffffffffffff1673ffffffffffffffffffffffffffffffffffffffff1673ffffffffffffffffffffffffffffffffffffffff168152602001600582018054610c6290611673565b80601f0160208091040260200160405190810160405280929190818152602001828054610c8e90611673565b8015610cdb5780601f10610cb057610100808354040283529160200191610cdb565b820191906000526020600020905b815481529060010190602001808311610cbe57829003601f168201915b5050505050815260200160068201548152602001600782018054610cfe90611673565b80601f0160208091040260200160405190810160405280929190818152602001828054610d2a90611673565b8015610d775780601f10610d4c57610100808354040283529160200191610d77565b820191906000526020600020905b815481529060010190602001808311610d5a57829003601f168201915b505050505081525050915050919050565b600180600083815260200190815260200160002060006101000a81548160ff02191690831515021790555050565b60016020528060005260406000206000915054906101000a900460ff1681565b604051806101000160405280600080191681526020016000815260200160008152602001600073ffffffffffffffffffffffffffffffffffffffff168152602001600073ffffffffffffffffffffffffffffffffffffffff1681526020016060815260200160008152602001606081525090565b6000604051905090565b600080fd5b600080fd5b6000819050919050565b610e7181610e5e565b8114610e7c57600080fd5b50565b600081359050610e8e81610e68565b92915050565b60008060408385031215610eab57610eaa610e54565b5b6000610eb985828601610e7f565b9250506020610eca85828601610e7f565b9150509250929050565b6000819050919050565b610ee781610ed4565b82525050565b6000602082019050610f026000830184610ede565b92915050565b610f1181610ed4565b8114610f1c57600080fd5b50565b600081359050610f2e81610f08565b92915050565b600080fd5b6000601f19601f8301169050919050565b7f4e487b7100000000000000000000000000000000000000000000000000000000600052604160045260246000fd5b610f8282610f39565b810181811067ffffffffffffffff82111715610fa157610fa0610f4a565b5b80604052505050565b6000610fb4610e4a565b9050610fc08282610f79565b919050565b600080fd5b600073ffffffffffffffffffffffffffffffffffffffff82169050919050565b6000610ff582610fca565b9050919050565b61100581610fea565b811461101057600080fd5b50565b60008135905061102281610ffc565b92915050565b600080fd5b600080fd5b600067ffffffffffffffff82111561104d5761104c610f4a565b5b61105682610f39565b9050602081019050919050565b82818337600083830152505050565b600061108561108084611032565b610faa565b9050828152602081018484840111156110a1576110a061102d565b5b6110ac848285611063565b509392505050565b600082601f8301126110c9576110c8611028565b5b81356110d9848260208601611072565b91505092915050565b600061010082840312156110f9576110f8610f34565b5b611104610100610faa565b9050600061111484828501610f1f565b600083015250602061112884828501610e7f565b602083015250604061113c84828501610e7f565b604083015250606061115084828501611013565b606083015250608061116484828501611013565b60808301525060a082013567ffffffffffffffff81111561118857611187610fc5565b5b611194848285016110b4565b60a08301525060c06111a884828501610e7f565b60c08301525060e082013567ffffffffffffffff8111156111cc576111cb610fc5565b5b6111d8848285016110b4565b60e08301525092915050565b600080604083850312156111fb576111fa610e54565b5b600061120985828601610f1f565b925050602083013567ffffffffffffffff81111561122a57611229610e59565b5b611236858286016110e2565b9150509250929050565b61124981610ed4565b82525050565b61125881610e5e565b82525050565b61126781610fea565b82525050565b600081519050919050565b600082825260208201905092915050565b60005b838110156112a757808201518184015260208101905061128c565b60008484015250505050565b60006112be8261126d565b6112c88185611278565b93506112d8818560208601611289565b6112e181610f39565b840191505092915050565b6000610100830160008301516113056000860182611240565b506020830151611318602086018261124f565b50604083015161132b604086018261124f565b50606083015161133e606086018261125e565b506080830151611351608086018261125e565b5060a083015184820360a086015261136982826112b3565b91505060c083015161137e60c086018261124f565b5060e083015184820360e086015261139682826112b3565b9150508091505092915050565b600060208201905081810360008301526113bd81846112ec565b905092915050565b6000602082840312156113db576113da610e54565b5b60006113e984828501610f1f565b91505092915050565b6113fb81610e5e565b82525050565b61140a81610fea565b82525050565b600082825260208201905092915050565b600061142c8261126d565b6114368185611410565b9350611446818560208601611289565b61144f81610f39565b840191505092915050565b600061010082019050611470600083018b610ede565b61147d602083018a6113f2565b61148a60408301896113f2565b6114976060830188611401565b6114a46080830187611401565b81810360a08301526114b68186611421565b90506114c560c08301856113f2565b81810360e08301526114d78184611421565b90509998505050505050505050565b60008115159050919050565b6114fb816114e6565b82525050565b600060208201905061151660008301846114f2565b92915050565b60006020828403121561153257611531610e54565b5b600082013567ffffffffffffffff8111156115505761154f610e59565b5b61155c848285016110e2565b91505092915050565b6000819050919050565b61158061157b82610e5e565b611565565b82525050565b6000611592828561156f565b6020820191506115a2828461156f565b6020820191508190509392505050565b7f54686973206170706f696e746d656e7420736c6f74206973206e6f742061766160008201527f696c61626c650000000000000000000000000000000000000000000000000000602082015250565b600061160e602683611410565b9150611619826115b2565b604082019050919050565b6000602082019050818103600083015261163d81611601565b9050919050565b7f4e487b7100000000000000000000000000000000000000000000000000000000600052602260045260246000fd5b6000600282049050600182168061168b57607f821691505b60208210810361169e5761169d611644565b5b50919050565b60008190508160005260206000209050919050565b60006020601f8301049050919050565b600082821b905092915050565b6000600883026117067fffffffffffffffffffffffffffffffffffffffffffffffffffffffffffffffff826116c9565b61171086836116c9565b95508019841693508086168417925050509392505050565b6000819050919050565b600061174d61174861174384610e5e565b611728565b610e5e565b9050919050565b6000819050919050565b61176783611732565b61177b61177382611754565b8484546116d6565b825550505050565b600090565b611790611783565b61179b81848461175e565b505050565b5b818110156117bf576117b4600082611788565b6001810190506117a1565b5050565b601f821115611804576117d5816116a4565b6117de846116b9565b810160208510156117ed578190505b6118016117f9856116b9565b8301826117a0565b50505b505050565b600082821c905092915050565b600061182760001984600802611809565b1980831691505092915050565b60006118408383611816565b9150826002028217905092915050565b6118598261126d565b67ffffffffffffffff81111561187257611871610f4a565b5b61187c8254611673565b6118878282856117c3565b600060209050601f8311600181146118ba57600084156118a8578287015190505b6118b28582611834565b86555061191a565b601f1984166118c8866116a4565b60005b828110156118f0578489015182556001820191506020850194506020810190506118cb565b8683101561190d5784890151611909601f891682611816565b8355505b6001600288020188555050505b505050505050565b600081519050919050565b600082825260208201905092915050565b600061194982611922565b611953818561192d565b9350611963818560208601611289565b61196c81610f39565b840191505092915050565b60006020820190508181036000830152611991818461193e565b905092915050565b6119a2816114e6565b81146119ad57600080fd5b50565b6000815190506119bf81611999565b92915050565b6000602082840312156119db576119da610e54565b5b60006119e9848285016119b0565b91505092915050565b7f456d707479204170706f696e746d656e742e2050726570617265206170706f6960008201527f6e746d656e7420616761696e0000000000000000000000000000000000000000602082015250565b6000611a4e602c83611410565b9150611a59826119f2565b604082019050919050565b60006020820190508181036000830152611a7d81611a41565b905091905056fea264697066735822122035ab70bff7e2f4e33d4cf21964d53e3eb275cd9224306477e4577bf97808474364736f6c63430008110033",
					"opcodes": "PUSH1 0x80 PUSH1 0x40 MSTORE CALLVALUE DUP1 ISZERO PUSH2 0x10 JUMPI PUSH1 0x0 DUP1 REVERT JUMPDEST POP PUSH2 0x1ABA DUP1 PUSH2 0x20 PUSH1 0x0 CODECOPY PUSH1 0x0 RETURN INVALID PUSH1 0x80 PUSH1 0x40 MSTORE CALLVALUE DUP1 ISZERO PUSH2 0x10 JUMPI PUSH1 0x0 DUP1 REVERT JUMPDEST POP PUSH1 0x4 CALLDATASIZE LT PUSH2 0x88 JUMPI PUSH1 0x0 CALLDATALOAD PUSH1 0xE0 SHR DUP1 PUSH4 0xCE2A18CE GT PUSH2 0x5B JUMPI DUP1 PUSH4 0xCE2A18CE EQ PUSH2 0x154 JUMPI DUP1 PUSH4 0xDD534BDE EQ PUSH2 0x184 JUMPI DUP1 PUSH4 0xE6AB0F59 EQ PUSH2 0x1B4 JUMPI DUP1 PUSH4 0xFE7EC2D6 EQ PUSH2 0x1D0 JUMPI PUSH2 0x88 JUMP JUMPDEST DUP1 PUSH4 0x1A0CC30B EQ PUSH2 0x8D JUMPI DUP1 PUSH4 0x4E01BB35 EQ PUSH2 0xBD JUMPI DUP1 PUSH4 0xAD36769B EQ PUSH2 0xED JUMPI DUP1 PUSH4 0xC667E4FF EQ PUSH2 0x124 JUMPI JUMPDEST PUSH1 0x0 DUP1 REVERT JUMPDEST PUSH2 0xA7 PUSH1 0x4 DUP1 CALLDATASIZE SUB DUP2 ADD SWAP1 PUSH2 0xA2 SWAP2 SWAP1 PUSH2 0xE94 JUMP JUMPDEST PUSH2 0x200 JUMP JUMPDEST PUSH1 0x40 MLOAD PUSH2 0xB4 SWAP2 SWAP1 PUSH2 0xEED JUMP JUMPDEST PUSH1 0x40 MLOAD DUP1 SWAP2 SUB SWAP1 RETURN JUMPDEST PUSH2 0xD7 PUSH1 0x4 DUP1 CALLDATASIZE SUB DUP2 ADD SWAP1 PUSH2 0xD2 SWAP2 SWAP1 PUSH2 0x11E4 JUMP JUMPDEST PUSH2 0x233 JUMP JUMPDEST PUSH1 0x40 MLOAD PUSH2 0xE4 SWAP2 SWAP1 PUSH2 0x13A3 JUMP JUMPDEST PUSH1 0x40 MLOAD DUP1 SWAP2 SUB SWAP1 RETURN JUMPDEST PUSH2 0x107 PUSH1 0x4 DUP1 CALLDATASIZE SUB DUP2 ADD SWAP1 PUSH2 0x102 SWAP2 SWAP1 PUSH2 0x13C5 JUMP JUMPDEST PUSH2 0x50A JUMP JUMPDEST PUSH1 0x40 MLOAD PUSH2 0x11B SWAP9 SWAP8 SWAP7 SWAP6 SWAP5 SWAP4 SWAP3 SWAP2 SWAP1 PUSH2 0x145A JUMP JUMPDEST PUSH1 0x40 MLOAD DUP1 SWAP2 SUB SWAP1 RETURN JUMPDEST PUSH2 0x13E PUSH1 0x4 DUP1 CALLDATASIZE SUB DUP2 ADD SWAP1 PUSH2 0x139 SWAP2 SWAP1 PUSH2 0x13C5 JUMP JUMPDEST PUSH2 0x6A2 JUMP JUMPDEST PUSH1 0x40 MLOAD PUSH2 0x14B SWAP2 SWAP1 PUSH2 0x1501 JUMP JUMPDEST PUSH1 0x40 MLOAD DUP1 SWAP2 SUB SWAP1 RETURN JUMPDEST PUSH2 0x16E PUSH1 0x4 DUP1 CALLDATASIZE SUB DUP2 ADD SWAP1 PUSH2 0x169 SWAP2 SWAP1 PUSH2 0x13C5 JUMP JUMPDEST PUSH2 0x6CC JUMP JUMPDEST PUSH1 0x40 MLOAD PUSH2 0x17B SWAP2 SWAP1 PUSH2 0x13A3 JUMP JUMPDEST PUSH1 0x40 MLOAD DUP1 SWAP2 SUB SWAP1 RETURN JUMPDEST PUSH2 0x19E PUSH1 0x4 DUP1 CALLDATASIZE SUB DUP2 ADD SWAP1 PUSH2 0x199 SWAP2 SWAP1 PUSH2 0x151C JUMP JUMPDEST PUSH2 0x8F1 JUMP JUMPDEST PUSH1 0x40 MLOAD PUSH2 0x1AB SWAP2 SWAP1 PUSH2 0x13A3 JUMP JUMPDEST PUSH1 0x40 MLOAD DUP1 SWAP2 SUB SWAP1 RETURN JUMPDEST PUSH2 0x1CE PUSH1 0x4 DUP1 CALLDATASIZE SUB DUP2 ADD SWAP1 PUSH2 0x1C9 SWAP2 SWAP1 PUSH2 0x13C5 JUMP JUMPDEST PUSH2 0xD88 JUMP JUMPDEST STOP JUMPDEST PUSH2 0x1EA PUSH1 0x4 DUP1 CALLDATASIZE SUB DUP2 ADD SWAP1 PUSH2 0x1E5 SWAP2 SWAP1 PUSH2 0x13C5 JUMP JUMPDEST PUSH2 0xDB6 JUMP JUMPDEST PUSH1 0x40 MLOAD PUSH2 0x1F7 SWAP2 SWAP1 PUSH2 0x1501 JUMP JUMPDEST PUSH1 0x40 MLOAD DUP1 SWAP2 SUB SWAP1 RETURN JUMPDEST PUSH1 0x0 DUP3 DUP3 PUSH1 0x40 MLOAD PUSH1 0x20 ADD PUSH2 0x215 SWAP3 SWAP2 SWAP1 PUSH2 0x1586 JUMP JUMPDEST PUSH1 0x40 MLOAD PUSH1 0x20 DUP2 DUP4 SUB SUB DUP2 MSTORE SWAP1 PUSH1 0x40 MSTORE DUP1 MLOAD SWAP1 PUSH1 0x20 ADD KECCAK256 SWAP1 POP SWAP3 SWAP2 POP POP JUMP JUMPDEST PUSH2 0x23B PUSH2 0xDD6 JUMP JUMPDEST PUSH1 0x0 PUSH2 0x24F DUP4 PUSH1 0x20 ADD MLOAD DUP5 PUSH1 0x40 ADD MLOAD PUSH2 0x200 JUMP JUMPDEST SWAP1 POP DUP1 DUP5 EQ PUSH2 0x408 JUMPI PUSH1 0x1 PUSH1 0x0 DUP3 DUP2 MSTORE PUSH1 0x20 ADD SWAP1 DUP2 MSTORE PUSH1 0x20 ADD PUSH1 0x0 KECCAK256 PUSH1 0x0 SWAP1 SLOAD SWAP1 PUSH2 0x100 EXP SWAP1 DIV PUSH1 0xFF AND PUSH2 0x2B8 JUMPI PUSH1 0x40 MLOAD PUSH32 0x8C379A000000000000000000000000000000000000000000000000000000000 DUP2 MSTORE PUSH1 0x4 ADD PUSH2 0x2AF SWAP1 PUSH2 0x1624 JUMP JUMPDEST PUSH1 0x40 MLOAD DUP1 SWAP2 SUB SWAP1 REVERT JUMPDEST DUP3 PUSH1 0x0 DUP1 DUP4 DUP2 MSTORE PUSH1 0x20 ADD SWAP1 DUP2 MSTORE PUSH1 0x20 ADD PUSH1 0x0 KECCAK256 PUSH1 0x0 DUP3 ADD MLOAD DUP2 PUSH1 0x0 ADD SSTORE PUSH1 0x20 DUP3 ADD MLOAD DUP2 PUSH1 0x1 ADD SSTORE PUSH1 0x40 DUP3 ADD MLOAD DUP2 PUSH1 0x2 ADD SSTORE PUSH1 0x60 DUP3 ADD MLOAD DUP2 PUSH1 0x3 ADD PUSH1 0x0 PUSH2 0x100 EXP DUP2 SLOAD DUP2 PUSH20 0xFFFFFFFFFFFFFFFFFFFFFFFFFFFFFFFFFFFFFFFF MUL NOT AND SWAP1 DUP4 PUSH20 0xFFFFFFFFFFFFFFFFFFFFFFFFFFFFFFFFFFFFFFFF AND MUL OR SWAP1 SSTORE POP PUSH1 0x80 DUP3 ADD MLOAD DUP2 PUSH1 0x4 ADD PUSH1 0x0 PUSH2 0x100 EXP DUP2 SLOAD DUP2 PUSH20 0xFFFFFFFFFFFFFFFFFFFFFFFFFFFFFFFFFFFFFFFF MUL NOT AND SWAP1 DUP4 PUSH20 0xFFFFFFFFFFFFFFFFFFFFFFFFFFFFFFFFFFFFFFFF AND MUL OR SWAP1 SSTORE POP PUSH1 0xA0 DUP3 ADD MLOAD DUP2 PUSH1 0x5 ADD SWAP1 DUP2 PUSH2 0x38C SWAP2 SWAP1 PUSH2 0x1850 JUMP JUMPDEST POP PUSH1 0xC0 DUP3 ADD MLOAD DUP2 PUSH1 0x6 ADD SSTORE PUSH1 0xE0 DUP3 ADD MLOAD DUP2 PUSH1 0x7 ADD SWAP1 DUP2 PUSH2 0x3AC SWAP2 SWAP1 PUSH2 0x1850 JUMP JUMPDEST POP SWAP1 POP POP PUSH1 0x0 PUSH1 0x1 PUSH1 0x0 DUP4 DUP2 MSTORE PUSH1 0x20 ADD SWAP1 DUP2 MSTORE PUSH1 0x20 ADD PUSH1 0x0 KECCAK256 PUSH1 0x0 PUSH2 0x100 EXP DUP2 SLOAD DUP2 PUSH1 0xFF MUL NOT AND SWAP1 DUP4 ISZERO ISZERO MUL OR SWAP1 SSTORE POP PUSH1 0x1 DUP1 PUSH1 0x0 DUP7 DUP2 MSTORE PUSH1 0x20 ADD SWAP1 DUP2 MSTORE PUSH1 0x20 ADD PUSH1 0x0 KECCAK256 PUSH1 0x0 PUSH2 0x100 EXP DUP2 SLOAD DUP2 PUSH1 0xFF MUL NOT AND SWAP1 DUP4 ISZERO ISZERO MUL OR SWAP1 SSTORE POP JUMPDEST DUP3 PUSH1 0x0 DUP1 DUP7 DUP2 MSTORE PUSH1 0x20 ADD SWAP1 DUP2 MSTORE PUSH1 0x20 ADD PUSH1 0x0 KECCAK256 PUSH1 0x0 DUP3 ADD MLOAD DUP2 PUSH1 0x0 ADD SSTORE PUSH1 0x20 DUP3 ADD MLOAD DUP2 PUSH1 0x1 ADD SSTORE PUSH1 0x40 DUP3 ADD MLOAD DUP2 PUSH1 0x2 ADD SSTORE PUSH1 0x60 DUP3 ADD MLOAD DUP2 PUSH1 0x3 ADD PUSH1 0x0 PUSH2 0x100 EXP DUP2 SLOAD DUP2 PUSH20 0xFFFFFFFFFFFFFFFFFFFFFFFFFFFFFFFFFFFFFFFF MUL NOT AND SWAP1 DUP4 PUSH20 0xFFFFFFFFFFFFFFFFFFFFFFFFFFFFFFFFFFFFFFFF AND MUL OR SWAP1 SSTORE POP PUSH1 0x80 DUP3 ADD MLOAD DUP2 PUSH1 0x4 ADD PUSH1 0x0 PUSH2 0x100 EXP DUP2 SLOAD DUP2 PUSH20 0xFFFFFFFFFFFFFFFFFFFFFFFFFFFFFFFFFFFFFFFF MUL NOT AND SWAP1 DUP4 PUSH20 0xFFFFFFFFFFFFFFFFFFFFFFFFFFFFFFFFFFFFFFFF AND MUL OR SWAP1 SSTORE POP PUSH1 0xA0 DUP3 ADD MLOAD DUP2 PUSH1 0x5 ADD SWAP1 DUP2 PUSH2 0x4DC SWAP2 SWAP1 PUSH2 0x1850 JUMP JUMPDEST POP PUSH1 0xC0 DUP3 ADD MLOAD DUP2 PUSH1 0x6 ADD SSTORE PUSH1 0xE0 DUP3 ADD MLOAD DUP2 PUSH1 0x7 ADD SWAP1 DUP2 PUSH2 0x4FC SWAP2 SWAP1 PUSH2 0x1850 JUMP JUMPDEST POP SWAP1 POP POP DUP3 SWAP2 POP POP SWAP3 SWAP2 POP POP JUMP JUMPDEST PUSH1 0x0 PUSH1 0x20 MSTORE DUP1 PUSH1 0x0 MSTORE PUSH1 0x40 PUSH1 0x0 KECCAK256 PUSH1 0x0 SWAP2 POP SWAP1 POP DUP1 PUSH1 0x0 ADD SLOAD SWAP1 DUP1 PUSH1 0x1 ADD SLOAD SWAP1 DUP1 PUSH1 0x2 ADD SLOAD SWAP1 DUP1 PUSH1 0x3 ADD PUSH1 0x0 SWAP1 SLOAD SWAP1 PUSH2 0x100 EXP SWAP1 DIV PUSH20 0xFFFFFFFFFFFFFFFFFFFFFFFFFFFFFFFFFFFFFFFF AND SWAP1 DUP1 PUSH1 0x4 ADD PUSH1 0x0 SWAP1 SLOAD SWAP1 PUSH2 0x100 EXP SWAP1 DIV PUSH20 0xFFFFFFFFFFFFFFFFFFFFFFFFFFFFFFFFFFFFFFFF AND SWAP1 DUP1 PUSH1 0x5 ADD DUP1 SLOAD PUSH2 0x58B SWAP1 PUSH2 0x1673 JUMP JUMPDEST DUP1 PUSH1 0x1F ADD PUSH1 0x20 DUP1 SWAP2 DIV MUL PUSH1 0x20 ADD PUSH1 0x40 MLOAD SWAP1 DUP2 ADD PUSH1 0x40 MSTORE DUP1 SWAP3 SWAP2 SWAP1 DUP2 DUP2 MSTORE PUSH1 0x20 ADD DUP3 DUP1 SLOAD PUSH2 0x5B7 SWAP1 PUSH2 0x1673 JUMP JUMPDEST DUP1 ISZERO PUSH2 0x604 JUMPI DUP1 PUSH1 0x1F LT PUSH2 0x5D9 JUMPI PUSH2 0x100 DUP1 DUP4 SLOAD DIV MUL DUP4 MSTORE SWAP2 PUSH1 0x20 ADD SWAP2 PUSH2 0x604 JUMP JUMPDEST DUP3 ADD SWAP2 SWAP1 PUSH1 0x0 MSTORE PUSH1 0x20 PUSH1 0x0 KECCAK256 SWAP1 JUMPDEST DUP2 SLOAD DUP2 MSTORE SWAP1 PUSH1 0x1 ADD SWAP1 PUSH1 0x20 ADD DUP1 DUP4 GT PUSH2 0x5E7 JUMPI DUP3 SWAP1 SUB PUSH1 0x1F AND DUP3 ADD SWAP2 JUMPDEST POP POP POP POP POP SWAP1 DUP1 PUSH1 0x6 ADD SLOAD SWAP1 DUP1 PUSH1 0x7 ADD DUP1 SLOAD PUSH2 0x61F SWAP1 PUSH2 0x1673 JUMP JUMPDEST DUP1 PUSH1 0x1F ADD PUSH1 0x20 DUP1 SWAP2 DIV MUL PUSH1 0x20 ADD PUSH1 0x40 MLOAD SWAP1 DUP2 ADD PUSH1 0x40 MSTORE DUP1 SWAP3 SWAP2 SWAP1 DUP2 DUP2 MSTORE PUSH1 0x20 ADD DUP3 DUP1 SLOAD PUSH2 0x64B SWAP1 PUSH2 0x1673 JUMP JUMPDEST DUP1 ISZERO PUSH2 0x698 JUMPI DUP1 PUSH1 0x1F LT PUSH2 0x66D JUMPI PUSH2 0x100 DUP1 DUP4 SLOAD DIV MUL DUP4 MSTORE SWAP2 PUSH1 0x20 ADD SWAP2 PUSH2 0x698 JUMP JUMPDEST DUP3 ADD SWAP2 SWAP1 PUSH1 0x0 MSTORE PUSH1 0x20 PUSH1 0x0 KECCAK256 SWAP1 JUMPDEST DUP2 SLOAD DUP2 MSTORE SWAP1 PUSH1 0x1 ADD SWAP1 PUSH1 0x20 ADD DUP1 DUP4 GT PUSH2 0x67B JUMPI DUP3 SWAP1 SUB PUSH1 0x1F AND DUP3 ADD SWAP2 JUMPDEST POP POP POP POP POP SWAP1 POP DUP9 JUMP JUMPDEST PUSH1 0x0 PUSH1 0x1 PUSH1 0x0 DUP4 DUP2 MSTORE PUSH1 0x20 ADD SWAP1 DUP2 MSTORE PUSH1 0x20 ADD PUSH1 0x0 KECCAK256 PUSH1 0x0 SWAP1 SLOAD SWAP1 PUSH2 0x100 EXP SWAP1 DIV PUSH1 0xFF AND SWAP1 POP SWAP2 SWAP1 POP JUMP JUMPDEST PUSH2 0x6D4 PUSH2 0xDD6 JUMP JUMPDEST PUSH1 0x0 DUP1 DUP4 DUP2 MSTORE PUSH1 0x20 ADD SWAP1 DUP2 MSTORE PUSH1 0x20 ADD PUSH1 0x0 KECCAK256 PUSH1 0x40 MLOAD DUP1 PUSH2 0x100 ADD PUSH1 0x40 MSTORE SWAP1 DUP2 PUSH1 0x0 DUP3 ADD SLOAD DUP2 MSTORE PUSH1 0x20 ADD PUSH1 0x1 DUP3 ADD SLOAD DUP2 MSTORE PUSH1 0x20 ADD PUSH1 0x2 DUP3 ADD SLOAD DUP2 MSTORE PUSH1 0x20 ADD PUSH1 0x3 DUP3 ADD PUSH1 0x0 SWAP1 SLOAD SWAP1 PUSH2 0x100 EXP SWAP1 DIV PUSH20 0xFFFFFFFFFFFFFFFFFFFFFFFFFFFFFFFFFFFFFFFF AND PUSH20 0xFFFFFFFFFFFFFFFFFFFFFFFFFFFFFFFFFFFFFFFF AND PUSH20 0xFFFFFFFFFFFFFFFFFFFFFFFFFFFFFFFFFFFFFFFF AND DUP2 MSTORE PUSH1 0x20 ADD PUSH1 0x4 DUP3 ADD PUSH1 0x0 SWAP1 SLOAD SWAP1 PUSH2 0x100 EXP SWAP1 DIV PUSH20 0xFFFFFFFFFFFFFFFFFFFFFFFFFFFFFFFFFFFFFFFF AND PUSH20 0xFFFFFFFFFFFFFFFFFFFFFFFFFFFFFFFFFFFFFFFF AND PUSH20 0xFFFFFFFFFFFFFFFFFFFFFFFFFFFFFFFFFFFFFFFF AND DUP2 MSTORE PUSH1 0x20 ADD PUSH1 0x5 DUP3 ADD DUP1 SLOAD PUSH2 0x7CC SWAP1 PUSH2 0x1673 JUMP JUMPDEST DUP1 PUSH1 0x1F ADD PUSH1 0x20 DUP1 SWAP2 DIV MUL PUSH1 0x20 ADD PUSH1 0x40 MLOAD SWAP1 DUP2 ADD PUSH1 0x40 MSTORE DUP1 SWAP3 SWAP2 SWAP1 DUP2 DUP2 MSTORE PUSH1 0x20 ADD DUP3 DUP1 SLOAD PUSH2 0x7F8 SWAP1 PUSH2 0x1673 JUMP JUMPDEST DUP1 ISZERO PUSH2 0x845 JUMPI DUP1 PUSH1 0x1F LT PUSH2 0x81A JUMPI PUSH2 0x100 DUP1 DUP4 SLOAD DIV MUL DUP4 MSTORE SWAP2 PUSH1 0x20 ADD SWAP2 PUSH2 0x845 JUMP JUMPDEST DUP3 ADD SWAP2 SWAP1 PUSH1 0x0 MSTORE PUSH1 0x20 PUSH1 0x0 KECCAK256 SWAP1 JUMPDEST DUP2 SLOAD DUP2 MSTORE SWAP1 PUSH1 0x1 ADD SWAP1 PUSH1 0x20 ADD DUP1 DUP4 GT PUSH2 0x828 JUMPI DUP3 SWAP1 SUB PUSH1 0x1F AND DUP3 ADD SWAP2 JUMPDEST POP POP POP POP POP DUP2 MSTORE PUSH1 0x20 ADD PUSH1 0x6 DUP3 ADD SLOAD DUP2 MSTORE PUSH1 0x20 ADD PUSH1 0x7 DUP3 ADD DUP1 SLOAD PUSH2 0x868 SWAP1 PUSH2 0x1673 JUMP JUMPDEST DUP1 PUSH1 0x1F ADD PUSH1 0x20 DUP1 SWAP2 DIV MUL PUSH1 0x20 ADD PUSH1 0x40 MLOAD SWAP1 DUP2 ADD PUSH1 0x40 MSTORE DUP1 SWAP3 SWAP2 SWAP1 DUP2 DUP2 MSTORE PUSH1 0x20 ADD DUP3 DUP1 SLOAD PUSH2 0x894 SWAP1 PUSH2 0x1673 JUMP JUMPDEST DUP1 ISZERO PUSH2 0x8E1 JUMPI DUP1 PUSH1 0x1F LT PUSH2 0x8B6 JUMPI PUSH2 0x100 DUP1 DUP4 SLOAD DIV MUL DUP4 MSTORE SWAP2 PUSH1 0x20 ADD SWAP2 PUSH2 0x8E1 JUMP JUMPDEST DUP3 ADD SWAP2 SWAP1 PUSH1 0x0 MSTORE PUSH1 0x20 PUSH1 0x0 KECCAK256 SWAP1 JUMPDEST DUP2 SLOAD DUP2 MSTORE SWAP1 PUSH1 0x1 ADD SWAP1 PUSH1 0x20 ADD DUP1 DUP4 GT PUSH2 0x8C4 JUMPI DUP3 SWAP1 SUB PUSH1 0x1F AND DUP3 ADD SWAP2 JUMPDEST POP POP POP POP POP DUP2 MSTORE POP POP SWAP1 POP SWAP2 SWAP1 POP JUMP JUMPDEST PUSH2 0x8F9 PUSH2 0xDD6 JUMP JUMPDEST PUSH1 0x0 PUSH2 0x90D DUP4 PUSH1 0x20 ADD MLOAD DUP5 PUSH1 0x40 ADD MLOAD PUSH2 0x200 JUMP JUMPDEST SWAP1 POP PUSH1 0x1 PUSH1 0x0 DUP3 DUP2 MSTORE PUSH1 0x20 ADD SWAP1 DUP2 MSTORE PUSH1 0x20 ADD PUSH1 0x0 KECCAK256 PUSH1 0x0 SWAP1 SLOAD SWAP1 PUSH2 0x100 EXP SWAP1 DIV PUSH1 0xFF AND PUSH2 0x96F JUMPI PUSH1 0x40 MLOAD PUSH32 0x8C379A000000000000000000000000000000000000000000000000000000000 DUP2 MSTORE PUSH1 0x4 ADD PUSH2 0x966 SWAP1 PUSH2 0x1624 JUMP JUMPDEST PUSH1 0x40 MLOAD DUP1 SWAP2 SUB SWAP1 REVERT JUMPDEST PUSH20 0x0 PUSH4 0x5B16923C DUP5 PUSH1 0x40 MLOAD PUSH1 0x20 ADD PUSH2 0x99A SWAP2 SWAP1 PUSH2 0x13A3 JUMP JUMPDEST PUSH1 0x40 MLOAD PUSH1 0x20 DUP2 DUP4 SUB SUB DUP2 MSTORE SWAP1 PUSH1 0x40 MSTORE PUSH1 0x40 MLOAD DUP3 PUSH4 0xFFFFFFFF AND PUSH1 0xE0 SHL DUP2 MSTORE PUSH1 0x4 ADD PUSH2 0x9C5 SWAP2 SWAP1 PUSH2 0x1977 JUMP JUMPDEST PUSH1 0x20 PUSH1 0x40 MLOAD DUP1 DUP4 SUB DUP2 DUP7 GAS DELEGATECALL ISZERO DUP1 ISZERO PUSH2 0x9E2 JUMPI RETURNDATASIZE PUSH1 0x0 DUP1 RETURNDATACOPY RETURNDATASIZE PUSH1 0x0 REVERT JUMPDEST POP POP POP POP PUSH1 0x40 MLOAD RETURNDATASIZE PUSH1 0x1F NOT PUSH1 0x1F DUP3 ADD AND DUP3 ADD DUP1 PUSH1 0x40 MSTORE POP DUP2 ADD SWAP1 PUSH2 0xA06 SWAP2 SWAP1 PUSH2 0x19C5 JUMP JUMPDEST ISZERO PUSH2 0xA46 JUMPI PUSH1 0x40 MLOAD PUSH32 0x8C379A000000000000000000000000000000000000000000000000000000000 DUP2 MSTORE PUSH1 0x4 ADD PUSH2 0xA3D SWAP1 PUSH2 0x1A64 JUMP JUMPDEST PUSH1 0x40 MLOAD DUP1 SWAP2 SUB SWAP1 REVERT JUMPDEST DUP3 PUSH1 0x0 DUP1 DUP4 DUP2 MSTORE PUSH1 0x20 ADD SWAP1 DUP2 MSTORE PUSH1 0x20 ADD PUSH1 0x0 KECCAK256 PUSH1 0x0 DUP3 ADD MLOAD DUP2 PUSH1 0x0 ADD SSTORE PUSH1 0x20 DUP3 ADD MLOAD DUP2 PUSH1 0x1 ADD SSTORE PUSH1 0x40 DUP3 ADD MLOAD DUP2 PUSH1 0x2 ADD SSTORE PUSH1 0x60 DUP3 ADD MLOAD DUP2 PUSH1 0x3 ADD PUSH1 0x0 PUSH2 0x100 EXP DUP2 SLOAD DUP2 PUSH20 0xFFFFFFFFFFFFFFFFFFFFFFFFFFFFFFFFFFFFFFFF MUL NOT AND SWAP1 DUP4 PUSH20 0xFFFFFFFFFFFFFFFFFFFFFFFFFFFFFFFFFFFFFFFF AND MUL OR SWAP1 SSTORE POP PUSH1 0x80 DUP3 ADD MLOAD DUP2 PUSH1 0x4 ADD PUSH1 0x0 PUSH2 0x100 EXP DUP2 SLOAD DUP2 PUSH20 0xFFFFFFFFFFFFFFFFFFFFFFFFFFFFFFFFFFFFFFFF MUL NOT AND SWAP1 DUP4 PUSH20 0xFFFFFFFFFFFFFFFFFFFFFFFFFFFFFFFFFFFFFFFF AND MUL OR SWAP1 SSTORE POP PUSH1 0xA0 DUP3 ADD MLOAD DUP2 PUSH1 0x5 ADD SWAP1 DUP2 PUSH2 0xB1A SWAP2 SWAP1 PUSH2 0x1850 JUMP JUMPDEST POP PUSH1 0xC0 DUP3 ADD MLOAD DUP2 PUSH1 0x6 ADD SSTORE PUSH1 0xE0 DUP3 ADD MLOAD DUP2 PUSH1 0x7 ADD SWAP1 DUP2 PUSH2 0xB3A SWAP2 SWAP1 PUSH2 0x1850 JUMP JUMPDEST POP SWAP1 POP POP PUSH1 0x0 PUSH1 0x1 PUSH1 0x0 DUP4 DUP2 MSTORE PUSH1 0x20 ADD SWAP1 DUP2 MSTORE PUSH1 0x20 ADD PUSH1 0x0 KECCAK256 PUSH1 0x0 PUSH2 0x100 EXP DUP2 SLOAD DUP2 PUSH1 0xFF MUL NOT AND SWAP1 DUP4 ISZERO ISZERO MUL OR SWAP1 SSTORE POP PUSH1 0x0 DUP1 DUP3 DUP2 MSTORE PUSH1 0x20 ADD SWAP1 DUP2 MSTORE PUSH1 0x20 ADD PUSH1 0x0 KECCAK256 PUSH1 0x40 MLOAD DUP1 PUSH2 0x100 ADD PUSH1 0x40 MSTORE SWAP1 DUP2 PUSH1 0x0 DUP3 ADD SLOAD DUP2 MSTORE PUSH1 0x20 ADD PUSH1 0x1 DUP3 ADD SLOAD DUP2 MSTORE PUSH1 0x20 ADD PUSH1 0x2 DUP3 ADD SLOAD DUP2 MSTORE PUSH1 0x20 ADD PUSH1 0x3 DUP3 ADD PUSH1 0x0 SWAP1 SLOAD SWAP1 PUSH2 0x100 EXP SWAP1 DIV PUSH20 0xFFFFFFFFFFFFFFFFFFFFFFFFFFFFFFFFFFFFFFFF AND PUSH20 0xFFFFFFFFFFFFFFFFFFFFFFFFFFFFFFFFFFFFFFFF AND PUSH20 0xFFFFFFFFFFFFFFFFFFFFFFFFFFFFFFFFFFFFFFFF AND DUP2 MSTORE PUSH1 0x20 ADD PUSH1 0x4 DUP3 ADD PUSH1 0x0 SWAP1 SLOAD SWAP1 PUSH2 0x100 EXP SWAP1 DIV PUSH20 0xFFFFFFFFFFFFFFFFFFFFFFFFFFFFFFFFFFFFFFFF AND PUSH20 0xFFFFFFFFFFFFFFFFFFFFFFFFFFFFFFFFFFFFFFFF AND PUSH20 0xFFFFFFFFFFFFFFFFFFFFFFFFFFFFFFFFFFFFFFFF AND DUP2 MSTORE PUSH1 0x20 ADD PUSH1 0x5 DUP3 ADD DUP1 SLOAD PUSH2 0xC62 SWAP1 PUSH2 0x1673 JUMP JUMPDEST DUP1 PUSH1 0x1F ADD PUSH1 0x20 DUP1 SWAP2 DIV MUL PUSH1 0x20 ADD PUSH1 0x40 MLOAD SWAP1 DUP2 ADD PUSH1 0x40 MSTORE DUP1 SWAP3 SWAP2 SWAP1 DUP2 DUP2 MSTORE PUSH1 0x20 ADD DUP3 DUP1 SLOAD PUSH2 0xC8E SWAP1 PUSH2 0x1673 JUMP JUMPDEST DUP1 ISZERO PUSH2 0xCDB JUMPI DUP1 PUSH1 0x1F LT PUSH2 0xCB0 JUMPI PUSH2 0x100 DUP1 DUP4 SLOAD DIV MUL DUP4 MSTORE SWAP2 PUSH1 0x20 ADD SWAP2 PUSH2 0xCDB JUMP JUMPDEST DUP3 ADD SWAP2 SWAP1 PUSH1 0x0 MSTORE PUSH1 0x20 PUSH1 0x0 KECCAK256 SWAP1 JUMPDEST DUP2 SLOAD DUP2 MSTORE SWAP1 PUSH1 0x1 ADD SWAP1 PUSH1 0x20 ADD DUP1 DUP4 GT PUSH2 0xCBE JUMPI DUP3 SWAP1 SUB PUSH1 0x1F AND DUP3 ADD SWAP2 JUMPDEST POP POP POP POP POP DUP2 MSTORE PUSH1 0x20 ADD PUSH1 0x6 DUP3 ADD SLOAD DUP2 MSTORE PUSH1 0x20 ADD PUSH1 0x7 DUP3 ADD DUP1 SLOAD PUSH2 0xCFE SWAP1 PUSH2 0x1673 JUMP JUMPDEST DUP1 PUSH1 0x1F ADD PUSH1 0x20 DUP1 SWAP2 DIV MUL PUSH1 0x20 ADD PUSH1 0x40 MLOAD SWAP1 DUP2 ADD PUSH1 0x40 MSTORE DUP1 SWAP3 SWAP2 SWAP1 DUP2 DUP2 MSTORE PUSH1 0x20 ADD DUP3 DUP1 SLOAD PUSH2 0xD2A SWAP1 PUSH2 0x1673 JUMP JUMPDEST DUP1 ISZERO PUSH2 0xD77 JUMPI DUP1 PUSH1 0x1F LT PUSH2 0xD4C JUMPI PUSH2 0x100 DUP1 DUP4 SLOAD DIV MUL DUP4 MSTORE SWAP2 PUSH1 0x20 ADD SWAP2 PUSH2 0xD77 JUMP JUMPDEST DUP3 ADD SWAP2 SWAP1 PUSH1 0x0 MSTORE PUSH1 0x20 PUSH1 0x0 KECCAK256 SWAP1 JUMPDEST DUP2 SLOAD DUP2 MSTORE SWAP1 PUSH1 0x1 ADD SWAP1 PUSH1 0x20 ADD DUP1 DUP4 GT PUSH2 0xD5A JUMPI DUP3 SWAP1 SUB PUSH1 0x1F AND DUP3 ADD SWAP2 JUMPDEST POP POP POP POP POP DUP2 MSTORE POP POP SWAP2 POP POP SWAP2 SWAP1 POP JUMP JUMPDEST PUSH1 0x1 DUP1 PUSH1 0x0 DUP4 DUP2 MSTORE PUSH1 0x20 ADD SWAP1 DUP2 MSTORE PUSH1 0x20 ADD PUSH1 0x0 KECCAK256 PUSH1 0x0 PUSH2 0x100 EXP DUP2 SLOAD DUP2 PUSH1 0xFF MUL NOT AND SWAP1 DUP4 ISZERO ISZERO MUL OR SWAP1 SSTORE POP POP JUMP JUMPDEST PUSH1 0x1 PUSH1 0x20 MSTORE DUP1 PUSH1 0x0 MSTORE PUSH1 0x40 PUSH1 0x0 KECCAK256 PUSH1 0x0 SWAP2 POP SLOAD SWAP1 PUSH2 0x100 EXP SWAP1 DIV PUSH1 0xFF AND DUP2 JUMP JUMPDEST PUSH1 0x40 MLOAD DUP1 PUSH2 0x100 ADD PUSH1 0x40 MSTORE DUP1 PUSH1 0x0 DUP1 NOT AND DUP2 MSTORE PUSH1 0x20 ADD PUSH1 0x0 DUP2 MSTORE PUSH1 0x20 ADD PUSH1 0x0 DUP2 MSTORE PUSH1 0x20 ADD PUSH1 0x0 PUSH20 0xFFFFFFFFFFFFFFFFFFFFFFFFFFFFFFFFFFFFFFFF AND DUP2 MSTORE PUSH1 0x20 ADD PUSH1 0x0 PUSH20 0xFFFFFFFFFFFFFFFFFFFFFFFFFFFFFFFFFFFFFFFF AND DUP2 MSTORE PUSH1 0x20 ADD PUSH1 0x60 DUP2 MSTORE PUSH1 0x20 ADD PUSH1 0x0 DUP2 MSTORE PUSH1 0x20 ADD PUSH1 0x60 DUP2 MSTORE POP SWAP1 JUMP JUMPDEST PUSH1 0x0 PUSH1 0x40 MLOAD SWAP1 POP SWAP1 JUMP JUMPDEST PUSH1 0x0 DUP1 REVERT JUMPDEST PUSH1 0x0 DUP1 REVERT JUMPDEST PUSH1 0x0 DUP2 SWAP1 POP SWAP2 SWAP1 POP JUMP JUMPDEST PUSH2 0xE71 DUP2 PUSH2 0xE5E JUMP JUMPDEST DUP2 EQ PUSH2 0xE7C JUMPI PUSH1 0x0 DUP1 REVERT JUMPDEST POP JUMP JUMPDEST PUSH1 0x0 DUP2 CALLDATALOAD SWAP1 POP PUSH2 0xE8E DUP2 PUSH2 0xE68 JUMP JUMPDEST SWAP3 SWAP2 POP POP JUMP JUMPDEST PUSH1 0x0 DUP1 PUSH1 0x40 DUP4 DUP6 SUB SLT ISZERO PUSH2 0xEAB JUMPI PUSH2 0xEAA PUSH2 0xE54 JUMP JUMPDEST JUMPDEST PUSH1 0x0 PUSH2 0xEB9 DUP6 DUP3 DUP7 ADD PUSH2 0xE7F JUMP JUMPDEST SWAP3 POP POP PUSH1 0x20 PUSH2 0xECA DUP6 DUP3 DUP7 ADD PUSH2 0xE7F JUMP JUMPDEST SWAP2 POP POP SWAP3 POP SWAP3 SWAP1 POP JUMP JUMPDEST PUSH1 0x0 DUP2 SWAP1 POP SWAP2 SWAP1 POP JUMP JUMPDEST PUSH2 0xEE7 DUP2 PUSH2 0xED4 JUMP JUMPDEST DUP3 MSTORE POP POP JUMP JUMPDEST PUSH1 0x0 PUSH1 0x20 DUP3 ADD SWAP1 POP PUSH2 0xF02 PUSH1 0x0 DUP4 ADD DUP5 PUSH2 0xEDE JUMP JUMPDEST SWAP3 SWAP2 POP POP JUMP JUMPDEST PUSH2 0xF11 DUP2 PUSH2 0xED4 JUMP JUMPDEST DUP2 EQ PUSH2 0xF1C JUMPI PUSH1 0x0 DUP1 REVERT JUMPDEST POP JUMP JUMPDEST PUSH1 0x0 DUP2 CALLDATALOAD SWAP1 POP PUSH2 0xF2E DUP2 PUSH2 0xF08 JUMP JUMPDEST SWAP3 SWAP2 POP POP JUMP JUMPDEST PUSH1 0x0 DUP1 REVERT JUMPDEST PUSH1 0x0 PUSH1 0x1F NOT PUSH1 0x1F DUP4 ADD AND SWAP1 POP SWAP2 SWAP1 POP JUMP JUMPDEST PUSH32 0x4E487B7100000000000000000000000000000000000000000000000000000000 PUSH1 0x0 MSTORE PUSH1 0x41 PUSH1 0x4 MSTORE PUSH1 0x24 PUSH1 0x0 REVERT JUMPDEST PUSH2 0xF82 DUP3 PUSH2 0xF39 JUMP JUMPDEST DUP2 ADD DUP2 DUP2 LT PUSH8 0xFFFFFFFFFFFFFFFF DUP3 GT OR ISZERO PUSH2 0xFA1 JUMPI PUSH2 0xFA0 PUSH2 0xF4A JUMP JUMPDEST JUMPDEST DUP1 PUSH1 0x40 MSTORE POP POP POP JUMP JUMPDEST PUSH1 0x0 PUSH2 0xFB4 PUSH2 0xE4A JUMP JUMPDEST SWAP1 POP PUSH2 0xFC0 DUP3 DUP3 PUSH2 0xF79 JUMP JUMPDEST SWAP2 SWAP1 POP JUMP JUMPDEST PUSH1 0x0 DUP1 REVERT JUMPDEST PUSH1 0x0 PUSH20 0xFFFFFFFFFFFFFFFFFFFFFFFFFFFFFFFFFFFFFFFF DUP3 AND SWAP1 POP SWAP2 SWAP1 POP JUMP JUMPDEST PUSH1 0x0 PUSH2 0xFF5 DUP3 PUSH2 0xFCA JUMP JUMPDEST SWAP1 POP SWAP2 SWAP1 POP JUMP JUMPDEST PUSH2 0x1005 DUP2 PUSH2 0xFEA JUMP JUMPDEST DUP2 EQ PUSH2 0x1010 JUMPI PUSH1 0x0 DUP1 REVERT JUMPDEST POP JUMP JUMPDEST PUSH1 0x0 DUP2 CALLDATALOAD SWAP1 POP PUSH2 0x1022 DUP2 PUSH2 0xFFC JUMP JUMPDEST SWAP3 SWAP2 POP POP JUMP JUMPDEST PUSH1 0x0 DUP1 REVERT JUMPDEST PUSH1 0x0 DUP1 REVERT JUMPDEST PUSH1 0x0 PUSH8 0xFFFFFFFFFFFFFFFF DUP3 GT ISZERO PUSH2 0x104D JUMPI PUSH2 0x104C PUSH2 0xF4A JUMP JUMPDEST JUMPDEST PUSH2 0x1056 DUP3 PUSH2 0xF39 JUMP JUMPDEST SWAP1 POP PUSH1 0x20 DUP2 ADD SWAP1 POP SWAP2 SWAP1 POP JUMP JUMPDEST DUP3 DUP2 DUP4 CALLDATACOPY PUSH1 0x0 DUP4 DUP4 ADD MSTORE POP POP POP JUMP JUMPDEST PUSH1 0x0 PUSH2 0x1085 PUSH2 0x1080 DUP5 PUSH2 0x1032 JUMP JUMPDEST PUSH2 0xFAA JUMP JUMPDEST SWAP1 POP DUP3 DUP2 MSTORE PUSH1 0x20 DUP2 ADD DUP5 DUP5 DUP5 ADD GT ISZERO PUSH2 0x10A1 JUMPI PUSH2 0x10A0 PUSH2 0x102D JUMP JUMPDEST JUMPDEST PUSH2 0x10AC DUP5 DUP3 DUP6 PUSH2 0x1063 JUMP JUMPDEST POP SWAP4 SWAP3 POP POP POP JUMP JUMPDEST PUSH1 0x0 DUP3 PUSH1 0x1F DUP4 ADD SLT PUSH2 0x10C9 JUMPI PUSH2 0x10C8 PUSH2 0x1028 JUMP JUMPDEST JUMPDEST DUP2 CALLDATALOAD PUSH2 0x10D9 DUP5 DUP3 PUSH1 0x20 DUP7 ADD PUSH2 0x1072 JUMP JUMPDEST SWAP2 POP POP SWAP3 SWAP2 POP POP JUMP JUMPDEST PUSH1 0x0 PUSH2 0x100 DUP3 DUP5 SUB SLT ISZERO PUSH2 0x10F9 JUMPI PUSH2 0x10F8 PUSH2 0xF34 JUMP JUMPDEST JUMPDEST PUSH2 0x1104 PUSH2 0x100 PUSH2 0xFAA JUMP JUMPDEST SWAP1 POP PUSH1 0x0 PUSH2 0x1114 DUP5 DUP3 DUP6 ADD PUSH2 0xF1F JUMP JUMPDEST PUSH1 0x0 DUP4 ADD MSTORE POP PUSH1 0x20 PUSH2 0x1128 DUP5 DUP3 DUP6 ADD PUSH2 0xE7F JUMP JUMPDEST PUSH1 0x20 DUP4 ADD MSTORE POP PUSH1 0x40 PUSH2 0x113C DUP5 DUP3 DUP6 ADD PUSH2 0xE7F JUMP JUMPDEST PUSH1 0x40 DUP4 ADD MSTORE POP PUSH1 0x60 PUSH2 0x1150 DUP5 DUP3 DUP6 ADD PUSH2 0x1013 JUMP JUMPDEST PUSH1 0x60 DUP4 ADD MSTORE POP PUSH1 0x80 PUSH2 0x1164 DUP5 DUP3 DUP6 ADD PUSH2 0x1013 JUMP JUMPDEST PUSH1 0x80 DUP4 ADD MSTORE POP PUSH1 0xA0 DUP3 ADD CALLDATALOAD PUSH8 0xFFFFFFFFFFFFFFFF DUP2 GT ISZERO PUSH2 0x1188 JUMPI PUSH2 0x1187 PUSH2 0xFC5 JUMP JUMPDEST JUMPDEST PUSH2 0x1194 DUP5 DUP3 DUP6 ADD PUSH2 0x10B4 JUMP JUMPDEST PUSH1 0xA0 DUP4 ADD MSTORE POP PUSH1 0xC0 PUSH2 0x11A8 DUP5 DUP3 DUP6 ADD PUSH2 0xE7F JUMP JUMPDEST PUSH1 0xC0 DUP4 ADD MSTORE POP PUSH1 0xE0 DUP3 ADD CALLDATALOAD PUSH8 0xFFFFFFFFFFFFFFFF DUP2 GT ISZERO PUSH2 0x11CC JUMPI PUSH2 0x11CB PUSH2 0xFC5 JUMP JUMPDEST JUMPDEST PUSH2 0x11D8 DUP5 DUP3 DUP6 ADD PUSH2 0x10B4 JUMP JUMPDEST PUSH1 0xE0 DUP4 ADD MSTORE POP SWAP3 SWAP2 POP POP JUMP JUMPDEST PUSH1 0x0 DUP1 PUSH1 0x40 DUP4 DUP6 SUB SLT ISZERO PUSH2 0x11FB JUMPI PUSH2 0x11FA PUSH2 0xE54 JUMP JUMPDEST JUMPDEST PUSH1 0x0 PUSH2 0x1209 DUP6 DUP3 DUP7 ADD PUSH2 0xF1F JUMP JUMPDEST SWAP3 POP POP PUSH1 0x20 DUP4 ADD CALLDATALOAD PUSH8 0xFFFFFFFFFFFFFFFF DUP2 GT ISZERO PUSH2 0x122A JUMPI PUSH2 0x1229 PUSH2 0xE59 JUMP JUMPDEST JUMPDEST PUSH2 0x1236 DUP6 DUP3 DUP7 ADD PUSH2 0x10E2 JUMP JUMPDEST SWAP2 POP POP SWAP3 POP SWAP3 SWAP1 POP JUMP JUMPDEST PUSH2 0x1249 DUP2 PUSH2 0xED4 JUMP JUMPDEST DUP3 MSTORE POP POP JUMP JUMPDEST PUSH2 0x1258 DUP2 PUSH2 0xE5E JUMP JUMPDEST DUP3 MSTORE POP POP JUMP JUMPDEST PUSH2 0x1267 DUP2 PUSH2 0xFEA JUMP JUMPDEST DUP3 MSTORE POP POP JUMP JUMPDEST PUSH1 0x0 DUP2 MLOAD SWAP1 POP SWAP2 SWAP1 POP JUMP JUMPDEST PUSH1 0x0 DUP3 DUP3 MSTORE PUSH1 0x20 DUP3 ADD SWAP1 POP SWAP3 SWAP2 POP POP JUMP JUMPDEST PUSH1 0x0 JUMPDEST DUP4 DUP2 LT ISZERO PUSH2 0x12A7 JUMPI DUP1 DUP3 ADD MLOAD DUP2 DUP5 ADD MSTORE PUSH1 0x20 DUP2 ADD SWAP1 POP PUSH2 0x128C JUMP JUMPDEST PUSH1 0x0 DUP5 DUP5 ADD MSTORE POP POP POP POP JUMP JUMPDEST PUSH1 0x0 PUSH2 0x12BE DUP3 PUSH2 0x126D JUMP JUMPDEST PUSH2 0x12C8 DUP2 DUP6 PUSH2 0x1278 JUMP JUMPDEST SWAP4 POP PUSH2 0x12D8 DUP2 DUP6 PUSH1 0x20 DUP7 ADD PUSH2 0x1289 JUMP JUMPDEST PUSH2 0x12E1 DUP2 PUSH2 0xF39 JUMP JUMPDEST DUP5 ADD SWAP2 POP POP SWAP3 SWAP2 POP POP JUMP JUMPDEST PUSH1 0x0 PUSH2 0x100 DUP4 ADD PUSH1 0x0 DUP4 ADD MLOAD PUSH2 0x1305 PUSH1 0x0 DUP7 ADD DUP3 PUSH2 0x1240 JUMP JUMPDEST POP PUSH1 0x20 DUP4 ADD MLOAD PUSH2 0x1318 PUSH1 0x20 DUP7 ADD DUP3 PUSH2 0x124F JUMP JUMPDEST POP PUSH1 0x40 DUP4 ADD MLOAD PUSH2 0x132B PUSH1 0x40 DUP7 ADD DUP3 PUSH2 0x124F JUMP JUMPDEST POP PUSH1 0x60 DUP4 ADD MLOAD PUSH2 0x133E PUSH1 0x60 DUP7 ADD DUP3 PUSH2 0x125E JUMP JUMPDEST POP PUSH1 0x80 DUP4 ADD MLOAD PUSH2 0x1351 PUSH1 0x80 DUP7 ADD DUP3 PUSH2 0x125E JUMP JUMPDEST POP PUSH1 0xA0 DUP4 ADD MLOAD DUP5 DUP3 SUB PUSH1 0xA0 DUP7 ADD MSTORE PUSH2 0x1369 DUP3 DUP3 PUSH2 0x12B3 JUMP JUMPDEST SWAP2 POP POP PUSH1 0xC0 DUP4 ADD MLOAD PUSH2 0x137E PUSH1 0xC0 DUP7 ADD DUP3 PUSH2 0x124F JUMP JUMPDEST POP PUSH1 0xE0 DUP4 ADD MLOAD DUP5 DUP3 SUB PUSH1 0xE0 DUP7 ADD MSTORE PUSH2 0x1396 DUP3 DUP3 PUSH2 0x12B3 JUMP JUMPDEST SWAP2 POP POP DUP1 SWAP2 POP POP SWAP3 SWAP2 POP POP JUMP JUMPDEST PUSH1 0x0 PUSH1 0x20 DUP3 ADD SWAP1 POP DUP2 DUP2 SUB PUSH1 0x0 DUP4 ADD MSTORE PUSH2 0x13BD DUP2 DUP5 PUSH2 0x12EC JUMP JUMPDEST SWAP1 POP SWAP3 SWAP2 POP POP JUMP JUMPDEST PUSH1 0x0 PUSH1 0x20 DUP3 DUP5 SUB SLT ISZERO PUSH2 0x13DB JUMPI PUSH2 0x13DA PUSH2 0xE54 JUMP JUMPDEST JUMPDEST PUSH1 0x0 PUSH2 0x13E9 DUP5 DUP3 DUP6 ADD PUSH2 0xF1F JUMP JUMPDEST SWAP2 POP POP SWAP3 SWAP2 POP POP JUMP JUMPDEST PUSH2 0x13FB DUP2 PUSH2 0xE5E JUMP JUMPDEST DUP3 MSTORE POP POP JUMP JUMPDEST PUSH2 0x140A DUP2 PUSH2 0xFEA JUMP JUMPDEST DUP3 MSTORE POP POP JUMP JUMPDEST PUSH1 0x0 DUP3 DUP3 MSTORE PUSH1 0x20 DUP3 ADD SWAP1 POP SWAP3 SWAP2 POP POP JUMP JUMPDEST PUSH1 0x0 PUSH2 0x142C DUP3 PUSH2 0x126D JUMP JUMPDEST PUSH2 0x1436 DUP2 DUP6 PUSH2 0x1410 JUMP JUMPDEST SWAP4 POP PUSH2 0x1446 DUP2 DUP6 PUSH1 0x20 DUP7 ADD PUSH2 0x1289 JUMP JUMPDEST PUSH2 0x144F DUP2 PUSH2 0xF39 JUMP JUMPDEST DUP5 ADD SWAP2 POP POP SWAP3 SWAP2 POP POP JUMP JUMPDEST PUSH1 0x0 PUSH2 0x100 DUP3 ADD SWAP1 POP PUSH2 0x1470 PUSH1 0x0 DUP4 ADD DUP12 PUSH2 0xEDE JUMP JUMPDEST PUSH2 0x147D PUSH1 0x20 DUP4 ADD DUP11 PUSH2 0x13F2 JUMP JUMPDEST PUSH2 0x148A PUSH1 0x40 DUP4 ADD DUP10 PUSH2 0x13F2 JUMP JUMPDEST PUSH2 0x1497 PUSH1 0x60 DUP4 ADD DUP9 PUSH2 0x1401 JUMP JUMPDEST PUSH2 0x14A4 PUSH1 0x80 DUP4 ADD DUP8 PUSH2 0x1401 JUMP JUMPDEST DUP2 DUP2 SUB PUSH1 0xA0 DUP4 ADD MSTORE PUSH2 0x14B6 DUP2 DUP7 PUSH2 0x1421 JUMP JUMPDEST SWAP1 POP PUSH2 0x14C5 PUSH1 0xC0 DUP4 ADD DUP6 PUSH2 0x13F2 JUMP JUMPDEST DUP2 DUP2 SUB PUSH1 0xE0 DUP4 ADD MSTORE PUSH2 0x14D7 DUP2 DUP5 PUSH2 0x1421 JUMP JUMPDEST SWAP1 POP SWAP10 SWAP9 POP POP POP POP POP POP POP POP POP JUMP JUMPDEST PUSH1 0x0 DUP2 ISZERO ISZERO SWAP1 POP SWAP2 SWAP1 POP JUMP JUMPDEST PUSH2 0x14FB DUP2 PUSH2 0x14E6 JUMP JUMPDEST DUP3 MSTORE POP POP JUMP JUMPDEST PUSH1 0x0 PUSH1 0x20 DUP3 ADD SWAP1 POP PUSH2 0x1516 PUSH1 0x0 DUP4 ADD DUP5 PUSH2 0x14F2 JUMP JUMPDEST SWAP3 SWAP2 POP POP JUMP JUMPDEST PUSH1 0x0 PUSH1 0x20 DUP3 DUP5 SUB SLT ISZERO PUSH2 0x1532 JUMPI PUSH2 0x1531 PUSH2 0xE54 JUMP JUMPDEST JUMPDEST PUSH1 0x0 DUP3 ADD CALLDATALOAD PUSH8 0xFFFFFFFFFFFFFFFF DUP2 GT ISZERO PUSH2 0x1550 JUMPI PUSH2 0x154F PUSH2 0xE59 JUMP JUMPDEST JUMPDEST PUSH2 0x155C DUP5 DUP3 DUP6 ADD PUSH2 0x10E2 JUMP JUMPDEST SWAP2 POP POP SWAP3 SWAP2 POP POP JUMP JUMPDEST PUSH1 0x0 DUP2 SWAP1 POP SWAP2 SWAP1 POP JUMP JUMPDEST PUSH2 0x1580 PUSH2 0x157B DUP3 PUSH2 0xE5E JUMP JUMPDEST PUSH2 0x1565 JUMP JUMPDEST DUP3 MSTORE POP POP JUMP JUMPDEST PUSH1 0x0 PUSH2 0x1592 DUP3 DUP6 PUSH2 0x156F JUMP JUMPDEST PUSH1 0x20 DUP3 ADD SWAP2 POP PUSH2 0x15A2 DUP3 DUP5 PUSH2 0x156F JUMP JUMPDEST PUSH1 0x20 DUP3 ADD SWAP2 POP DUP2 SWAP1 POP SWAP4 SWAP3 POP POP POP JUMP JUMPDEST PUSH32 0x54686973206170706F696E746D656E7420736C6F74206973206E6F7420617661 PUSH1 0x0 DUP3 ADD MSTORE PUSH32 0x696C61626C650000000000000000000000000000000000000000000000000000 PUSH1 0x20 DUP3 ADD MSTORE POP JUMP JUMPDEST PUSH1 0x0 PUSH2 0x160E PUSH1 0x26 DUP4 PUSH2 0x1410 JUMP JUMPDEST SWAP2 POP PUSH2 0x1619 DUP3 PUSH2 0x15B2 JUMP JUMPDEST PUSH1 0x40 DUP3 ADD SWAP1 POP SWAP2 SWAP1 POP JUMP JUMPDEST PUSH1 0x0 PUSH1 0x20 DUP3 ADD SWAP1 POP DUP2 DUP2 SUB PUSH1 0x0 DUP4 ADD MSTORE PUSH2 0x163D DUP2 PUSH2 0x1601 JUMP JUMPDEST SWAP1 POP SWAP2 SWAP1 POP JUMP JUMPDEST PUSH32 0x4E487B7100000000000000000000000000000000000000000000000000000000 PUSH1 0x0 MSTORE PUSH1 0x22 PUSH1 0x4 MSTORE PUSH1 0x24 PUSH1 0x0 REVERT JUMPDEST PUSH1 0x0 PUSH1 0x2 DUP3 DIV SWAP1 POP PUSH1 0x1 DUP3 AND DUP1 PUSH2 0x168B JUMPI PUSH1 0x7F DUP3 AND SWAP2 POP JUMPDEST PUSH1 0x20 DUP3 LT DUP2 SUB PUSH2 0x169E JUMPI PUSH2 0x169D PUSH2 0x1644 JUMP JUMPDEST JUMPDEST POP SWAP2 SWAP1 POP JUMP JUMPDEST PUSH1 0x0 DUP2 SWAP1 POP DUP2 PUSH1 0x0 MSTORE PUSH1 0x20 PUSH1 0x0 KECCAK256 SWAP1 POP SWAP2 SWAP1 POP JUMP JUMPDEST PUSH1 0x0 PUSH1 0x20 PUSH1 0x1F DUP4 ADD DIV SWAP1 POP SWAP2 SWAP1 POP JUMP JUMPDEST PUSH1 0x0 DUP3 DUP3 SHL SWAP1 POP SWAP3 SWAP2 POP POP JUMP JUMPDEST PUSH1 0x0 PUSH1 0x8 DUP4 MUL PUSH2 0x1706 PUSH32 0xFFFFFFFFFFFFFFFFFFFFFFFFFFFFFFFFFFFFFFFFFFFFFFFFFFFFFFFFFFFFFFFF DUP3 PUSH2 0x16C9 JUMP JUMPDEST PUSH2 0x1710 DUP7 DUP4 PUSH2 0x16C9 JUMP JUMPDEST SWAP6 POP DUP1 NOT DUP5 AND SWAP4 POP DUP1 DUP7 AND DUP5 OR SWAP3 POP POP POP SWAP4 SWAP3 POP POP POP JUMP JUMPDEST PUSH1 0x0 DUP2 SWAP1 POP SWAP2 SWAP1 POP JUMP JUMPDEST PUSH1 0x0 PUSH2 0x174D PUSH2 0x1748 PUSH2 0x1743 DUP5 PUSH2 0xE5E JUMP JUMPDEST PUSH2 0x1728 JUMP JUMPDEST PUSH2 0xE5E JUMP JUMPDEST SWAP1 POP SWAP2 SWAP1 POP JUMP JUMPDEST PUSH1 0x0 DUP2 SWAP1 POP SWAP2 SWAP1 POP JUMP JUMPDEST PUSH2 0x1767 DUP4 PUSH2 0x1732 JUMP JUMPDEST PUSH2 0x177B PUSH2 0x1773 DUP3 PUSH2 0x1754 JUMP JUMPDEST DUP5 DUP5 SLOAD PUSH2 0x16D6 JUMP JUMPDEST DUP3 SSTORE POP POP POP POP JUMP JUMPDEST PUSH1 0x0 SWAP1 JUMP JUMPDEST PUSH2 0x1790 PUSH2 0x1783 JUMP JUMPDEST PUSH2 0x179B DUP2 DUP5 DUP5 PUSH2 0x175E JUMP JUMPDEST POP POP POP JUMP JUMPDEST JUMPDEST DUP2 DUP2 LT ISZERO PUSH2 0x17BF JUMPI PUSH2 0x17B4 PUSH1 0x0 DUP3 PUSH2 0x1788 JUMP JUMPDEST PUSH1 0x1 DUP2 ADD SWAP1 POP PUSH2 0x17A1 JUMP JUMPDEST POP POP JUMP JUMPDEST PUSH1 0x1F DUP3 GT ISZERO PUSH2 0x1804 JUMPI PUSH2 0x17D5 DUP2 PUSH2 0x16A4 JUMP JUMPDEST PUSH2 0x17DE DUP5 PUSH2 0x16B9 JUMP JUMPDEST DUP2 ADD PUSH1 0x20 DUP6 LT ISZERO PUSH2 0x17ED JUMPI DUP2 SWAP1 POP JUMPDEST PUSH2 0x1801 PUSH2 0x17F9 DUP6 PUSH2 0x16B9 JUMP JUMPDEST DUP4 ADD DUP3 PUSH2 0x17A0 JUMP JUMPDEST POP POP JUMPDEST POP POP POP JUMP JUMPDEST PUSH1 0x0 DUP3 DUP3 SHR SWAP1 POP SWAP3 SWAP2 POP POP JUMP JUMPDEST PUSH1 0x0 PUSH2 0x1827 PUSH1 0x0 NOT DUP5 PUSH1 0x8 MUL PUSH2 0x1809 JUMP JUMPDEST NOT DUP1 DUP4 AND SWAP2 POP POP SWAP3 SWAP2 POP POP JUMP JUMPDEST PUSH1 0x0 PUSH2 0x1840 DUP4 DUP4 PUSH2 0x1816 JUMP JUMPDEST SWAP2 POP DUP3 PUSH1 0x2 MUL DUP3 OR SWAP1 POP SWAP3 SWAP2 POP POP JUMP JUMPDEST PUSH2 0x1859 DUP3 PUSH2 0x126D JUMP JUMPDEST PUSH8 0xFFFFFFFFFFFFFFFF DUP2 GT ISZERO PUSH2 0x1872 JUMPI PUSH2 0x1871 PUSH2 0xF4A JUMP JUMPDEST JUMPDEST PUSH2 0x187C DUP3 SLOAD PUSH2 0x1673 JUMP JUMPDEST PUSH2 0x1887 DUP3 DUP3 DUP6 PUSH2 0x17C3 JUMP JUMPDEST PUSH1 0x0 PUSH1 0x20 SWAP1 POP PUSH1 0x1F DUP4 GT PUSH1 0x1 DUP2 EQ PUSH2 0x18BA JUMPI PUSH1 0x0 DUP5 ISZERO PUSH2 0x18A8 JUMPI DUP3 DUP8 ADD MLOAD SWAP1 POP JUMPDEST PUSH2 0x18B2 DUP6 DUP3 PUSH2 0x1834 JUMP JUMPDEST DUP7 SSTORE POP PUSH2 0x191A JUMP JUMPDEST PUSH1 0x1F NOT DUP5 AND PUSH2 0x18C8 DUP7 PUSH2 0x16A4 JUMP JUMPDEST PUSH1 0x0 JUMPDEST DUP3 DUP2 LT ISZERO PUSH2 0x18F0 JUMPI DUP5 DUP10 ADD MLOAD DUP3 SSTORE PUSH1 0x1 DUP3 ADD SWAP2 POP PUSH1 0x20 DUP6 ADD SWAP5 POP PUSH1 0x20 DUP2 ADD SWAP1 POP PUSH2 0x18CB JUMP JUMPDEST DUP7 DUP4 LT ISZERO PUSH2 0x190D JUMPI DUP5 DUP10 ADD MLOAD PUSH2 0x1909 PUSH1 0x1F DUP10 AND DUP3 PUSH2 0x1816 JUMP JUMPDEST DUP4 SSTORE POP JUMPDEST PUSH1 0x1 PUSH1 0x2 DUP9 MUL ADD DUP9 SSTORE POP POP POP JUMPDEST POP POP POP POP POP POP JUMP JUMPDEST PUSH1 0x0 DUP2 MLOAD SWAP1 POP SWAP2 SWAP1 POP JUMP JUMPDEST PUSH1 0x0 DUP3 DUP3 MSTORE PUSH1 0x20 DUP3 ADD SWAP1 POP SWAP3 SWAP2 POP POP JUMP JUMPDEST PUSH1 0x0 PUSH2 0x1949 DUP3 PUSH2 0x1922 JUMP JUMPDEST PUSH2 0x1953 DUP2 DUP6 PUSH2 0x192D JUMP JUMPDEST SWAP4 POP PUSH2 0x1963 DUP2 DUP6 PUSH1 0x20 DUP7 ADD PUSH2 0x1289 JUMP JUMPDEST PUSH2 0x196C DUP2 PUSH2 0xF39 JUMP JUMPDEST DUP5 ADD SWAP2 POP POP SWAP3 SWAP2 POP POP JUMP JUMPDEST PUSH1 0x0 PUSH1 0x20 DUP3 ADD SWAP1 POP DUP2 DUP2 SUB PUSH1 0x0 DUP4 ADD MSTORE PUSH2 0x1991 DUP2 DUP5 PUSH2 0x193E JUMP JUMPDEST SWAP1 POP SWAP3 SWAP2 POP POP JUMP JUMPDEST PUSH2 0x19A2 DUP2 PUSH2 0x14E6 JUMP JUMPDEST DUP2 EQ PUSH2 0x19AD JUMPI PUSH1 0x0 DUP1 REVERT JUMPDEST POP JUMP JUMPDEST PUSH1 0x0 DUP2 MLOAD SWAP1 POP PUSH2 0x19BF DUP2 PUSH2 0x1999 JUMP JUMPDEST SWAP3 SWAP2 POP POP JUMP JUMPDEST PUSH1 0x0 PUSH1 0x20 DUP3 DUP5 SUB SLT ISZERO PUSH2 0x19DB JUMPI PUSH2 0x19DA PUSH2 0xE54 JUMP JUMPDEST JUMPDEST PUSH1 0x0 PUSH2 0x19E9 DUP5 DUP3 DUP6 ADD PUSH2 0x19B0 JUMP JUMPDEST SWAP2 POP POP SWAP3 SWAP2 POP POP JUMP JUMPDEST PUSH32 0x456D707479204170706F696E746D656E742E2050726570617265206170706F69 PUSH1 0x0 DUP3 ADD MSTORE PUSH32 0x6E746D656E7420616761696E0000000000000000000000000000000000000000 PUSH1 0x20 DUP3 ADD MSTORE POP JUMP JUMPDEST PUSH1 0x0 PUSH2 0x1A4E PUSH1 0x2C DUP4 PUSH2 0x1410 JUMP JUMPDEST SWAP2 POP PUSH2 0x1A59 DUP3 PUSH2 0x19F2 JUMP JUMPDEST PUSH1 0x40 DUP3 ADD SWAP1 POP SWAP2 SWAP1 POP JUMP JUMPDEST PUSH1 0x0 PUSH1 0x20 DUP3 ADD SWAP1 POP DUP2 DUP2 SUB PUSH1 0x0 DUP4 ADD MSTORE PUSH2 0x1A7D DUP2 PUSH2 0x1A41 JUMP JUMPDEST SWAP1 POP SWAP2 SWAP1 POP JUMP INVALID LOG2 PUSH5 0x6970667358 0x22 SLT KECCAK256 CALLDATALOAD 0xAB PUSH17 0xBFF7E2F4E33D4CF21964D53E3EB275CD92 0x24 ADDRESS PUSH5 0x77E4577BF9 PUSH25 0x8474364736F6C634300081100330000000000000000000000 "
				},
				"gasEstimates": {
					"creation": {
						"codeDepositCost": "1368400",
						"executionCost": "1424",
						"totalCost": "1369824"
					},
					"external": {
						"appointmentStatus(bytes32)": "2862",
						"appointments(bytes32)": "infinite",
						"bookAppointment((bytes32,uint256,uint256,address,address,string,uint256,string))": "infinite",
						"cancelAppointment(bytes32)": "24795",
						"checkAvailability(bytes32)": "2889",
						"getAppointment(bytes32)": "infinite",
						"getHashId(uint256,uint256)": "infinite",
						"modifyAppointment(bytes32,(bytes32,uint256,uint256,address,address,string,uint256,string))": "infinite"
					}
				},
				"methodIdentifiers": {
					"appointmentStatus(bytes32)": "fe7ec2d6",
					"appointments(bytes32)": "ad36769b",
					"bookAppointment((bytes32,uint256,uint256,address,address,string,uint256,string))": "dd534bde",
					"cancelAppointment(bytes32)": "e6ab0f59",
					"checkAvailability(bytes32)": "c667e4ff",
					"getAppointment(bytes32)": "ce2a18ce",
					"getHashId(uint256,uint256)": "1a0cc30b",
					"modifyAppointment(bytes32,(bytes32,uint256,uint256,address,address,string,uint256,string))": "4e01bb35"
				}
			},
			"storageLayout": {
				"storage": [
					{
						"astId": 12,
						"contract": "contracts/AppointmentScheduler.sol:AppointmentScheduler",
						"label": "appointments",
						"offset": 0,
						"slot": "0",
						"type": "t_mapping(t_bytes32,t_struct(AppointmentRecord)208_storage)"
					},
					{
						"astId": 16,
						"contract": "contracts/AppointmentScheduler.sol:AppointmentScheduler",
						"label": "appointmentStatus",
						"offset": 0,
						"slot": "1",
						"type": "t_mapping(t_bytes32,t_bool)"
					},
					{
						"astId": 19,
						"contract": "contracts/AppointmentScheduler.sol:AppointmentScheduler",
						"label": "defaultAppointment",
						"offset": 0,
						"slot": "2",
						"type": "t_struct(AppointmentRecord)208_storage"
					}
				],
				"types": {
					"t_address": {
						"encoding": "inplace",
						"label": "address",
						"numberOfBytes": "20"
					},
					"t_bool": {
						"encoding": "inplace",
						"label": "bool",
						"numberOfBytes": "1"
					},
					"t_bytes32": {
						"encoding": "inplace",
						"label": "bytes32",
						"numberOfBytes": "32"
					},
					"t_mapping(t_bytes32,t_bool)": {
						"encoding": "mapping",
						"key": "t_bytes32",
						"label": "mapping(bytes32 => bool)",
						"numberOfBytes": "32",
						"value": "t_bool"
					},
					"t_mapping(t_bytes32,t_struct(AppointmentRecord)208_storage)": {
						"encoding": "mapping",
						"key": "t_bytes32",
						"label": "mapping(bytes32 => struct Appointment.AppointmentRecord)",
						"numberOfBytes": "32",
						"value": "t_struct(AppointmentRecord)208_storage"
					},
					"t_string_storage": {
						"encoding": "bytes",
						"label": "string",
						"numberOfBytes": "32"
					},
					"t_struct(AppointmentRecord)208_storage": {
						"encoding": "inplace",
						"label": "struct Appointment.AppointmentRecord",
						"members": [
							{
								"astId": 193,
								"contract": "contracts/AppointmentScheduler.sol:AppointmentScheduler",
								"label": "id",
								"offset": 0,
								"slot": "0",
								"type": "t_bytes32"
							},
							{
								"astId": 195,
								"contract": "contracts/AppointmentScheduler.sol:AppointmentScheduler",
								"label": "appointmentDate",
								"offset": 0,
								"slot": "1",
								"type": "t_uint256"
							},
							{
								"astId": 197,
								"contract": "contracts/AppointmentScheduler.sol:AppointmentScheduler",
								"label": "appointmentTime",
								"offset": 0,
								"slot": "2",
								"type": "t_uint256"
							},
							{
								"astId": 199,
								"contract": "contracts/AppointmentScheduler.sol:AppointmentScheduler",
								"label": "patientAddress",
								"offset": 0,
								"slot": "3",
								"type": "t_address"
							},
							{
								"astId": 201,
								"contract": "contracts/AppointmentScheduler.sol:AppointmentScheduler",
								"label": "doctorAddress",
								"offset": 0,
								"slot": "4",
								"type": "t_address"
							},
							{
								"astId": 203,
								"contract": "contracts/AppointmentScheduler.sol:AppointmentScheduler",
								"label": "reminderMethod",
								"offset": 0,
								"slot": "5",
								"type": "t_string_storage"
							},
							{
								"astId": 205,
								"contract": "contracts/AppointmentScheduler.sol:AppointmentScheduler",
								"label": "reminderBeforeInMins",
								"offset": 0,
								"slot": "6",
								"type": "t_uint256"
							},
							{
								"astId": 207,
								"contract": "contracts/AppointmentScheduler.sol:AppointmentScheduler",
								"label": "message",
								"offset": 0,
								"slot": "7",
								"type": "t_string_storage"
							}
						],
						"numberOfBytes": "256"
					},
					"t_uint256": {
						"encoding": "inplace",
						"label": "uint256",
						"numberOfBytes": "32"
					}
				}
			},
			"userdoc": {
				"kind": "user",
				"methods": {},
				"version": 1
			}
		}
	}
}